:100000000C9437030C946D030C946D030C946D03E6
:100010000C946D030C946D030C946D030C946D03A0
:100020000C946D030C946D030C946D030C946D0390
:100030000C946D030C946D030C946D030C946D0380
:100040000C946D030C946D030C946D030C946D0370
:100050000C946D030C946D030C94B2110C946D030D
:100060000C946D030C94C4210C946D030C946D03DB
:100070000C9422220C946D030C946D030C946D036C
:100080000C946D030C946D030C946D030C946D0330
:100090000C946D030C946D030C946D030C946D0320
:1000A0000C946D030C946D030C946D030C946D0310
:1000B0000C946D030C946D030C946D030C946D0300
:1000C0000C946D030C946D030C946D030C946D03F0
:1000D0000C946D030C946D030C946D030C946D03E0
:1000E0000C946D030C946D030C943C230C946D03E1
:1000F0000C946D030C946D030C946D030C946D03C0
:100100000C946D030C946D030C946D030C946D03AF
:100110000C946D030C946D030C946D030C946D039F
:100120000C946D030C946D030C946D030C946D038F
:100130000C946D030C946D030C946D030C946D037F
:100140000C946D030C946D030C946D030C946D036F
:100150000C946D030C946D030C946D030C946D035F
:100160000C9480220C946D030C946D030C94DE228D
:100170000C946D030C946D030C946D030C946D033F
:100180000C946D030C946D030C946D030C946D032F
:100190000C946D030C946D030C946D030C946D031F
:1001A0000C946D030C946D030C946D030C946D030F
:1001B0000C946D030C946D030C946D030C946D03FF
:1001C0000C946D030C946D030C946D030C946D03EF
:1001D0000C946D030C946D030C946D030C946D03DF
:1001E0000C946D030C946D030C946D030C946D03CF
:1001F0000C946D030C946D030C946D03731F761FA8
:10020000791F7C1F7F1F821F841F951F9D1FA71FA3
:10021000A51F0C946A250C943B210C9431240C945A
:100220009E1C0C94BC1C0C9410250C94A51F0C94C3
:1002300034030C94B6230C941D1F0C945B090C948E
:10024000280A0C944D050C9458250C948E250C947A
:10025000F1040C948B240C9428250C94A1050C9487
:10026000EF090C9416090C9405090C9462050C9482
:100270009A230C943A260C9477050C94A71F0C949F
:10028000DD090C940D040C94A6240C943D240C94CC
:100290007F1F0C9454040C94821F0C94EC030C9458
:1002A0009B090C9492140C948F030C94A1230C942E
:1002B0000F090C94731F0C94FA080C94951F0C945E
:1002C00040250C94E0240C947F240C9403040C949B
:1002D000181F0C94541B0C940A240C948E0D0C942F
:1002E0007C250C9400240C94DF0B0C94B1070C9427
:1002F0009B040C94F5230C9416240C941B1F0C9453
:10030000841F0C944F090C94BA030C9428210C946C
:1003100002210C94D2230C9423050C947C1F0C9482
:10032000161F0C94C8230C947F1E0C94B7240C94B5
:10033000C71C0C94761F0C94BD230C94F9030C94E9
:10034000CB040C94CF240C941B0A0C942B090C9412
:10035000F8240C94D9230C94E4230C948C050C946D
:100360006F030C949D1F0C9458240C940E050C9450
:100370001E1F0C94AC230C9406050C9484090C9459
:1003800037090C940A050C9438050C94F3080C9466
:10039000B3090C94DE200C940E0A0C9421090C94E1
:1003A000791F0C9464240C9473090C94CB090C945D
:1003B0007A030C94EE232C20544343304343413DB5
:1003C000002F002C204865617020667265653A2018
:1003D0000054696D653A20004E6F7620323320322A
:1003E000303138004D4534303520626173652072FC
:1003F0006164696F2070726F6772616D2056302E74
:1004000034200020202020683A20202048414C50F1
:10041000210020202020653A202020457869742082
:10042000636F6D6D616E64206D6F646500202020C8
:1004300020733A202020537461636B2064756D70C3
:1004400020666F72207461736B7300202020207609
:100450003A20202056657273696F6E20616E6420A9
:10046000736574757020696E666F726D6174696F03
:100470006E00202020206E3A20202053686F7720C5
:100480007468652074696D65207269676874206E90
:100490006F77002020496E20636F6D6D616E642060
:1004A0006D6F6465206F6E6C793A00202043746C28
:1004B0002D413A20456E74657220636F6D6D616EDB
:1004C00064206D6F646500202043746C2D433A20D6
:1004D0005265736574207468652041565200206827
:1004E000656C70004D453430352062617365207253
:1004F0006164696F2070726F6772616D2056302E73
:100500003420001B5B33306D001B5B34366D0049BB
:100510006C6C6567616C2073746174652120526531
:1005200073657474696E6720415652003A57544699
:100530003F004578697420636F6D6D616E64206D56
:100540006F646500526573657474696E6720415607
:1005500052005072657373204374726C2D41206693
:100560006F7220636F6D6D616E64206D6F646500E6
:10057000526573657474696E67004552524F52201C
:10058000696E207461736B20004552524F52206394
:1005900072656174696E67207461736B20002C2032
:1005A000737461636B20617420307800206372651E
:1005B00061746564005461736B20001B5B32326DA3
:1005C000005461736B3A20001B5B316D001B5B3282
:1005D000326D005461736B3A2049444C45001B5BFB
:1005E000316D000909002F0049444C4509093009C3
:1005F0002D0900092D2D2D2D00092D2D2D2D2D2DF1
:100600002D2D2D2D002D2D2D2D09092D2D2D2D09B3
:100610002D2D2D2D2D000952756E73000946726522
:10062000652F546F74616C004E616D6509095072DD
:10063000692E0953746174650009537461636B001A
:100640005461736B09092020092000090009002F5B
:1006500000090009001B5B32326D001B5B316D002D
:100660001B5B316D002020000E94EC193A261124FA
:100670001FBECFEFCDBFDFE3DEBF00E00CBF18BE73
:1006800019BE1ABE1BBE12E2A0E0B0E2ECE5FFE428
:1006900000E00BBF02C007900D92A031B107D9F75F
:1006A0001BBE22E3A0E1B2E201C01D92AE3DB20743
:1006B000E1F713E0C7E3D3E000E006C021970109AA
:1006C000802FFE010E940827C633D10780E008076B
:1006D000A9F70E94B5250C94AC270C940000BC012E
:1006E0006E5F7F4FDC01ED91FC910084F185E02D80
:1006F00019950895CF93DF93EC01E881F981048087
:10070000F581E02D1995BE01635F7F4FEA8DFB8D6A
:10071000808191810E942907DF91CF910895EF9206
:10072000FF920F93CF93DF93EC017C0182E0E80E00
:10073000F11CE881F9810084F185E02DB701CE013B
:100740001995288539854A855B85BE01625E7F4F94
:1007500000E08E819F810E94CF12EA8DFB8DB70150
:10076000828193810E946207DF91CF910F91FF9068
:10077000EF900895CF92DF92EF92FF920F93CF9375
:10078000DF93EC017B016C018DE0C80ED11CE88188
:10079000F9810084F185E02DB601CE0119952B89F0
:1007A0003C894D895E89BE01635E7F4F00E0898987
:1007B0009A890E94CF12D701ED91FC910190F081AE
:1007C000E02DB601C7011995DF91CF910F91FF90F0
:1007D000EF90DF90CF900895CB010E94C80B089551
:1007E000FC01648F862F880F858F682F6160668F6C
:1007F0000895DC011796ED91FC9118970480F5811E
:10080000E02D84810895DC011796ED91FC911897F5
:100810000480F581E02D848108950F931F93CF9379
:10082000DF931F921F92CDB7DEB78C01DC011996C2
:100830008D919C911A9789839A8389819A810197D6
:1008400089839A83892B59F0D8011796ED91FC91F1
:1008500018970480F581E02D848186FFEECFD801C2
:10086000ED91FC910280F381E02DC8011995D8012A
:100870001796ED91FC9118970480F581E02D848105
:1008800084FD08C0848186FF05C012968D919C91DD
:10089000139703C0F801848195810F900F90DF9129
:1008A000CF911F910F9108950F931F93CF93DF93D3
:1008B0001F921F92CDB7DEB78C01DC0119968D9186
:1008C0009C911A9789839A8389819A810197898358
:1008D0009A83892B59F0D8011796ED91FC911897BE
:1008E0000480F581E02D8481882374F7D801ED918F
:1008F000FC910280F381E02DC8011995D80117966B
:10090000ED91FC9118970480F581E02D848184FDA0
:1009100008C0848188232CF412968D919C911397A2
:1009200003C0F801848195810F900F90DF91CF91E2
:100930001F910F910895EF92FF920F931F93CF9302
:10094000DF938C01EB01E881F981008CF18DE02DC2
:10095000CB0119958823A9F0E881F9810284F385F8
:10096000E02DE12CF12CB701CE011995D801179695
:10097000ED91FC9118970480F581E02DD7018C91C1
:100980008783F80182819381DF91CF911F910F912D
:10099000FF90EF9008950F931F93CF93DF931F92D3
:1009A000CDB7DEB78C01CB01D8011796ED91FC9144
:1009B00018970480F581E02D27812983DB01ED91D3
:1009C000FC910190F081E02DBE016F5F7F4F199582
:1009D000F801828193810F90DF91CF911F910F9148
:1009E0000895CF93DF93EC01CB01DB01ED91FC91F6
:1009F0000488F589E02D1995882319F08A819B8157
:100A000002C08C819D81DF91CF910895FC0182818C
:100A100093810895FC01828193810895CF93DF93A0
:100A2000DC011796ED91FC911897C681D78164E19E
:100A300070E2CE010E942D1F66E0CE010E94641F6D
:100A4000DF91CF910895CF93DF93DC011796ED915D
:100A5000FC911897C681D7816AE170E2CE010E94AD
:100A60002D1F66E0CE010E94641FDF91CF91089593
:100A7000CF93DF93DC011796ED91FC911897C68117
:100A8000D7816FE170E2CE010E942D1F66E0CE019A
:100A90000E94641FDF91CF910895CF93DF93DC0113
:100AA0001796ED91FC911897C681D78168E270E2A4
:100AB000CE010E942D1F66E0CE010E94641FDF91CF
:100AC000CF910895CF93DF93DC011796ED91FC91C0
:100AD0001897C681D78161E370E2CE010E942D1F75
:100AE00066E0CE010E94641FDF91CF910895CF93FD
:100AF000DF93DC011796ED91FC911897C681D781A1
:100B00006CE370E2CE010E942D1F66E0CE010E94D0
:100B1000641FDF91CF910895CF93DF93DC01179687
:100B2000ED91FC911897C681D78167E470E2CE0100
:100B30000E942D1F66E0CE010E94641FDF91CF91BD
:100B400008950F931F93CF93DF938C01EB01E881FE
:100B5000F981048CF58DE02DCB0119952A8530E0C3
:100B60008217930779F4D8011796ED91FC911897A5
:100B70000480F581E02D87E0838312968D919C910E
:100B800013970EC0D8011796ED91FC911897048029
:100B9000F581E02D82E0838314968D919C911597C9
:100BA000DF91CF911F910F910895CF92DF92EF9235
:100BB000FF920F931F93CF93DF93EC018B016A0198
:100BC000688379834A835B838BE090E00E94791E7F
:100BD0007C01FC01168280E990E280839183078387
:100BE0001087C186D286F801C680D7806DE470E296
:100BF000C6010E942D1FB601C6010E94C31F66E0F8
:100C00000E94641FEE82FF828BE090E00E94791EBA
:100C1000FC018D899E89168228E930E22083318388
:100C20000783108781879287E887F98789E090E0BA
:100C30000E94791EFC01168288EA90E280839183EB
:100C400007831087EA87FB8789E090E00E94791E7E
:100C5000FC01168288EB90E28083918307831087E2
:100C6000EC87FD8789E090E00E94791EFC011682E6
:100C700080ED90E28083918307831087EE87FF8762
:100C800089E090E00E94791EFC01168288EC90E2D7
:100C90008083918307831087E88BF98B80E197E24B
:100CA0008D8B9E8B88859985EE81FF8182839383CE
:100CB000848395838E859F852A853B85E885F98584
:100CC00022833383848395838C859D85EA85FB8588
:100CD000828393838483958388859985288939893C
:100CE000EC85FD852283338384839583DF91CF91C7
:100CF0001F910F91FF90EF90DF90CF900895CF92CA
:100D0000DF92EF92FF920F931F93CF93DF93EC014B
:100D10008B016A01688379834A835B838BE090E06F
:100D20000E94791E7C01FC01168280E990E280839A
:100D3000918307831087C186D286F801C680D78049
:100D40006DE470E2C6010E942D1FB601C6010E942B
:100D5000C31F66E00E94641FEE82FF828BE090E07A
:100D60000E94791EFC018D899E89168220EA30E25C
:100D7000208331830783108781879287E887F987EB
:100D800089E090E00E94791EFC01168280EB90E2DF
:100D90008083918307831087EA87FB8789E090E04F
:100DA0000E94791EFC01168280EC90E28083918380
:100DB00007831087EC87FD8789E090E00E94791E09
:100DC000FC01168280ED90E2808391830783108777
:100DD000EE87FF8789E090E00E94791EFC01168271
:100DE00088EC90E28083918307831087E88BF98BEE
:100DF00080E197E28D8B9E8B88859985EE81FF81BE
:100E000082839383848395838E859F852A853B8502
:100E1000E885F98522833383848395838C859D853A
:100E2000EA85FB858283938384839583888599856E
:100E300028893989EC85FD852283338384839583D2
:100E4000DF91CF911F910F91FF90EF90DF90CF90A6
:100E500008950F931F93CF93DF93EC018E819F81B1
:100E60008C839D832889398982179307E9F08B0148
:100E70004E855F858417950731F418C04E855F85D0
:100E800048175907A1F0DC01ED91FC910190F08128
:100E9000E02DB80119958C839D83288939892817FD
:100EA000390761F79C0103C0C90101C0CA0141E0D3
:100EB0008217930709F040E0842FDF91CF911F91B3
:100EC0000F9108950F931F93CF93DF93EC018B0144
:100ED0008E819F818C839D8328893989821793070E
:100EE000D1F02E853F858217930731F414C02E85EB
:100EF0003F852817390779F0DC01ED91FC910190CD
:100F0000F081E02DB80119958C839D83288939895A
:100F10002817390761F7C801DF91CF911F910F9111
:100F20000895CF93DF93EC019A01AB01220F331F99
:100F3000441F551F60E078E488EE91E00E94C726C8
:100F400025502A87EC81FD812583DF91CF9108957B
:100F5000DC011496ED91FC91159783818160838368
:100F600008950F931F93CF93DF93EC01CB01DB0127
:100F7000ED91FC910284F385E02D00E010E0B801D2
:100F800019958F8198850E94A807EF81F8850480C4
:100F9000F581E02DD8018C9186838A819B81DF9138
:100FA000CF911F910F910895FF920F931F93CF93AD
:100FB000DF931F921F92CDB7DEB78C01F62E84EF20
:100FC00091E089839A83C8010E94A807D8011496EA
:100FD000ED91FC911597FF0CF68289819A8101971A
:100FE00089839A83892B41F0D8011496ED91FC9165
:100FF0001597848184FDF1CF29813A8181E0232BEB
:1010000009F480E00F900F90DF91CF911F910F9125
:10101000FF9008958F929F92AF92BF92CF92DF92EE
:10102000EF92FF920F931F93CF93DF931F921F9224
:10103000CDB7DEB78C01DD24D394B12C0F2EF4E6AE
:10104000EF2EF12CF02D0F2EF7E0CF2EF02DE982B0
:10105000FA82C8010E94A807D8011496ED91FC916C
:1010600015978D2D880F868389819A8101978983B1
:101070009A83892B89F1D8011496ED91FC911597EB
:10108000848184FDF1CF28C0D8011496ED91FC91A4
:101090001597A68016968D909C90179766E670E23D
:1010A000C4010E942D1F6A2DC4010E945E2066E0CB
:1010B0000E94641FF801EB0DF11DD786B394D8018F
:1010C0001496ED91FC911597C382D394B0E8DB128E
:1010D000BECFC8010F9605C089819A81892B79F30B
:1010E000D3CF0F900F90DF91CF911F910F91FF9071
:1010F000EF90DF90CF90BF90AF909F908F9008952A
:10110000EF92FF920F931F93CF93DF93EC017B013C
:10111000BA01A901EC82FD820E831F834B875C8795
:101120006D877E8780E8E81684E0F80629F480E47D
:1011300096E08887998709C0E0EAEE16E4E0FE06AB
:1011400021F480E896E088879987E885F98583E02F
:101150008183E885F98588E3808BE885F985818B33
:1011600082E0F7018283CE010E949107F70184811A
:101170008D6C848388E0818387E190E00E94791EF2
:101180007C01A801BE010E94D505E882F98288E1B0
:1011900090E00E94791E7C01A801BE010E947F069A
:1011A000EA82FB82CE010E940A086DE1CE010E9414
:1011B000D407682FC8010E94AB1F66E00E94641F1D
:1011C0000E80DF81C02D6AE770E2CE010E942D1FE4
:1011D00066E0CE010E94641FDF91CF911F910F91B5
:1011E000FF90EF900895FC01848195810E948F14F7
:1011F00090E00895FC01848195810E948F1491E014
:10120000811101C090E0892F0895FC0184819581AE
:101210000E948F1491E0811190E0892F0895FC01C4
:10122000848195810E94871490E00895FC01848157
:1012300095810E94871491E0811101C090E0892F6F
:101240000895FC01848195810E94871491E08111A9
:1012500090E0892F08950F9301E02FEF3FEFA90150
:10126000FC01848195810E9496130F9108950F933C
:10127000CF93DF931F92CDB7DEB701E02FEF3FEFA3
:10128000A901BE016F5F7F4FFC01848195810E949F
:10129000961389810F90DF91CF910F9108950F934D
:1012A00000E02FEF3FEFA901FC01848195810E94AE
:1012B00096130F9108950F93CF93DF931F92CDB79D
:1012C000DEB700E02FEF3FEFA901BE016F5F7F4F58
:1012D000FC01848195810E94961389810F90DF9192
:1012E000CF910F910895CF93DF931F92CDB7DEB7C3
:1012F000AE014F5F5F4FFC01848195810E945A14BB
:101300000F90DF91CF910895CF93DF931F921F929B
:10131000CDB7DEB7AE014E5F5F4FBE016F5F7F4F4F
:10132000FC01848195810E945A1489810F900F904D
:10133000DF91CF910895CF93DF931F92CDB7DEB7A2
:10134000198221E0AE014F5F5F4FFC0184819581DE
:101350000E946A1391E0811101C090E0892F0F90E3
:10136000DF91CF910895CF93DF931F92CDB7DEB772
:10137000198220E0AE014F5F5F4FFC0184819581AF
:101380000E946A1391E0811101C090E0892F0F90B3
:10139000DF91CF9108950F93FC012681378140851D
:1013A000518501E0848195810E94CF1291E08111E5
:1013B00001C090E0892F0F9108950F93FC012681C1
:1013C00037814085518500E0848195810E94CF124C
:1013D00091E0811101C090E0892F0F9108950F9342
:1013E0001F93CF93DF938C01EB01BC016E5F7F4FA6
:1013F000E881F9810190F081E02DCE011995B801C5
:101400006D5F7F4FE881F9810190F081E02DCE0181
:101410001995DF91CF911F910F910895DB01BC01C8
:101420006E5F7F4FED91FC9111970190F081E02D5F
:10143000CD0119950895DB01BC016E5F7F4FED91E1
:10144000FC9111970190F081E02DCD01199508953F
:10145000DB01BC016E5F7F4FED91FC911197019014
:10146000F081E02DCD01199508954F925F926F9212
:101470007F928F929F92AF92BF92CF92DF92EF9224
:10148000FF920F931F93CF93DF938C017B016A012F
:10149000DC016D937C93119712964D935C93139797
:1014A0008FE190E00E94791EEC0180E291E2888356
:1014B00099831C821D820F2EF8EDAF2EF0E2BF2E15
:1014C000F02DAA82BB8240E061E082E00E94A1127E
:1014D0008E839F830F2EFAE04F2E512C612C712C9E
:1014E000F02D488659866A867B860F2EFCEF8F2E5C
:1014F000F0E29F2EF02D8A829B8282E08C871F86ED
:10150000188AAD86BE8640E061E083E00E94A112A9
:10151000898B9A8B4B8A5C8A6D8A7E8A8D869E86A1
:101520000F2EF3E0BF2EF02DBF8A8AE090E2888371
:101530009983C88ED98EF801C483D58386E090E064
:101540000E94791EFC011082118212821382148281
:101550001582D80116968D939C9317978DE1189656
:101560008C9384E090E00E94791EFC018EE291E26F
:10157000808391838AE28283C1E0C383D8011B9672
:10158000ED93FC931C9783E090E00E94791E24E386
:1015900031E2FC0120833183C283D8011D968D93F3
:1015A0009C931E9783E090E00E94791E2AE331E22B
:1015B000FC0120833183B282D8011F968D939C93C6
:1015C000509783E090E00E94791E20E431E2FC0114
:1015D0002083318325E02283D80151968D939C93FB
:1015E00052971496ED91FC911597E28EF38E189612
:1015F0006C91189714968D919C9115970E94F00309
:10160000DF91CF911F910F91FF90EF90DF90CF90DE
:10161000BF90AF909F908F907F906F905F904F9012
:1016200008951F93CF93DF93EC018C819D816B858F
:101630007C85DC01ED91FC910190F081E02D199504
:101640008C819D816D857E85DC01ED91FC91019001
:10165000F081E02D19958C819D81DC01ED91FC914B
:101660000280F381E02D1995EC01E881F981008475
:10167000F185E02D1995182FE881F9810084F18515
:10168000E02DCE011995212F30E0322F2227A9011C
:10169000482BCA01DF91CF911F9108951F93CF93DB
:1016A000DF93EC018C819D816B857C85DC01ED9164
:1016B000FC910190F081E02D19958C819D816F85C1
:1016C0007889DC01ED91FC910190F081E02D199574
:1016D0008C819D81DC01ED91FC910280F381E02DF4
:1016E0001995EC01E881F9810084F185E02D1995C7
:1016F000182FE881F9810084F185E02DCE0119953C
:10170000212F30E0322F2227A901482BCA01DF9177
:10171000CF911F9108951F93CF93DF93EC018C819C
:101720009D816B857C85DC01ED91FC910190F081C0
:10173000E02D19958C819D8169897A89DC01ED9173
:10174000FC910190F081E02D19958C819D81DC0147
:10175000ED91FC910280F381E02D1995EC01E88177
:10176000F9810084F185E02D1995182FE881F98120
:101770000084F185E02DCE011995212F30E0322F24
:101780002227A901482BCA01DF91CF911F9108950B
:10179000CF93DF93EC01E881F981008CF18DE02D8E
:1017A000CE011995882341F0E881F9810084F18503
:1017B000E02DCE011995EFCFDF91CF910895EC0187
:1017C0008C85811139C08C899D890E94110B7C0107
:1017D0000E811F8162E471E2C8010E942D1FB701D2
:1017E000C8010E94E81F66E00E94641F8C899D89E1
:1017F0000E944E0B7C010E811F8166E471E2C801DC
:101800000E942D1FB701C8010E94E81F66E00E94D8
:10181000641F8C899D890E948B0B7C010E811F8126
:101820006AE471E2C8010E942D1FB701C8010E943D
:10183000E81F66E00E94641F8E859F85A889B9898C
:101840000196A11DB11D8E879F87A88BB98B68EE6D
:1018500073E080E090E00E94CF17B2CFCF92DF928A
:10186000EF92FF920F931F93CF93DF93EC016B01E5
:101870000E94FF1982E591E288839983EC8AFD8AB0
:10188000CE8ADF8ADF91CF911F910F91FF90EF9069
:10189000DF90CF9008950F931F93CF93DF93EC01C8
:1018A0000E94FF198AE591E288839983DF91CF91A5
:1018B0001F910F9108950F931F93CF93DF93EC0126
:1018C0006AE08E819F810E94641F8C0169E075E04F
:1018D0000E942D1F6AE0C8010E94641F8C0163E012
:1018E00075E00E942D1F67E0C8010E94641F6AE036
:1018F0008E819F810E94641F8C0164EE74E00E94BF
:101900002D1F6AE0C8010E94641F8C016EED74E017
:101910000E942D1F66E0C8010E94641F6AE08E814C
:101920009F810E94641F8C0167EC74E00E942D1F50
:1019300066E0C8010E94641F6AE08E819F810E9458
:10194000641F8C016BEA74E00E942D1F66E0C801E1
:101950000E94641F6AE08E819F810E94641F8C0137
:1019600063E974E00E942D1F66E0C8010E94641FB5
:101970006AE08E819F810E94641F8C0162E774E09F
:101980000E942D1F66E0C8010E94641F6AE08E81DC
:101990009F810E94641F8C016BE474E00E942D1FE4
:1019A00066E0C8010E94641F6AE08E819F810E94E8
:1019B000641F8C016DE274E00E942D1F66E0C80177
:1019C0000E94641F6AE08E819F810E94641F8C01C7
:1019D00062E174E00E942D1F66E0C8010E94641F4E
:1019E0006AE08E819F810E94641FEC0163E074E0D5
:1019F0000E942D1F66E0CE010E94641FDF91CF91EF
:101A00001F910F910895AF92BF92CF92DF92EF9204
:101A1000FF920F931F93CF93DF9300D000D0CDB7E9
:101A2000DEB78C0119821A821B821C821D821E82E3
:101A30000E94880F6C01CE0101960E94B01D5C01CE
:101A400066E0F801868197810E94641F6AE00E9427
:101A5000641F7C0164EE73E00E942D1F6AE0C701E1
:101A60000E94641F7C0168ED73E00E942D1F66E0F8
:101A7000C7010E94641F6AE00E94641F7C0161ED3F
:101A800073E00E942D1FB501C7010E94541D6AE03A
:101A90000E94641F7C0163EC73E00E942D1FB6015D
:101AA000C7010E94E81F6AE00E94641F7C0161EC8C
:101AB00073E00E942D1F4FEF5FE060E070E0C70110
:101AC0000E941C20C0902808D09029086AE0F801E4
:101AD000868197810E94641F7C0166EB73E00E94FF
:101AE0002D1FB601C7010E94E81F66E00E94641F17
:101AF00066E00E94641FF801868197810E940D1C98
:101B00002696CDBFDEBFDF91CF911F910F91FF9041
:101B1000EF90DF90CF90BF90AF900895CF93DF9379
:101B200000D000D0CDB7DEB78C0119821A821B829B
:101B30001C821D821E826AE0DC0116968D919C91AA
:101B400017970E94641F7C0162E575E00E942D1FBB
:101B500066E0C7010E94641FF8018485882321F094
:101B6000813009F45DC0D8C086819781DC01ED9198
:101B7000FC910480F581E02D19958823A9F1F801E5
:101B800086819781DC01ED91FC910680F781E02D43
:101B90001995992781309105F9F0039709F0D8C07C
:101BA0006AE0F801868197810E94641F8C0164E4D9
:101BB00075E00E942D1F66E0C8010E94641F93E03B
:101BC00088ED08B618BE84BF909380008091820093
:101BD00081FDFCCF08BEFFCFC8010E945B0C61E015
:101BE000C8010E94FB19B4C08CEC92E30E94BC1C9B
:101BF000882309F4ADC0D8011696ED91FC91179792
:101C00000190F081E02DE280F3808CEC92E30E9461
:101C10009E1C682FF80186819781F701199598C05D
:101C200086819781DC01ED91FC910480F581E02DA6
:101C30001995882309F48CC0F80186819781DC010D
:101C4000ED91FC910680F781E02D19959C013327D9
:101C50002836310559F13CF42B31310559F125363F
:101C6000310541F13BC023373105C1F0263731053D
:101C700089F02E36310591F5CE0101960E94B01DF6
:101C8000BC01F801868197810E94541D66E00E9484
:101C9000641F5EC0C8010E94030D5AC0D801169689
:101CA0008D919C9117970E94141B52C0C8010E94ED
:101CB0005B0C4EC06AE0F801868197810E94641F28
:101CC0007C0162E375E00E942D1F66E0C7010E945F
:101CD000641F60E0C8010E94FB193AC0F801A681A8
:101CE000B781ED91FC9111970280F381E02D682F6F
:101CF000CD0119956AE0D80116968D919C911797A0
:101D00000E94641F7C016CE275E00E942D1F66E05A
:101D1000C7010E94641F1CC06AE0F8018681978198
:101D20000E94641F8C016FE075E00E942D1F66E029
:101D3000C8010E94641F93E088ED08B618BE84BFF6
:101D4000909380008091820081FDFCCF08BEFFCF80
:101D5000F80186859785A089B1890196A11DB11DDD
:101D600086879787A08BB18B68EE73E080E090E068
:101D70000E94CF17F1CE0F931F93CF93DF93EC0107
:101D80000E942B168091102281111DC0A5E1B2E2A4
:101D9000E9E1F2E2ED93FC93119712961D921C92E9
:101DA0001397A1E1B2E28FEF9FE012968D939C937F
:101DB00013971D921C92119782839383A083B18302
:101DC00081E080931022209709F45FC09E012B5F71
:101DD0003F4F2496CE3FDF4008F05AC0E0911522D5
:101DE000F0911622A5E1B2E202C0DF01FC0182817E
:101DF00093818217930720F4808191810097A9F73E
:101E0000C2E2E131FC0709F446C0CD91DC911197A3
:101E10008E010B5F1F4F808191818D939C938281F6
:101E20009381821B930B8B30910510F1BF01620FE0
:101E3000731FDB0112968D939C9313972283338338
:101E400012964D915C91139785E192E201C0CD010C
:101E5000EC01A881B98112962D913C91139724171A
:101E60003507A8F3EB01A883B983DC016D937C935C
:101E7000809100209091012022813381821B930B5D
:101E8000809300209093012008C000E010E005C07E
:101E900000E010E002C000E010E00E944D17C80111
:101EA000DF91CF911F910F9108950F931F93CF93BF
:101EB000DF93009741F1EC018C01055011090E945C
:101EC0002B16F80142815381A5E1B2E201C0DF0186
:101ED000ED91FC9111972281338124173507B8F3D6
:101EE0002597E883F9830D931C932091002030916E
:101EF00001208A819B81820F931F80930020909301
:101F000001200E944D17DF91CF911F910F910895ED
:101F100080910020909101200895FC010396818317
:101F200092834FEF5FEFBA014383548365837683D7
:101F3000878390878187928710820895FC0112869B
:101F400013860895CF93DF93FC01DB012181328159
:101F5000E9018C819D8114968D939C9315978181C5
:101F6000928116968D939C9317978C819D81EC019D
:101F70006E837F83E9016C837D83618372831A960C
:101F8000ED93FC931B9780818F5F8083DF91CF91CE
:101F900008950F931F93CF93DF93EB01088119816D
:101FA0002A813B810F3F4FEF14072407340731F498
:101FB000DC011996ED91FC911A971FC0FC01339634
:101FC000DC0117964D915C911897DA014D915D9166
:101FD0006D917C91041715072607370770F0048070
:101FE000F581E02DA481B5814D915D916D917C913C
:101FF000041715072607370790F7A481B581AC832E
:10200000BD831696CD93DC931797EE83FF83C4832D
:10201000D5838A879B87FC0120812F5F2083DF91F6
:10202000CF911F910F910895FC01A481B581868104
:10203000978116968D939C931797A681B78184817B
:10204000958114968D939C931597A285B3851196CF
:102050008D919C911297E817F90731F48681978149
:1020600011968D939C931297128613868C918150B2
:102070008C9308958093DC329093DD3231E1FC0142
:102080003083319722E220833197A3E3A0833197F5
:102090006083319770833197108231971082319726
:1020A00060E86083319710823197108231971082F7
:1020B000319762E06083319763E06083319764E039
:1020C0006083319765E06083319766E06083319784
:1020D00067E06083319768E06083319769E06083EF
:1020E000319760E1608331973083319732E13083FB
:1020F000319733E13083319734E13083319735E1E3
:102100003083319736E13083319737E1308331972F
:1021100038E13083319739E13083319730E23083D1
:10212000319731E2308331972083319723E2208346
:102130003197408331975083319726E2208331973E
:1021400027E22083319728E22083319729E22083F8
:10215000319720E32083319721E3208389970895E5
:102160008CE7809369088FEF8093680881E0809303
:10217000400891E19093410880934708A0917832FC
:10218000B0917932CD91CDBFDD91DEBFFF91EF915E
:10219000DF91CF91BF91AF919F918F917F916F917F
:1021A0005F914F913F912F911F910F91FF90EF9071
:1021B000DF90CF90BF90AF909F908F907F906F9067
:1021C0005F904F903F902F901F900F900CBE0F90FC
:1021D0000BBE0F900FBE0F90089508950F920FB68B
:1021E000F8940F920BB60F920CB60F921F92112417
:1021F0002F923F924F925F926F927F928F929F9217
:10220000AF92BF92CF92DF92EF92FF920F931F9304
:102210002F933F934F935F936F937F938F939F93EE
:10222000AF93BF93CF93DF93EF93FF93A091783257
:10223000B09179320DB60D920EB60D920E94FD1737
:10224000A0917832B0917932CD91CDBFDD91DEBFD2
:10225000FF91EF91DF91CF91BF91AF919F918F91BE
:102260007F916F915F914F913F912F911F910F91AE
:10227000FF90EF90DF90CF90BF90AF909F908F90A6
:102280007F906F905F904F903F902F901F900F9096
:102290000CBE0F900BBE0F900FBE0F9008950F92C3
:1022A0000FB6F8940F920BB60F920CB60F921F92C6
:1022B00011242F923F924F925F926F927F928F9252
:1022C0009F92AF92BF92CF92DF92EF92FF920F93C5
:1022D0001F932F933F934F935F936F937F938F93AE
:1022E0009F93AF93BF93CF93DF93EF93FF93A0910F
:1022F0007832B09179320DB60D920EB60D920E94E1
:102300004C160E94FD17A0917832B0917932CD9190
:10231000CDBFDD91DEBFFF91EF91DF91CF91BF91F6
:10232000AF919F918F917F916F915F914F913F916D
:102330002F911F910F91FF90EF90DF90CF90BF9062
:10234000AF909F908F907F906F905F904F903F9055
:102350002F901F900F900CBE0F900BBE0F900FBED2
:102360000F9008950E944F111895CF93DF93EC01C1
:1023700088A181110BC088819981892BE1F58A811F
:102380009B810E94B8191A821B8235C0411117C067
:10239000482F50E08C819D810E942B2728A18C81A1
:1023A0009D81820F911D8C839D832A813B818217A1
:1023B000930708F1888199818C839D831CC0482FE5
:1023C00050E08E819F810E942B2788A190E09195FB
:1023D000819591092E813F81280F391F2E833F83DC
:1023E000488159812417350730F42A813B81820FB7
:1023F000931F8E839F838E8D8F5F8E8FDF91CF9102
:102400000895FC01808191810097A1F040A150E0E6
:1024100026813781240F351F26833783A281B3811C
:102420002A173B0710F086839783CB01668177815B
:102430000E942B2708950F931F93CF93DF93EC01F6
:102440000FB6F8940F928AA11816B4F48B898111F3
:1024500005C012C08B89811104C00EC08E010D5EB3
:102460001F4FC8010E94841881110E9441198AA13E
:1024700081508AA3181674F38FEF8AA30F900FBEB2
:102480000FB6F8940F9289A11816B4F488858111BB
:1024900005C012C08885811104C00EC08E01085F7E
:1024A0001F4FC8010E94841881110E94411989A1FF
:1024B000815089A3181674F38FEF89A30F900FBE74
:1024C000DF91CF911F910F9108951F93CF93DF93C9
:1024D000613059F0FC012389308531112CC011E0A5
:1024E000211110E0211128C001C011E0EC01488148
:1024F000598128A130E06F8D629FC001639F900DCC
:102500001124BA01680F791F6A837B831E8E4C8366
:102510005D83821B930B840F951F8E839F838FEFA8
:1025200089A38AA3CE0108960E948D0FCE014396FF
:102530000E948D0F01C010E0812FDF91CF911F917C
:1025400008950F931F93CF93DF93882301F1062FF4
:10255000182F83E290E00E94BB0EEC01892BC9F09A
:10256000109FC001112401960E94BB0E888399839D
:10257000892B39F01F8F08A361E0CE010E946512FC
:1025800008C0CE010E94550FC0E0D0E002C0C0E0FC
:10259000D0E0CE01DF91CF911F910F910895AF92BE
:1025A000BF92CF92DF92EF92FF920F931F93CF9340
:1025B000DF93CDB7DEB72997CDBFDEBF7C015B01CE
:1025C0002E833F834887598710E06C0188E0C80E4E
:1025D000D11C0FB6F8940F92F701968D878D98173E
:1025E000A8F4402FB501C7010E94B511F7018389F6
:1025F000882341F0C70143960E948418813011F46A
:102600000E94EE100F900FBE81E056C08E819F8118
:10261000A885B985892B8A2B8B2B21F40F900FBEAF
:1026200080E04AC0111105C0CE0101960E94C31876
:1026300011E00F900FBE0E942B160FB6F8940F9268
:10264000F70181A18F3F09F411A2F70182A18F3F09
:1026500009F412A20F900FBEBE016A5F7F4FCE0138
:1026600001960E94D418811121C00FB6F8940F92E0
:10267000F701968D0F900FBE878D981311C04E8174
:102680005F8168857985C6010E945A18C7010E943A
:102690001B120E944D1781119CCF0E94EE1099CF02
:1026A000C7010E941B120E944D1793CFC7010E94C1
:1026B0001B120E944D1780E02996CDBFDEBFDF912F
:1026C000CF911F910F91FF90EF90DF90CF90BF902F
:1026D000AF9008950F931F93CF93DF938A01FC016E
:1026E000568D378D5317C0F4422FEC010E94B5115F
:1026F0008AA18F3F69F48B89882381F0CE014396AC
:102700000E948418882361F081E0F801808309C069
:102710008F5F8AA381E005C080E003C081E001C033
:1027200081E0DF91CF911F910F910895AF92BF92F9
:10273000CF92DF92EF92FF920F931F93CF93DF938D
:10274000CDB7DEB72997CDBFDEBF7C015B012E83FD
:102750003F834887598710E06C0183E1C80ED11C84
:102760000FB6F8940F92F701868D882399F1C680F1
:10277000D780B501C7010E94011201111AC0F701EB
:10278000868D8150868F80819181892B29F40E94CA
:102790005E19F70182839383F70180858823B1F066
:1027A000C70108960E948418813081F40E94EE10BF
:1027B0000DC0F701C682D7828389882339F0C7010B
:1027C00043960E94841881110E94EE100F900FBE54
:1027D00081E062C08E819F81A885B985892B8A2B73
:1027E0008B2B21F40F900FBE80E056C0111105C055
:1027F000CE0101960E94C31811E00F900FBE0E94F7
:102800002B160FB6F8940F92F70181A18F3F09F4B0
:1028100011A2F70182A18F3F09F412A20F900FBEFF
:10282000BE016A5F7F4FCE0101960E94D4188111CC
:102830002DC00FB6F8940F92F701868D0F900FBE42
:1028400081111EC080819181892B49F40FB6F894C3
:102850000F92828193810E9463190F900FBE4E8167
:102860005F8168857985C6010E945A18C7010E9458
:102870001B120E944D17811173CF0E94EE1070CF72
:10288000C7010E941B120E944D176ACFC7010E9408
:102890001B120E944D1780E02996CDBFDEBFDF914D
:1028A000CF911F910F91FF90EF90DF90CF90BF904D
:1028B000AF9008950F931F93CF93DF93FC01268D64
:1028C0002223D9F08A01EC010E9401128E8D8150E1
:1028D0008E8F89A18F3F69F48885882381F0CE018E
:1028E00008960E948418882361F081E0F8018083B3
:1028F00009C08F5F89A381E005C080E003C081E04B
:1029000001C081E0DF91CF911F910F9108950FB623
:10291000F8940F92FC01868D0F900FBE0895FC0174
:10292000868D0895CCE4D2E388818230E8F30E945A
:10293000EE10FACFCF92DF92EF92FF926B017C0103
:10294000E0917832F0917932628373838483958346
:102950008091203290912132A0912232B091233285
:10296000C816D906EA06FB0668F4609178327091C1
:10297000793280913232909133326E5F7F4F0E9474
:10298000C90F21C0609178327091793280913432D0
:10299000909135326E5F7F4F0E94C90F8091022067
:1029A00090910320A0910420B0910520C816D9066B
:1029B000EA06FB0640F4C0920220D0920320E09287
:1029C0000420F0920520FF90EF90DF90CF900895C3
:1029D0004F925F926F927F928F929F92AF92BF922F
:1029E000CF92DF92EF92FF920F931F93CF93DF93DB
:1029F0005C014B013A01290188E290E00E94BB0E84
:102A0000EC01892B09F4D4C0C114D10409F0CCC065
:102A1000C3010E94BB0E8B8F9C8F009721F4CE01C7
:102A20000E94550FC5C0A30161E170E00E943427E8
:102A30009301215031098B8D9C8D3C01620E731ED8
:102A40004AE050E0B401CE014D960E943B271EA201
:102A5000102F043008F013E01A8F1FA36E0122E03C
:102A6000C20ED11CC6010E949E0FCE010E960E947E
:102A70009E0FCA87DB8784E090E0A0E0B0E0811B76
:102A80009109A109B1098E879F87A88BB98BCE8B3D
:102A9000DF8BA201B501C3010E943A10888399839C
:102AA000E114F10419F0F701C083D1830FB6F89453
:102AB0000F92809124328F5F8093243280917832FC
:102AC00090917932892B89F5C0937832D0937932FD
:102AD000809124328130C1F58CE492E30E948D0F05
:102AE00087E592E30E948D0F82E692E30E948D0FAC
:102AF0008DE692E30E948D0F81E492E30E948D0F98
:102B000086E392E30E948D0F87E292E30E948D0F8D
:102B100081E492E3809334329093353286E392E3FA
:102B200080933232909333320FC080911D328111E5
:102B30000BC0E0917832F0917932828D081720F045
:102B4000C0937832D09379328A8D90911F32981742
:102B500010F480931F32909118329F5F9093183237
:102B600090911E32981710F480931E32FBE08F9FD5
:102B7000C0011124B601845B9D4C0E94A20F0F90EE
:102B80000FBE80911D32882359F0E0917832F09188
:102B90007932828D801730F40E94EE1081E009C0F6
:102BA00081E007C081E005C0CB8EDC8EC6013BCF43
:102BB0008FEFDF91CF911F910F91FF90EF90DF90FA
:102BC000CF90BF90AF909F908F907F906F905F90CD
:102BD0004F9008950FB6F8940F92009721F48091CA
:102BE0007832909179320F900FBEFC01828D08955A
:102BF000AF92BF92CF92DF92EF92FF920F93A12CF0
:102C0000B12CC12CD12C0F2EF5E2EF2EF2E3FF2ECA
:102C1000F02D00E020E030E044E650E06EE571E2A7
:102C200082E994E10E94E814813069F4F894809379
:102C30001D321092203210922132109222321092C4
:102C400023320E94B0100F91FF90EF90DF90CF9051
:102C5000BF90AF90089580911C328F5F80931C329B
:102C600008950FB6F8940F9260912032709121323E
:102C700080912232909123320F900FBE08950097D9
:102C800021F480917832909179324D960895809117
:102C90002532909126320895FF920F931F93CF9380
:102CA000DF9380911C328111EDC080912032909190
:102CB0002132A0912232B09123320196A11DB11D83
:102CC0008093203290932132A0932232B09323320A
:102CD0008091203290912132A0912232B091233202
:102CE000892B8A2B8B2BF1F58091343290913532E0
:102CF0002091323230913332209334323093353256
:102D00008093323290933332809119328F5F809367
:102D10001932E0913432F0913532808181110CC04A
:102D20008FEF9FEFDC018093022090930320A0930C
:102D30000420B093052016C0E0913432F091353272
:102D40000780F085E02D0084F185E02D828193815C
:102D5000A481B5818093022090930320A093042046
:102D6000B09305204091203250912132609122325F
:102D7000709123328091022090910320A091042031
:102D8000B0910520481759076A077B0708F47FC0F0
:102D9000E0913432F091353280818823F9F0E0916E
:102DA0003432F09135320780F085E02DC085D18531
:102DB0008A819B81AC81BD8140912032509121322A
:102DC0006091223270912332481759076A077B07B6
:102DD00058F10F2EFBE0FF2EF02D2FC08FEF9FEF4D
:102DE000DC018093022090930320A0930420B093F1
:102DF00005204DC0E0913432F09135320780F085E6
:102E0000E02DC085D1858A819B81AC81BD814091B7
:102E10002032509121326091223270912332481732
:102E200059076A077B0748F4809302209093032098
:102E3000A0930420B09305202AC08E010E5F1F4F7F
:102E4000C8010E941410888D998D892B21F0CE0124
:102E50000E960E9414108A8D90911E32981710F4CD
:102E600080931E32F89EC0011124B801845B9D4CF2
:102E70000E94A20FE0913432F091353280818111AD
:102E8000B9CFACCF80911B328F5F80931B32DF9123
:102E9000CF911F910F91FF900895CF92DF92EF9203
:102EA000FF920F931F93CF93DF930FB6F8940F9277
:102EB00080911C32815080931C3280911C32811190
:102EC00060C08091243281112CC05EC0D70117965A
:102ED000ED91FC911897C085D185CE010E960E9488
:102EE00014108E010E5F1F4FC8010E9414108A8DAE
:102EF00090911E32981710F480931E32D89EC00114
:102F00001124B801845B9D4C0E94A20FE09178329D
:102F1000F09179329A8D828D981770F0CC24C394F9
:102F20000BC0C12C0F2EF7E2EF2EF2E3FF2EF02D97
:102F30000F2EFBE0DF2EF02DF70180818111C6CF2F
:102F400080911B32882381F080911B32882399F075
:102F50000E944C1680911B32815080931B328091CD
:102F60001B328111F5CF07C0F1E0CF1621F080911F
:102F70001A32813041F410921A320E94EE1081E030
:102F800003C080E001C080E00F900FBEDF91CF91C1
:102F90001F910F91FF90EF90DF90CF900895CF9207
:102FA000DF92EF92FF926B017C01672B682B692BFC
:102FB000E9F00E942B168091203290912132A0914D
:102FC0002232B0912332C80ED91EEA1EFB1E809118
:102FD00078329091793202960E941410C701B6019E
:102FE0000E949A140E944D17811102C00E94EE1097
:102FF000FF90EF90DF90CF90089580911C32811167
:103000000CC0E0911E324BE0E49FF0011124E45B20
:10301000FD4C8081882329F014C081E080931A320E
:1030200008959BE080911E32815080931E32E09182
:103030001E329E9FF0011124E45BFD4C80818823A9
:1030400089F380911E32282F30E04BE0849FC0012D
:103050001124DC01A45BBD4C1196ED91FC911297FB
:103060000480F581E02D1196ED93FC931297815B1E
:103070009D4CE817F90761F4848195814BE0429FEC
:10308000F001439FF00D1124E45BFD4C818392839A
:103090008BE0829FF001839FF00D1124E45BFD4CD7
:1030A0000180F281E02D8085918580937832909324
:1030B00079320895CF92DF92EF92FF926A017B01FD
:1030C0006091783270917932625F7F4F0E94C90FB0
:1030D000809178329091793202960E9414108091FA
:1030E000203290912132A0912232B0912332BC0142
:1030F000CD016C0D7D1D8E1D9F1D0E949A14FF90A9
:10310000EF90DF90CF9008950F931F93CF93DF93AD
:10311000DC011796ED91FC911897C085D1858E0141
:10312000025F1F4FC8010E94141080911C32811150
:1031300016C00C501109C8010E9414108A8D90917C
:103140001E32981710F480931E32BBE08B9FC00193
:103150001124B801845B9D4C0E94A20F05C0B801E8
:1031600087E292E30E94A20FE0917832F0917932E7
:1031700081E02A8D928D291708F480E0DF91CF91AC
:103180001F910F91089520911932FC0120834091E5
:10319000203250912132609122327091233241834A
:1031A00052836383748308958F929F92AF92BF92EC
:1031B000CF92DF92EF92FF920F931F93CF93DF9303
:1031C000FC010FB6F8940F928091193290819817F4
:1031D00089F08091203290912132A0912232B091D9
:1031E0002332018112812381348180179107A20744
:1031F000B307A8F58091203290912132A09122321C
:10320000B0912332C180D280E380F480EB01088149
:1032100019812A813B818C199D09AE09BF0980174C
:103220009107A207B307E8F4CF0180902032909075
:103230002132A0902232B0902332B501A4014C1962
:103240005D096E097F09041B150B260B370B0883DC
:1032500019832A833B830E94C31880E003C081E066
:1032600001C081E00F900FBEDF91CF911F910F91B0
:10327000FF90EF90DF90CF90BF90AF909F908F9096
:10328000089581E080931A320895009721F4809187
:10329000783290917932DC015B96ED91FC915C97EC
:1032A0008081813141F4319680E090E00196219156
:1032B0002131E1F3089580E090E008958091783223
:1032C0009091793208950F931F93CF93DF93FC0170
:1032D000228DA0917832B09179325A968C9128172C
:1032E00008F041C0A0917832B09179325A963C9161
:1032F00084E090E0A0E0B0E0831B9109A109B1094E
:1033000086879787A08BB18B8BE0289F9001112433
:10331000245B3D4C8485958582179307E9F48F01E2
:10332000EF012296CE010E941410E0917832F091C4
:103330007932828DF801828F90911E32981710F4A5
:1033400080931E32FBE08F9FC0011124BE01845B7D
:103350009D4C0E94A20F07C0A0917832B0917932A3
:103360005A968C91828FDF91CF911F910F91089582
:103370000F931F93CF93DF93009749F1FC01328D98
:1033800027A1321721F1EC018C010E5F1F4FC801FC
:103390000E9414108FA18A8F44E050E060E070E03A
:1033A000481B5109610971094E875F87688B798BCA
:1033B00090911E32981710F480931E32FBE08F9F7D
:1033C000C0011124B801845B9D4C0E94A20FDF91C3
:1033D000CF911F910F910895EC01E881F98101903F
:1033E000F081E02D19951A821B826FEF7FEFCB01E0
:1033F0000E94CF17FACFFC016487658708954F922A
:103400005F926F927F928F929F92AF92BF92CF9274
:10341000DF92EF92FF920F931F93CF93DF93CDB77D
:10342000DEB72A97CDBFDEBF4C012901380187E600
:1034300091E2F40180839183FB018081882369F00C
:10344000DE011196319690E002C0993039F09F5F0D
:103450008D9381918111F9CF01C090E0E1E0F0E01E
:10346000EC0FFD1FE90FF11D10827401F2E0EF0E69
:10347000F11CA12CB12CC12CD12C042F9401A20140
:10348000BE016F5F7F4F84E393E00E94E814F40174
:10349000668277824086518620917A3230917B32E3
:1034A0002483358380927A3290927B3214861586FB
:1034B0004090DC325090DD32FFEF4F1A5F0A4092AD
:1034C000DC325092DD32F40142865386168617862E
:1034D000108A118A6114710409F444C0813079F5AD
:1034E0006AE0C3010E94641F7C0165EB75E00E94E5
:1034F0002D1FBE016F5F7F4FC7010E942D1F6AE025
:10350000C7010E94641F7C016CEA75E00E942D1FB8
:103510006AE0C7010E94641F7C016EE975E00E94A9
:103520002D1F63E0C7010E94641FB2010E94E81FC3
:1035300062E00E94641F66E00E94641F13C06AE09C
:10354000C3010E94641F4C0169E875E00E942D1FB1
:10355000BE016F5F7F4FC4010E942D1F66E0C40152
:103560000E94641F2A96CDBFDEBFDF91CF911F91CD
:103570000F91FF90EF90DF90CF90BF90AF909F9012
:103580008F907F906F905F904F900895CF92DF92D1
:10359000EF92FF920F931F93CF93DF93EC017B0188
:1035A0008A819B810E943F166C016AE0C7010E94DC
:1035B000641F8C0168EC75E00E942D1F6AE0C80151
:1035C0000E94641F8C0161EC75E00E942D1FB60102
:1035D000C8010E942D1F6AE0C8010E94641F8C016F
:1035E0006BEB75E00E942D1F66E0C8010E94641F0E
:1035F0008A859B85E885F98501E121E0A701BC0169
:103600008E1B9F0B0E94C81D8C819D81009719F015
:10361000B7010E94C61ADF91CF911F910F91FF90C1
:10362000EF90DF90CF9008950F931F93CF93DF9388
:10363000EC0180917A3290917B32009719F0BE01B3
:103640000E94C61A6AE0CE010E94641F8C016EEDD2
:1036500075E00E942D1F6AE0C8010E94641F8C0162
:1036600063ED75E00E942D1F6AE0C8010E94641F8F
:103670008C016DEC75E00E942D1F66E0C8010E9470
:10368000641F8091DC329091DD32BC016F5F7F4F0F
:1036900001E121E0AE01835691090E94C81DDF912E
:1036A000CF911F910F9108958F929F92AF92BF92E9
:1036B000CF92DF92EF92FF920F931F93CF93DF93FE
:1036C000EC018B018A819B810E943F16BC01C801DD
:1036D0000E942D1FD801ED91FC910280F381E02D15
:1036E00069E0C80119958A819B810E943F16FC01FF
:1036F00001900020E9F73197E81BF90B389748F45F
:10370000D801ED91FC910280F381E02D69E0C801C0
:103710001995CE84DF84E888F988A884B9848A81E1
:103720009B810E944519982E8C848A819B810E94DE
:10373000EA15682FC8010E945E206AE00E94641F9B
:10374000EC0163E576E00E942D1F682DCE010E94FA
:103750005E206AE00E94641FEC0161E576E00E9451
:103760002D1F692DCE010E945E206AE00E94641F19
:10377000EC016FE476E00E942D1FB501CE010E949E
:10378000E81F6AE00E94641FEC016DE476E00E948D
:103790002D1F6AE0CE010E94641FEC016BE476E00D
:1037A0000E942D1FB701A601CE010E941C20DF91AF
:1037B000CF911F910F91FF90EF90DF90CF90BF902E
:1037C000AF909F908F900895CF93DF93EC01CB0142
:1037D000DB01ED91FC910280F381E02DBE01199592
:1037E000CE01DF91CF9108950F931F93CF93DF9375
:1037F000EC018B01BC01C8010E94E41B66E00E9441
:10380000641F8C819D81009719F0B8010E94F41B00
:10381000DF91CF911F910F9108950F931F93CF9335
:10382000DF93EC016AE00E94641F8C0160E476E0A3
:103830000E942D1F6AE0C8010E94641F8C0169E389
:1038400076E00E942D1F66E0C8010E94641F6AE0B6
:10385000CE010E94641F8C0168E276E00E942D1F59
:103860006AE0C8010E94641F8C016CE176E00E944E
:103870002D1F6AE0C8010E94641F8C0166E176E09A
:103880000E942D1F66E0C8010E94641F6AE0CE01FD
:103890000E94641F8C0165E076E00E942D1F6AE0A3
:1038A000C8010E94641F8C0169EF75E00E942D1F02
:1038B0006AE0C8010E94641F8C0163EF75E00E94FA
:1038C0002D1F66E0C8010E94641F80917A3290919A
:1038D0007B32009719F0BE010E94F41B0E9447162C
:1038E0000E944519182F6AE0CE010E94641FEC0166
:1038F00068EE75E00E942D1F612FCE010E945E20B0
:103900006AE00E94641FEC0166EE75E00E942D1FC4
:1039100064E670E0CE010E94E81F6AE00E94641F26
:10392000EC0163EE75E00E942D1F66E0CE010E945F
:10393000641FDF91CF911F910F9108950F93CF9343
:10394000DF931F92CDB7DEB700E02FEF3FEFA90165
:10395000BE016F5F7F4FFC01808591850E949613A9
:10396000813019F4898190E002C08FEF9FEF0F90B2
:10397000DF91CF910F910895FC01808591850E9480
:10398000871491E0811101C090E0892F08950F9371
:10399000CF93DF931F92CDB7DEB76983FC012285F9
:1039A00033854485558500E0BE016F5F7F4F80857C
:1039B00091850E94CF1291E0811101C090E0892F82
:1039C0000F90DF91CF910F9108958F929F92BF92A8
:1039D000CF92DF92EF92FF920F931F93CF93DF93DB
:1039E000EC01B62E4A01680179010E941F1F8FE683
:1039F00091E2888399838E869F8640E061E08B2DDB
:103A00000E94A11288879987CA86DB86EC86FD868C
:103A1000DF91CF911F910F91FF90EF90DF90CF90AA
:103A2000BF909F908F900895CF92DF92EF92FF9278
:103A3000CF93DF93EC01688179818A819B810F2E7E
:103A4000F8EECF2EF3E0DF2EE12CF12CF02DA701C4
:103A500096010E94C7269B01AC0160E472E48FE0EE
:103A600090E00E94B726A70196010E94C72669012F
:103A70007A01AC81BD8120E432E44FE050E00E9445
:103A8000112720E038E448EE51E00E94C726C70124
:103A9000B601620F731F841F951FDF91CF91FF90B6
:103AA000EF90DF90CF900895CF92DF92EF92FF9248
:103AB0000F931F93CF93DF93CDB7DEB72F97CDBF73
:103AC000DEBF6C018B01DB016D917D918D919C912D
:103AD00028EE33E040E050E00E94C726BA01A90179
:103AE000C6010E941C20D601ED91FC910280F38159
:103AF000E02D6EE2C6011995C8010E94141D8E01C9
:103B0000095F1F4FFE0131967F012AE030E040E05F
:103B100050E00E94E926E62F288739874A875B878D
:103B2000688579858A859B8520E32E0FD8012E93A1
:103B30008D01AE15BF0549F71F82BE016F5F7F4F34
:103B4000C6010E942D1FC6012F96CDBFDEBFDF919B
:103B5000CF911F910F91FF90EF90DF90CF9008953C
:103B6000CF93DF93EC010FB6F8940F928091200869
:103B7000909121088C839D830E94311668837983FC
:103B80008A839B830F900FBECE01DF91CF91089562
:103B90005F926F927F928F929F92AF92BF92CF92DD
:103BA000DF92EF92FF920F931F93CF93DF935C010D
:103BB0004B017A01122F702E63E0CA010E94641F2C
:103BC000A814B90408F07DC0650184E1C80ED11CB9
:103BD00000E06A2C5B2CB501C7010E94E81F6AE077
:103BE0000E94641F65E676E00E942D1F112309F4F0
:103BF0006DC0002309F46AC06AE0C7010E94641F17
:103C000060E676E00E942D1F61C0112371F0011162
:103C10000CC08881871549F06AE0C7010E94641FC3
:103C20006BE576E00E942D1F01E06991C7010E94BB
:103C30005E20DC01ED91FC910280F381E02D60E2D9
:103C40001995CC16DD0609F7112389F06AE0C70142
:103C50000E94641FEC0165E576E00E942D1FE8815B
:103C6000F9810280F381E02D60E2CE011995C62D25
:103C7000D52D699180EE860F8F3548F4D701ED91EF
:103C8000FC910280F381E02DC701199509C0D7018D
:103C9000ED91FC910280F381E02D6EE2C701199550
:103CA000CC16DD0631F7B4E1AB0EB11C66E0C701FE
:103CB0000E94641F84E1C80ED11CA814B90408F442
:103CC00088CF62E0C7010E94641F03C0C62DD52DB6
:103CD0009CCFDF91CF911F910F91FF90EF90DF90DC
:103CE000CF90BF90AF909F908F907F906F905F909C
:103CF00008950E94BB0E08950E94BB0E089508957A
:103D0000CF93DF93FC01DA01403A68E0560749F4AB
:103D100080E496E08283938382E0848383E08583DA
:103D200032C0403B78E0570749F480E496E0828354
:103D3000938386E0848387E0858325C0403A89E0C9
:103D4000580749F480E696E08283938382E0848377
:103D500083E0858318C0403B69E0560749F480E65C
:103D600096E08283938386E0848387E085830BC01B
:103D7000403A5A4041F480E896E08283938382E09F
:103D8000848383E08583A683B783CD0101968087F2
:103D900091870396828793872581C281D3814C8145
:103DA00081E090E0BC0102C0660F771F2A95E2F720
:103DB0009B01242B2C832581C281D3814881BC01A6
:103DC00002C0660F771F2A95E2F79B01242B2883F8
:103DD0003481C281D381288102C0880F991F3A950E
:103DE000E2F7809590958223888380E113968C93E7
:103DF000139783E015968C93159780EF17968C9305
:103E0000179781E216968C93169788E114968C93F7
:103E100080E8858780E4868780E284870680F78152
:103E2000E02D80818081DF91CF91089581E0089518
:103E300080E090E0089580E0089508950895FC01E1
:103E40008FE791E2808391838AE08283138283E00B
:103E5000858314821682178208950F931F93CF9340
:103E6000DF938C01FB01DC0114968C91811104C05D
:103E70006081611117C023C0D80114961C92EB0118
:103E8000219664916623D9F0D801ED91FC910280CE
:103E9000F381E02DC8011995FE016491219661110D
:103EA000F3CF0DC0EF012196D801ED91FC91028076
:103EB000F381E02DC801199569916111F5CFDF916A
:103EC000CF911F910F910895CF93DF93EC01862F2F
:103ED00090E08B309105D8F5FC018827E250FF4F28
:103EE0008F4F0C94082782E08A8331C088E08A8350
:103EF0002EC08AE08A832BC080E18A8328C081E0BB
:103F00008B8325C01B8223C0E881F9810280F38165
:103F1000E02D6DE0CE011995E881F9810280F381F1
:103F2000E02D6AE0CE01199512C0E881F981028482
:103F3000F385E02DCE0119950AC0E881F98100844E
:103F4000F185E02DCE01199502C081E08C83CE0170
:103F5000DF91CF910895CF93DF93EC01662341F079
:103F6000E881F9810280F381E02D64E5199507C0AD
:103F7000E881F9810280F381E02D66E41995CE0194
:103F8000DF91CF9108950F931F93CF93DF93EC01AF
:103F90008B01E881F9810280F381E02D6BE51995B1
:103FA00063E0CE010E94641FB8010E94E81F62E036
:103FB0000E94641FE881F9810280F381E02D6DE5A4
:103FC000CE011995CE01DF91CF911F910F910895E8
:103FD000FF920F931F93CF93DF93CDB7DEB7619717
:103FE000CDBFDEBF8C01F62E972FF8014281403104
:103FF00021F0483011F0423041F4692FC8010E948D
:104000005E206F2D0E945E200DC050E0BE016F5FEC
:104010007F4F8F2D0E947727BE016F5F7F4FC801B2
:104020000E942D1FC8016196CDBFDEBFDF91CF91E9
:104030001F910F91FF900895DF92EF92FF920F93DF
:104040001F93CF93DF93CDB7DEB7A197CDBFDEBF70
:104050008C01D42EE52EF62E972FF80122812031E7
:1040600021F0283011F0223071F4692FC8010E942C
:104070005E206F2D0E945E206E2D0E945E206D2DB1
:104080000E945E200FC030E0AE014F5F5F4F6D2D8C
:104090007E2D8F2D0E944A27BE016F5F7F4FC80182
:1040A0000E942D1FC801A196CDBFDEBFDF91CF9129
:1040B0001F910F91FF90EF90DF900895CF92DF92C4
:1040C000EF92FF920F931F93CF93DF93CDB7DEB79D
:1040D0002997CDBFDEBF8C01E62EDC0113968C91B3
:1040E0001397882341F0ED91FC910280F381E02D3C
:1040F000C801199556C0F8014281423019F56894FB
:10410000CC24C3F8D12C6894FF24F7F88E2D8F218E
:1041100051F0D801ED91FC910280F381E02D61E333
:10412000C801199509C0D801ED91FC910280F38175
:10413000E02D60E3C8011995F694B1E0CB1AD108DF
:1041400029F72FC04031F9F462956F700190F0812A
:10415000E02D0280F381E02D6A3010F0695C01C02F
:10416000605DC80119956E2D6F70D801ED91FC91BD
:104170000280F381E02D6A3010F0695C01C0605D5F
:10418000C80119950EC050E0BE016F5F7F4F8E2DA4
:1041900090E00E947727BE016F5F7F4FC8010E94A9
:1041A0002D1FC8012996CDBFDEBFDF91CF911F9192
:1041B0000F91FF90EF90DF90CF900895DC01509623
:1041C000ED91FC915197808154964C9154978423A2
:1041D00029F009C02150310919F412C021E23EE44E
:1041E00090819423B9F3908156968C915697892BA0
:1041F00080831E96ED91FC911F97608381E0089566
:1042000080E00895CF93DF93FC01C18DD28D28818A
:104210003981A38DB48D4D915C9124173507E9F355
:10422000A789B08D0D90BC91A02DA20FB31F8C91CA
:104230002F5F3F4F288339832436310528F0018CC6
:10424000F28DE02D1082118290E0DF91CF910895E0
:10425000CF93DF93EC01A98DBA8DEB8DFC8D81E0BE
:104260004D915C91208131814217530709F480E020
:10427000DF91CF910895DC01ED91FC910280F381F3
:10428000E02D6CE019950895EF92FF920F931F9324
:10429000CF93DF93EC017B018A010E941F1FA801CD
:1042A000B701CE0108960E94801E8FE891E28883B4
:1042B0009983003A88E0180769F488E992E38F8BC4
:1042C000988F8EE892E3898F9A8F84E892E38B8FA0
:1042D0009C8F42C0003BE8E01E0769F486E992E348
:1042E0008F8B988F8CE892E3898F9A8F82E892E384
:1042F0008B8F9C8F31C0003AF9E01F0769F484E985
:1043000092E38F8B988F8AE892E3898F9A8F80E867
:1043100092E38B8F9C8F20C0003B89E0180769F4E3
:1043200082E992E38F8B988F88E892E3898F9A8F46
:104330008EE792E38B8F9C8F0FC0003A1A4061F496
:1043400080E992E38F8B988F86E892E3898F9A8F2A
:104350008CE792E38B8F9C8F0F89188D84E690E019
:104360000E947C1EF80180839183E98DFA8D108272
:104370001182EB8DFC8D10821182DF91CF911F9104
:104380000F91FF90EF9008951F920F920FB60F922A
:10439000112408B60F9218BE0BB60F921BBE2F93B6
:1043A0003F938F939F93EF93FF932091A008E09109
:1043B0009832F09199328091843290918532E80F51
:1043C000F91F208380918432909185320196843642
:1043D000910560F4809384329093853220918E32DF
:1043E00030918F3282179307F1F40CC0109284320F
:1043F0001092853280918E3290918F321816190664
:1044000091F40EC001968436910528F480938E3283
:1044100090938F3208C010928E3210928F3203C068
:1044200081E090E0F3CFFF91EF919F918F913F91C9
:104430002F910F900BBE0F9008BE0F900FBE0F90E4
:104440001F9018951F920F920FB60F92112408B665
:104450000F9218BE0BB60F921BBE2F933F938F93F4
:104460009F93EF93FF932091B008E0919632F091E3
:1044700097328091823290918332E80FF91F208326
:10448000809182329091833201968436910560F456
:10449000809382329093833220918C3230918D328E
:1044A00082179307F1F40CC010928232109283327B
:1044B00080918C3290918D321816190691F40EC0AD
:1044C00001968436910528F480938C3290938D3236
:1044D00008C010928C3210928D3203C081E090E0BF
:1044E000F3CFFF91EF919F918F913F912F910F907B
:1044F0000BBE0F9008BE0F900FBE0F901F90189527
:104500001F920F920FB60F92112408B60F9218BE89
:104510000BB60F921BBE2F933F938F939F93EF93F6
:10452000FF932091A009E0919432F091953280910F
:10453000843290918532E80FF91F20838091803278
:104540009091813201968436910560F48093803297
:104550009093813220918A3230918B328217930767
:10456000F1F40CC0109280321092813280918A3224
:1045700090918B321816190691F40EC0019684366C
:10458000910528F480938A3290938B3208C0109260
:104590008A3210928B3203C081E090E0F3CFFF911A
:1045A000EF919F918F913F912F910F900BBE0F90A4
:1045B00008BE0F900FBE0F901F9018951F920F927C
:1045C0000FB60F92112408B60F9218BE0BB60F92B9
:1045D0001BBE2F933F938F939F93EF93FF93209155
:1045E000B009E0919232F091933280917E329091B5
:1045F0007F32E80FF91F208380917E3290917F32C5
:1046000001968436910560F480937E3290937F32D8
:10461000209188323091893282179307F1F40CC0CF
:1046200010927E3210927F3280918832909189323E
:104630001816190691F40EC001968436910528F4D7
:10464000809388329093893208C0109288321092F9
:10465000893203C081E090E0F3CFFF91EF919F9109
:104660008F913F912F910F900BBE0F9008BE0F902E
:104670000FBE0F901F9018951F920F920FB60F92BA
:10468000112408B60F9218BE0BB60F921BBE2F93C3
:104690003F938F939F93EF93FF932091A00AE09114
:1046A0009032F091913280917C3290917D32E80F7E
:1046B000F91F208380917C3290917D32019684365F
:1046C000910560F480937C3290937D322091863204
:1046D0003091873282179307F1F40CC010927C322C
:1046E00010927D3280918632909187321816190689
:1046F00091F40EC001968436910528F48093863299
:104700009093873208C0109286321092873203C08D
:1047100081E090E0F3CFFF91EF919F918F913F91D6
:104720002F910F900BBE0F9008BE0F900FBE0F90F1
:104730001F901895FC01848195810E948F1490E050
:104740000895FC01848195810E948F1491E081116C
:1047500001C090E0892F0895FC01848195810E9419
:104760008F1491E0811190E0892F0895FC018481DC
:1047700095810E948F1490E00895FC0184819581B9
:104780000E948F1491E0811101C090E0892F08955B
:10479000FC01848195810E948F1491E0811190E049
:1047A000892F0895FC01848195810E94871490E0EF
:1047B0000895FC01848195810E94871491E0811104
:1047C00001C090E0892F0895FC01848195810E94A9
:1047D000871491E0811190E0892F0895FC01848174
:1047E00095810E94871490E00895FC018481958151
:1047F0000E94871491E0811101C090E0892F0895F3
:10480000FC01848195810E94871491E0811190E0E0
:10481000892F08950F9301E02FEF3FEFA901FC01CD
:10482000848195810E9496130F9108950F93CF93E1
:10483000DF931F921F92CDB7DEB701E02FEF3FEF5E
:10484000A901BE016F5F7F4FFC01848195810E94A9
:10485000961389819A810F900F90DF91CF910F91DC
:1048600008950F9300E02FEF3FEFA901FC01848131
:1048700095810E9496130F9108950F93CF93DF9324
:104880001F921F92CDB7DEB700E02FEF3FEFA901D7
:10489000BE016F5F7F4FFC01848195810E9496135A
:1048A00089819A810F900F90DF91CF910F91089598
:1048B0000F9301E02FEF3FEFA901FC018481958167
:1048C0000E9496130F9108950F93CF93DF931F9239
:1048D0001F92CDB7DEB701E02FEF3FEFA901BE0178
:1048E0006F5F7F4FFC01848195810E9496138981BF
:1048F0009A810F900F90DF91CF910F9108950F93B0
:1049000000E02FEF3FEFA901FC01848195810E9417
:1049100096130F9108950F93CF93DF931F921F92D9
:10492000CDB7DEB700E02FEF3FEFA901BE016F5F0B
:104930007F4FFC01848195810E94961389819A8121
:104940000F900F90DF91CF910F910895CF93DF9348
:104950001F92CDB7DEB7AE014F5F5F4FFC01848180
:1049600095810E945A140F90DF91CF910895CF93B3
:10497000DF9300D0CDB7DEB7AE014D5F5F4FBE0114
:104980006F5F7F4FFC01848195810E945A14898159
:104990009A812396CDBFDEBFDF91CF910895CF934B
:1049A000DF931F92CDB7DEB7AE014F5F5F4FFC01C3
:1049B000848195810E945A140F90DF91CF910895C0
:1049C000CF93DF9300D0CDB7DEB7AE014D5F5F4F21
:1049D000BE016F5F7F4FFC01848195810E945A1454
:1049E00089819A812396CDBFDEBFDF91CF91089553
:1049F000CF93DF931F92CDB7DEB7198221E0AE01CE
:104A00004F5F5F4FFC01848195810E946A1391E0A2
:104A1000811101C090E0892F0F90DF91CF9108950F
:104A2000CF93DF931F92CDB7DEB7198220E0AE019E
:104A30004F5F5F4FFC01848195810E946A1391E072
:104A4000811101C090E0892F0F90DF91CF910895DF
:104A5000CF93DF931F92CDB7DEB7198221E0AE016D
:104A60004F5F5F4FFC01848195810E946A1391E042
:104A7000811101C090E0892F0F90DF91CF910895AF
:104A8000CF93DF931F92CDB7DEB7198220E0AE013E
:104A90004F5F5F4FFC01848195810E946A1391E012
:104AA000811101C090E0892F0F90DF91CF9108957F
:104AB0000F93FC01268137814085518501E0848177
:104AC00095810E94CF1291E0811101C090E0892F61
:104AD0000F9108950F93FC01268137814085518500
:104AE00000E0848195810E94CF1291E0811101C084
:104AF00090E0892F0F9108950F93FC012681378153
:104B00004085518501E0848195810E94CF1291E01A
:104B1000811101C090E0892F0F9108950F93FC013E
:104B2000268137814085518500E0848195810E94EE
:104B3000CF1291E0811101C090E0892F0F9108956B
:104B40000F93CF93DF931F92CDB7DEB72FB7298393
:104B5000F8941BBEFC0108ED04BF608389818FBF00
:104B60000F90DF91CF910F910895EF92FF920F93E5
:104B70001F93CF93DF93CDB7DEB7C954D109CDBF13
:104B8000DEBFF894E0E5F0E080818260808381817F
:104B900081FFFDCF60914000687F616080E490E01C
:104BA0000E94A025E0E5F0E080818E7F80839DEF6C
:104BB00088ED08B618BE84BF9093800008BE40EA16
:104BC0005AE060E070E0CE0101960E94442167E067
:104BD000CE0101960E94641F8C016BE971E20E9474
:104BE0002D1F66E0C8010E94641F66E00E94641FDA
:104BF0008E010F5F1F4F20E332EF40E050E060EA8C
:104C000074E0CE014E960E948008A801BE01625E4B
:104C10007F4FCE01C7960E94350A82E190E00E9444
:104C2000791E20E830E040E06AEB71E20E944B0C14
:104C300088E190E00E94791E9E01295C3F4F790136
:104C400020E830E042E062EC71E20E942E0C87E046
:104C50008093A20078940E94F81580E090E0C75BF2
:104C6000DF4FCDBFDEBFDF91CF911F910F91FF903E
:104C7000EF900895CF92DF92EF92FF920F931F93E0
:104C8000CF93DF930AE010E020E030E040E050E016
:104C900060E270E08CEC92E30E94E51CC2ECD2E38F
:104CA0001A821B828CEC91E28883998340E062E057
:104CB0008FEF0E94A1128C839D830F2EFAE0CF2EDE
:104CC000D12CE12CF12CF02DCE82DF82E886F98602
:104CD000C8EBD2E31A821B8200EF11E2088319832A
:104CE00040E062E08FEF0E94A1128C839D83CE8210
:104CF000DF82E886F986CEEAD2E31A821B82088335
:104D0000198340E062E08FEF0E94A1128C839D83A3
:104D1000CE82DF82E886F986C4EAD2E31A821B8259
:104D20000883198340E062E08FEF0E94A1128C8318
:104D30009D83CE82DF82E886F986CAE9D2E31A82B1
:104D40001B820883198340E062E08FEF0E94A1126A
:104D50008C839D83CE82DF82E886F986DF91CF91B6
:104D60001F910F91FF90EF90DF90CF900895DB019E
:104D70008F939F930E941127BF91AF91A29F800DA7
:104D8000911DA39F900DB29F900D11240895A1E253
:104D90001A2EAA1BBB1BFD010DC0AA1FBB1FEE1FB5
:104DA000FF1FA217B307E407F50720F0A21BB30B00
:104DB000E40BF50B661F771F881F991F1A9469F77C
:104DC00060957095809590959B01AC01BD01CF01D8
:104DD0000895052E97FB1EF400940E94002757FDAE
:104DE00007D00E94C72607FC03D04EF40C9400277E
:104DF00050954095309521953F4F4F4F5F4F089507
:104E000090958095709561957F4F8F4F9F4F089536
:104E1000EE0FFF1F881F8BBF0790F691E02D1BBE82
:104E200019940E941C27A59F900DB49F900DA49FDC
:104E3000800D911D11240895A29FB001B39FC00160
:104E4000A39F700D811D1124911DB29F700D811DB6
:104E50001124911D0895FB01DC0102C001900D9207
:104E600041505040D8F70895DC0101C06D93415086
:104E70005040E0F70895FB01DC014150504048F0FC
:104E800001900D920020C9F701C01D924150504081
:104E9000E0F708952532310520F4223010F00C940B
:104EA0005527FA011082CA010895BB27FA01A62FDF
:104EB0006217710581059105330B30FB66F0AA2757
:104EC000660F771F881F991FAA1FA21710F0A21B39
:104ED00063953850A9F7A05DAA3308F0A95DA193A6
:104EE00036F7B111B1931082CA010C949C27453258
:104EF000510520F4423010F00C948227FB011082FF
:104F0000CB010895BB27FB015527AA27880F991FBE
:104F1000AA1FA41710F0A41B83955051B9F7A05DE8
:104F2000AA3308F0A95DA193009779F7B111B19365
:104F30001192CB010C949C27DC01FC01672F71912D
:104F40007723E1F7329704C07C916D93708362916F
:0C4F5000AE17BF07C8F30895F894FFCF18
:104F5C00FF0FFFFFFFFF000000007A038F03BA036F
:104F6C006F03EC036572726F7200646F6E65007292
:104F7C00207061636B65740074207061636B657481
:104F8C0000722065786368616E67650074206578CF
:104F9C006368616E67650073746172740053746149
:104FAC0072742073746174652073657269616C200E
:104FBC007074723A2000446574656374656420698A
:104FCC00326320616464723A20004932434D61734C
:104FDC007465722063726561746564000000000082
:104FEC00B1078C05000000000D04F903000000005F
:104FFC0054040304000000009B047705000000002B
:10500C00CB04620500000000F1044D050000000017
:10501C00A10538050000000006052305000000006E
:10502C000A050E0500000000DD09B309CB099B0938
:10503C005B094F098409730937092B0921090509F3
:10504C001609FA080F09F30800000000DD09B3097E
:10505C00CB099B095B094F098409730937092B0993
:10506C00210905091609FA080F09F30800000000C8
:10507C007F1E7F1E7F1E7F1E7F1E00000000EF091B
:10508C00000000000E0A000000001B0A00000000D7
:10509C00280A783A2000793A20007A3A2000000059
:1050AC000000DF0B541B000000008E0D541B494404
:1050BC004C4500000000007F1E541B000000001631
:1050CC001FC71CBC1C9E1C1D1F1E1F0000000016B1
:1050DC001F7F1E1B1F181F1D1F1E1F000000001608
:1050EC001FDE20282102211D1F3B214672656552BF
:1050FC00544F5320586D6567612054657374696E05
:10510C00672050726F6772616D0055736572496EDE
:10511C007400536F6E617200000000006A25102548
:10512C005825F8243D243124B724A62416240A2417
:10513C00E423AC23D923A123D2239A23000000001B
:10514C008E2540257C2528258B247F24E024CF2404
:10515C00642458240024C823F523BD23EE23B6234E
:00000001FF
