:100000000C9435030C946B030C946B030C946B03EE
:100010000C946B030C946B030C946B030C946B03A8
:100020000C946B030C946B030C946B030C946B0398
:100030000C946B030C946B030C946B030C946B0388
:100040000C946B030C946B030C946B030C946B0378
:100050000C946B030C946B030C94AD0F0C946B031A
:100060000C946B030C94821F0C946B030C946B0325
:100070000C94E01F0C946B030C946B030C946B03B7
:100080000C946B030C946B030C946B030C946B0338
:100090000C946B030C946B030C946B030C946B0328
:1000A0000C946B030C946B030C946B030C946B0318
:1000B0000C946B030C946B030C946B030C946B0308
:1000C0000C946B030C946B030C946B030C946B03F8
:1000D0000C946B030C946B030C946B030C946B03E8
:1000E0000C946B030C946B030C94FA200C946B032C
:1000F0000C946B030C946B030C946B030C946B03C8
:100100000C946B030C946B030C946B030C946B03B7
:100110000C946B030C946B030C946B030C946B03A7
:100120000C946B030C946B030C946B030C946B0397
:100130000C946B030C946B030C946B030C946B0387
:100140000C946B030C946B030C946B030C946B0377
:100150000C946B030C946B030C946B030C946B0367
:100160000C943E200C946B030C946B030C949C2019
:100170000C946B030C946B030C946B030C946B0347
:100180000C946B030C946B030C946B030C946B0337
:100190000C946B030C946B030C946B030C946B0327
:1001A0000C946B030C946B030C946B030C946B0317
:1001B0000C946B030C946B030C946B030C946B0307
:1001C0000C946B030C946B030C946B030C946B03F7
:1001D0000C946B030C946B030C946B030C946B03E7
:1001E0000C946B030C946B030C946B030C946B03D7
:1001F0000C946B030C946B030C946B036E1D711DBC
:10020000741D771D7A1D7D1D7F1D901D981DA21DDB
:10021000A01D0C945F210C94991A0C947B210C94D2
:10022000890B0C94771D0C94181D0C94C01E0C9413
:1002300086210C947F1D0C9439080C944F190C9452
:100240009C1E0C9497210C9416230C9415050C9469
:10025000131D0C9416220C948D120C94A21D0C9458
:10026000D9080C946A210C94B3210C94A8040C9422
:1002700069050C947E050C9408080C94C1080C9434
:1002800028230C942A050C94D4210C9449220C9414
:10029000741D0C943A230C943F050C94901D0C94FF
:1002A00058210C94A9080C94F7030C948D220C94FB
:1002B000A2210C9416040C94B71A0C9474210C947B
:1002C000EA030C9469080C948D030C94EF210C94B0
:1002D00001080C94BE210C943D220C94F7230C943D
:1002E000A01D0C94E7040C94C21A0C9475220C9473
:1002F00047040C94EB080C946E1D0C942F080C947E
:10030000B8030C947D1D0C94191D0C949E220C9422
:10031000E6220C94EB040C94F91E0C94981D0C949A
:100320007A1D0C94161D0C9478040C9422220C94C3
:100330001D080C94B6220C94AC210C94C8210C948A
:1003400054050C946D030C94711D0C94111D0C94A8
:10035000CE220C9432030C9490210C944C230C94D8
:10036000EB090C9493050C94CE040C947A1C0C9419
:100370005D080C9424080C94E3040C94FE220C9465
:1003800000050C94F4070C9481080C94E61E0C9460
:1003900013080C94FB210C94A8050C9445080C94AC
:1003A00092080C9478030C946422536F6E61723A35
:1003B00020002C20544343304343413D002F002C68
:1003C000204865617020667265653A200054696D49
:1003D000653A20004D6172203135203230313800CD
:1003E0004D45343035206261736520726164696FF8
:1003F0002070726F6772616D2056302E342000209D
:10040000202020683A20202048414C502100202004
:100410002020653A2020204578697420636F6D6D37
:10042000616E64206D6F64650020202020733A2087
:100430002020537461636B2064756D7020666F7249
:10044000207461736B730020202020763A202020D6
:1004500056657273696F6E20616E64207365747582
:100460007020696E666F726D6174696F6E00202016
:1004700020206E3A20202053686F77207468652012
:1004800074696D65207269676874206E6F770020EB
:1004900020496E20636F6D6D616E64206D6F6465C1
:1004A000206F6E6C793A00202043746C2D413A2005
:1004B000456E74657220636F6D6D616E64206D6F43
:1004C000646500202043746C2D433A2052657365A7
:1004D000742074686520415652002068656C700075
:1004E0004D45343035206261736520726164696FF7
:1004F0002070726F6772616D2056302E3420001BA1
:100500005B33306D001B5B34366D00496C6C656786
:10051000616C207374617465212052657365747415
:10052000696E6720415652003A5754463F0045785D
:10053000697420636F6D6D616E64206D6F6465001A
:10054000526573657474696E67204156520050722B
:10055000657373204374726C2D4120666F72206343
:100560006F6D6D616E64206D6F64650052657365BB
:100570007474696E67004552524F5220696E207440
:1005800061736B20004552524F5220637265617453
:10059000696E67207461736B20002C207374616333
:1005A0006B2061742030780020637265617465642B
:1005B000005461736B20001B5B32326D0054617319
:1005C0006B3A20001B5B316D001B5B32326D0054B7
:1005D00061736B3A2049444C45001B5B316D000947
:1005E00009002F0049444C45090930092D0900092B
:1005F0002D2D2D2D00092D2D2D2D2D2D2D2D2D2D7C
:10060000002D2D2D2D09092D2D2D2D092D2D2D2DB3
:100610002D000952756E730009467265652F546F7F
:1006200074616C004E616D6509095072692E095341
:10063000746174650009537461636B005461736B7A
:1006400009092020092000090009002F00090009DC
:10065000001B5B32326D001B5B316D001B5B316D2B
:10066000002020000E94E717F72311241FBECFEFC0
:10067000CDBFDFE3DEBF00E00CBF18BE19BE1ABE5F
:100680001BBE11E2A0E0B0E2E6EDFAE400E00BBF31
:1006900002C007900D92A63CB107D9F71BBE22E31A
:1006A000A6ECB1E201C01D92A439B207E1F713E054
:1006B000C5E3D3E000E006C021970109802FFE01C9
:1006C0000E94C524C433D10780E00807A9F70E941F
:1006D00073230C9469250C940000BC016E5F7F4F5E
:1006E000DC01ED91FC910084F185E02D19950895D0
:1006F000CF93DF93EC01E881F9810480F581E02D4F
:100700001995BE01635F7F4FE88DF98D80819181DE
:100710000E94F606DF91CF910895EF92FF920F931A
:10072000CF93DF93EC017C0182E0E80EF11CE881BD
:10073000F9810084F185E02DB701CE011995288556
:1007400039854A855B85BE01645E7F4F00E08E81FE
:100750009F810E94CA10E88DF98DB7018281938133
:100760000E943B07DF91CF910F91FF90EF9008958A
:10077000CF92DF92EF92FF920F93CF93DF93EC0132
:100780007B016C018DE0C80ED11CE881F9810084E9
:10079000F185E02DB601CE0119952B893C894D8953
:1007A0005E89BE01655E7F4F00E089899A890E945B
:1007B000CA10D701ED91FC910190F081E02DB601B6
:1007C000C7011995DF91CF910F91FF90EF90DF90C6
:1007D000CF900895CB010E94D4090895FC01628F47
:1007E000862F880F838F682F6160648F08950F9321
:1007F0001F93CF93DF93EC01CB01DB01ED91FC91D3
:100800000284F385E02D00E010E0B8011995EF8136
:10081000F8850480F581E02DD8018C9186838A814A
:100820009B81DF91CF911F910F910895CF93DF931B
:100830001F921F92CDB7DEB7DC0119968D919C9166
:100840001A9789839A8329813A8121503109298312
:100850003A83232B51F01796ED91FC911897048061
:10086000F581E02D9481907571F789819A81892BAA
:1008700029F414968D919C91159704C012968D9130
:100880009C9113970F900F90DF91CF910895CF9384
:10089000DF931F921F92CDB7DEB7DC0119968D91C1
:1008A0009C911A9789839A8329813A812150310931
:1008B00029833A83232B51F01796ED91FC911897D9
:1008C0000480F581E02D9481907971F789819A8176
:1008D000892B29F414968D919C91159704C012963A
:1008E0008D919C9113970F900F90DF91CF91089568
:1008F000EF92FF920F931F93CF93DF938C01EB0145
:10090000E881F981008CF18DE02DCB0119958823C8
:10091000A9F0E881F9810284F385E02DE12CF12C26
:10092000B701CE011995D8011796ED91FC91189752
:100930000480F581E02DD7018C918783F8018281B5
:100940009381DF91CF911F910F91FF90EF900895C8
:100950000F931F93CF93DF931F92CDB7DEB78C0118
:10096000CB01D8011796ED91FC9118970480F58181
:10097000E02D27812983DB01ED91FC910190F0812D
:10098000E02DBE016F5F7F4F1995F8018281938141
:100990000F90DF91CF911F910F910895CF93DF9327
:1009A000EC01CB01DB01ED91FC910488F589E02D90
:1009B0001995882319F08A819B8102C08C819D81C1
:1009C000DF91CF910895FC01828193810895FC010C
:1009D000828193810895CF93DF93DC011796ED9187
:1009E000FC911897C681D78164E170E2CE010E9424
:1009F000281D66E0CE010E945F1DDF91CF91089512
:100A0000CF93DF93DC011796ED91FC911897C68187
:100A1000D7816AE170E2CE010E94281D66E0CE0116
:100A20000E945F1DDF91CF910895CF93DF93DC018A
:100A30001796ED91FC911897C681D7816FE170E20E
:100A4000CE010E94281D66E0CE010E945F1DDF914D
:100A5000CF910895CF93DF93DC011796ED91FC9130
:100A60001897C681D78168E270E2CE010E94281DE6
:100A700066E0CE010E945F1DDF91CF910895CF9374
:100A8000DF93DC011796ED91FC911897C681D78111
:100A900061E370E2CE010E94281D66E0CE010E9453
:100AA0005F1DDF91CF910895CF93DF93DC011796FF
:100AB000ED91FC911897C681D7816CE370E2CE016D
:100AC0000E94281D66E0CE010E945F1DDF91CF913C
:100AD0000895CF93DF93DC011796ED91FC91189761
:100AE000C681D78167E470E2CE010E94281D66E0CE
:100AF000CE010E945F1DDF91CF910895CF93DF93C8
:100B0000DC011796ED91FC911897C681D78160E5BD
:100B100070E2CE010E94281D66E0CE010E945F1D9A
:100B2000DF91CF910895CF93DF93DC011796ED917C
:100B3000FC911897C681D78169E570E2CE010E94C9
:100B4000281D66E0CE010E945F1DDF91CF910895C0
:100B50000F931F93CF93DF938C01EB01E881F98111
:100B6000048CF58DE02DCB0119952A8530E0821794
:100B7000930779F4D8011796ED91FC9118970480AA
:100B8000F581E02D83E0838312968D919C911397DC
:100B90000EC0D8011796ED91FC9118970480F5814D
:100BA000E02D82E0838314968D919C911597DF91BF
:100BB000CF911F910F9108950F931F93CF93DF93C0
:100BC000EC018B016883798389E090E00E94741CBA
:100BD000FC01168283E690E280839183078310876D
:100BE000EC83FD838BE090E00E94741CFC018B89F8
:100BF0009C8916822BE630E220833183078310879D
:100C000081879287EE83FF8389E090E00E94741CC5
:100C1000FC0116828BE790E2808391830783108723
:100C2000E887F98789E090E00E94741CFC01168235
:100C30008BE890E28083918307831087EA87FB87A4
:100C400089E090E00E94741CFC01168283EA90E225
:100C50008083918307831087EC87FD8789E090E08C
:100C60000E94741CFC0116828BE990E280839183C0
:100C700007831087EE87FF8780E197E28B8B9C8B41
:100C80008E819F81EC81FD81828393838483958310
:100C90008C859D8528853985EE81FF81228333836C
:100CA000848395838A859B85E885F98582839383F0
:100CB000848395838E819F812E853F85EA85FB8580
:100CC0002283338384839583DF91CF911F910F918A
:100CD00008950F931F93CF93DF93EC018B016883EB
:100CE000798389E090E00E94741CFC01168283E6FF
:100CF00090E28083918307831087EC83FD838BE0F0
:100D000090E00E94741CFC018B899C89168223E769
:100D100030E2208331830783108781879287EE83B7
:100D2000FF8389E090E00E94741CFC01168283E836
:100D300090E28083918307831087E887F98789E0B1
:100D400090E00E94741CFC01168283E990E280838B
:100D5000918307831087EA87FB8789E090E00E94F0
:100D6000741CFC01168283EA90E2808391830783DE
:100D70001087EC87FD8789E090E00E94741CFC01DD
:100D800016828BE990E28083918307831087EE8738
:100D9000FF8780E197E28B8B9C8B8E819F81EC811A
:100DA000FD8182839383848395838C859D852885AB
:100DB0003985EE81FF8122833383848395838A85FD
:100DC0009B85E885F98582839383848395838E81CF
:100DD0009F812E853F85EA85FB852283338384832B
:100DE0009583DF91CF911F910F910895EF92FF921C
:100DF0000F931F93CF93DF93EC017B018C819D8137
:100E00008A839B838A819B812E853F8582179307E6
:100E100029F4AC85BD858A179B07A9F0DC01ED910B
:100E2000FC910190F081E02DB70119958C018A8128
:100E30009B81DC01ED91FC910280F381E02D1995FD
:100E40000A831B83DFCFED91FC9111970280F38120
:100E5000E02DCD01199581E04A815B812E853F858A
:100E60004217530709F080E0DF91CF911F910F9156
:100E7000FF90EF900895EF92FF920F931F93CF93FF
:100E8000DF93EC017B018C819D818A839B838A8126
:100E90009B812E853F858217930729F4AC85BD85FC
:100EA0008A179B07A9F0DC01ED91FC910190F0817C
:100EB000E02DB70119958C018A819B81DC01ED91B0
:100EC000FC910280F381E02D19950A831B83DFCF0B
:100ED000ED91FC9111970280F381E02DCD011995E0
:100EE000C701DF91CF911F910F91FF90EF9008956F
:100EF000CF93DF93EC019A01AB01220F331F441F04
:100F0000551F60E078E488EE91E00E94842425502B
:100F10002A87EC81FD812583DF91CF9108958F92FF
:100F20009F92AF92BF92CF92DF92EF92FF920F9378
:100F30001F93CF93DF93EC017B0149015A0185E1B7
:100F400090E00E94741C6C01BE010E94DC05C88206
:100F5000D98286E190E00E94741C6C01BE010E945F
:100F60006906CA82DB82EC82FD820E831F838B8638
:100F70009C86AD86BE8680E8E81684E0F80629F4F3
:100F800080E496E08887998709C0E0EAEE16E4E0FD
:100F9000FE0621F480E896E088879987E885F98540
:100FA00083E08183E885F98588E3808BE885F9858E
:100FB000818B82E0F7018283B501A401CE010E94FA
:100FC0007807F70184818D6C848388E08183DF91C9
:100FD000CF911F910F91FF90EF90DF90CF90BF9036
:100FE000AF909F908F900895DB01BC016E5F7F4FA3
:100FF000ED91FC9111970190F081E02DCD011995B3
:101000000895FC01848195810E948A1290E00895E0
:10101000FC01848195810E948A1291E0811101C0B6
:1010200090E0892F0895FC01848195810E948A12A5
:1010300091E0811190E0892F0895FC0184819581D0
:101040000E94821290E00895FC01848195810E94A3
:10105000821291E0811101C090E0892F0895FC0176
:10106000848195810E94821291E0811190E0892F04
:1010700008950F9301E02FEF3FEFA901FC01848158
:1010800095810E9491110F9108950F93CF93DF9353
:101090001F92CDB7DEB701E02FEF3FEFA901BE01F0
:1010A0006F5F7F4FFC01848195810E94911189813E
:1010B0000F90DF91CF910F9108950F9300E02FEFE4
:1010C0003FEFA901FC01848195810E9491110F914C
:1010D00008950F93CF93DF931F92CDB7DEB700E053
:1010E0002FEF3FEFA901BE016F5F7F4FFC018481AD
:1010F00095810E94911189810F90DF91CF910F917D
:101100000895CF93DF931F92CDB7DEB7AE014F5F47
:101110005F4FFC01848195810E9455120F90DF91F1
:10112000CF910895CF93DF931F921F92CDB7DEB773
:10113000AE014E5F5F4FBE016F5F7F4FFC01848148
:1011400095810E94551289810F900F90DF91CF9168
:101150000895CF93DF931F92CDB7DEB7198221E0B8
:10116000AE014F5F5F4FFC01848195810E94651144
:1011700091E0811101C090E0892F0F90DF91CF9114
:101180000895CF93DF931F92CDB7DEB7198220E089
:10119000AE014F5F5F4FFC01848195810E94651114
:1011A00091E0811101C090E0892F0F90DF91CF91E4
:1011B00008950F93FC01268137814085518501E018
:1011C000848195810E94CA1091E0811101C090E054
:1011D000892F0F9108950F93FC0126813781408557
:1011E000518500E0848195810E94CA1091E08111AF
:1011F00001C090E0892F0F9108954F925F926F92F6
:101200007F928F929F92AF92BF92DF92EF92FF9266
:101210000F931F93CF93DF938C017B01DC016D93C0
:101220007C938DE190E00E94741CEC0183EF90E2CE
:10123000888399831C821D820F2EFBEA8F2EF0E299
:101240009F2EF02D8A829B8240E061E082E00E9426
:101250009C108E839F830F2EFAE04F2E512C612C11
:10126000712CF02D488659866A867B860F2EFFECFE
:10127000AF2EF0E2BF2EF02DAA82BB826894DD244F
:10128000D1F8DC861F86188A8D869E8640E061E054
:1012900082E00E949C10898B9A8B4B8A5C8A6D8AB3
:1012A0007E8AAD86BE86DF8A8AE090E28883998353
:1012B000F801C283D38380E7848316821782108665
:1012C0001186128683E090E00E94741C21E031E2D6
:1012D000FC0120833183C1E5C283D8011D968D9323
:1012E0009C931E971296ED91FC911397E08EF18ED0
:1012F00014966C91149712968D919C9113970E945D
:10130000EE03F801C5838AEA868385EA8783DF9145
:10131000CF911F910F91FF90EF90DF90BF90AF9012
:101320009F908F907F906F905F904F900895FC01F9
:10133000A281B38165857685ED91FC91119701902D
:10134000F081E02DCD0119950895FF920F931F9321
:10135000CF93DF93EC018A819B81DC01ED91FC91BD
:101360000280F381E02D19958C01DC01ED91FC9157
:101370000084F185E02D1995F82ED801ED91FC91AE
:101380000084F185E02DC80119952F2D30E0322F12
:101390002227A901482BCA018B879C87DF91CF9117
:1013A0001F910F91FF900895CF93DF93EC01E88197
:1013B000F981008CF18DE02DCE011995882341F043
:1013C000E881F9810084F185E02DCE011995EFCFF8
:1013D000DF91CF910895EC018C85882319F081303D
:1013E00051F025C08C899D890E94970961E0CE014A
:1013F0000E94F6171CC08C899D890E94A5097C015A
:101400008A8B9B8B6AE08E819F810E945F1D8C017D
:101410006AEA73E00E94281DB701C8010E94A61D58
:1014200066E00E945F1D60E0CE010E94F6178E8587
:101430009F85A889B9890196A11DB11D8E879F87B7
:10144000A88BB98B64EF71E080E090E00E94CA1530
:10145000C3CFCF92DF92EF92FF920F931F93CF9360
:10146000DF93EC016B010E94FA1787E091E2888319
:101470009983EC8AFD8ACE8ADF8ADF91CF911F9112
:101480000F91FF90EF90DF90CF9008950F931F93EF
:10149000CF93DF93EC010E94FA178FE091E28883EB
:1014A0009983DF91CF911F910F9108950F931F930F
:1014B000CF93DF93EC016AE08E819F810E945F1DD4
:1014C0008C0165E075E00E94281D6AE0C8010E9459
:1014D0005F1D8C016FEF74E00E94281D67E0C8015A
:1014E0000E945F1D6AE08E819F810E945F1D8C01BA
:1014F00060EE74E00E94281D6AE0C8010E945F1D32
:101500008C016AED74E00E94281D66E0C8010E940B
:101510005F1D6AE08E819F810E945F1D8C0163ECDC
:1015200074E00E94281D66E0C8010E945F1D6AE009
:101530008E819F810E945F1D8C0167EA74E00E948A
:10154000281D66E0C8010E945F1D6AE08E819F81B0
:101550000E945F1D8C016FE874E00E94281D66E008
:10156000C8010E945F1D6AE08E819F810E945F1DFD
:101570008C016EE674E00E94281D66E0C8010E949E
:101580005F1D6AE08E819F810E945F1D8C0167E470
:1015900074E00E94281D66E0C8010E945F1D6AE099
:1015A0008E819F810E945F1D8C0169E274E00E9420
:1015B000281D66E0C8010E945F1D6AE08E819F8140
:1015C0000E945F1D8C016EE074E00E94281D66E0A1
:1015D000C8010E945F1D6AE08E819F810E945F1D8D
:1015E000EC016FEF73E00E94281D66E0CE010E94BF
:1015F0005F1DDF91CF911F910F910895AF92BF9220
:10160000CF92DF92EF92FF920F931F93CF93DF93CE
:1016100000D000D0CDB7DEB78C0119821A821B82B0
:101620001C821D821E820E94830D6C01CE010196D8
:101630000E94AB1B5C0166E0F801868197810E94E5
:101640005F1D6AE00E945F1D7C0160EE73E00E94F6
:10165000281D6AE0C7010E945F1D7C0164ED73E0F4
:101660000E94281D66E0C7010E945F1D6AE00E947B
:101670005F1D7C016DEC73E00E94281DB501C70160
:101680000E944F1B6AE00E945F1D7C016FEB73E0BC
:101690000E94281DB601C7010E94A61D6AE00E9493
:1016A0005F1D7C016DEB73E00E94281D4FEF5FE032
:1016B00060E070E0C7010E94DA1DC0902808D09059
:1016C00029086AE0F801868197810E945F1D7C01EC
:1016D00062EB73E00E94281DB601C7010E94A61D9F
:1016E00066E00E945F1D66E00E945F1DF801868132
:1016F00097810E94081A2696CDBFDEBFDF91CF9159
:101700001F910F91FF90EF90DF90CF90BF90AF901F
:101710000895CF93DF9300D000D0CDB7DEB78C0112
:1017200019821A821B821C821D821E826AE0DC01E1
:1017300016968D919C9117970E945F1D7C016EE417
:1017400075E00E94281D66E0C7010E945F1DF80138
:101750008485882321F0813009F45DC0D8C086815A
:101760009781DC01ED91FC910480F581E02D1995C4
:101770008823A9F1F80186819781DC01ED91FC9124
:101780000680F781E02D1995992781309105F9F0B0
:10179000039709F0D8C06AE0F801868197810E941A
:1017A0005F1D8C0160E475E00E94281D66E0C801A1
:1017B0000E945F1D93E088ED08B618BE84BF909329
:1017C00080008091820081FDFCCF08BEFFCFC80160
:1017D0000E94560A61E0C8010E94F617B4C082E870
:1017E00092E30E94B71A882309F4ADC0D801169677
:1017F000ED91FC9117970190F081E02DE280F3804C
:1018000082E892E30E94991A682FF80186819781F5
:10181000F701199598C086819781DC01ED91FC91C3
:101820000480F581E02D1995882309F48CC0F80116
:1018300086819781DC01ED91FC910680F781E02D96
:1018400019959C0133272836310559F13CF42B3189
:10185000310559F12536310541F13BC023373105BA
:10186000C1F02637310589F02E36310591F5CE01CC
:1018700001960E94AB1BBC01F801868197810E94F2
:101880004F1B66E00E945F1D5EC0C8010E94FE0AF9
:101890005AC0D80116968D919C9117970E940F19E6
:1018A00052C0C8010E94560A4EC06AE0F801868103
:1018B00097810E945F1D7C016EE275E00E94281DE9
:1018C00066E0C7010E945F1D60E0C8010E94F61734
:1018D0003AC0F801A681B781ED91FC911197028081
:1018E000F381E02D682FCD0119956AE0D801169695
:1018F0008D919C9117970E945F1D7C0168E275E0B5
:101900000E94281D66E0C7010E945F1D1CC06AE09E
:10191000F801868197810E945F1D8C016BE075E064
:101920000E94281D66E0C8010E945F1D93E088EDBB
:1019300008B618BE84BF909380008091820081FD1C
:10194000FCCF08BEFFCFF80186859785A089B189B5
:101950000196A11DB11D86879787A08BB18B61E091
:1019600070E080E090E00E94CA15F1CE0F931F93C3
:10197000CF93DF93EC010E9426148091C621811140
:101980001DC0ABECB1E2EFECF1E2ED93FC931197EB
:1019900012961D921C921397A7ECB1E28FEF9FE075
:1019A00012968D939C9313971D921C92119782838C
:1019B0009383A083B18381E08093C621209709F4AB
:1019C0005FC09E012B5F3F4F2496CE3FDF4008F063
:1019D0005AC0E091CB21F091CC21ABECB1E202C036
:1019E000DF01FC01828193818217930720F48081BB
:1019F00091810097A9F7C1E2E73CFC0709F446C0D2
:101A0000CD91DC9111978E010B5F1F4F80819181E9
:101A10008D939C9382819381821B930B8B309105D4
:101A200010F1BF01620F731FDB0112968D939C931F
:101A300013972283338312964D915C9113978BEC0D
:101A400091E201C0CD01EC01A881B98112962D91DE
:101A50003C91139724173507A8F3EB01A883B983AA
:101A6000DC016D937C938091002090910120228174
:101A70003381821B930B809300209093012008C038
:101A800000E010E005C000E010E002C000E010E05F
:101A90000E944815C801DF91CF911F910F910895C1
:101AA0000F931F93CF93DF93009741F1EC018C01CB
:101AB000055011090E942614F80142815381ABECB4
:101AC000B1E201C0DF01ED91FC91119722813381D8
:101AD00024173507B8F32597E883F9830D931C93F2
:101AE00020910020309101208A819B81820F931FD9
:101AF00080930020909301200E944815DF91CF91A0
:101B00001F910F91089580910020909101200895D8
:101B1000FC010396818392834FEF5FEFBA01438309
:101B20005483658376838783908781879287108229
:101B30000895FC01128613860895CF93DF93FC016C
:101B4000DB0121813281E9018C819D8114968D9385
:101B50009C9315978181928116968D939C931797EC
:101B60008C819D81EC016E837F83E9016C837D8391
:101B7000618372831A96ED93FC931B9780818F5F2C
:101B80008083DF91CF9108950F931F93CF93DF93BD
:101B9000EB01088119812A813B810F3F4FEF140728
:101BA0002407340731F4DC011996ED91FC911A9762
:101BB0001FC0FC013396DC0117964D915C9118977C
:101BC000DA014D915D916D917C91041715072607FF
:101BD000370770F00480F581E02DA481B5814D9127
:101BE0005D916D917C91041715072607370790F7D3
:101BF000A481B581AC83BD831696CD93DC931797F2
:101C0000EE83FF83C483D5838A879B87FC01208171
:101C10002F5F2083DF91CF911F910F910895FC01D9
:101C2000A481B5818681978116968D939C93179791
:101C3000A681B7818481958114968D939C93159785
:101C4000A285B38511968D919C911297E817F9079B
:101C500031F48681978111968D939C931297128609
:101C600013868C9181508C93089580939232909337
:101C7000933231E1FC013083319722E220833197A6
:101C8000A3E3A083319760833197708331971082EB
:101C900031971082319760E86083319710823197D5
:101CA000108231971082319762E06083319763E050
:101CB0006083319764E06083319765E0608331979A
:101CC00066E06083319767E06083319768E0608306
:101CD000319769E06083319760E1608331973083A9
:101CE000319732E13083319733E13083319734E1FA
:101CF0003083319735E13083319736E13083319746
:101D000037E13083319738E13083319739E13083DF
:101D1000319730E23083319731E23083319720833D
:101D2000319723E220833197408331975083319755
:101D300026E22083319727E22083319728E220830F
:101D4000319729E22083319720E32083319721E3E3
:101D50002083899708958CE7809369088FEF80939B
:101D6000680881E08093400891E190934108809356
:101D70004708A0912E32B0912F32CD91CDBFDD9189
:101D8000DEBFFF91EF91DF91CF91BF91AF919F9116
:101D90008F917F916F915F914F913F912F911F9103
:101DA0000F91FF90EF90DF90CF90BF90AF909F90FA
:101DB0008F907F906F905F904F903F902F901F90EB
:101DC0000F900CBE0F900BBE0F900FBE0F9008959A
:101DD00008950F920FB6F8940F920BB60F920CB6AF
:101DE0000F921F9211242F923F924F925F926F9207
:101DF0007F928F929F92AF92BF92CF92DF92EF929B
:101E0000FF920F931F932F933F934F935F936F9383
:101E10007F938F939F93AF93BF93CF93DF93EF9372
:101E2000FF93A0912E32B0912F320DB60D920EB6C7
:101E30000D920E94F815A0912E32B0912F32CD91C3
:101E4000CDBFDD91DEBFFF91EF91DF91CF91BF91CB
:101E5000AF919F918F917F916F915F914F913F9142
:101E60002F911F910F91FF90EF90DF90CF90BF9037
:101E7000AF909F908F907F906F905F904F903F902A
:101E80002F901F900F900CBE0F900BBE0F900FBEA7
:101E90000F9008950F920FB6F8940F920BB60F9211
:101EA0000CB60F921F9211242F923F924F925F9285
:101EB0006F927F928F929F92AF92BF92CF92DF925A
:101EC000EF92FF920F931F932F933F934F935F9344
:101ED0006F937F938F939F93AF93BF93CF93DF9332
:101EE000EF93FF93A0912E32B0912F320DB60D9249
:101EF0000EB60D920E9447140E94F815A0912E3242
:101F0000B0912F32CD91CDBFDD91DEBFFF91EF912A
:101F1000DF91CF91BF91AF919F918F917F916F9101
:101F20005F914F913F912F911F910F91FF90EF90F3
:101F3000DF90CF90BF90AF909F908F907F906F90E9
:101F40005F904F903F902F901F900F900CBE0F907E
:101F50000BBE0F900FBE0F9008950E944A0F189568
:101F6000CF93DF93EC0188A181110BC08881998107
:101F7000892BE1F58A819B810E94B3171A821B820B
:101F800035C0411117C0482F50E08C819D810E94BF
:101F9000E82428A18C819D81820F911D8C839D83D3
:101FA0002A813B818217930708F1888199818C836C
:101FB0009D831CC0482F50E08E819F810E94E824A1
:101FC00088A190E09195819591092E813F81280FFC
:101FD000391F2E833F83488159812417350730F4F8
:101FE0002A813B81820F931F8E839F838E8D8F5F0B
:101FF0008E8FDF91CF910895FC01808191810097B0
:10200000A1F040A150E026813781240F351F26839F
:102010003783A281B3812A173B0710F08683978309
:10202000CB01668177810E94E82408950F931F9366
:10203000CF93DF93EC010FB6F8940F928AA1181694
:10204000B4F48B89811105C012C08B89811104C041
:102050000EC08E010D5E1F4FC8010E947F168111B8
:102060000E943C178AA181508AA3181674F38FEF3F
:102070008AA30F900FBE0FB6F8940F9289A118167D
:10208000B4F48885811105C012C08885811104C00F
:102090000EC08E01085F1F4FC8010E947F1681117C
:1020A0000E943C1789A1815089A3181674F38FEF01
:1020B00089A30F900FBEDF91CF911F910F910895CB
:1020C0001F93CF93DF93613059F0FC012389308552
:1020D00031112CC011E0211110E0211128C001C0E4
:1020E00011E0EC014881598128A130E06F8D629F99
:1020F000C001639F900D1124BA01680F791F6A8394
:102100007B831E8E4C835D83821B930B840F951FF4
:102110008E839F838FEF89A38AA3CE0108960E94A6
:10212000880DCE0143960E94880D01C010E0812FDA
:10213000DF91CF911F9108950F931F93CF93DF935A
:10214000882301F1062F182F83E290E00E94B60C3D
:10215000EC01892BC9F0109FC001112401960E9447
:10216000B60C88839983892B39F01F8F08A361E00F
:10217000CE010E94601008C0CE010E94500DC0E048
:10218000D0E002C0C0E0D0E0CE01DF91CF911F913E
:102190000F910895AF92BF92CF92DF92EF92FF928C
:1021A0000F931F93CF93DF93CDB7DEB72997CDBFA2
:1021B000DEBF7C015B012E833F834887598710E097
:1021C0006C0188E0C80ED11C0FB6F8940F92F7018D
:1021D000968D878D9817A8F4402FB501C7010E94EE
:1021E000B00FF7018389882341F0C70143960E940D
:1021F0007F16813011F40E94E90E0F900FBE81E02E
:1022000056C08E819F81A885B985892B8A2B8B2BFF
:1022100021F40F900FBE80E04AC0111105C0CE011D
:1022200001960E94BE1611E00F900FBE0E94261468
:102230000FB6F8940F92F70181A18F3F09F411A214
:10224000F70182A18F3F09F412A20F900FBEBE01C9
:102250006A5F7F4FCE0101960E94CF16811121C087
:102260000FB6F8940F92F701968D0F900FBE878DE1
:10227000981311C04E815F8168857985C6010E94DF
:102280005516C7010E9416100E94481581119CCF57
:102290000E94E90E99CFC7010E9416100E944815AE
:1022A00093CFC7010E9416100E94481580E029961E
:1022B000CDBFDEBFDF91CF911F910F91FF90EF90C7
:1022C000DF90CF90BF90AF9008950F931F93CF935F
:1022D000DF938A01FC01568D378D5317C0F4422FCE
:1022E000EC010E94B00F8AA18F3F69F48B8988238B
:1022F00081F0CE0143960E947F16882361F081E031
:10230000F801808309C08F5F8AA381E005C080E067
:1023100003C081E001C081E0DF91CF911F910F9157
:102320000895AF92BF92CF92DF92EF92FF920F93F8
:102330001F93CF93DF93CDB7DEB72997CDBFDEBF15
:102340007C015B012E833F834887598710E06C0135
:1023500083E1C80ED11C0FB6F8940F92F701868D59
:10236000882399F1C680D780B501C7010E94FC0F70
:1023700001111AC0F701868D8150868F808191816D
:10238000892B29F40E945917F70182839383F7015F
:1023900080858823B1F0C70108960E947F1681309E
:1023A00081F40E94E90E0DC0F701C682D7828389AD
:1023B000882339F0C70143960E947F1681110E943D
:1023C000E90E0F900FBE81E062C08E819F81A885CB
:1023D000B985892B8A2B8B2B21F40F900FBE80E0BF
:1023E00056C0111105C0CE0101960E94BE1611E023
:1023F0000F900FBE0E9426140FB6F8940F92F701AB
:1024000081A18F3F09F411A2F70182A18F3F09F446
:1024100012A20F900FBEBE016A5F7F4FCE010196E0
:102420000E94CF1681112DC00FB6F8940F92F701BC
:10243000868D0F900FBE81111EC080819181892BE6
:1024400049F40FB6F8940F92828193810E945E172F
:102450000F900FBE4E815F8168857985C6010E940D
:102460005516C7010E9416100E944815811173CF9E
:102470000E94E90E70CFC7010E9416100E944815F5
:102480006ACFC7010E9416100E94481580E0299665
:10249000CDBFDEBFDF91CF911F910F91FF90EF90E5
:1024A000DF90CF90BF90AF9008950F931F93CF937D
:1024B000DF93FC01268D2223D9F08A01EC010E94D2
:1024C000FC0F8E8D81508E8F89A18F3F69F4888596
:1024D000882381F0CE0108960E947F16882361F040
:1024E00081E0F801808309C08F5F89A381E005C086
:1024F00080E003C081E001C081E0DF91CF911F91B6
:102500000F9108950FB6F8940F92FC01868D0F90ED
:102510000FBE0895FC01868D0895C2E0D2E3888144
:102520008230E8F30E94E90EFACFCF92DF92EF9269
:10253000FF926B017C01E0912E32F0912F32628389
:102540007383848395838091D6319091D731A09104
:10255000D831B091D931C816D906EA06FB0668F41D
:1025600060912E3270912F328091E8319091E93153
:102570006E5F7F4F0E94C40D21C060912E3270911A
:102580002F328091EA319091EB316E5F7F4F0E9444
:10259000C40D8091022090910320A0910420B0915D
:1025A0000520C816D906EA06FB0640F4C0920220B0
:1025B000D0920320E0920420F0920520FF90EF904B
:1025C000DF90CF9008954F925F926F927F928F929B
:1025D0009F92AF92BF92CF92DF92EF92FF920F93B2
:1025E0001F93CF93DF935C014B013A01290188E2ED
:1025F00090E00E94B60CEC01892B09F4D4C0C11400
:10260000D10409F0CCC0C3010E94B60C8B8F9C8F03
:10261000009721F4CE010E94500DC5C0A30161E1D5
:1026200070E00E94F1249301215031098B8D9C8D23
:102630003C01620E731E4AE050E0B401CE014D969B
:102640000E94F8241EA2102F043008F013E01A8F05
:102650001FA36E0122E0C20ED11CC6010E94990D7B
:10266000CE010E960E94990DCA87DB8784E090E028
:10267000A0E0B0E0811B9109A109B1098E879F8775
:10268000A88BB98BCE8BDF8BA201B501C3010E9451
:10269000350E88839983E114F10419F0F701C083A2
:1026A000D1830FB6F8940F928091DA318F5F8093C7
:1026B000DA3180912E3290912F32892B89F5C09397
:1026C0002E32D0932F328091DA318130C1F582E001
:1026D00092E30E94880D8DE092E30E94880D88E1CC
:1026E00092E30E94880D83E292E30E94880D87EFB7
:1026F00091E30E94880D8CEE91E30E94880D8DED90
:1027000091E30E94880D87EF91E38093EA319093E3
:10271000EB318CEE91E38093E8319093E9310FC077
:102720008091D33181110BC0E0912E32F0912F3284
:10273000828D081720F0C0932E32D0932F328A8DCD
:102740009091D531981710F48093D5319091CE3176
:102750009F5F9093CE319091D431981710F480936D
:10276000D431FBE08F9FC0011124B6018E5F9D4CD8
:102770000E949D0D0F900FBE8091D331882359F098
:10278000E0912E32F0912F32828D801730F40E942A
:10279000E90E81E009C081E007C081E005C0CB8E71
:1027A000DC8EC6013BCF8FEFDF91CF911F910F9150
:1027B000FF90EF90DF90CF90BF90AF909F908F9061
:1027C0007F906F905F904F9008950FB6F8940F929E
:1027D000009721F480912E3290912F320F900FBEEE
:1027E000FC01828D0895AF92BF92CF92DF92EF925B
:1027F000FF920F93A12CB12CC12CD12C0F2EFBEDED
:10280000EF2EF1E3FF2EF02D00E020E030E044E673
:1028100050E063E171E28DE892E10E94E3128130C1
:1028200069F4F8948093D3311092D6311092D73155
:102830001092D8311092D9310E94AB0E0F91FF90B7
:10284000EF90DF90CF90BF90AF9008958091D231FC
:102850008F5F8093D23108950FB6F8940F926091F4
:10286000D6317091D7318091D8319091D9310F9074
:102870000FBE0895009721F480912E3290912F324F
:102880004D9608958091DB319091DC310895FF924F
:102890000F931F93CF93DF938091D2318111EDC0BD
:1028A0008091D6319091D731A091D831B091D93162
:1028B0000196A11DB11D8093D6319093D731A0937D
:1028C000D831B093D9318091D6319091D731A09140
:1028D000D831B091D931892B8A2B8B2BF1F580918E
:1028E000EA319091EB312091E8313091E931209338
:1028F000EA313093EB318093E8319093E931809164
:10290000CF318F5F8093CF31E091EA31F091EB319D
:10291000808181110CC08FEF9FEFDC01809302203A
:1029200090930320A0930420B093052016C0E0915B
:10293000EA31F091EB310780F085E02D0084F185DC
:10294000E02D82819381A481B581809302209093B0
:102950000320A0930420B09305204091D6315091DC
:10296000D7316091D8317091D93180910220909106
:102970000320A0910420B0910520481759076A0749
:102980007B0708F47FC0E091EA31F091EB31808160
:102990008823F9F0E091EA31F091EB310780F0857E
:1029A000E02DC085D1858A819B81AC81BD8140911C
:1029B000D6315091D7316091D8317091D9314817C3
:1029C00059076A077B0758F10F2EFBE0FF2EF02D09
:1029D0002FC08FEF9FEFDC018093022090930320A4
:1029E000A0930420B09305204DC0E091EA31F0910E
:1029F000EB310780F085E02DC085D1858A819B81F0
:102A0000AC81BD814091D6315091D7316091D831A0
:102A10007091D931481759076A077B0748F48093AA
:102A2000022090930320A0930420B09305202AC095
:102A30008E010E5F1F4FC8010E940F0E888D998D69
:102A4000892B21F0CE010E960E940F0E8A8D909157
:102A5000D431981710F48093D431F89EC00111241A
:102A6000B8018E5F9D4C0E949D0DE091EA31F0917E
:102A7000EB3180818111B9CFACCF8091D1318F5FA3
:102A80008093D131DF91CF911F910F91FF900895E5
:102A9000CF92DF92EF92FF920F931F93CF93DF932A
:102AA0000FB6F8940F928091D23181508093D23139
:102AB0008091D231811160C08091DA3181112CC0B6
:102AC0005EC0D7011796ED91FC911897C085D1850E
:102AD000CE010E960E940F0E8E010E5F1F4FC80191
:102AE0000E940F0E8A8D9091D431981710F4809324
:102AF000D431D89EC0011124B8018E5F9D4C0E9434
:102B00009D0DE0912E32F0912F329A8D828D981783
:102B100070F0CC24C3940BC0C12C0F2EFDEDEF2E12
:102B2000F1E3FF2EF02D0F2EFBE0DF2EF02DF7014D
:102B300080818111C6CF8091D131882381F080912D
:102B4000D131882399F00E9447148091D13181506E
:102B50008093D1318091D1318111F5CF07C0F1E05F
:102B6000CF1621F08091D031813041F41092D031D4
:102B70000E94E90E81E003C080E001C080E00F9078
:102B80000FBEDF91CF911F910F91FF90EF90DF90DB
:102B9000CF900895CF92DF92EF92FF926B017C016C
:102BA000672B682B692BE9F00E9426148091D6319F
:102BB0009091D731A091D831B091D931C80ED91E9A
:102BC000EA1EFB1E80912E3290912F3202960E94B7
:102BD0000F0EC701B6010E9495120E94481581117F
:102BE00002C00E94E90EFF90EF90DF90CF90089511
:102BF0008091D23181110CC0E091D4314BE0E49F3F
:102C0000F0011124EE5FFD4C8081882329F014C06F
:102C100081E08093D03108959BE08091D431815040
:102C20008093D431E091D4319E9FF0011124EE5F66
:102C3000FD4C8081882389F38091D431282F30E0A6
:102C40004BE0849FC0011124DC01AE5FBD4C1196A6
:102C5000ED91FC9112970480F581E02D1196ED9392
:102C6000FC9312978B5F9D4CE817F90761F4848100
:102C700095814BE0429FF001439FF00D1124EE5FE0
:102C8000FD4C818392838BE0829FF001839FF00D46
:102C90001124EE5FFD4C0180F281E02D808591854D
:102CA00080932E3290932F320895CF92DF92EF923D
:102CB000FF926A017B0160912E3270912F32625F28
:102CC0007F4F0E94C40D80912E3290912F32029638
:102CD0000E940F0E8091D6319091D731A091D831BA
:102CE000B091D931BC01CD016C0D7D1D8E1D9F1D94
:102CF0000E949512FF90EF90DF90CF9008950F9370
:102D00001F93CF93DF93DC011796ED91FC911897F9
:102D1000C085D1858E01025F1F4FC8010E940F0E32
:102D20008091D231811116C00C501109C8010E9446
:102D30000F0E8A8D9091D431981710F48093D4316E
:102D4000BBE08B9FC0011124B8018E5F9D4C0E9497
:102D50009D0D05C0B8018DED91E30E949D0DE091A0
:102D60002E32F0912F3281E02A8D928D291708F4AE
:102D700080E0DF91CF911F910F9108952091CF3185
:102D8000FC0120834091D6315091D7316091D831E8
:102D90007091D931418352836383748308958F92F4
:102DA0009F92AF92BF92CF92DF92EF92FF920F93DA
:102DB0001F93CF93DF93FC010FB6F8940F9280918D
:102DC000CF319081981789F08091D6319091D73189
:102DD000A091D831B091D931018112812381348100
:102DE00080179107A207B307A8F58091D63190917B
:102DF000D731A091D831B091D931C180D280E38050
:102E0000F480EB01088119812A813B818C199D098D
:102E1000AE09BF0980179107A207B307E8F4CF01F5
:102E20008090D6319090D731A090D831B090D931E0
:102E3000B501A4014C195D096E097F09041B150B2E
:102E4000260B370B088319832A833B830E94BE1607
:102E500080E003C081E001C081E00F900FBEDF91F0
:102E6000CF911F910F91FF90EF90DF90CF90BF9087
:102E7000AF909F908F90089581E08093D031089516
:102E8000009721F480912E3290912F32DC015B96D5
:102E9000ED91FC915C978081813141F4319680E025
:102EA00090E0019621912131E1F3089580E090E0D6
:102EB000089580912E3290912F3208950F931F9391
:102EC000CF93DF93FC01228DA0912E32B0912F324F
:102ED0005A968C91281708F041C0A0912E32B091DB
:102EE0002F325A963C9184E090E0A0E0B0E0831B42
:102EF0009109A109B10986879787A08BB18B8BE0D7
:102F0000289F900111242E5F3D4C84859585821762
:102F10009307E9F48F01EF012296CE010E940F0E74
:102F2000E0912E32F0912F32828DF801828F9091B4
:102F3000D431981710F48093D431FBE08F9FC001F7
:102F40001124BE018E5F9D4C0E949D0D07C0A09173
:102F50002E32B0912F325A968C91828FDF91CF9181
:102F60001F910F9108950F931F93CF93DF930097B5
:102F700049F1FC01328D27A1321721F1EC018C01BE
:102F80000E5F1F4FC8010E940F0E8FA18A8F44E071
:102F900050E060E070E0481B5109610971094E87FB
:102FA0005F87688B798B9091D431981710F4809358
:102FB000D431FBE08F9FC0011124B8018E5F9D4C7E
:102FC0000E949D0DDF91CF911F910F910895EC010B
:102FD000E881F9810190F081E02D19951A821B8218
:102FE0006FEF7FEFCB010E94CA15FACFFC01648717
:102FF000658708954F925F926F927F928F929F9212
:10300000AF92BF92CF92DF92EF92FF920F931F93F6
:10301000CF93DF93CDB7DEB72A97CDBFDEBF4C018C
:10302000290138018CE191E2F40180839183FB0155
:103030008081882369F0DE011196319690E002C00C
:10304000993039F09F5F8D9381918111F9CF01C043
:1030500090E0E1E0F0E0EC0FFD1FE90FF11D1082C0
:103060007401F2E0EF0EF11CA12CB12CC12CD12C7B
:10307000042F9401A201BE016F5F7F4F82E393E0B2
:103080000E94E312F4016682778240865186209185
:1030900030323091313224833583809230329092B5
:1030A0003132148615864090923250909332FFEF61
:1030B0004F1A5F0A4092923250929332F401428644
:1030C000538616861786108A118A6114710409F4D2
:1030D00044C0813079F56AE0C3010E945F1D7C0124
:1030E00061EB75E00E94281DBE016F5F7F4FC70135
:1030F0000E94281D6AE0C7010E945F1D7C0168EAEA
:1031000075E00E94281D6AE0C7010E945F1D7C01D6
:103110006AE975E00E94281D63E0C7010E945F1DF7
:10312000B2010E94A61D62E00E945F1D66E00E943F
:103130005F1D13C06AE0C3010E945F1D4C0165E87A
:1031400075E00E94281DBE016F5F7F4FC4010E9481
:10315000281D66E0C4010E945F1D2A96CDBFDEBF18
:10316000DF91CF911F910F91FF90EF90DF90CF9063
:10317000BF90AF909F908F907F906F905F904F9097
:103180000895CF92DF92EF92FF920F931F93CF9308
:10319000DF93EC017B018A819B810E943A146C01D0
:1031A0006AE0C7010E945F1D8C0164EC75E00E941B
:1031B000281D6AE0C8010E945F1D8C016DEB75E05F
:1031C0000E94281DB601C8010E94281D6AE0C8019E
:1031D0000E945F1D8C0167EB75E00E94281D66E070
:1031E000C8010E945F1D8A859B85E885F98501E1FC
:1031F00021E0A701BC018E1B9F0B0E94C31B8C8189
:103200009D81009719F0B7010E94C118DF91CF91FD
:103210001F910F91FF90EF90DF90CF9008950F9343
:103220001F93CF93DF93EC01809130329091313234
:10323000009719F0BE010E94C1186AE0CE010E94F9
:103240005F1D8C016AED75E00E94281D6AE0C801CF
:103250000E945F1D8C016FEC75E00E94281D6AE0E2
:10326000C8010E945F1D8C0169EC75E00E94281D59
:1032700066E0C8010E945F1D809192329091933266
:10328000BC016F5F7F4F01E121E0AE0183569109E0
:103290000E94C31BDF91CF911F910F9108958F92D0
:1032A0009F92AF92BF92CF92DF92EF92FF920F93D5
:1032B0001F93CF93DF93EC018B018A819B810E9446
:1032C0003A14BC01C8010E94281DD801ED91FC915F
:1032D0000280F381E02D69E0C80119958A819B8104
:1032E0000E943A14FC0101900020E9F73197E81B95
:1032F000F90B389748F4D801ED91FC910280F381E5
:10330000E02D69E0C8011995CE84DF84E888F9884A
:10331000A884B9848A819B810E944017982E8C844E
:103320008A819B810E94E513682FC8010E941C1EA0
:103330006AE00E945F1DEC016FE476E00E94281DA8
:10334000682DCE010E941C1E6AE00E945F1DEC01E8
:103350006DE476E00E94281D692DCE010E941C1E9E
:103360006AE00E945F1DEC016BE476E00E94281D7C
:10337000B501CE010E94A61D6AE00E945F1DEC010E
:1033800069E476E00E94281D6AE0CE010E945F1D7C
:10339000EC0167E476E00E94281DB701A601CE018A
:1033A0000E94DA1DDF91CF911F910F91FF90EF9056
:1033B000DF90CF90BF90AF909F908F900895CF9364
:1033C000DF93EC01CB01DB01ED91FC910280F381F5
:1033D000E02DBE011995CE01DF91CF9108950F9395
:1033E0001F93CF93DF93EC018B01BC01C8010E94B6
:1033F000DF1966E00E945F1D8C819D81009719F0A6
:10340000B8010E94EF19DF91CF911F910F9108959C
:103410000F931F93CF93DF93EC016AE00E945F1D2F
:103420008C016CE376E00E94281D6AE0C8010E94CE
:103430005F1D8C0165E376E00E94281D66E0C801EF
:103440000E945F1D6AE0CE010E945F1D8C0164E254
:1034500076E00E94281D6AE0C8010E945F1D8C0171
:1034600068E176E00E94281D6AE0C8010E945F1DA5
:103470008C0162E176E00E94281D66E0C8010E948E
:103480005F1D6AE0CE010E945F1D8C0161E076E065
:103490000E94281D6AE0C8010E945F1D8C0165EF33
:1034A00075E00E94281D6AE0C8010E945F1D8C0122
:1034B0006FEE75E00E94281D66E0C8010E945F1D46
:1034C0008091303290913132009719F0BE010E9404
:1034D000EF190E9442140E944017182F6AE0CE0193
:1034E0000E945F1DEC0164EE75E00E94281D612FB3
:1034F000CE010E941C1E6AE00E945F1DEC0162EE7C
:1035000075E00E94281D64E670E0CE010E94A61DB1
:103510006AE00E945F1DEC016FED75E00E94281DBE
:1035200066E0CE010E945F1DDF91CF911F910F9148
:1035300008950F93CF93DF931F92CDB7DEB700E0CE
:103540002FEF3FEFA901BE016F5F7F4FFC01808528
:1035500091850E949111813019F4898190E002C017
:103560008FEF9FEF0F90DF91CF910F910895FC01A6
:10357000808591850E94821291E0811101C090E0C6
:10358000892F08950F93CF93DF931F92CDB7DEB7A6
:103590006983FC01228533854485558500E0BE01A1
:1035A0006F5F7F4F808591850E94CA1091E08111E5
:1035B00001C090E0892F0F90DF91CF910F91089576
:1035C0008F929F92BF92CF92DF92EF92FF920F93D2
:1035D0001F93CF93DF93EC01B62E4A016801790166
:1035E0000E941A1D84E291E2888399838E869F86C9
:1035F00040E061E08B2D0E949C1088879987CA86E5
:10360000DB86EC86FD86DF91CF911F910F91FF90B5
:10361000EF90DF90CF90BF909F908F900895CF92C2
:10362000DF92EF92FF92CF93DF93EC016881798173
:103630008A819B810F2EF8EECF2EF3E0DF2EE12C56
:10364000F12CF02DA70196010E9484249B01AC016E
:1036500060E472E48FE090E00E947424A701960178
:103660000E94842469017A01AC81BD8120E432E4A6
:103670004FE050E00E94CE2420E038E448EE51E0D4
:103680000E948424C701B601620F731F841F951F17
:10369000DF91CF91FF90EF90DF90CF900895CF9280
:1036A000DF92EF92FF920F931F93CF93DF93CDB7EB
:1036B000DEB72F97CDBFDEBF6C018B01DB016D91B3
:1036C0007D918D919C9128EE33E040E050E00E9486
:1036D0008424BA01A901C6010E94DA1DD601ED9128
:1036E000FC910280F381E02D6EE2C6011995C801BC
:1036F0000E940F1B8E01095F1F4FFE0131967F0153
:103700002AE030E040E050E00E94A624E62F28871F
:1037100039874A875B87688579858A859B8520E319
:103720002E0FD8012E938D01AE15BF0549F71F82CC
:10373000BE016F5F7F4FC6010E94281DC6012F96F4
:10374000CDBFDEBFDF91CF911F910F91FF90EF9022
:10375000DF90CF900895CF93DF93EC010FB6F894EC
:103760000F9280912008909121088C839D830E9464
:103770002C14688379838A839B830F900FBECE01BC
:10378000DF91CF9108955F926F927F928F929F9277
:10379000AF92BF92CF92DF92EF92FF920F931F935F
:1037A000CF93DF935C014B017A01122F702E63E0FF
:1037B000CA010E945F1DA814B90408F07DC065010C
:1037C00084E1C80ED11C00E06A2C5B2CB501C70156
:1037D0000E94A61D6AE00E945F1D61E676E00E94DD
:1037E000281D112309F46DC0002309F46AC06AE0A2
:1037F000C7010E945F1D6CE576E00E94281D61C034
:10380000112371F001110CC08881871549F06AE01D
:10381000C7010E945F1D67E576E00E94281D01E058
:103820006991C7010E941C1EDC01ED91FC91028090
:10383000F381E02D60E21995CC16DD0609F711231E
:1038400089F06AE0C7010E945F1DEC0161E576E046
:103850000E94281DE881F9810280F381E02D60E259
:10386000CE011995C62DD52D699180EE860F8F3525
:1038700048F4D701ED91FC910280F381E02DC7015E
:10388000199509C0D701ED91FC910280F381E02DDB
:103890006EE2C7011995CC16DD0631F7B4E1AB0E27
:1038A000B11C66E0C7010E945F1D84E1C80ED11CF7
:1038B000A814B90408F488CF62E0C7010E945F1D14
:1038C00003C0C62DD52D9CCFDF91CF911F910F91B5
:1038D000FF90EF90DF90CF90BF90AF909F908F9030
:1038E0007F906F905F9008950E94B60C08950E949B
:1038F000B60C08950895CF93DF93FC01DA01403AA6
:1039000068E0560749F480E496E08283938382E07E
:10391000848383E0858332C0403B78E0570749F4D5
:1039200080E496E08283938386E0848387E08583C6
:1039300025C0403A89E0580749F480E696E0828342
:10394000938382E0848383E0858318C0403B69E0F1
:10395000560749F480E696E08283938386E0848369
:1039600087E085830BC0403A5A4041F480E896E0F6
:103970008283938382E0848383E08583A683B783F5
:10398000CD01019680879187039682879387258151
:10399000C281D3814C8181E090E0BC0102C0660FFE
:1039A000771F2A95E2F79B01242B2C832581C28166
:1039B000D3814881BC0102C0660F771F2A95E2F7C8
:1039C0009B01242B28833481C281D381288102C0AA
:1039D000880F991F3A95E2F7809590958223888306
:1039E00080E113968C93139783E015968C9315972B
:1039F00080EF17968C93179781E216968C93169703
:103A000088E114968C9380E8858780E4868780E23D
:103A100084870680F781E02D80818081DF91CF91BE
:103A2000089581E0089580E090E0089580E0089591
:103A300008950895FC0184E391E2808391838AE0F4
:103A40008283138283E0858314821682178208950D
:103A50000F931F93CF93DF938C01FB01DC0114962E
:103A60008C91811104C06081611117C023C0D801FD
:103A700014961C92EB01219664916623D9F0D8012B
:103A8000ED91FC910280F381E02DC8011995FE01B2
:103A9000649121966111F3CF0DC0EF012196D801F9
:103AA000ED91FC910280F381E02DC8011995699197
:103AB0006111F5CFDF91CF911F910F910895CF93B1
:103AC000DF93EC01862F90E08B309105D8F5FC0157
:103AD0008827E250FF4F8F4F0C94C52482E08A83E1
:103AE00031C088E08A832EC08AE08A832BC080E1BF
:103AF0008A8328C081E08B8325C01B8223C0E88194
:103B0000F9810280F381E02D6DE0CE011995E88105
:103B1000F9810280F381E02D6AE0CE01199512C08F
:103B2000E881F9810284F385E02DCE0119950AC060
:103B3000E881F9810084F185E02DCE01199502C05C
:103B400081E08C83CE01DF91CF910895FF920F9396
:103B50001F93CF93DF93CDB7DEB76197CDBFDEBFA5
:103B60008C01F62E972FF8014281403121F0483028
:103B700011F0423041F4692FC8010E941C1E6F2DC4
:103B80000E941C1E0DC050E0BE016F5F7F4F8F2D45
:103B90000E943425BE016F5F7F4FC8010E94281D1F
:103BA000C8016196CDBFDEBFDF91CF911F910F910C
:103BB000FF900895DF92EF92FF920F931F93CF93A0
:103BC000DF93CDB7DEB7A197CDBFDEBF8C01D42E7A
:103BD000E52EF62E972FF8012281203121F0283092
:103BE00011F0223071F4692FC8010E941C1E6F2D44
:103BF0000E941C1E6E2D0E941C1E6D2D0E941C1EFC
:103C00000FC030E0AE014F5F5F4F6D2D7E2D8F2DC9
:103C10000E940725BE016F5F7F4FC8010E94281DCB
:103C2000C801A196CDBFDEBFDF91CF911F910F914B
:103C3000FF90EF90DF900895CF92DF92EF92FF9286
:103C40000F931F93CF93DF93CDB7DEB72997CDBFE7
:103C5000DEBF8C01E62EDC0113968C91139788232E
:103C600041F0ED91FC910280F381E02DC80119959E
:103C700056C0F8014281423019F56894CC24C3F84B
:103C8000D12C6894FF24F7F88E2D8F2151F0D801A4
:103C9000ED91FC910280F381E02D61E3C80119955B
:103CA00009C0D801ED91FC910280F381E02D60E321
:103CB000C8011995F694B1E0CB1AD10829F72FC0A5
:103CC0004031F9F462956F700190F081E02D02802F
:103CD000F381E02D6A3010F0695C01C0605DC801BD
:103CE00019956E2D6F70D801ED91FC910280F381D2
:103CF000E02D6A3010F0695C01C0605DC801199563
:103D00000EC050E0BE016F5F7F4F8E2D90E00E948D
:103D10003425BE016F5F7F4FC8010E94281DC80176
:103D20002996CDBFDEBFDF91CF911F910F91FF90FC
:103D3000EF90DF90CF900895DC015096ED91FC91CB
:103D40005197808154964C915497842329F009C04F
:103D50002150310919F412C021E23EE490819423EC
:103D6000B9F3908156968C915697892B80831E9635
:103D7000ED91FC911F97608381E0089580E00895A4
:103D8000CF93DF93FC01C18DD28D28813981A38D22
:103D9000B48D4D915C9124173507E9F3A789B08D57
:103DA0000D90BC91A02DA20FB31F8C912F5F3F4FA0
:103DB000288339832436310528F0018CF28DE02DDB
:103DC0001082118290E0DF91CF910895CF93DF931D
:103DD000EC01A98DBA8DEB8DFC8D81E04D915C914C
:103DE000208131814217530709F480E0DF91CF91A0
:103DF0000895DC01ED91FC910280F381E02D6CE0EF
:103E000019950895EF92FF920F931F93CF93DF932D
:103E1000EC017B018A010E941A1DA801B701CE01A5
:103E200008960E947B1C84E491E288839983003A7F
:103E300088E0180769F48EE492E38F8B988F84E40E
:103E400092E3898F9A8F8AE392E38B8F9C8F42C093
:103E5000003BE8E01E0769F48CE492E38F8B988FB7
:103E600082E492E3898F9A8F88E392E38B8F9C8F11
:103E700031C0003AF9E01F0769F48AE492E38F8BBE
:103E8000988F80E492E3898F9A8F86E392E38B8FF9
:103E90009C8F20C0003B89E0180769F488E492E316
:103EA0008F8B988F8EE392E3898F9A8F84E392E3CE
:103EB0008B8F9C8F0FC0003A1A4061F486E492E326
:103EC0008F8B988F8CE392E3898F9A8F82E392E3B2
:103ED0008B8F9C8F0F89188D84E690E00E94771C51
:103EE000F80180839183E98DFA8D10821182EB8D28
:103EF000FC8D10821182DF91CF911F910F91FF9065
:103F0000EF9008951F920F920FB60F92112408B6EA
:103F10000F9218BE0BB60F921BBE2F933F938F9339
:103F20009F93EF93FF932091A008E0914E32F09180
:103F30004F3280913A3290913B32E80FF91F208343
:103F400080913A3290913B3201968436910560F42B
:103F500080933A3290933B322091443230914532F3
:103F600082179307F1F40CC010923A3210923B3250
:103F700080914432909145321816190691F40EC082
:103F800001968436910528F480934432909345320B
:103F900008C0109244321092453203C081E090E094
:103FA000F3CFFF91EF919F918F913F912F910F90C0
:103FB0000BBE0F9008BE0F900FBE0F901F9018956C
:103FC0001F920F920FB60F92112408B60F9218BECF
:103FD0000BB60F921BBE2F933F938F939F93EF933C
:103FE000FF932091B008E0914C32F0914D328091D6
:103FF000383290913932E80FF91F2083809138329E
:104000009091393201968436910560F4809338326C
:104010009093393220914232309143328217930784
:10402000F1F40CC010923832109239328091423241
:10403000909143321816190691F40EC001968436F9
:10404000910528F4809342329093433208C0109235
:1040500042321092433203C081E090E0F3CFFF91EF
:10406000EF919F918F913F912F910F900BBE0F90E9
:1040700008BE0F900FBE0F901F9018951F920F92C1
:104080000FB60F92112408B60F9218BE0BB60F92FE
:104090001BBE2F933F938F939F93EF93FF9320919A
:1040A000A009E0914A32F0914B3280913A329091DE
:1040B0003B32E80FF91F20838091363290913732DE
:1040C00001968436910560F48093363290933732AE
:1040D000209140323091413282179307F1F40CC0A5
:1040E00010923632109237328091403290914132A4
:1040F0001816190691F40EC001968436910528F41D
:10410000809340329093413208C010924032109216
:10411000413203C081E090E0F3CFFF91EF919F9196
:104120008F913F912F910F900BBE0F9008BE0F9073
:104130000FBE0F901F9018951F920F920FB60F92FF
:10414000112408B60F9218BE0BB60F921BBE2F9308
:104150003F938F939F93EF93FF932091B009E0914A
:104160004832F09149328091343290913532E80FE3
:10417000F91F208380913432909135320196843634
:10418000910560F4809334329093353220913E3221
:1041900030913F3282179307F1F40CC01092343201
:1041A0001092353280913E3290913F3218161906A6
:1041B00091F40EC001968436910528F480933E3226
:1041C00090933F3208C010923E3210923F3203C0AB
:1041D00081E090E0F3CFFF91EF919F918F913F911C
:1041E0002F910F900BBE0F9008BE0F900FBE0F9037
:1041F0001F9018951F920F920FB60F92112408B6B8
:104200000F9218BE0BB60F921BBE2F933F938F9346
:104210009F93EF93FF932091A00AE0914632F09193
:1042200047328091323290913332E80FF91F208368
:10423000809132329091333201968436910560F448
:10424000809332329093333220913C3230913D3220
:1042500082179307F1F40CC010923232109233326D
:1042600080913C3290913D321816190691F40EC09F
:1042700001968436910528F480933C3290933D3228
:1042800008C010923C3210923D3203C081E090E0B1
:10429000F3CFFF91EF919F918F913F912F910F90CD
:1042A0000BBE0F9008BE0F900FBE0F901F90189579
:1042B000FC01848195810E948A1290E00895FC019E
:1042C000848195810E948A1291E0811101C090E061
:1042D000892F0895FC01848195810E948A1291E0C2
:1042E000811190E0892F0895FC01848195810E94BD
:1042F0008A1290E00895FC01848195810E948A12BF
:1043000091E0811101C090E0892F0895FC01848122
:1043100095810E948A1291E0811190E0892F089581
:10432000FC01848195810E94821290E00895FC0135
:10433000848195810E94821291E0811101C090E0F8
:10434000892F0895FC01848195810E94821291E059
:10435000811190E0892F0895FC01848195810E944C
:10436000821290E00895FC01848195810E9482125E
:1043700091E0811101C090E0892F0895FC018481B2
:1043800095810E94821291E0811190E0892F089519
:104390000F9301E02FEF3FEFA901FC01848195818C
:1043A0000E9491110F9108950F93CF93DF931F9265
:1043B0001F92CDB7DEB701E02FEF3FEFA901BE019D
:1043C0006F5F7F4FFC01848195810E9491118981EB
:1043D0009A810F900F90DF91CF910F9108950F93D5
:1043E00000E02FEF3FEFA901FC01848195810E943D
:1043F00091110F9108950F93CF93DF931F921F9206
:10440000CDB7DEB700E02FEF3FEFA901BE016F5F30
:104410007F4FFC01848195810E94911189819A814D
:104420000F900F90DF91CF910F9108950F9301E0BE
:104430002FEF3FEFA901FC01848195810E9491112A
:104440000F9108950F93CF93DF931F921F92CDB7D3
:10445000DEB701E02FEF3FEFA901BE016F5F7F4F95
:10446000FC01848195810E94911189819A810F902C
:104470000F90DF91CF910F9108950F9300E02FEFF0
:104480003FEFA901FC01848195810E9491110F9158
:1044900008950F93CF93DF931F921F92CDB7DEB78E
:1044A00000E02FEF3FEFA901BE016F5F7F4FFC01DE
:1044B000848195810E94911189819A810F900F903A
:1044C000DF91CF910F910895CF93DF931F92CDB7D6
:1044D000DEB7AE014F5F5F4FFC01848195810E9482
:1044E00055120F90DF91CF910895CF93DF9300D0B5
:1044F000CDB7DEB7AE014D5F5F4FBE016F5F7F4F3F
:10450000FC01848195810E94551289819A812396AC
:10451000CDBFDEBFDF91CF910895CF93DF931F9280
:10452000CDB7DEB7AE014F5F5F4FFC01848195814F
:104530000E9455120F90DF91CF910895CF93DF9392
:1045400000D0CDB7DEB7AE014D5F5F4FBE016F5FEC
:104550007F4FFC01848195810E94551289819A8147
:104560002396CDBFDEBFDF91CF910895CF93DF9328
:104570001F92CDB7DEB7198221E0AE014F5F5F4FCA
:10458000FC01848195810E94651191E0811101C037
:1045900090E0892F0F90DF91CF910895CF93DF9313
:1045A0001F92CDB7DEB7198220E0AE014F5F5F4F9B
:1045B000FC01848195810E94651191E0811101C007
:1045C00090E0892F0F90DF91CF910895CF93DF93E3
:1045D0001F92CDB7DEB7198221E0AE014F5F5F4F6A
:1045E000FC01848195810E94651191E0811101C0D7
:1045F00090E0892F0F90DF91CF910895CF93DF93B3
:104600001F92CDB7DEB7198220E0AE014F5F5F4F3A
:10461000FC01848195810E94651191E0811101C0A6
:1046200090E0892F0F90DF91CF9108950F93FC01B7
:10463000268137814085518501E0848195810E94E2
:10464000CA1091E0811101C090E0892F0F91089567
:104650000F93FC01268137814085518500E08481DC
:1046600095810E94CA1091E0811101C090E0892FCC
:104670000F9108950F93FC01268137814085518564
:1046800001E0848195810E94CA1091E0811101C0EE
:1046900090E0892F0F9108950F93FC0126813781B7
:1046A0004085518500E0848195810E94CA1091E087
:1046B000811101C090E0892F0F9108950F93CF933E
:1046C000DF931F92CDB7DEB72FB72983F8941BBEB7
:1046D000FC0108ED04BF608389818FBF0F90DF91DB
:1046E000CF910F910895EF92FF920F931F93CF9365
:1046F000DF93CDB7DEB7C554D109CDBFDEBFF89487
:10470000E0E5F0E0808182608083818181FFFDCFE0
:1047100060914000687F616080E490E00E945E23C9
:10472000E0E5F0E080818E7F80839DEF88ED08B624
:1047300018BE84BF9093800008BE40EA5AE060E053
:1047400070E0CE0101960E94021F67E0CE01019643
:104750000E945F1D8C0160E571E20E94281D66E0E9
:10476000C8010E945F1D66E00E945F1D8E010F5F01
:104770001F4F20E332EF40E050E060EA74E0CE01EA
:104780004E960E948F07BE01625E7F4FCE01C79694
:104790000E94FD0882E190E00E94741C20E830E055
:1047A00040E06FE671E20E94460A88E190E00E94D4
:1047B000741C9E01295C3F4F790120E830E042E003
:1047C00067E771E20E94290A87E08093A20078944B
:1047D0000E94F31380E090E0CB5BDF4FCDBFDEBFE4
:1047E000DF91CF911F910F91FF90EF900895CF929D
:1047F000DF92EF92FF920F931F93CF93DF930AE024
:1048000010E020E030E040E050E060E270E082E85C
:1048100092E30E94E01AC8E7D2E31A821B8281E881
:1048200091E28883998340E062E08FEF0E949C10C0
:104830008C839D830F2EFAE0CF2ED12CE12CF12C0E
:10484000F02DCE82DF82E886F986CEE6D2E31A82A8
:104850001B8205EA11E20883198340E062E08FEFD2
:104860000E949C108C839D83CE82DF82E886F9862D
:10487000C4E6D2E31A821B820883198340E062E017
:104880008FEF0E949C108C839D83CE82DF82E8860E
:10489000F986CAE5D2E31A821B820883198340E0B5
:1048A00062E08FEF0E949C108C839D83CE82DF821A
:1048B000E886F986C0E5D2E31A821B820883198351
:1048C00040E062E08FEF0E949C108C839D83CE823B
:1048D000DF82E886F986DF91CF911F910F91FF90DB
:1048E000EF90DF90CF900895DB018F939F930E940C
:1048F000CE24BF91AF91A29F800D911DA39F900DDB
:10490000B29F900D11240895A1E21A2EAA1BBB1B81
:10491000FD010DC0AA1FBB1FEE1FFF1FA217B3078B
:10492000E407F50720F0A21BB30BE40BF50B661FA1
:10493000771F881F991F1A9469F760957095809565
:1049400090959B01AC01BD01CF010895052E97FB09
:104950001EF400940E94BD2457FD07D00E948424B9
:1049600007FC03D04EF40C94BD245095409530952F
:1049700021953F4F4F4F5F4F0895909580957095CB
:1049800061957F4F8F4F9F4F0895EE0FFF1F881F38
:104990008BBF0790F691E02D1BBE19940E94D9247D
:1049A000A59F900DB49F900DA49F800D911D112483
:1049B0000895A29FB001B39FC001A39F700D811DF8
:1049C0001124911DB29F700D811D1124911D089518
:1049D000FB01DC0102C001900D9241505040D8F71C
:1049E0000895DC0101C06D9341505040E0F70895F7
:1049F000FB01DC014150504048F001900D92002035
:104A0000C9F701C01D9241505040E0F7089525328A
:104A1000310520F4223010F00C941225FA01108296
:104A2000CA010895BB27FA01A62F621771058105F7
:104A30009105330B30FB66F0AA27660F771F881F9E
:104A4000991FAA1FA21710F0A21B63953850A9F74F
:104A5000A05DAA3308F0A95DA19336F7B111B19317
:104A60001082CA010C9459254532510520F4423078
:104A700010F00C943F25FB011082CB010895BB2759
:104A8000FB015527AA27880F991FAA1FA41710F00A
:104A9000A41B83955051B9F7A05DAA3308F0A95D16
:104AA000A193009779F7B111B1931192CB010C94B6
:104AB0005925DC01FC01672F71917723E1F73297CB
:104AC00004C07C916D9370836291AE17BF07C8F3E9
:064AD0000895F894FFCFE9
:104AD600FF0FFFFFFFFF0000000078038D03B80300
:104AE6006D03EA036572726F7200646F6E65007221
:104AF600207061636B65740074207061636B65740C
:104B060000722065786368616E6765007420657859
:104B16006368616E676500722073746174757300F3
:104B26007420737461747573007374617274000019
:104B3600000000F70393050000000016047E050040
:104B460000000047046905000000007804540500D1
:104B5600000000A8043F0500000000CE042A05005E
:104B6600000000A805150500000000E3040005008C
:104B7600000000E704EB0400000000EB08C108D9C0
:104B860008A90869085D0892088108450839082FB0
:104B9600081308240808081D08010800000000EB97
:104BA60008C108D908A90869085D0892088108455E
:104BB6000839082F081308240808081D08010800EA
:104BC6000000007A1C7A1C7A1C7A1C7A1C000000F1
:104BD60000F40700000000EB094F190000000089EF
:104BE6000B4F1949444C4500000000007A1C4F1930
:104BF60000000000111DC21AB71A991A181D191DB6
:104C060000000000111D7A1C161D131D181D191D0C
:104C160000000000111D9C1EE61EC01E181DF91E78
:104C26004672656552544F5320586D65676120542E
:104C3600657374696E672050726F6772616D005597
:104C4600736572496E7400536F6E617200000000E6
:104C5600002823CE221623B622FB21EF21752264DB
:104C660022D421C821A2216A2197215F21902158AF
:104C760021000000004C23FE223A23E62249223D71
:104C8600229E228D2222221622BE218621B3217B3C
:064C960021AC2174210095
:00000001FF
