S01600004652454552544F535F5348454C4C2E73726563CD
S11300000C9437030C946D030C946D030C946D03E2
S11300100C946D030C946D030C946D030C946D039C
S11300200C946D030C946D030C946D030C946D038C
S11300300C946D030C946D030C946D030C946D037C
S11300400C946D030C946D030C946D030C946D036C
S11300500C946D030C946D030C9409110C946D03B2
S11300600C946D030C94DE200C946D030C946D03BE
S11300700C943C210C946D030C946D030C946D034F
S11300800C946D030C946D030C946D030C946D032C
S11300900C946D030C946D030C946D030C946D031C
S11300A00C946D030C946D030C946D030C946D030C
S11300B00C946D030C946D030C946D030C946D03FC
S11300C00C946D030C946D030C946D030C946D03EC
S11300D00C946D030C946D030C946D030C946D03DC
S11300E00C946D030C946D030C9456220C946D03C4
S11300F00C946D030C946D030C946D030C946D03BC
S11301000C946D030C946D030C946D030C946D03AB
S11301100C946D030C946D030C946D030C946D039B
S11301200C946D030C946D030C946D030C946D038B
S11301300C946D030C946D030C946D030C946D037B
S11301400C946D030C946D030C946D030C946D036B
S11301500C946D030C946D030C946D030C946D035B
S11301600C949A210C946D030C946D030C94F82157
S11301700C946D030C946D030C946D030C946D033B
S11301800C946D030C946D030C946D030C946D032B
S11301900C946D030C946D030C946D030C946D031B
S11301A00C946D030C946D030C946D030C946D030B
S11301B00C946D030C946D030C946D030C946D03FB
S11301C00C946D030C946D030C946D030C946D03EB
S11301D00C946D030C946D030C946D030C946D03DB
S11301E00C946D030C946D030C946D030C946D03CB
S11301F00C946D030C946D030C946D03CA1ECD1EF8
S1130200D01ED31ED61ED91EDB1EEC1EF41EFE1EEF
S1130210FC1E0C94AB1A0C9499230C9484240C9417
S1130220F3220C94B4080C94DB1E0C9461050C941A
S113023054250C94D31E0C94F1040C94FA230C94BE
S113024096240C94C2050C944F090C9462080C94E7
S1130250D61D0C94F81F0C9450080C9476050C943D
S1130260D7220C94C6220C948B050C94721E0C9409
S11302700D040C94CD1E0C9412240C94A5230C9400
S113028054040C9455200C94EC030C94F4080C9432
S11302908F030C94E2220C9457080C941C200C94A9
S11302A046080C94A8240C945A240C94E9230C9426
S11302B06F1E0C9403040C940D050C94FC1E0C94FA
S11302C0F41E0C94D01E0C9472230C94D61E0C9421
S11302D057230C9411080C94360B0C949B040C9427
S11302E04B230C947E230C94CA1E0C949C080C94EF
S11302F0BA030C946D1E0C94EC1E0C9430090C94EF
S11303000F230C9437050C94751E0C9408230C943D
S11303101E1C0C94E9130C94D91E0C942A240C94DE
S1130320741E0C94FE220C94F9030C94CB040C94CC
S113033042240C9469090C9478080C9472240C944B
S11303401A230C9424230C9434080C94D0220C9477
S1130350E50C0C94A0050C94BB220C946F030C9434
S1130360C0230C9422050C94FE1E0C9434030C94AC
S1130370131C0C94EC220C9406050C9442200C944F
S1130380DC080C9490080C944C050C943B080C94D9
S11303900C090C945C090C946C080C94D1230C94F7
S11303A0C5080C941E090C947A030C9430230C9405
S11303B0F51B0C94B4222C20544343304343413D59
S11303C0002F002C204865617020667265653A2014
S11303D00054696D653A20004E6F76203233203226
S11303E0303138004D4534303520626173652072F8
S11303F06164696F2070726F6772616D2056302E70
S113040034200020202020683A20202048414C50ED
S1130410210020202020653A20202045786974207E
S1130420636F6D6D616E64206D6F646500202020C4
S113043020733A202020537461636B2064756D70BF
S113044020666F72207461736B7300202020207605
S11304503A20202056657273696F6E20616E6420A5
S1130460736574757020696E666F726D6174696FFF
S11304706E00202020206E3A20202053686F7720C1
S11304807468652074696D65207269676874206E8C
S11304906F77002020496E20636F6D6D616E64205C
S11304A06D6F6465206F6E6C793A00202043746C24
S11304B02D413A20456E74657220636F6D6D616ED7
S11304C064206D6F646500202043746C2D433A20D2
S11304D05265736574207468652041565200206823
S11304E0656C70004D45343035206261736520724F
S11304F06164696F2070726F6772616D2056302E6F
S11305003420001B5B33306D001B5B34366D0049B7
S11305106C6C6567616C207374617465212052652D
S113052073657474696E6720415652003A57544695
S11305303F004578697420636F6D6D616E64206D52
S11305406F646500526573657474696E6720415603
S113055052005072657373204374726C2D4120668F
S11305606F7220636F6D6D616E64206D6F646500E2
S1130570526573657474696E67004552524F522018
S1130580696E207461736B20004552524F52206390
S113059072656174696E67207461736B20002C202E
S11305A0737461636B20617420307800206372651A
S11305B061746564005461736B20001B5B32326D9F
S11305C0005461736B3A20001B5B316D001B5B327E
S11305D0326D005461736B3A2049444C45001B5BF7
S11305E0316D000909002F0049444C4509093009BF
S11305F02D0900092D2D2D2D00092D2D2D2D2D2DED
S11306002D2D2D2D002D2D2D2D09092D2D2D2D09AF
S11306102D2D2D2D2D000952756E7300094672651E
S1130620652F546F74616C004E616D6509095072D9
S1130630692E0953746174650009537461636B0016
S11306405461736B09092020092000090009002F57
S113065000090009001B5B32326D001B5B316D0029
S11306601B5B316D002020000E9443195425112486
S11306701FBECFEFCDBFDFE3DEBF00E00CBF18BE6F
S113068019BE1ABE1BBE12E2A0E0B0E2E0E9FDE42E
S113069000E00BBF02C007900D92AA31B107D9F751
S11306A01BBE22E3AAE1B2E201C01D92A83EB2073A
S11306B0E1F713E0C7E3D3E000E006C021970109A6
S11306C0802FFE010E942226C633D10780E008074E
S11306D0A9F70E94CF240C94C6260C940000BC01F8
S11306E06E5F7F4FDC01ED91FC910084F185E02D7C
S11306F019950895CF93DF93EC01E881F981048083
S1130700F581E02D1995BE01625F7F4FEC8DFD8D63
S1130710808191810E941007DF91CF910895EF921B
S1130720FF920F93CF93DF93EC017C0182E0E80EFC
S1130730F11CE881F9810084F185E02DB701CE0137
S11307401995288539854A855B85BE01605E7F4F92
S113075000E08E819F810E942612EC8DFD8DB701F1
S1130760828193810E945307DF91CF910F91FF9073
S1130770EF900895CF92DF92EF92FF920F93CF9371
S1130780DF93EC017B016C018EE0C80ED11CE88183
S1130790F9810084F185E02DB601CE0119952C89EB
S11307A03D894E895F89BE01615E7F4F00E08A8981
S11307B09B890E942612D701ED91FC910190F08152
S11307C0E02DB601C7011995DF91CF910F91FF90EC
S11307D0EF90DF90CF900895CB010E941E0B0895F7
S11307E0FC01668F862F880F878F682F616060A356
S11307F00895DC011796ED91FC9118970480F5811A
S1130800E02D84810895DC011796ED91FC911897F1
S11308100480F581E02D848108950F931F93CF9375
S1130820DF931F921F92CDB7DEB78C01DC011996BE
S11308308D919C911A9789839A8389819A810197D2
S113084089839A83892B59F0D8011796ED91FC91ED
S113085018970480F581E02D848186FFEECFD801BE
S1130860ED91FC910280F381E02DC8011995D80126
S11308701796ED91FC9118970480F581E02D848101
S113088084FD08C0848186FF05C012968D919C91D9
S1130890139703C0F801848195810F900F90DF9125
S11308A0CF911F910F9108950F931F93CF93DF93CF
S11308B01F921F92CDB7DEB78C01DC0119968D9182
S11308C09C911A9789839A8389819A810197898354
S11308D09A83892B59F0D8011796ED91FC911897BA
S11308E00480F581E02D8481882374F7D801ED918B
S11308F0FC910280F381E02DC8011995D801179667
S1130900ED91FC9118970480F581E02D848184FD9C
S113091008C0848188232CF412968D919C9113979E
S113092003C0F801848195810F900F90DF91CF91DE
S11309301F910F910895EF92FF920F931F93CF93FE
S1130940DF938C01EB01E881F981008CF18DE02DBE
S1130950CB0119958823A9F0E881F9810284F385F4
S1130960E02DE12CF12CB701CE011995D801179691
S1130970ED91FC9118970480F581E02DD7018C91BD
S11309808783F80182819381DF91CF911F910F9129
S1130990FF90EF9008950F931F93CF93DF931F92CF
S11309A0CDB7DEB78C01CB01D8011796ED91FC9140
S11309B018970480F581E02D27812983DB01ED91CF
S11309C0FC910190F081E02DBE016F5F7F4F19957E
S11309D0F801828193810F90DF91CF911F910F9144
S11309E00895CF93DF93EC01CB01DB01ED91FC91F2
S11309F00488F589E02D1995882319F08A819B8153
S1130A0002C08C819D81DF91CF91089521E0FB018B
S1130A102387FC01828193810895CF93DF93DC01C6
S1130A201796ED91FC911897C681D78164E170E225
S1130A30CE010E94841E66E0CE010E94BB1EDF919F
S1130A40CF910895CF93DF93DC011796ED91FC913C
S1130A501897C681D7816AE170E2CE010E94841E94
S1130A6066E0CE010E94BB1EDF91CF910895CF9323
S1130A70DF93DC011796ED91FC911897C681D7811D
S1130A806FE170E2CE010E94841E66E0CE010E94F6
S1130A90BB1EDF91CF910895CF93DF93DC011796AE
S1130AA0ED91FC911897C681D78168E270E2CE017E
S1130AB00E94841E66E0CE010E94BB1EDF91CF918E
S1130AC00895CF93DF93DC011796ED91FC9118976D
S1130AD0C681D78161E370E2CE010E94841E66E084
S1130AE0CE010E94BB1EDF91CF910895CF93DF9377
S1130AF0DC011796ED91FC911897C681D7816CE3C0
S1130B0070E2CE010E94841E66E0CE010E94BB1EEC
S1130B10DF91CF910895CF93DF93DC011796ED9188
S1130B20FC911897C681D78167E470E2CE010E94D8
S1130B30841E66E0CE010E94BB1EDF91CF91089512
S1130B40FF920F931F93CF93DF93EC01EF81F8850E
S1130B50A481B5811496FC90068117816DE470E23E
S1130B60C8010E94841E6F2DC8010E94781F66E090
S1130B700E94BB1E8A819B81DF91CF911F910F91AF
S1130B80FF9008950F931F93CF93DF938C01EB0194
S1130B90E881F981048CF58DE02DCB0119952A8526
S1130BA030E08217930779F4D8011796ED91FC9100
S1130BB018970480F581E02D87E0838312968D9148
S1130BC09C9113970EC0D8011796ED91FC9118973C
S1130BD00480F581E02D82E0838314968D919C91AD
S1130BE01597DF91CF911F910F9108950F931F9344
S1130BF0CF93DF93EC018B016883798389E090E0E4
S1130C000E94D01DFC01168289E990E280839183C1
S1130C1007831087EC83FD838BE090E00E94D01D56
S1130C20FC018B899C89168221EA30E2208331837E
S1130C300783108781879287EE83FF8389E090E0A2
S1130C400E94D01DFC01168281EB90E28083918387
S1130C5007831087E887F98789E090E00E94D01D18
S1130C60FC01168281EC90E28083918307831087D4
S1130C70EA87FB8789E090E00E94D01DFC01168280
S1130C8089ED90E28083918307831087EC87FD8749
S1130C9089E090E00E94D01DFC01168281ED90E273
S1130CA08083918307831087EE87FF8780E197E233
S1130CB08B8B9C8B8E819F81EC81FD8182839383BE
S1130CC0848395838C859D8528853985EE81FF8174
S1130CD022833383848395838A859B85E885F9857C
S1130CE082839383848395838E819F812E853F8520
S1130CF0EA85FB852283338384839583DF91CF91B7
S1130D001F910F9108950F931F93CF93DF93EC01DD
S1130D108B016883798389E090E00E94D01DFC01F7
S1130D20168289E990E28083918307831087EC839C
S1130D30FD838BE090E00E94D01DFC018B899C898F
S1130D40168229EA30E22083318307831087818762
S1130D509287EE83FF8389E090E00E94D01DFC011E
S1130D60168289EB90E28083918307831087E8875A
S1130D70F98789E090E00E94D01DFC01168289EC7D
S1130D8090E28083918307831087EA87FB8789E059
S1130D9090E00E94D01DFC01168289ED90E28083D0
S1130DA0918307831087EC87FD8789E090E00E9498
S1130DB0D01DFC01168281ED90E28083918307832C
S1130DC01087EE87FF8780E197E28B8B9C8B8E8167
S1130DD09F81EC81FD8182839383848395838C85B9
S1130DE09D8528853985EE81FF8122833383848321
S1130DF095838A859B85E885F9858283938384839B
S1130E0095838E819F812E853F85EA85FB8522838C
S1130E10338384839583DF91CF911F910F9108953C
S1130E200F931F93CF93DF93EC018B018C819D81F2
S1130E308A839B832E853F8582179307D9F02C855F
S1130E403D858217930731F417C02C853D852817FB
S1130E50390799F0DC01ED91FC910190F081E02DCE
S1130E60B80119958A839B832E853F8528173907F6
S1130E7061F703C0C90101C0C901DC01ED91FC9116
S1130E800190F081E02DB801199581E04A815B81E0
S1130E902E853F854217530709F080E0DF91CF91FB
S1130EA01F910F9108950F931F93CF93DF93EC013C
S1130EB08B018C819D818A839B832E853F8582173C
S1130EC09307D9F02C853D858217930731F417C019
S1130ED02C853D852817390799F0DC01ED91FC91AB
S1130EE00190F081E02DB80119958A839B832E85AA
S1130EF03F852817390761F703C0C90101C0C9013B
S1130F00DC01ED91FC910190F081E02DB80119957F
S1130F10C801DF91CF911F910F910895CF93DF9373
S1130F20EC019A01AB01220F331F441F551F60E0EF
S1130F3078E488EE91E00E94E12525502A87EC812F
S1130F40FD812583DF91CF910895EF92FF920F9356
S1130F501F93CF93DF93EC017B01BA01A901EC82CB
S1130F60FD820E831F834B875C876D877E8780E8B5
S1130F70E81684E0F80629F480E496E088879987E7
S1130F8009C0E0EAEE16E4E0FE0621F480E896E00B
S1130F9088879987E885F98583E08183E885F985E1
S1130FA088E3808BE885F985818B82E0F701828371
S1130FB0CE010E948E07F70184818D6C848388E0C2
S1130FC0818385E190E00E94D01D7C01BE010E94D6
S1130FD0F605E882F98286E190E00E94D01D7C014A
S1130FE0BE010E948306EA82FB820E80DF81C02D4F
S1130FF06FE670E2CE010E94841E66E0CE010E947C
S1131000BB1EDF91CF911F910F91FF90EF90089538
S1131010DC011496ED91FC911597838181608383A3
S113102008950F931F93CF93DF93EC01CB01DB0162
S1131030ED91FC910284F385E02D00E010E0B8010D
S113104019958F8198850E940808EF81F88504809E
S1131050F581E02DD8018C9186838A819B81DF9173
S1131060CF911F910F910895FC01848195810E9475
S1131070E61390E00895FC01848195810E94E613B3
S113108091E0811101C090E0892F0895FC018481D1
S113109095810E94E61391E0811190E0892F0895D3
S11310A0FC01848195810E94DE1390E00895FC0187
S11310B0848195810E94DE1391E0811101C090E04A
S11310C0892F0895FC01848195810E94DE1391E0AB
S11310D0811190E0892F08950F9301E02FEF3FEFE6
S11310E0A901FC01848195810E94ED120F9108955C
S11310F00F93CF93DF931F92CDB7DEB701E02FEFAD
S11311003FEFA901BE016F5F7F4FFC018481958190
S11311100E94ED1289810F90DF91CF910F91089574
S11311200F9300E02FEF3FEFA901FC01848195812B
S11311300E94ED120F9108950F93CF93DF931F92A6
S1131140CDB7DEB700E02FEF3FEFA901BE016F5F1F
S11311507F4FFC01848195810E94ED1289810F905B
S1131160DF91CF910F910895CF93DF931F92CDB765
S1131170DEB7AE014F5F5F4FFC01848195810E9411
S1131180B1130F90DF91CF910895CF93DF931F9206
S11311901F92CDB7DEB7AE014E5F5F4FBE016F5FEA
S11311A07F4FFC01848195810E94B11389810F9046
S11311B00F90DF91CF910895CF93DF931F92CDB716
S11311C0DEB7198221E0AE014F5F5F4FFC018481DD
S11311D095810E94C11291E0811101C090E0892F94
S11311E00F90DF91CF910895CF93DF931F92CDB7E6
S11311F0DEB7198220E0AE014F5F5F4FFC018481AE
S113120095810E94C11291E0811101C090E0892F63
S11312100F90DF91CF9108950F93FC0126813781C0
S11312204085518501E0848195810E94261291E0D8
S1131230811101C090E0892F0F9108950F93FC0153
S1131240268137814085518500E0848195810E9403
S1131250261291E0811101C090E0892F0F91089529
S11312600F931F93CF93DF938C01EB01BC016E5F4F
S11312707F4FE881F9810190F081E02DCE0119952D
S1131280B8016D5F7F4FE881F9810190F081E02D15
S1131290CE011995DF91CF911F910F910895DB0134
S11312A0BC016E5F7F4FED91FC9111970190F0812D
S11312B0E02DCD0119950895DB01BC016E5F7F4FD0
S11312C0ED91FC9111970190F081E02DCD011995DC
S11312D00895DB01BC016E5F7F4FED91FC91119786
S11312E00190F081E02DCD01199508954F925F9200
S11312F06F927F928F929F92AF92BF92CF92DF9222
S1131300EF92FF920F931F93CF93DF938C017B0196
S11313106A01DC016D937C93119712964D935C9353
S1131320139781E290E00E94D01DEC0189E291E2E2
S1131330888399831C821D820F2EF1EEAF2EF0E27A
S1131340BF2EF02DAA82BB8240E061E082E00E94C1
S1131350F8118E839F830F2EFAE04F2E512C612CAF
S1131360712CF02D488659866A867B860F2EF5E00F
S11313708F2EF1E29F2EF02D8A829B8282E08C8751
S1131380188A198AAE86BF8640E061E083E00E9435
S1131390F8118A8B9B8B4C8A5D8A6E8A7F8A8E8633
S11313A09F860F2EF3E0BF2EF02DB88E8AE090E2D8
S11313B088839983CA8EDB8EF801C483D58386E043
S11313C090E00E94D01DFC011082118212821382CF
S11313D014821582D80116968D939C9317978DE1EC
S11313E018968C9384E090E00E94D01DFC0187E362
S11313F091E2808391838AE28283C1E0C383D8012E
S11314001B96ED93FC931C9783E090E00E94D01D03
S11314102DE331E2FC0120833183C283D8011D9680
S11314208D939C931E9783E090E00E94D01D23E44B
S113143031E2FC0120833183B282D8011F968D935F
S11314409C93509783E090E00E94D01D29E431E200
S1131450FC012083318325E02283D80151968D93AA
S11314609C9352971496ED91FC911597E48EF58E0A
S113147018966C91189714968D919C9115970E94CB
S1131480F003DF91CF911F910F91FF90EF90DF90C8
S1131490CF90BF90AF909F908F907F906F905F9010
S11314A04F9008951F93CF93DF93EC018C819D811E
S11314B06B857C85DC01ED91FC910190F081E02D40
S11314C019958C819D816D857E85DC01ED91FC9162
S11314D00190F081E02D19958C819D81DC01ED91C5
S11314E0FC910280F381E02D1995EC018B85882312
S11314F0B9F0E881F9810084F185E02DCE011995D8
S1131500182FE881F9810084F185E02DCE01199529
S1131510212F30E0322F2227A901482BCA0102C013
S113152080E090E0DF91CF911F9108951F93CF93B6
S1131530DF93EC018C819D816B857C85DC01ED91D1
S1131540FC910190F081E02D19958C819D816F852E
S11315507889DC01ED91FC910190F081E02D1995E1
S11315608C819D81DC01ED91FC910280F381E02D61
S11315701995EC018B858823B9F0E881F981008401
S1131580F185E02DCE011995182FE881F9810084A9
S1131590F185E02DCE011995212F30E0322F22273D
S11315A0A901482BCA0102C080E090E0DF91CF91ED
S11315B01F9108951F93CF93DF93EC018C819D813C
S11315C06B857C85DC01ED91FC910190F081E02D2F
S11315D019958C819D8169897A89DC01ED91FC9151
S11315E00190F081E02D19958C819D81DC01ED91B4
S11315F0FC910280F381E02D1995EC018B85882301
S1131600B9F0E881F9810084F185E02DCE011995C6
S1131610182FE881F9810084F185E02DCE01199518
S1131620212F30E0322F2227A901482BCA0102C002
S113163080E090E0DF91CF911F910895CF93DF93E5
S1131640EC011B86E881F981008CF18DE02DCE013F
S11316501995882341F0E881F9810084F185E02D12
S1131660CE011995EFCFDF91CF910895EC018C85D0
S1131670811139C08C899D890E94520A7C010E8196
S11316801F816BE471E2C8010E94841EB701C80186
S11316900E94021F66E00E94BB1E8C899D890E94E5
S11316A0960A7C010E811F816FE471E2C8010E94D9
S11316B0841EB701C8010E94021F66E00E94BB1E7F
S11316C08C899D890E94DA0A7C010E811F8163E561
S11316D071E2C8010E94841EB701C8010E94021F62
S11316E066E00E94BB1E8E859F85A889B9890196F4
S11316F0A11DB11D8E879F87A88BB98B68EE73E0FF
S113170080E090E00E942617B2CFCF92DF92EF9252
S1131710FF920F931F93CF93DF93EC016B010E9411
S113172056198BE591E288839983EC8AFD8ACE8AE7
S1131730DF8ADF91CF911F910F91FF90EF90DF909F
S1131740CF9008950F931F93CF93DF93EC010E94E2
S1131750561983E691E288839983DF91CF911F9193
S11317600F9108950F931F93CF93DF93EC016AE0D9
S11317708E819F810E94BB1E8C0169E075E00E94EE
S1131780841E6AE0C8010E94BB1E8C0163E075E000
S11317900E94841E67E0C8010E94BB1E6AE08E811D
S11317A09F810E94BB1E8C0164EE74E00E94841E23
S11317B06AE0C8010E94BB1E8C016EED74E00E94B9
S11317C0841E66E0C8010E94BB1E6AE08E819F8170
S11317D00E94BB1E8C0167EC74E00E94841E66E0CC
S11317E0C8010E94BB1E6AE08E819F810E94BB1EBD
S11317F08C016BEA74E00E94841E66E0C8010E94BA
S1131800BB1E6AE08E819F810E94BB1E8C0163E92E
S113181074E00E94841E66E0C8010E94BB1E6AE058
S11318208E819F810E94BB1E8C0162E774E00E943E
S1131830841E66E0C8010E94BB1E6AE08E819F81FF
S11318400E94BB1E8C016BE474E00E94841E66E05F
S1131850C8010E94BB1E6AE08E819F810E94BB1E4C
S11318608C016DE274E00E94841E66E0C8010E944F
S1131870BB1E6AE08E819F810E94BB1E8C0162E1C7
S113188074E00E94841E66E0C8010E94BB1E6AE0E8
S11318908E819F810E94BB1EEC0163E074E00E9474
S11318A0841E66E0CE010E94BB1EDF91CF911F9182
S11318B00F910895AF92BF92CF92DF92EF92FF9271
S11318C00F931F93CF93DF9300D000D0CDB7DEB733
S11318D08C0119821A821B821C821D821E820E9424
S11318E0DF0E6C01CE0101960E94071D5C0166E0CB
S11318F0F801868197810E94BB1E6AE00E94BB1E8C
S11319007C0164EE73E00E94841E6AE0C7010E94B9
S1131910BB1E7C0168ED73E00E94841E66E0C70173
S11319200E94BB1E6AE00E94BB1E7C0161ED73E055
S11319300E94841EB501C7010E94AB1C6AE00E948C
S1131940BB1E7C0163EC73E00E94841EB601C701D8
S11319500E94021F6AE00E94BB1E7C0161EC73E0DE
S11319600E94841E4FEF5FE060E070E0C7010E94B8
S1131970361FC0902808D09029086AE0F8018681B3
S113198097810E94BB1E7C0166EB73E00E94841E5B
S1131990B601C7010E94021F66E00E94BB1E66E0FA
S11319A00E94BB1EF801868197810E94641B2696C3
S11319B0CDBFDEBFDF91CF911F910F91FF90EF90CC
S11319C0DF90CF90BF90AF900895CF93DF9300D076
S11319D000D0CDB7DEB78C0119821A821B821C821B
S11319E01D821E826AE0DC0116968D919C911797E8
S11319F00E94BB1E7C0162E575E00E94841E66E0C5
S1131A00C7010E94BB1EF8018485882321F0813020
S1131A1009F45DC0D8C086819781DC01ED91FC9109
S1131A200480F581E02D19958823A9F1F8018681B8
S1131A309781DC01ED91FC910680F781E02D1995E9
S1131A40992781309105F9F0039709F0D8C06AE02D
S1131A50F801868197810E94BB1E8C0164E475E0C5
S1131A600E94841E66E0C8010E94BB1E93E088EDBC
S1131A7008B618BE84BF909380008091820081FDD7
S1131A80FCCF08BEFFCFC8010E94B20B61E0C801C1
S1131A900E945219B4C086ED92E30E94131C88235D
S1131AA009F4ADC0D8011696ED91FC9117970190F9
S1131AB0F081E02DE280F38086ED92E30E94F51B35
S1131AC0682FF80186819781F701199598C086815E
S1131AD09781DC01ED91FC910480F581E02D19954D
S1131AE0882309F48CC0F80186819781DC01ED918B
S1131AF0FC910680F781E02D19959C013327283647
S1131B00310559F13CF42B31310559F125363105B4
S1131B1041F13BC023373105C1F02637310589F047
S1131B202E36310591F5CE0101960E94071DBC01A8
S1131B30F801868197810E94AB1C66E00E94BB1E5F
S1131B405EC0C8010E945A0C5AC0D80116968D91E5
S1131B509C9117970E946B1A52C0C8010E94B20B45
S1131B604EC06AE0F801868197810E94BB1E7C0109
S1131B7062E375E00E94841E66E0C7010E94BB1EFA
S1131B8060E0C8010E9452193AC0F801A681B781E9
S1131B90ED91FC9111970280F381E02D682FCD0126
S1131BA019956AE0D80116968D919C9117970E9419
S1131BB0BB1E7C016CE275E00E94841E66E0C701D6
S1131BC00E94BB1E1CC06AE0F801868197810E94B6
S1131BD0BB1E8C016FE075E00E94841E66E0C801A4
S1131BE00E94BB1E93E088ED08B618BE84BF909394
S1131BF080008091820081FDFCCF08BEFFCFF801F8
S1131C0086859785A089B1890196A11DB11D868716
S1131C109787A08BB18B68EE73E080E090E00E9420
S1131C202617F1CE0F931F93CF93DF93EC010E94FD
S1131C30821580911A2281111DC0AFE1B2E2E3E264
S1131C40F2E2ED93FC93119712961D921C92139756
S1131C50ABE1B2E28FEF9FE012968D939C931397C2
S1131C601D921C92119782839383A083B18381E098
S1131C7080931A22209709F45FC09E012B5F3F4F87
S1131C802496CE3FDF4008F05AC0E0911F22F09125
S1131C902022AFE1B2E202C0DF01FC018281938124
S1131CA08217930720F4808191810097A9F7C2E2FB
S1131CB0EB31FC0709F446C0CD91DC9111978E01FC
S1131CC00B5F1F4F808191818D939C9382819381BF
S1131CD0821B930B8B30910510F1BF01620F731FB0
S1131CE0DB0112968D939C93139722833383129670
S1131CF04D915C9113978FE192E201C0CD01EC010B
S1131D00A881B98112962D913C9113972417350718
S1131D10A8F3EB01A883B983DC016D937C938091D4
S1131D2000209091012022813381821B930B8093A8
S1131D3000209093012008C000E010E005C000E0FE
S1131D4010E002C000E010E00E94A416C801DF9178
S1131D50CF911F910F9108950F931F93CF93DF930A
S1131D60009741F1EC018C01055011090E94821584
S1131D70F80142815381AFE1B2E201C0DF01ED918C
S1131D80FC9111972281338124173507B8F32597E5
S1131D90E883F9830D931C93209100203091012056
S1131DA08A819B81820F931F80930020909301204E
S1131DB00E94A416DF91CF911F910F9108958091F5
S1131DC00020909101200895FC0103968183928361
S1131DD04FEF5FEFBA014383548365837683878330
S1131DE090878187928710820895FC01128613865A
S1131DF00895CF93DF93FC01DB0121813281E90156
S1131E008C819D8114968D939C93159781819281E9
S1131E1016968D939C9317978C819D81EC016E830C
S1131E207F83E9016C837D83618372831A96ED93CA
S1131E30FC931B9780818F5F8083DF91CF910895FE
S1131E400F931F93CF93DF93EB01088119812A81AC
S1131E503B810F3F4FEF14072407340731F4DC01B3
S1131E601996ED91FC911A971FC0FC013396DC0181
S1131E7017964D915C911897DA014D915D916D9192
S1131E807C91041715072607370770F00480F58145
S1131E90E02DA481B5814D915D916D917C910417E4
S1131EA015072607370790F7A481B581AC83BD8356
S1131EB01696CD93DC931797EE83FF83C483D58363
S1131EC08A879B87FC0120812F5F2083DF91CF913C
S1131ED01F910F910895FC01A481B581868197819A
S1131EE016968D939C931797A681B78184819581CB
S1131EF014968D939C931597A285B38511968D9115
S1131F009C911297E817F90731F48681978111960D
S1131F108D939C931297128613868C9181508C9387
S1131F2008958093E6329093E73231E1FC013083E7
S1131F30319722E220833197A3E3A0833197608312
S1131F40319770833197108231971082319760E80E
S1131F5060833197108231971082319710823197C4
S1131F6062E06083319763E06083319764E060836B
S1131F70319765E06083319766E06083319767E06D
S1131F806083319768E06083319769E060833197BB
S1131F9060E1608331973083319732E13083319748
S1131FA033E13083319734E13083319735E1308345
S1131FB0319736E13083319737E13083319738E117
S1131FC03083319739E13083319730E23083319770
S1131FD031E2308331972083319723E22083319794
S1131FE0408331975083319726E22083319727E24B
S1131FF02083319728E22083319729E22083319787
S113200020E32083319721E32083899708958CE787
S1132010809369088FEF8093680881E0809340087B
S113202091E19093410880934708A0918232B09146
S11320308332CD91CDBFDD91DEBFFF91EF91DF9172
S1132040CF91BF91AF919F918F917F916F915F914C
S11320504F913F912F911F910F91FF90EF90DF903F
S1132060CF90BF90AF909F908F907F906F905F9034
S11320704F903F902F901F900F900CBE0F900BBE6F
S11320800F900FBE0F90089508950F920FB6F89415
S11320900F920BB60F920CB60F921F9211242F922F
S11320A03F924F925F926F927F928F929F92AF92E4
S11320B0BF92CF92DF92EF92FF920F931F932F93D1
S11320C03F934F935F936F937F938F939F93AF93BC
S11320D0BF93CF93DF93EF93FF93A0918232B0919C
S11320E083320DB60D920EB60D920E945417A09134
S11320F08232B0918332CD91CDBFDD91DEBFFF91AD
S1132100EF91DF91CF91BF91AF919F918F917F918B
S11321106F915F914F913F912F911F910F91FF907C
S1132120EF90DF90CF90BF90AF909F908F907F9073
S11321306F905F904F903F902F901F900F900CBE28
S11321400F900BBE0F900FBE0F9008950F920FB615
S1132150F8940F920BB60F920CB60F921F921124A3
S11321602F923F924F925F926F927F928F929F92A3
S1132170AF92BF92CF92DF92EF92FF920F931F9391
S11321802F933F934F935F936F937F938F939F937B
S1132190AF93BF93CF93DF93EF93FF93A0918232DA
S11321A0B09183320DB60D920EB60D920E94A31516
S11321B00E945417A0918232B0918332CD91CDBF49
S11321C0DD91DEBFFF91EF91DF91CF91BF91AF9190
S11321D09F918F917F916F915F914F913F912F913B
S11321E01F910F91FF90EF90DF90CF90BF90AF9031
S11321F09F908F907F906F905F904F903F902F9023
S11322001F900F900CBE0F900BBE0F900FBE0F903F
S113221008950E94A6101895CF93DF93EC0188A12E
S113222081110BC088819981892BE1F58A819B8179
S11322300E940F191A821B8235C0411117C0482F02
S113224050E08C819D810E94452628A18C819D812E
S1132250820F911D8C839D832A813B818217930772
S113226008F1888199818C839D831CC0482F50E09C
S11322708E819F810E94452688A190E09195819549
S113228091092E813F81280F391F2E833F83488176
S113229059812417350730F42A813B81820F931F1B
S11322A08E839F838E8D8F5F8E8FDF91CF91089564
S11322B0FC01808191810097A1F040A150E026812A
S11322C03781240F351F26833783A281B3812A17D0
S11322D03B0710F086839783CB01668177810E9448
S11322E0452608950F931F93CF93DF93EC010FB608
S11322F0F8940F928AA11816B4F48B89811105C041
S113230012C08B89811104C00EC08E010D5E1F4F57
S1132310C8010E94DB1781110E9498188AA181507C
S11323208AA3181674F38FEF8AA30F900FBE0FB60B
S1132330F8940F9289A11816B4F48885811105C008
S113234012C08885811104C00EC08E01085F1F4F22
S1132350C8010E94DB1781110E94981889A181503D
S113236089A3181674F38FEF89A30F900FBEDF9122
S1132370CF911F910F9108951F93CF93DF936130F5
S113238059F0FC012389308531112CC011E0211151
S113239010E0211128C001C011E0EC0148815981ED
S11323A028A130E06F8D629FC001639F900D1124BE
S11323B0BA01680F791F6A837B831E8E4C835D8309
S11323C0821B930B840F951F8E839F838FEF89A3AA
S11323D08AA3CE0108960E94E40ECE0143960E9481
S11323E0E40E01C010E0812FDF91CF911F91089579
S11323F00F931F93CF93DF93882301F1062F182F98
S113240083E290E00E94120EEC01892BC9F0109F28
S1132410C001112401960E94120E88839983892B8E
S113242039F01F8F08A361E0CE010E94BC1108C0DF
S1132430CE010E94AC0EC0E0D0E002C0C0E0D0E00B
S1132440CE01DF91CF911F910F910895AF92BF926A
S1132450CF92DF92EF92FF920F931F93CF93DF936C
S1132460CDB7DEB72997CDBFDEBF7C015B012E83DC
S11324703F834887598710E06C0188E0C80ED11C5F
S11324800FB6F8940F92F701968D878D9817A8F4DC
S1132490402FB501C7010E940C11F70183898823DD
S11324A041F0C70143960E94DB17813011F40E946A
S11324B045100F900FBE81E056C08E819F81A88584
S11324C0B985892B8A2B8B2B21F40F900FBE80E0CA
S11324D04AC0111105C0CE0101960E941A1811E0DC
S11324E00F900FBE0E9482150FB6F8940F92F70159
S11324F081A18F3F09F411A2F70182A18F3F09F452
S113250012A20F900FBEBE016A5F7F4FCE010196EB
S11325100E942B18811121C00FB6F8940F92F70175
S1132520968D0F900FBE878D981311C04E815F81D9
S113253068857985C6010E94B117C7010E9472118E
S11325400E94A41681119CCF0E94451099CFC70107
S11325500E9472110E94A41693CFC7010E947211A7
S11325600E94A41680E02996CDBFDEBFDF91CF91F3
S11325701F910F91FF90EF90DF90CF90BF90AF909D
S113258008950F931F93CF93DF938A01FC01568D17
S1132590378D5317C0F4422FEC010E940C118AA10D
S11325A08F3F69F48B89882381F0CE0143960E9482
S11325B0DB17882361F081E0F801808309C08F5F15
S11325C08AA381E005C080E003C081E001C081E00E
S11325D0DF91CF911F910F910895AF92BF92CF9247
S11325E0DF92EF92FF920F931F93CF93DF93CDB7B8
S11325F0DEB72997CDBFDEBF7C015B012E833F830D
S11326004887598710E06C0183E1C80ED11C0FB6CE
S1132610F8940F92F701868D882399F1C680D780AC
S1132620B501C7010E94581101111AC0F701868D26
S11326308150868F80819181892B29F40E94B5185D
S1132640F70182839383F70180858823B1F0C70162
S113265008960E94DB17813081F40E9445100DC05A
S1132660F701C682D7828389882339F0C70143964C
S11326700E94DB1781110E9445100F900FBE81E06C
S113268062C08E819F81A885B985892B8A2B8B2B6B
S113269021F40F900FBE80E056C0111105C0CE0189
S11326A001960E941A1811E00F900FBE0E94821525
S11326B00FB6F8940F92F70181A18F3F09F411A28C
S11326C0F70182A18F3F09F412A20F900FBEBE0141
S11326D06A5F7F4FCE0101960E942B1881112DC095
S11326E00FB6F8940F92F701868D0F900FBE8111EB
S11326F01EC080819181892B49F40FB6F8940F9202
S1132700828193810E94BA180F900FBE4E815F811F
S113271068857985C6010E94B117C7010E947211AC
S11327200E94A416811173CF0E94451070CFC70177
S11327300E9472110E94A4166ACFC7010E947211EE
S11327400E94A41680E02996CDBFDEBFDF91CF9111
S11327501F910F91FF90EF90DF90CF90BF90AF90BB
S113276008950F931F93CF93DF93FC01268D2223AB
S1132770D9F08A01EC010E9458118E8D81508E8F00
S113278089A18F3F69F48885882381F0CE0108965A
S11327900E94DB17882361F081E0F801808309C07F
S11327A08F5F89A381E005C080E003C081E001C0A0
S11327B081E0DF91CF911F910F9108950FB6F894A6
S11327C00F92FC01868D0F900FBE0895FC01868D3B
S11327D00895C6E5D2E388818230E8F30E9445106B
S11327E0FACFCF92DF92EF92FF926B017C01E091DE
S11327F08232F091833262837383848395838091E0
S11328002A3290912B32A0912C32B0912D32C816DD
S1132810D906EA06FB0668F460918232709183322D
S113282080913C3290913D326E5F7F4F0E94200F29
S113283021C0609182327091833280913E329091B6
S11328403F326E5F7F4F0E94200F80910220909153
S11328500320A0910420B0910520C816D906EA06E9
S1132860FB0640F4C0920220D0920320E0920420A0
S1132870F0920520FF90EF90DF90CF9008954F9253
S11328805F926F927F928F929F92AF92BF92CF92FC
S1132890DF92EF92FF920F931F93CF93DF935C012C
S11328A04B013A01290188E290E00E94120EEC01EA
S11328B0892B09F4D4C0C114D10409F0CCC0C301DC
S11328C00E94120E8B8F9C8F009721F4CE010E94E0
S11328D0AC0EC5C0A30161E170E00E944E269301D5
S11328E0215031098B8D9C8D3C01620E731E4AE090
S11328F050E0B401CE014D960E9455261EA2102F21
S1132900043008F013E01A8F1FA36E0122E0C20EF8
S1132910D11CC6010E94F50ECE010E960E94F50E42
S1132920CA87DB8784E090E0A0E0B0E0811B9109D6
S1132930A109B1098E879F87A88BB98BCE8BDF8BBA
S1132940A201B501C3010E94910F88839983E11408
S1132950F10419F0F701C083D1830FB6F8940F92F4
S113296080912E328F5F80932E32809182329091AB
S11329708332892B89F5C0938232D093833280913C
S11329802E328130C1F586E592E30E94E40E81E6A1
S113299092E30E94E40E8CE692E30E94E40E87E741
S11329A092E30E94E40E8BE492E30E94E40E80E43E
S11329B092E30E94E40E81E392E30E94E40E8BE42E
S11329C092E380933E3290933F3280E492E380938B
S11329D03C3290933D320FC08091273281110BC05D
S11329E0E0918232F0918332828D081720F0C093F7
S11329F08232D09383328A8D90912932981710F4C1
S1132A0080932932909122329F5F90932232909149
S1132A102832981710F480932832FBE08F9FC0016E
S1132A201124B6018A5A9D4C0E94F90E0F900FBED4
S1132A3080912732882359F0E0918232F0918332D9
S1132A40828D801730F40E94451081E009C081E036
S1132A5007C081E005C0CB8EDC8EC6013BCF8FEF73
S1132A60DF91CF911F910F91FF90EF90DF90CF9066
S1132A70BF90AF909F908F907F906F905F904F909A
S1132A8008950FB6F8940F92009721F48091823242
S1132A90909183320F900FBEFC01828D0895AF9206
S1132AA0BF92CF92DF92EF92FF920F93A12CB12CA1
S1132AB0C12CD12C0F2EFFE2EF2EF2E3FF2EF02DCE
S1132AC000E020E030E044E650E067E671E289EEA1
S1132AD093E10E943F14813069F4F8948093273283
S1132AE010922A3210922B3210922C3210922D32E4
S1132AF00E9407100F91FF90EF90DF90CF90BF904E
S1132B00AF900895809126328F5F80932632089586
S1132B100FB6F8940F9260912A3270912B32809103
S1132B202C3290912D320F900FBE0895009721F40E
S1132B3080918232909183324D96089580912F3204
S1132B40909130320895FF920F931F93CF93DF93A8
S1132B50809126328111EDC080912A3290912B32DE
S1132B60A0912C32B0912D320196A11DB11D8093FC
S1132B702A3290932B32A0932C32B0932D32809131
S1132B802A3290912B32A0912C32B0912D32892B84
S1132B908A2B8B2BF1F580913E3290913F3220911C
S1132BA03C3230913D3220933E3230933F32809319
S1132BB03C3290933D32809123328F5F8093233255
S1132BC0E0913E32F0913F32808181110CC08FEF51
S1132BD09FEFDC018093022090930320A0930420B4
S1132BE0B093052016C0E0913E32F0913F32078049
S1132BF0F085E02D0084F185E02D82819381A4810C
S1132C00B5818093022090930320A0930420B09375
S1132C10052040912A3250912B3260912C327091D0
S1132C202D328091022090910320A0910420B09134
S1132C300520481759076A077B0708F47FC0E0910D
S1132C403E32F0913F3280818823F9F0E0913E32A8
S1132C50F0913F320780F085E02DC085D1858A81CF
S1132C609B81AC81BD8140912A3250912B3260917D
S1132C702C3270912D32481759076A077B0758F197
S1132C800F2EFBE0FF2EF02D2FC08FEF9FEFDC0106
S1132C908093022090930320A0930420B0930520F6
S1132CA04DC0E0913E32F0913F320780F085E02D37
S1132CB0C085D1858A819B81AC81BD8140912A32B6
S1132CC050912B3260912C3270912D324817590754
S1132CD06A077B0748F48093022090930320A09313
S1132CE00420B09305202AC08E010E5F1F4FC80137
S1132CF00E946B0F888D998D892B21F0CE010E9641
S1132D000E946B0F8A8D90912832981710F480934B
S1132D102832F89EC0011124B8018A5A9D4C0E94A1
S1132D20F90EE0913E32F0913F3280818111B9CFAA
S1132D30ACCF809125328F5F80932532DF91CF9184
S1132D401F910F91FF900895CF92DF92EF92FF921F
S1132D500F931F93CF93DF930FB6F8940F92809144
S1132D60263281508093263280912632811160C0B0
S1132D7080912E3281112CC05EC0D7011796ED913F
S1132D80FC911897C085D185CE010E960E946B0FD9
S1132D908E010E5F1F4FC8010E946B0F8A8D9091A8
S1132DA02832981710F480932832D89EC001112439
S1132DB0B8018A5A9D4C0E94F90EE0918232F0913A
S1132DC083329A8D828D981770F0CC24C3940BC0F3
S1132DD0C12C0F2EF1E3EF2EF2E3FF2EF02D0F2E78
S1132DE0FBE0DF2EF02DF70180818111C6CF8091A9
S1132DF02532882381F080912532882399F00E941E
S1132E00A3158091253281508093253280912532FB
S1132E108111F5CF07C0F1E0CF1621F08091243263
S1132E20813041F4109224320E94451081E003C0A5
S1132E3080E001C080E00F900FBEDF91CF911F9121
S1132E400F91FF90EF90DF90CF900895CF92DF9293
S1132E50EF92FF926B017C01672B682B692BE9F0E1
S1132E600E94821580912A3290912B32A0912C32AB
S1132E70B0912D32C80ED91EEA1EFB1E80918232FB
S1132E809091833202960E946B0FC701B6010E9493
S1132E90F1130E94A416811102C00E944510FF90F4
S1132EA0EF90DF90CF9008958091263281110CC06D
S1132EB0E09128324BE0E49FF0011124EA5AFD4CE2
S1132EC08081882329F014C081E0809324320895FE
S1132ED09BE080912832815080932832E0912832FF
S1132EE09E9FF0011124EA5AFD4C8081882389F3C6
S1132EF080912832282F30E04BE0849FC0011124B8
S1132F00DC01AA5ABD4C1196ED91FC9112970480F4
S1132F10F581E02D1196ED93FC931297875A9D4C01
S1132F20E817F90761F4848195814BE0429FF00131
S1132F30439FF00D1124EA5AFD4C818392838BE068
S1132F40829FF001839FF00D1124EA5AFD4C018009
S1132F50F281E02D80859185809382329093833233
S1132F600895CF92DF92EF92FF926A017B01609104
S1132F70823270918332625F7F4F0E94200F809172
S1132F8082329091833202960E946B0F80912A3292
S1132F9090912B32A0912C32B0912D32BC01CD01F5
S1132FA06C0D7D1D8E1D9F1D0E94F113FF90EF90EF
S1132FB0DF90CF9008950F931F93CF93DF93DC019D
S1132FC01796ED91FC911897C085D1858E01025F0B
S1132FD01F4FC8010E946B0F80912632811116C0C9
S1132FE00C501109C8010E946B0F8A8D90912832F0
S1132FF0981710F480932832BBE08B9FC0011124F2
S1133000B8018A5A9D4C0E94F90E05C0B80181E3AB
S113301092E30E94F90EE0918232F091833281E0D2
S11330202A8D928D291708F480E0DF91CF911F91AA
S11330300F91089520912332FC01208340912A327C
S113304050912B3260912C3270912D3241835283F6
S11330506383748308958F929F92AF92BF92CF92AD
S1133060DF92EF92FF920F931F93CF93DF93FC01B4
S11330700FB6F8940F92809123329081981789F0BB
S113308080912A3290912B32A0912C32B0912D3222
S1133090018112812381348180179107A207B3072C
S11330A0A8F580912A3290912B32A0912C32B091C4
S11330B02D32C180D280E380F480EB010881198134
S11330C02A813B818C199D09AE09BF09801791079C
S11330D0A207B307E8F4CF0180902A3290902B32F4
S11330E0A0902C32B0902D32B501A4014C195D0989
S11330F06E097F09041B150B260B370B08831983F4
S11331002A833B830E941A1880E003C081E001C037
S113311081E00F900FBEDF91CF911F910F91FF902F
S1133120EF90DF90CF90BF90AF909F908F900895D5
S113313081E0809324320895009721F480918232B3
S113314090918332DC015B96ED91FC915C978081D8
S1133150813141F4319680E090E001962191213152
S1133160E1F3089580E090E0089580918232909197
S1133170833208950F931F93CF93DF93FC01228D25
S1133180A0918232B09183325A968C91281708F01C
S113319041C0A0918232B09183325A963C9184E02E
S11331A090E0A0E0B0E0831B9109A109B1098687F2
S11331B09787A08BB18B8BE0289F900111242A5A0A
S11331C03D4C8485958582179307E9F48F01EF01BF
S11331D02296CE010E946B0FE0918232F0918332ED
S11331E0828DF801828F90912832981710F4809381
S11331F02832FBE08F9FC0011124BE018A5A9D4CE6
S11332000E94F90E07C0A0918232B09183325A967F
S11332108C91828FDF91CF911F910F9108950F931D
S11332201F93CF93DF93009749F1FC01328D27A1BF
S1133230321721F1EC018C010E5F1F4FC8010E946F
S11332406B0F8FA18A8F44E050E060E070E0481B70
S11332505109610971094E875F87688B798B909159
S11332602832981710F480932832FBE08F9FC00116
S11332701124B8018A5A9D4C0E94F90EDF91CF9116
S11332801F910F910895EC01E881F9810190F0817B
S1133290E02D19951A821B826FEF7FEFCB010E94FC
S11332A02617FACFFC016487658708954F925F92D1
S11332B06F927F928F929F92AF92BF92CF92DF9242
S11332C0EF92FF920F931F93CF93DF93CDB7DEB7A7
S11332D02A97CDBFDEBF4C012901380180E791E276
S11332E0F40180839183FB018081882369F0DE01EE
S11332F01196319690E002C0993039F09F5F8D931A
S113330081918111F9CF01C090E0E1E0F0E0EC0F90
S1133310FD1FE90FF11D10827401F2E0EF0EF11CA4
S1133320A12CB12CC12CD12C042F9401A201BE01DB
S11333306F5F7F4F84E393E00E943F14F401668241
S1133340778240865186209184323091853224835D
S1133350358380928432909285321486158640900B
S1133360E6325090E732FFEF4F1A5F0A4092E6329E
S11333705092E732F4014286538616861786108AE5
S1133380118A6114710409F444C0813079F56AE04A
S1133390C3010E94BB1E7C0165EB75E00E94841E84
S11333A0BE016F5F7F4FC7010E94841E6AE0C701A0
S11333B00E94BB1E7C016CEA75E00E94841E6AE0D8
S11333C0C7010E94BB1E7C016EE975E00E94841E49
S11333D063E0C7010E94BB1EB2010E94021F62E0AB
S11333E00E94BB1E66E00E94BB1E13C06AE0C301BC
S11333F00E94BB1E4C0169E875E00E94841EBE0158
S11334006F5F7F4FC4010E94841E66E0C4010E9466
S1133410BB1E2A96CDBFDEBFDF91CF911F910F91C6
S1133420FF90EF90DF90CF90BF90AF909F908F90E0
S11334307F906F905F904F900895CF92DF92EF92BC
S1133440FF920F931F93CF93DF93EC017B018A814B
S11334509B810E9496156C016AE0C7010E94BB1E05
S11334608C0168EC75E00E94841E6AE0C8010E9429
S1133470BB1E8C0161EC75E00E94841EB601C8017C
S11334800E94841E6AE0C8010E94BB1E8C016BEB83
S113349075E00E94841E66E0C8010E94BB1E8A85F6
S11334A09B85E885F98501E121E0A701BC018E1B1C
S11334B09F0B0E941F1D8C819D81009719F0B701FD
S11334C00E941D1ADF91CF911F910F91FF90EF90F1
S11334D0DF90CF9008950F931F93CF93DF93EC0168
S11334E08091843290918532009719F0BE010E9438
S11334F01D1A6AE0CE010E94BB1E8C016EED75E0C0
S11335000E94841E6AE0C8010E94BB1E8C0163ED08
S113351075E00E94841E6AE0C8010E94BB1E8C01F3
S11335206DEC75E00E94841E66E0C8010E94BB1E1B
S11335308091E6329091E732BC016F5F7F4F01E1E9
S113354021E0AE01835691090E941F1DDF91CF91A6
S11335501F910F9108958F929F92AF92BF92CF9235
S1133560DF92EF92FF920F931F93CF93DF93EC01BF
S11335708B018A819B810E949615BC01C8010E941F
S1133580841ED801ED91FC910280F381E02D69E065
S1133590C80119958A819B810E949615FC010190AE
S11335A00020E9F73197E81BF90B389748F4D80164
S11335B0ED91FC910280F381E02D69E0C801199539
S11335C0CE84DF84E888F988A884B9848A819B81C1
S11335D00E949C18982E8C848A819B810E9441159C
S11335E0682FC8010E94781F6AE00E94BB1EEC018C
S11335F063E576E00E94841E682DCE010E94781F48
S11336006AE00E94BB1EEC0161E576E00E94841E24
S1133610692DCE010E94781F6AE00E94BB1EEC0156
S11336206FE476E00E94841EB501CE010E94021F61
S11336306AE00E94BB1EEC016DE476E00E94841EE9
S11336406AE0CE010E94BB1EEC016BE476E00E94AE
S1133650841EB701A601CE010E94361FDF91CF91CF
S11336601F910F91FF90EF90DF90CF90BF90AF909C
S11336709F908F900895CF93DF93EC01CB01DB01F2
S1133680ED91FC910280F381E02DBE011995CE01EC
S1133690DF91CF9108950F931F93CF93DF93EC01A4
S11336A08B01BC01C8010E943B1B66E00E94BB1E4B
S11336B08C819D81009719F0B8010E944B1BDF910A
S11336C0CF911F910F9108950F931F93CF93DF9381
S11336D0EC016AE00E94BB1E8C0160E476E00E946B
S11336E0841E6AE0C8010E94BB1E8C0169E376E077
S11336F00E94841E66E0C8010E94BB1E6AE0CE01DF
S11337000E94BB1E8C0168E276E00E94841E6AE07F
S1133710C8010E94BB1E8C016CE176E00E94841EED
S11337206AE0C8010E94BB1E8C0166E176E00E943B
S1133730841E66E0C8010E94BB1E6AE0CE010E949E
S1133740BB1E8C0165E076E00E94841E6AE0C8011D
S11337500E94BB1E8C0169EF75E00E94841E6AE022
S1133760C8010E94BB1E8C0163EF75E00E94841E99
S113377066E0C8010E94BB1E80918432909185321C
S1133780009719F0BE010E944B1B0E949E150E94D7
S11337909C18182F6AE0CE010E94BB1EEC0168EE53
S11337A075E00E94841E612FCE010E94781F6AE09A
S11337B00E94BB1EEC0166EE75E00E94841E64E666
S11337C070E0CE010E94021F6AE00E94BB1EEC0161
S11337D063EE75E00E94841E66E0CE010E94BB1E6B
S11337E0DF91CF911F910F9108950F93CF93DF93A2
S11337F01F92CDB7DEB700E02FEF3FEFA901BE0166
S11338006F5F7F4FFC01808591850E94ED128130AE
S113381019F4898190E002C08FEF9FEF0F90DF9140
S1133820CF910F910895FC01808591850E94DE134C
S113383091E0811101C090E0892F08950F93CF93F7
S1133840DF931F92CDB7DEB76983FC0122853385F0
S11338504485558500E0BE016F5F7F4F808591856B
S11338600E94261291E0811101C090E0892F0F90EF
S1133870DF91CF910F9108958F929F92BF92CF9233
S1133880DF92EF92FF920F931F93CF93DF93EC019C
S1133890B62E4A01680179010E94761E88E791E2FA
S11338A0888399838E869F8640E061E08B2D0E94F9
S11338B0F81188879987CA86DB86EC86FD86DF91B6
S11338C0CF911F910F91FF90EF90DF90CF90BF9019
S11338D09F908F900895CF92DF92EF92FF92CF93B3
S11338E0DF93EC01688179818A819B810F2EF8EE48
S11338F0CF2EF3E0DF2EE12CF12CF02DA701960161
S11339000E94E1259B01AC0160E472E48FE090E049
S11339100E94D125A70196010E94E12569017A013F
S1133920AC81BD8120E432E44FE050E00E942B26BC
S113393020E038E448EE51E00E94E125C701B601D9
S1133940620F731F841F951FDF91CF91FF90EF903B
S1133950DF90CF900895CF92DF92EF92FF920F9372
S11339601F93CF93DF93CDB7DEB72F97CDBFDEBFC5
S11339706C018B01DB016D917D918D919C9128EE01
S113398033E040E050E00E94E125BA01A901C601FC
S11339900E94361FD601ED91FC910280F381E02D47
S11339A06EE2C6011995C8010E946B1C8E01095F65
S11339B01F4FFE0131967F012AE030E040E050E0E5
S11339C00E940326E62F288739874A875B87688504
S11339D079858A859B8520E32E0FD8012E938D014E
S11339E0AE15BF0549F71F82BE016F5F7F4FC60149
S11339F00E94841EC6012F96CDBFDEBFDF91CF91FA
S1133A001F910F91FF90EF90DF90CF900895CF9387
S1133A10DF93EC010FB6F8940F92809120089091F7
S1133A2021088C839D830E948815688379838A8307
S1133A309B830F900FBECE01DF91CF9108955F92CB
S1133A406F927F928F929F92AF92BF92CF92DF92AA
S1133A50EF92FF920F931F93CF93DF935C014B017F
S1133A607A01122F702E63E0CA010E94BB1EA814B3
S1133A70B90408F07DC0650184E1C80ED11C00E0E2
S1133A806A2C5B2CB501C7010E94021F6AE00E94E8
S1133A90BB1E65E676E00E94841E112309F46DC006
S1133AA0002309F46AC06AE0C7010E94BB1E60E6F5
S1133AB076E00E94841E61C0112371F001110CC0D4
S1133AC08881871549F06AE0C7010E94BB1E6BE537
S1133AD076E00E94841E01E06991C7010E94781F6C
S1133AE0DC01ED91FC910280F381E02D60E21995F7
S1133AF0CC16DD0609F7112389F06AE0C7010E949C
S1133B00BB1EEC0165E576E00E94841EE881F98124
S1133B100280F381E02D60E2CE011995C62DD52DEA
S1133B20699180EE860F8F3548F4D701ED91FC91B1
S1133B300280F381E02DC701199509C0D701ED91E9
S1133B40FC910280F381E02D6EE2C7011995CC1639
S1133B50DD0631F7B4E1AB0EB11C66E0C7010E948B
S1133B60BB1E84E1C80ED11CA814B90408F488CF84
S1133B7062E0C7010E94BB1E03C0C62DD52D9CCF99
S1133B80DF91CF911F910F91FF90EF90DF90CF9035
S1133B90BF90AF909F908F907F906F905F900895AB
S1133BA00E94120E08950E94120E08950895CF9354
S1133BB0DF93FC01DA01403A68E0560749F480E4F7
S1133BC096E08283938382E0848383E0858332C09A
S1133BD0403B78E0570749F480E496E0828393837E
S1133BE086E0848387E0858325C0403A89E05807CE
S1133BF049F480E696E08283938382E0848383E0C1
S1133C00858318C0403B69E0560749F480E696E096
S1133C108283938386E0848387E085830BC0403A64
S1133C205A4041F480E896E08283938382E084835F
S1133C3083E08583A683B783CD010196808791872E
S1133C400396828793872581C281D3814C8181E049
S1133C5090E0BC0102C0660F771F2A95E2F79B0132
S1133C60242B2C832581C281D3814881BC0102C0CD
S1133C70660F771F2A95E2F79B01242B2883348152
S1133C80C281D381288102C0880F991F3A95E2F737
S1133C90809590958223888380E113968C93139763
S1133CA083E015968C93159780EF17968C9317974E
S1133CB081E216968C93169788E114968C9380E88B
S1133CC0858780E4868780E284870680F781E02DFB
S1133CD080818081DF91CF91089581E0089580E013
S1133CE090E0089580E0089508950895FC0188E81F
S1133CF091E2808391838AE08283138283E08583C7
S1133D0014821682178208950F931F93CF93DF9323
S1133D108C01FB01DC0114968C91811104C060813B
S1133D20611117C023C0D80114961C92EB0121968F
S1133D3064916623D9F0D801ED91FC910280F3815E
S1133D40E02DC8011995FE01649121966111F3CF0C
S1133D500DC0EF012196D801ED91FC910280F38111
S1133D60E02DC801199569916111F5CFDF91CF91CB
S1133D701F910F910895CF93DF93EC01862F90E06C
S1133D808B309105D8F5FC018827E250FF4F8F4F07
S1133D900C94222682E08A8331C088E08A832EC074
S1133DA08AE08A832BC080E18A8328C081E08B83E8
S1133DB025C01B8223C0E881F9810280F381E02DB4
S1133DC06DE0CE011995E881F9810280F381E02D3F
S1133DD06AE0CE01199512C0E881F9810284F38565
S1133DE0E02DCE0119950AC0E881F9810084F1859E
S1133DF0E02DCE01199502C081E08C83CE01DF91C4
S1133E00CF910895FF920F931F93CF93DF93CDB774
S1133E10DEB76197CDBFDEBF8C01F62E972FF80178
S1133E204281403121F0483011F0423041F4692F91
S1133E30C8010E94781F6F2D0E94781F0DC050E0AA
S1133E40BE016F5F7F4F8F2D0E949126BE016F5F71
S1133E507F4FC8010E94841EC8016196CDBFDEBF9A
S1133E60DF91CF911F910F91FF900895DF92EF9210
S1133E70FF920F931F93CF93DF93CDB7DEB7A19734
S1133E80CDBFDEBF8C01D42EE52EF62E972FF80180
S1133E902281203121F0283011F0223071F4692F71
S1133EA0C8010E94781F6F2D0E94781F6E2D0E94FA
S1133EB0781F6D2D0E94781F0FC030E0AE014F5F58
S1133EC05F4F6D2D7E2D8F2D0E946426BE016F5F86
S1133ED07F4FC8010E94841EC801A196CDBFDEBFDA
S1133EE0DF91CF911F910F91FF90EF90DF90089594
S1133EF0CF92DF92EF92FF920F931F93CF93DF93B2
S1133F00CDB7DEB72997CDBFDEBF8C01E62EDC012D
S1133F1013968C911397882341F0ED91FC910280C4
S1133F20F381E02DC801199556C0F8014281423051
S1133F3019F56894CC24C3F8D12C6894FF24F7F8BD
S1133F408E2D8F2151F0D801ED91FC910280F381E7
S1133F50E02D61E3C801199509C0D801ED91FC91E8
S1133F600280F381E02D60E3C8011995F694B1E075
S1133F70CB1AD10829F72FC04031F9F462956F703C
S1133F800190F081E02D0280F381E02D6A3010F081
S1133F90695C01C0605DC80119956E2D6F70D80110
S1133FA0ED91FC910280F381E02D6A3010F0695CA0
S1133FB001C0605DC80119950EC050E0BE016F5F7D
S1133FC07F4F8E2D90E00E949126BE016F5F7F4F40
S1133FD0C8010E94841EC8012996CDBFDEBFDF91AF
S1133FE0CF911F910F91FF90EF90DF90CF900895A4
S1133FF0DC015096ED91FC915197808154964C913F
S11340005497842329F009C02150310919F412C0AE
S113401021E23EE490819423B9F3908156968C91E9
S11340205697892B80831E96ED91FC911F97608390
S113403081E0089580E00895CF93DF93FC01C18D62
S1134040D28D28813981A38DB48D4D915C91241733
S11340503507E9F3A789B08D0D90BC91A02DA20F6F
S1134060B31F8C912F5F3F4F28833983243631054A
S113407028F0018CF28DE02D1082118290E0DF9106
S1134080CF910895CF93DF93EC01A98DBA8DEB8D79
S1134090FC8D81E04D915C91208131814217530761
S11340A009F480E0DF91CF910895DC01ED91FC915A
S11340B00280F381E02D6CE019950895EF92FF9250
S11340C00F931F93CF93DF93EC017B018A010E942E
S11340D0761EA801B701CE0108960E94D71D88E973
S11340E091E288839983003A88E0180769F482EAA8
S11340F092E38F8B988F88E992E3898F9A8F8EE869
S113410092E38B8F9C8F42C0003BE8E01E0769F46A
S113411080EA92E38F8B988F86E992E3898F9A8F56
S11341208CE892E38B8F9C8F31C0003AF9E01F0733
S113413069F48EE992E38F8B988F84E992E3898FF7
S11341409A8F8AE892E38B8F9C8F20C0003B89E092
S1134150180769F48CE992E38F8B988F82E992E3D4
S1134160898F9A8F88E892E38B8F9C8F0FC0003AD7
S11341701A4061F48AE992E38F8B988F80E992E385
S1134180898F9A8F86E892E38B8F9C8F0F89188D85
S113419084E690E00E94D31DF80180839183E98D29
S11341A0FA8D10821182EB8DFC8D10821182DF91C9
S11341B0CF911F910F91FF90EF9008951F920F924E
S11341C00FB60F92112408B60F9218BE0BB60F92B9
S11341D01BBE2F933F938F939F93EF93FF93209155
S11341E0A008E091A232F091A33280918E32909196
S11341F08F32E80FF91F208380918E3290918F3295
S113420001968436910560F480938E3290938F32B8
S1134210209198323091993282179307F1F40CC0AF
S113422010928E3210928F328091983290919932FE
S11342301816190691F40EC001968436910528F4D7
S1134240809398329093993208C0109298321092C9
S1134250993203C081E090E0F3CFFF91EF919F91F9
S11342608F913F912F910F900BBE0F9008BE0F902E
S11342700FBE0F901F9018951F920F920FB60F92BA
S1134280112408B60F9218BE0BB60F921BBE2F93C3
S11342903F938F939F93EF93FF932091B008E09106
S11342A0A032F091A13280918C3290918D32E80F3E
S11342B0F91F208380918C3290918D32019684363F
S11342C0910560F480938C3290938D3220919632D4
S11342D03091973282179307F1F40CC010928C320C
S11342E010928D3280919632909197321816190659
S11342F091F40EC001968436910528F48093963289
S11343009093973208C0109296321092973203C05D
S113431081E090E0F3CFFF91EF919F918F913F91D6
S11343202F910F900BBE0F9008BE0F900FBE0F90F1
S11343301F9018951F920F920FB60F92112408B672
S11343400F9218BE0BB60F921BBE2F933F938F9301
S11343509F93EF93FF932091A009E0919E32F091F7
S11343609F3280918E3290918F32E80FF91F208313
S113437080918A3290918B3201968436910560F453
S113438080938A3290938B3220919432309195327B
S113439082179307F1F40CC010928A3210928B3278
S11343A080919432909195321816190691F40EC0AA
S11343B001968436910528F4809394329093953233
S11343C008C0109294321092953203C081E090E0BC
S11343D0F3CFFF91EF919F918F913F912F910F9088
S11343E00BBE0F9008BE0F900FBE0F901F90189534
S11343F01F920F920FB60F92112408B60F9218BE97
S11344000BB60F921BBE2F933F938F939F93EF9303
S1134410FF932091B009E0919C32F0919D328091FC
S1134420883290918932E80FF91F20838091883275
S11344309091893201968436910560F48093883294
S1134440909389322091923230919332821793075C
S1134450F1F40CC010928832109289328091923219
S1134460909193321816190691F40EC00196843671
S1134470910528F4809392329093933208C010925D
S113448092321092933203C081E090E0F3CFFF9117
S1134490EF919F918F913F912F910F900BBE0F90B1
S11344A008BE0F900FBE0F901F9018951F920F9289
S11344B00FB60F92112408B60F9218BE0BB60F92C6
S11344C01BBE2F933F938F939F93EF93FF93209162
S11344D0A00AE0919A32F0919B32809186329091B9
S11344E08732E80FF91F20838091863290918732BA
S11344F001968436910560F48093863290938732D6
S1134500209190323091913282179307F1F40CC0CC
S1134510109286321092873280919032909191322B
S11345201816190691F40EC001968436910528F4E4
S1134530809390329093913208C0109290321092EE
S1134540913203C081E090E0F3CFFF91EF919F910E
S11345508F913F912F910F900BBE0F9008BE0F903B
S11345600FBE0F901F901895FC01848195810E94C5
S1134570E61390E00895FC01848195810E94E6137E
S113458091E0811101C090E0892F0895FC0184819C
S113459095810E94E61391E0811190E0892F08959E
S11345A0FC01848195810E94E61390E00895FC014A
S11345B0848195810E94E61391E0811101C090E00D
S11345C0892F0895FC01848195810E94E61391E06E
S11345D0811190E0892F0895FC01848195810E94C6
S11345E0DE1390E00895FC01848195810E94DE131E
S11345F091E0811101C090E0892F0895FC0184812C
S113460095810E94DE1391E0811190E0892F089535
S1134610FC01848195810E94DE1390E00895FC01E1
S1134620848195810E94DE1391E0811101C090E0A4
S1134630892F0895FC01848195810E94DE1391E005
S1134640811190E0892F08950F9301E02FEF3FEF40
S1134650A901FC01848195810E94ED120F910895B6
S11346600F93CF93DF931F921F92CDB7DEB701E074
S11346702FEF3FEFA901BE016F5F7F4FFC018481E3
S113468095810E94ED1289819A810F900F90DF919C
S1134690CF910F9108950F9300E02FEF3FEFA90101
S11346A0FC01848195810E94ED120F9108950F936E
S11346B0CF93DF931F921F92CDB7DEB700E02FEFA9
S11346C03FEFA901BE016F5F7F4FFC01848195819B
S11346D00E94ED1289819A810F900F90DF91CF9102
S11346E00F9108950F9301E02FEF3FEFA901FC0113
S11346F0848195810E94ED120F9108950F93CF93B9
S1134700DF931F921F92CDB7DEB701E02FEF3FEF8B
S1134710A901BE016F5F7F4FFC01848195810E94D6
S1134720ED1289819A810F900F90DF91CF910F91B3
S113473008950F9300E02FEF3FEFA901FC0184815E
S113474095810E94ED120F9108950F93CF93DF93FB
S11347501F921F92CDB7DEB700E02FEF3FEFA90104
S1134760BE016F5F7F4FFC01848195810E94ED1231
S113477089819A810F900F90DF91CF910F910895C5
S1134780CF93DF931F92CDB7DEB7AE014F5F5F4F7C
S1134790FC01848195810E94B1130F90DF91CF9128
S11347A00895CF93DF9300D0CDB7DEB7AE014D5F50
S11347B05F4FBE016F5F7F4FFC01848195810E9432
S11347C0B11389819A812396CDBFDEBFDF91CF914A
S11347D00895CF93DF931F92CDB7DEB7AE014F5F3D
S11347E05F4FFC01848195810E94B1130F90DF918A
S11347F0CF910895CF93DF9300D0CDB7DEB7AE014C
S11348004D5F5F4FBE016F5F7F4FFC0184819581D7
S11348100E94B11389819A812396CDBFDEBFDF91B7
S1134820CF910895CF93DF931F92CDB7DEB719824E
S113483021E0AE014F5F5F4FFC01848195810E94AE
S1134840C11291E0811101C090E0892F0F90DF9196
S1134850CF910895CF93DF931F92CDB7DEB719821E
S113486020E0AE014F5F5F4FFC01848195810E947F
S1134870C11291E0811101C090E0892F0F90DF9166
S1134880CF910895CF93DF931F92CDB7DEB71982EE
S113489021E0AE014F5F5F4FFC01848195810E944E
S11348A0C11291E0811101C090E0892F0F90DF9136
S11348B0CF910895CF93DF931F92CDB7DEB71982BE
S11348C020E0AE014F5F5F4FFC01848195810E941F
S11348D0C11291E0811101C090E0892F0F90DF9106
S11348E0CF9108950F93FC0126813781408551852E
S11348F001E0848195810E94261291E0811101C01A
S113490090E0892F0F9108950F93FC012681378140
S11349104085518500E0848195810E94261291E0B2
S1134920811101C090E0892F0F9108950F93FC012C
S1134930268137814085518501E0848195810E94DB
S1134940261291E0811101C090E0892F0F91089502
S11349500F93FC01268137814085518500E08481D5
S113496095810E94261291E0811101C090E0892F67
S11349700F9108950F93CF93DF931F92CDB7DEB7B6
S11349802FB72983F8941BBEFC0108ED04BF608394
S113499089818FBF0F90DF91CF910F910895EF928E
S11349A0FF920F931F93CF93DF93CDB7DEB7C95414
S11349B0D109CDBFDEBFF894E0E5F0E080818260EC
S11349C08083818181FFFDCF60914000687F6160B9
S11349D080E490E00E94BA24E0E5F0E080818E7FDC
S11349E080839DEF88ED08B618BE84BF9093800045
S11349F008BE40EA5AE060E070E0CE0101960E94F1
S1134A005E2067E0CE0101960E94BB1E8C0164EA21
S1134A1071E20E94841E66E0C8010E94BB1E66E02B
S1134A200E94BB1E8E010F5F1F4F20E332EF40E058
S1134A3050E060EA74E0CE014E960E94A507A801FA
S1134A40BE01625E7F4FCE01C7960E94760982E165
S1134A5090E00E94D01D20E830E040E063EC71E279
S1134A600E94A20B88E190E00E94D01D9E01295C67
S1134A703F4F790120E830E042E06BEC71E20E94A4
S1134A80850B87E08093A20078940E944F1580E004
S1134A9090E0C75BDF4FCDBFDEBFDF91CF911F91A9
S1134AA00F91FF90EF900895CF92DF92EF92FF92D3
S1134AB00F931F93CF93DF930AE010E020E030E0E0
S1134AC040E050E060E270E086ED92E30E943C1C1E
S1134AD0CCECD2E31A821B8286ED91E2888399831F
S1134AE040E062E08FEF0E94F8118C839D830F2ECB
S1134AF0FAE0CF2ED12CE12CF12CF02DCE82DF82E6
S1134B00E886F986C2ECD2E31A821B820AEF11E22C
S1134B100883198340E062E08FEF0E94F8118C83D0
S1134B209D83CE82DF82E886F986C8EBD2E31A82BF
S1134B301B820883198340E062E08FEF0E94F81122
S1134B408C839D83CE82DF82E886F986CEEAD2E327
S1134B501A821B820883198340E062E08FEF0E946F
S1134B60F8118C839D83CE82DF82E886F986C4EABD
S1134B70D2E31A821B820883198340E062E08FEF3C
S1134B800E94F8118C839D83CE82DF82E886F986A9
S1134B90DF91CF911F910F91FF90EF90DF90CF9015
S1134BA00895DB018F939F930E942B26BF91AF91B1
S1134BB0A29F800D911DA39F900DB29F900D112473
S1134BC00895A1E21A2EAA1BBB1BFD010DC0AA1F4A
S1134BD0BB1FEE1FFF1FA217B307E407F50720F062
S1134BE0A21BB30BE40BF50B661F771F881F991FDD
S1134BF01A9469F760957095809590959B01AC0126
S1134C00BD01CF010895052E97FB1EF400940E9468
S1134C101A2657FD07D00E94E12507FC03D04EF465
S1134C200C941A2650954095309521953F4F4F4F3F
S1134C305F4F089590958095709561957F4F8F4F44
S1134C409F4F0895EE0FFF1F881F8BBF0790F691AB
S1134C50E02D1BBE19940E943626A59F900DB49F8B
S1134C60900DA49F800D911D11240895A29FB00161
S1134C70B39FC001A39F700D811D1124911DB29F8C
S1134C80700D811D1124911D0895FB01DC0102C0EA
S1134C9001900D9241505040D8F70895DC0101C0B5
S1134CA06D9341505040E0F70895FB01DC01415001
S1134CB0504048F001900D920020C9F701C01D92A8
S1134CC041505040E0F708952532310520F4223058
S1134CD010F00C946F26FA011082CA010895BB27C4
S1134CE0FA01A62F6217710581059105330B30FB7C
S1134CF066F0AA27660F771F881F991FAA1FA2179D
S1134D0010F0A21B63953850A9F7A05DAA3308F0F0
S1134D10A95DA19336F7B111B1931082CA010C9425
S1134D20B6264532510520F4423010F00C949C26EE
S1134D30FB011082CB010895BB27FB015527AA274D
S1134D40880F991FAA1FA41710F0A41B8395505114
S1134D50B9F7A05DAA3308F0A95DA193009779F78C
S1134D60B111B1931192CB010C94B626DC01FC0174
S1134D70672F71917723E1F7329704C07C916D938B
S1134D8070836291AE17BF07C8F30895F894FFCFFC
S1134D90FF0FFFFFFFFF000000007A038F03BA0339
S1134DA06F03EC036572726F7200646F6E6500725C
S1134DB0207061636B65740074207061636B65744B
S1134DC000722065786368616E6765007420657899
S1134DD06368616E6765007374617274004932437D
S1134DE0207472616E73666572206661696C6564B5
S1134DF02077697468207374617475733A2000496C
S1134E0032434D61737465722063726561746564C5
S1134E100044657465637465642069326320616469
S1134E2064723A20000000000011088B05000000A5
S1134E30000D04F903000000005404030400000002
S1134E40009B04760500000000CB0461050000000F
S1134E5000F1044C0500000000C205370500000005
S1134E60000605220500000000A0050D0500000055
S1134E70001E09F4080C09DC089C089008C508B455
S1134E800878086C086208460857083B085008343C
S1134E9008000000001E09F4080C09DC089C0890B6
S1134EA008C508B40878086C086208460857083B27
S1134EB0085008340800000000D61DD61DD61DD6A3
S1134EC01DD61D000000003009000000004F09003D
S1134ED00000005C09000000006909783A200079AC
S1134EE03A20007A3A200000000000360BAB1A008A
S1134EF0000000E50CAB1A49444C450000000000DA
S1134F00D61DAB1A000000006D1E1E1C131CF51BE1
S1134F10741E751E000000006D1ED61D721E6F1ECD
S1134F20741E751E000000006D1EF81F42201C2018
S1134F30741E55204672656552544F5320586D6552
S1134F4067612054657374696E672050726F67726D
S1134F50616D0055736572496E740053656E736FAD
S1134F6072000000000084242A247224122457238F
S1134F704B23D123C02330232423FE22C622F32231
S1134F80BB22EC22B42200000000A8245A24962458
S1134F904224A5239923FA23E9237E2372231A2387
S10D4FA0E2220F23D7220823D022B7
S9030000FC
