:100000000C9439030C946F030C946F030C946F03DE
:100010000C946F030C946F030C946F030C946F0398
:100020000C946F030C946F030C946F030C946F0388
:100030000C946F030C946F030C946F030C946F0378
:100040000C946F030C946F030C946F030C946F0368
:100050000C946F030C946F030C94B8110C946F0301
:100060000C946F030C948D210C946F030C946F030C
:100070000C94EB210C946F030C946F030C946F039E
:100080000C946F030C946F030C946F030C946F0328
:100090000C946F030C946F030C946F030C946F0318
:1000A0000C946F030C946F030C946F030C946F0308
:1000B0000C946F030C946F030C946F030C946F03F8
:1000C0000C946F030C946F030C946F030C946F03E8
:1000D0000C946F030C946F030C946F030C946F03D8
:1000E0000C946F030C946F030C9405230C946F0312
:1000F0000C946F030C946F030C946F030C946F03B8
:100100000C946F030C946F030C946F030C946F03A7
:100110000C946F030C946F030C946F030C946F0397
:100120000C946F030C946F030C946F030C946F0387
:100130000C946F030C946F030C946F030C946F0377
:100140000C946F030C946F030C946F030C946F0367
:100150000C946F030C946F030C946F030C946F0357
:100160000C9449220C946F030C946F030C94A722F7
:100170000C946F030C946F030C946F030C946F0337
:100180000C946F030C946F030C946F030C946F0327
:100190000C946F030C946F030C946F030C946F0317
:1001A0000C946F030C946F030C946F030C946F0307
:1001B0000C946F030C946F030C946F030C946F03F7
:1001C0000C946F030C946F030C946F030C946F03E7
:1001D0000C946F030C946F030C946F030C946F03D7
:1001E0000C946F030C946F030C946F030C946F03C7
:1001F0000C946F030C946F030C946F03791F7C1F96
:100200007F1F821F851F881F8A1F9B1FA31FAD1F73
:10021000AB1F0C942D240C94F1200C94C1240C944D
:1002200075230C94CD1C0C94231F0C94D9240C948E
:10023000DF230C94C3080C94AD1F0C94A31F0C94E3
:1002400063050C9421250C946F240C94A41C0C942D
:1002500021240C94AB1F0C9454240C9404210C9472
:10026000F3040C94A2230C94241F0C94FA230C94F2
:10027000C4050C940C260C94180A0C9471080C9468
:100280005F080C9478050C94A9240C947C1F0C94A2
:100290008D050C94CB200C9409250C9436080C94F5
:1002A0000F040C947F1F0C94AD230C947F230C94AB
:1002B000881F0C9456040C9433250C94E50B0C9475
:1002C000EE030C941E1F0C9403090C94940D0C94D3
:1002D00091030C9466080C948A1F0C9455080C9496
:1002E00006240C94C9230C945A1B0C949B230C9445
:1002F00098240C94791F0C9405040C940F050C940D
:1003000063230C9448240C9413080C949D040C94BF
:100310006A230C94C21C0C94821F0C94AB080C949E
:10032000FE090C94BC030C9480240C940B0A0C94CE
:100330009B1F0C9439050C94851F0C94B7230C94C7
:1003400036030C94FB030C94CD040C9498140C9479
:10035000BE230C9487080C94D3230C94211F0C9477
:1003600045250C9443080C94A2050C9471030C943D
:1003700086230C9424050C94F1240C94851E0C9473
:1003800008050C94EB080C949F080C944E050C94F3
:1003900057250C944A080C941B090C94DF090C9403
:1003A0007B080C9491230C94A7200C94D4080C94F3
:1003B0002D090C947C030C941C1F2C2054434330B7
:1003C0004343413D002F002C204865617020667238
:1003D00065653A200054696D653A20004E6F7620BD
:1003E00032332032303138004D45343035206261AF
:1003F000736520726164696F2070726F6772616DDE
:100400002056302E34200020202020683A20202042
:1004100048414C50210020202020653A20202045D2
:1004200078697420636F6D6D616E64206D6F6465B3
:100430000020202020733A202020537461636B2019
:1004400064756D7020666F72207461736B73002029
:10045000202020763A20202056657273696F6E2026
:10046000616E6420736574757020696E666F726D5D
:100470006174696F6E00202020206E3A2020205386
:10048000686F77207468652074696D65207269678C
:100490006874206E6F77002020496E20636F6D6D49
:1004A000616E64206D6F6465206F6E6C793A002018
:1004B0002043746C2D413A20456E74657220636F41
:1004C0006D6D616E64206D6F646500202043746CF7
:1004D0002D433A2052657365742074686520415637
:1004E00052002068656C70004D45343035206261E3
:1004F000736520726164696F2070726F6772616DDD
:100500002056302E3420001B5B33306D001B5B34D3
:10051000366D00496C6C6567616C2073746174653D
:100520002120526573657474696E672041565200CC
:100530003A5754463F004578697420636F6D6D618A
:100540006E64206D6F646500526573657474696EC6
:100550006720415652005072657373204374726C69
:100560002D4120666F7220636F6D6D616E64206D2A
:100570006F646500526573657474696E67004552F7
:10058000524F5220696E207461736B2000455252A5
:100590004F52206372656174696E67207461736B7A
:1005A00020002C20737461636B206174203078000C
:1005B0002063726561746564005461736B20001B75
:1005C0005B32326D005461736B3A20001B5B316DFE
:1005D000001B5B32326D005461736B3A2049444C0E
:1005E00045001B5B316D000909002F0049444C4553
:1005F000090930092D0900092D2D2D2D00092D2D5A
:100600002D2D2D2D2D2D2D2D002D2D2D2D09092D8F
:100610002D2D2D092D2D2D2D2D000952756E7300B8
:1006200009467265652F546F74616C004E616D658B
:1006300009095072692E0953746174650009537475
:1006400061636B005461736B090920200920000964
:100650000009002F00090009001B5B32326D001BEE
:100660005B316D001B5B316D002020000E94F21990
:100670000C2611241FBECFEFCDBFDFE3DEBF00E0AD
:100680000CBF18BE19BE1ABE1BBE12E2A0E0B0E23B
:10069000E0E0FFE400E00BBF02C007900D92A03243
:1006A000B107D9F71BBE22E3A0E2B2E201C01D925E
:1006B000AE3EB207E1F713E0C9E3D3E000E006C0C5
:1006C00021970109802FFE010E94DA26C833D10745
:1006D00080E00807A9F70E947E250C947E270C94E1
:1006E0000000BC016E5F7F4FDC01ED91FC91008446
:1006F000F185E02D19950895CF93DF93EC01E88102
:10070000F9810480F581E02D1995BE01625F7F4F6C
:10071000EC8DFD8D808191810E941207DF91CF9138
:100720000895EF92FF920F93CF93DF93EC017C013A
:1007300082E0E80EF11CE881F9810084F185E02D6A
:10074000B701CE011995288539854A855B85BE019B
:10075000605E7F4F00E08E819F810E94D512EC8DFC
:10076000FD8DB701828193810E945507DF91CF9162
:100770000F91FF90EF900895CF92DF92EF92FF924A
:100780000F93CF93DF93EC017B016C018EE0C80ED9
:10079000D11CE881F9810084F185E02DB601CE01FC
:1007A00019952C893D894E895F89BE01615E7F4F15
:1007B00000E08A899B890E94D512D701ED91FC91B6
:1007C0000190F081E02DB601C7011995DF91CF911D
:1007D0000F91FF90EF90DF90CF900895CB010E9492
:1007E000CD0B0895FC01668F862F880F878F682FA9
:1007F000616060A30895DC011796ED91FC91189754
:100800000480F581E02D84810895DC011796ED9137
:10081000FC9118970480F581E02D848108950F9351
:100820001F93CF93DF931F921F92CDB7DEB78C013A
:10083000DC0119968D919C911A9789839A838981FD
:100840009A81019789839A83892B59F0D801179649
:10085000ED91FC9118970480F581E02D848186FF4D
:10086000EECFD801ED91FC910280F381E02DC8011B
:100870001995D8011796ED91FC9118970480F58190
:10088000E02D848184FD08C0848186FF05C0129616
:100890008D919C91139703C0F801848195810F90ED
:1008A0000F90DF91CF911F910F9108950F931F9398
:1008B000CF93DF931F921F92CDB7DEB78C01DC017F
:1008C00019968D919C911A9789839A8389819A812F
:1008D000019789839A83892B59F0D8011796ED9156
:1008E000FC9118970480F581E02D8481882374F7AA
:1008F000D801ED91FC910280F381E02DC80119959A
:10090000D8011796ED91FC9118970480F581E02DA0
:10091000848184FD08C0848188232CF412968D91F3
:100920009C91139703C0F801848195810F900F90DB
:10093000DF91CF911F910F910895EF92FF920F9346
:100940001F93CF93DF938C01EB01E881F981008C39
:10095000F18DE02DCB0119958823A9F0E881F9816B
:100960000284F385E02DE12CF12CB701CE0119951D
:10097000D8011796ED91FC9118970480F581E02D30
:10098000D7018C918783F80182819381DF91CF9188
:100990001F910F91FF90EF9008950F931F93CF93A6
:1009A000DF931F92CDB7DEB78C01CB01D80117962C
:1009B000ED91FC9118970480F581E02D2781298322
:1009C000DB01ED91FC910190F081E02DBE016F5FA4
:1009D0007F4F1995F801828193810F90DF91CF911C
:1009E0001F910F910895CF93DF93EC01CB01DB01B1
:1009F000ED91FC910488F589E02D1995882319F073
:100A00008A819B8102C08C819D81DF91CF91089565
:100A100021E0FB012387FC01828193810895CF931C
:100A2000DF93DC011796ED91FC911897C681D78171
:100A300064E170E2CE010E94331F66E0CE010E94A5
:100A40006A1FDF91CF910895CF93DF93DC01179652
:100A5000ED91FC911897C681D7816AE170E2CE01D1
:100A60000E94331F66E0CE010E946A1FDF91CF9182
:100A70000895CF93DF93DC011796ED91FC911897C1
:100A8000C681D7816FE170E2CE010E94331F66E01C
:100A9000CE010E946A1FDF91CF910895CF93DF931B
:100AA000DC011796ED91FC911897C681D78168E219
:100AB00070E2CE010E94331F66E0CE010E946A1FE1
:100AC000DF91CF910895CF93DF93DC011796ED91DD
:100AD000FC911897C681D78161E370E2CE010E9434
:100AE000331F66E0CE010E946A1FDF91CF91089507
:100AF000CF93DF93DC011796ED91FC911897C68197
:100B0000D7816CE370E2CE010E94331F66E0CE0114
:100B10000E946A1FDF91CF910895CF93DF93DC018C
:100B20001796ED91FC911897C681D78167E470E222
:100B3000CE010E94331F66E0CE010E946A1FDF9142
:100B4000CF910895FF920F931F93CF93DF93EC0102
:100B5000EF81F885A481B5811496FC9006811781F8
:100B60006DE470E2C8010E94331F6F2DC8010E941E
:100B7000272066E00E946A1F8A819B81DF91CF91C6
:100B80001F910F91FF9008950F931F93CF93DF93C1
:100B90008C01EB01E881F981048CF58DE02DCB010E
:100BA00019952A8530E08217930779F4D8011796B2
:100BB000ED91FC9118970480F581E02D87E0838307
:100BC00012968D919C9113970EC0D8011796ED91B6
:100BD000FC9118970480F581E02D82E083831496C0
:100BE0008D919C911597DF91CF911F910F91089551
:100BF0000F931F93CF93DF93EC018B01688379836D
:100C000089E090E00E947F1EFC01168289E990E253
:100C10008083918307831087EC83FD838BE090E0D2
:100C20000E947F1EFC018B899C89168221EA30E29A
:100C3000208331830783108781879287EE83FF8328
:100C400089E090E00E947F1EFC01168281EB90E219
:100C50008083918307831087E887F98789E090E094
:100C60000E947F1EFC01168281EC90E280839183BA
:100C700007831087EA87FB8789E090E00E947F1E48
:100C8000FC01168289ED90E28083918307831087AF
:100C9000EC87FD8789E090E00E947F1EFC011682B0
:100CA00081ED90E28083918307831087EE87FF8731
:100CB00080E197E28B8B9C8B8E819F81EC81FD8103
:100CC00082839383848395838C859D85288539854C
:100CD000EE81FF8122833383848395838A859B857C
:100CE000E885F98582839383848395838E819F81B0
:100CF0002E853F85EA85FB85228333838483958314
:100D0000DF91CF911F910F9108950F931F93CF9370
:100D1000DF93EC018B016883798389E090E00E9486
:100D20007F1EFC01168289E990E28083918307830C
:100D30001087EC83FD838BE090E00E947F1EFC0116
:100D40008B899C89168229EA30E2208331830783CC
:100D5000108781879287EE83FF8389E090E00E946D
:100D60007F1EFC01168289EB90E2808391830783CA
:100D70001087E887F98789E090E00E947F1EFC01D8
:100D8000168289EC90E28083918307831087EA873B
:100D9000FB8789E090E00E947F1EFC01168289EDAE
:100DA00090E28083918307831087EC87FD8789E039
:100DB00090E00E947F1EFC01168281ED90E280830C
:100DC000918307831087EE87FF8780E197E28B8B03
:100DD0009C8B8E819F81EC81FD81828393838483B0
:100DE00095838C859D8528853985EE81FF812283B9
:100DF0003383848395838A859B85E885F9858283FF
:100E00009383848395838E819F812E853F85EA8598
:100E1000FB852283338384839583DF91CF911F9158
:100E20000F9108950F931F93CF93DF93EC018B01E4
:100E30008C819D818A839B832E853F8582179307B2
:100E4000D9F02C853D858217930731F417C02C8586
:100E50003D852817390799F0DC01ED91FC9101904F
:100E6000F081E02DB80119958A839B832E853F85FB
:100E70002817390761F703C0C90101C0C901DC01A6
:100E8000ED91FC910190F081E02DB801199581E080
:100E90004A815B812E853F854217530709F080E028
:100EA000DF91CF911F910F9108950F931F93CF93CF
:100EB000DF93EC018B018C819D818A839B832E853E
:100EC0003F8582179307D9F02C853D8582179307BC
:100ED00031F417C02C853D852817390799F0DC01BE
:100EE000ED91FC910190F081E02DB80119958A8374
:100EF0009B832E853F852817390761F703C0C901F9
:100F000001C0C901DC01ED91FC910190F081E02D5F
:100F1000B8011995C801DF91CF911F910F910895E4
:100F2000CF93DF93EC019A01AB01220F331F441FD3
:100F3000551F60E078E488EE91E00E9499262550E4
:100F40002A87EC81FD812583DF91CF910895EF926F
:100F5000FF920F931F93CF93DF93EC017B01BA01B4
:100F6000A901EC82FD820E831F834B875C876D870E
:100F70007E8780E8E81684E0F80629F480E496E0AD
:100F80008887998709C0E0EAEE16E4E0FE0621F4BE
:100F900080E896E088879987E885F98583E08183F2
:100FA000E885F98588E3808BE885F985818B82E087
:100FB000F7018283CE010E949007F70184818D6C36
:100FC000848388E0818385E190E00E947F1E7C011C
:100FD000BE010E94F805E882F98286E190E00E9455
:100FE0007F1E7C01BE010E948506EA82FB820E8084
:100FF000DF81C02D6FE670E2CE010E94331F66E0F4
:10100000CE010E946A1FDF91CF911F910F91FF9037
:10101000EF900895DC011496ED91FC911597838172
:101020008160838308950F931F93CF93DF93EC0127
:10103000CB01DB01ED91FC910284F385E02D00E012
:1010400010E0B80119958F8198850E940A08EF81F8
:10105000F8850480F581E02DD8018C9186838A8102
:101060009B81DF91CF911F910F910895DB01BC010E
:101070006E5F7F4FED91FC9111970190F081E02D13
:10108000CD0119950895FC01848195810E949514E4
:1010900090E00895FC01848195810E94951491E06F
:1010A000811101C090E0892F0895FC018481958110
:1010B0000E94951491E0811190E0892F0895FC0120
:1010C000848195810E948D1490E00895FC018481B3
:1010D00095810E948D1491E0811101C090E0892FCB
:1010E0000895FC01848195810E948D1491E0811105
:1010F00090E0892F08950F9301E02FEF3FEFA901B2
:10110000FC01848195810E949C130F9108950F9397
:10111000CF93DF931F92CDB7DEB701E02FEF3FEF04
:10112000A901BE016F5F7F4FFC01848195810E9400
:101130009C1389810F90DF91CF910F9108950F93A8
:1011400000E02FEF3FEFA901FC01848195810E940F
:101150009C130F9108950F93CF93DF931F92CDB7F8
:10116000DEB700E02FEF3FEFA901BE016F5F7F4FB9
:10117000FC01848195810E949C1389810F90DF91ED
:10118000CF910F910895CF93DF931F92CDB7DEB724
:10119000AE014F5F5F4FFC01848195810E94601416
:1011A0000F90DF91CF910895CF93DF931F921F92FD
:1011B000CDB7DEB7AE014E5F5F4FBE016F5F7F4FB1
:1011C000FC01848195810E94601489810F900F90A9
:1011D000DF91CF910895CF93DF931F92CDB7DEB704
:1011E000198221E0AE014F5F5F4FFC018481958140
:1011F0000E94701391E0811101C090E0892F0F903F
:10120000DF91CF910895CF93DF931F92CDB7DEB7D3
:10121000198220E0AE014F5F5F4FFC018481958110
:101220000E94701391E0811101C090E0892F0F900E
:10123000DF91CF9108950F93FC012681378140857E
:10124000518501E0848195810E94D51291E0811140
:1012500001C090E0892F0F9108950F93FC01268122
:1012600037814085518500E0848195810E94D512A7
:1012700091E0811101C090E0892F0F9108953F9274
:101280004F925F926F927F928F929F92AF92BF9296
:10129000CF92DF92EF92FF920F931F93CF93DF9342
:1012A0008C017B016A01DC016D937C93119712968E
:1012B0004D935C93139781E290E00E947F1EEC01B6
:1012C00089E291E2888399831C821D820F2EF1EEC0
:1012D000AF2EF0E2BF2EF02DAA82BB8240E061E08B
:1012E00082E00E94A7128E839F830F2EFAE04F2E7A
:1012F000512C612C712CF02D488659866A867B868C
:101300000F2EF5E08F2EF1E29F2EF02D8A829B8228
:101310006894332431F83C86188A198AAE86BF86D1
:1013200040E061E082E00E94A7128A8B9B8B4C8A8E
:101330005D8A6E8A7F8A8E869F86388E8AE090E2EA
:1013400088839983CA8EDB8EF801C483D58380E7B6
:1013500086831086118612861386148683E090E0B9
:101360000E947F1E27E331E2FC012083318321E5C7
:101370002283D8011F968D939C9350971496ED91DC
:10138000FC911597E48EF58E16966C91169714962F
:101390008D919C9115970E94F203DF91CF911F913F
:1013A0000F91FF90EF90DF90CF90BF90AF909F9004
:1013B0008F907F906F905F904F903F9008950F9324
:1013C0001F93CF93DF938C01EB01BC016E5F7F4FC6
:1013D000E881F9810190F081E02DCE011995B801E5
:1013E0006D5F7F4FE881F9810190F081E02DCE01A2
:1013F0001995DF91CF911F910F910895DB01BC01E9
:101400006E5F7F4FED91FC9111970190F081E02D7F
:10141000CD0119950895DB01BC016E5F7F4FED9101
:10142000FC9111970190F081E02DCD01199508955F
:10143000DB01BC016E5F7F4FED91FC911197019034
:10144000F081E02DCD01199508954F925F926F9232
:101450007F928F929F92AF92BF92CF92DF92EF9244
:10146000FF920F931F93CF93DF938C017B016A014F
:10147000DC016D937C93119712964D935C931397B7
:1014800081E290E00E947F1EEC0189E291E2888374
:1014900099831C821D820F2EF1EEAF2EF0E2BF2E3B
:1014A000F02DAA82BB8240E061E082E00E94A71298
:1014B0008E839F830F2EFAE04F2E512C612C712CBE
:1014C000F02D488659866A867B860F2EF5E08F2E92
:1014D000F1E29F2EF02D8A829B8282E08C87188A0F
:1014E000198AAE86BF8640E061E083E00E94A712C1
:1014F0008A8B9B8B4C8A5D8A6E8A7F8A8E869F86BA
:101500000F2EF3E0BF2EF02DB88E8AE090E2888394
:101510009983CA8EDB8EF801C483D58386E090E080
:101520000E947F1EFC01108211821282138214829B
:101530001582D80116968D939C9317978DE1189676
:101540008C9384E090E00E947F1EFC018DE391E289
:10155000808391838AE28283C1E0C383D8011B9692
:10156000ED93FC931C9783E090E00E947F1E23E4A0
:1015700031E2FC0120833183C283D8011D968D9313
:101580009C931E9783E090E00E947F1E29E431E245
:10159000FC0120833183B282D8011F968D939C93E6
:1015A000509783E090E00E947F1E2FE431E2FC011F
:1015B0002083318325E02283D80151968D939C931B
:1015C00052971496ED91FC911597E48EF58E18962E
:1015D0006C91189714968D919C9115970E94F20327
:1015E000DF91CF911F910F91FF90EF90DF90CF90FF
:1015F000BF90AF909F908F907F906F905F904F9033
:1016000008951F93CF93DF93EC018C819D816B85AF
:101610007C85DC01ED91FC910190F081E02D199524
:101620008C819D816D857E85DC01ED91FC91019021
:10163000F081E02D19958C819D81DC01ED91FC916B
:101640000280F381E02D1995EC018B858823B9F098
:10165000E881F9810084F185E02DCE011995182FDC
:10166000E881F9810084F185E02DCE011995212FC3
:1016700030E0322F2227A901482BCA0102C080E0A6
:1016800090E0DF91CF911F9108951F93CF93DF9347
:10169000EC018C819D816B857C85DC01ED91FC9159
:1016A0000190F081E02D19958C819D816F8578895D
:1016B000DC01ED91FC910190F081E02D19958C8178
:1016C0009D81DC01ED91FC910280F381E02D199563
:1016D000EC018B858823B9F0E881F9810084F185DC
:1016E000E02DCE011995182FE881F9810084F1854C
:1016F000E02DCE011995212F30E0322F2227A901AC
:10170000482BCA0102C080E090E0DF91CF911F9189
:1017100008951F93CF93DF93EC018C819D816B859E
:101720007C85DC01ED91FC910190F081E02D199513
:101730008C819D8169897A89DC01ED91FC91019010
:10174000F081E02D19958C819D81DC01ED91FC915A
:101750000280F381E02D1995EC018B858823B9F087
:10176000E881F9810084F185E02DCE011995182FCB
:10177000E881F9810084F185E02DCE011995212FB2
:1017800030E0322F2227A901482BCA0102C080E095
:1017900090E0DF91CF911F910895CF93DF93EC01FB
:1017A0001B86E881F981008CF18DE02DCE01199521
:1017B000882341F0E881F9810084F185E02DCE0194
:1017C0001995EFCFDF91CF910895EC018C858111B0
:1017D00039C08C899D890E94010B7C010E811F817B
:1017E00061E571E2C8010E94331FB701C8010E9480
:1017F000B11F66E00E946A1F8C899D890E94450B7B
:101800007C010E811F8165E571E2C8010E94331FD2
:10181000B701C8010E94B11F66E00E946A1F8C894F
:101820009D890E94890B7C010E811F8169E571E20F
:10183000C8010E94331FB701C8010E94B11F66E0B2
:101840000E946A1F8E859F85A889B9890196A11D6E
:10185000B11D8E879F87A88BB98B68EE73E080E0FF
:1018600090E00E94D517B2CFCF92DF92EF92FF9215
:101870000F931F93CF93DF93EC016B010E94051A26
:1018800081E691E288839983EC8AFD8ACE8ADF8A99
:10189000DF91CF911F910F91FF90EF90DF90CF904C
:1018A00008950F931F93CF93DF93EC010E94051AC5
:1018B00089E691E288839983DF91CF911F910F91FF
:1018C00008950F931F93CF93DF93EC016AE08E810D
:1018D0009F810E946A1F8C016DE075E00E94331F9A
:1018E0006AE0C8010E946A1F8C0167E075E00E94EF
:1018F000331F67E0C8010E946A1F6AE08E819F81E2
:101900000E946A1F8C0168EE74E00E94331F6AE037
:10191000C8010E946A1F8C0162EE74E00E94331FAE
:1019200066E0C8010E946A1F6AE08E819F810E9462
:101930006A1F8C016BEC74E00E94331F66E0C801E3
:101940000E946A1F6AE08E819F810E946A1F8C013B
:101950006FEA74E00E94331F66E0C8010E946A1FAC
:101960006AE08E819F810E946A1F8C0167E974E0A2
:101970000E94331F66E0C8010E946A1F6AE08E81E0
:101980009F810E946A1F8C0166E774E00E94331FEA
:1019900066E0C8010E946A1F6AE08E819F810E94F2
:1019A0006A1F8C016FE474E00E94331F66E0C80177
:1019B0000E946A1F6AE08E819F810E946A1F8C01CB
:1019C00061E374E00E94331F66E0C8010E946A1F51
:1019D0006AE08E819F810E946A1F8C0166E174E03B
:1019E0000E94331F66E0C8010E946A1F6AE08E8170
:1019F0009F810E946A1FEC0167E074E00E94331F20
:101A000066E0CE010E946A1FDF91CF911F910F9176
:101A10000895AF92BF92CF92DF92EF92FF920F9311
:101A20001F93CF93DF9300D000D0CDB7DEB78C01EA
:101A300019821A821B821C821D821E820E948E0FB6
:101A40006C01CE0101960E94B61D5C0166E0F801B2
:101A5000868197810E946A1F6AE00E946A1F7C014A
:101A600068EE73E00E94331F6AE0C7010E946A1F9C
:101A70007C016CED73E00E94331F66E0C7010E9499
:101A80006A1F6AE00E946A1F7C0165ED73E00E9494
:101A9000331FB501C7010E945A1D6AE00E946A1FE8
:101AA0007C0167EC73E00E94331FB601C7010E94FE
:101AB000B11F6AE00E946A1F7C0165EC73E00E941E
:101AC000331F4FEF5FE060E070E0C7010E94E51F49
:101AD000C0902808D09029086AE0F8018681978193
:101AE0000E946A1F7C016AEB73E00E94331FB601FB
:101AF000C7010E94B11F66E00E946A1F66E00E9453
:101B00006A1FF801868197810E94131C2696CDBF1B
:101B1000DEBFDF91CF911F910F91FF90EF90DF908B
:101B2000CF90BF90AF900895CF93DF9300D000D0B7
:101B3000CDB7DEB78C0119821A821B821C821D82EE
:101B40001E826AE0DC0116968D919C9117970E9487
:101B50006A1F7C0166E575E00E94331F66E0C701DD
:101B60000E946A1FF8018485882321F0813009F4DE
:101B70005DC0D8C086819781DC01ED91FC91048025
:101B8000F581E02D19958823A9F1F80186819781C7
:101B9000DC01ED91FC910680F781E02D19959927E4
:101BA00081309105F9F0039709F0D8C06AE0F80197
:101BB000868197810E946A1F8C0168E475E00E940B
:101BC000331F66E0C8010E946A1F93E088ED08B6E3
:101BD00018BE84BF909380008091820081FDFCCF6D
:101BE00008BEFFCFC8010E94610C61E0C8010E94DD
:101BF000011AB4C08CED92E30E94C21C882309F440
:101C0000ADC0D8011696ED91FC9117970190F08127
:101C1000E02DE280F3808CED92E30E94A41C682FFB
:101C2000F80186819781F701199598C0868197817F
:101C3000DC01ED91FC910480F581E02D199588235C
:101C400009F48CC0F80186819781DC01ED91FC914B
:101C50000680F781E02D19959C0133272836310540
:101C600059F13CF42B31310559F12536310541F15B
:101C70003BC023373105C1F02637310589F02E36B8
:101C8000310591F5CE0101960E94B61DBC01F80107
:101C9000868197810E945A1D66E00E946A1F5EC07D
:101CA000C8010E94090D5AC0D80116968D919C91C9
:101CB00017970E941A1B52C0C8010E94610C4EC0A7
:101CC0006AE0F801868197810E946A1F7C0166E3C1
:101CD00075E00E94331F66E0C7010E946A1F60E042
:101CE000C8010E94011A3AC0F801A681B781ED919E
:101CF000FC9111970280F381E02D682FCD01199599
:101D00006AE0D80116968D919C9117970E946A1FE0
:101D10007C0160E375E00E94331F66E0C7010E940A
:101D20006A1F1CC06AE0F801868197810E946A1FC1
:101D30008C0163E175E00E94331F66E0C8010E94D8
:101D40006A1F93E088ED08B618BE84BF90938000A8
:101D50008091820081FDFCCF08BEFFCFF80186850F
:101D60009785A089B1890196A11DB11D86879787A6
:101D7000A08BB18B68EE73E080E090E00E94D517F5
:101D8000F1CE0F931F93CF93DF93EC010E94311696
:101D90008091202281111DC0A5E2B2E2E9E2F2E2C7
:101DA000ED93FC93119712961D921C921397A1E24A
:101DB000B2E28FEF9FE012968D939C9313971D9242
:101DC0001C92119782839383A083B18381E08093D7
:101DD0002022209709F45FC09E012B5F3F4F24967D
:101DE000CE3FDF4008F05AC0E0912522F091262234
:101DF000A5E2B2E202C0DF01FC0182819381821779
:101E0000930720F4808191810097A9F7C2E2E13223
:101E1000FC0709F446C0CD91DC9111978E010B5F50
:101E20001F4F808191818D939C9382819381821B2E
:101E3000930B8B30910510F1BF01620F731FDB0113
:101E400012968D939C9313972283338312964D9110
:101E50005C91139785E292E201C0CD01EC01A8816B
:101E6000B98112962D913C91139724173507A8F349
:101E7000EB01A883B983DC016D937C9380910020F2
:101E80009091012022813381821B930B809300204B
:101E90009093012008C000E010E005C000E010E0D1
:101EA00002C000E010E00E945317C801DF91CF91FB
:101EB0001F910F9108950F931F93CF93DF93009776
:101EC00041F1EC018C01055011090E943116F80115
:101ED00042815381A5E2B2E201C0DF01ED91FC91A4
:101EE00011972281338124173507B8F32597E883AA
:101EF000F9830D931C9320910020309101208A8159
:101F00009B81820F931F80930020909301200E9459
:101F10005317DF91CF911F910F9108958091002069
:101F2000909101200895FC010396818392834FEFE5
:101F30005FEFBA01438354836583768387839087F9
:101F40008187928710820895FC0112861386089576
:101F5000CF93DF93FC01DB0121813281E9018C8188
:101F60009D8114968D939C931597818192811696ED
:101F70008D939C9317978C819D81EC016E837F8359
:101F8000E9016C837D83618372831A96ED93FC93E0
:101F90001B9780818F5F8083DF91CF9108950F938E
:101FA0001F93CF93DF93EB01088119812A813B8135
:101FB0000F3F4FEF14072407340731F4DC01199663
:101FC000ED91FC911A971FC0FC013396DC01179626
:101FD0004D915C911897DA014D915D916D917C91D5
:101FE000041715072607370770F00480F581E02DE8
:101FF000A481B5814D915D916D917C910417150778
:102000002607370790F7A481B581AC83BD83169668
:10201000CD93DC931797EE83FF83C483D5838A87A0
:102020009B87FC0120812F5F2083DF91CF911F913F
:102030000F910895FC01A481B58186819781169640
:102040008D939C931797A681B7818481958114966F
:102050008D939C931597A285B38511968D919C9134
:102060001297E817F90731F48681978111968D93BD
:102070009C931297128613868C9181508C930895AD
:102080008093EC329093ED3231E1FC013083319753
:1020900022E220833197A3E3A083319760833197B5
:1020A00070833197108231971082319760E8608396
:1020B000319710823197108231971082319762E008
:1020C0006083319763E06083319764E06083319788
:1020D00065E06083319766E06083319767E06083F5
:1020E000319768E06083319769E06083319760E100
:1020F000608331973083319732E13083319733E118
:102100003083319734E13083319735E13083319733
:1021100036E13083319737E13083319738E13083CE
:10212000319739E13083319730E23083319731E2B2
:10213000308331972083319723E220833197408386
:1021400031975083319726E22083319727E220830D
:10215000319728E22083319729E22083319720E3C9
:102160002083319721E32083899708958CE780931A
:1021700069088FEF8093680881E08093400891E1BF
:102180009093410880934708A0918832B09189329A
:10219000CD91CDBFDD91DEBFFF91EF91DF91CF916A
:1021A000BF91AF919F918F917F916F915F914F916F
:1021B0003F912F911F910F91FF90EF90DF90CF9063
:1021C000BF90AF909F908F907F906F905F904F9057
:1021D0003F902F901F900F900CBE0F900BBE0F9052
:1021E0000FBE0F90089508950F920FB6F8940F92B6
:1021F0000BB60F920CB60F921F9211242F923F92A2
:102200004F925F926F927F928F929F92AF92BF9206
:10221000CF92DF92EF92FF920F931F932F933F93F2
:102220004F935F936F937F938F939F93AF93BF93DE
:10223000CF93DF93EF93FF93A0918832B0918932CF
:102240000DB60D920EB60D920E940318A091883221
:10225000B0918932CD91CDBFDD91DEBFFF91EF917D
:10226000DF91CF91BF91AF919F918F917F916F91AE
:102270005F914F913F912F911F910F91FF90EF90A0
:10228000DF90CF90BF90AF909F908F907F906F9096
:102290005F904F903F902F901F900F900CBE0F902B
:1022A0000BBE0F900FBE0F9008950F920FB6F894CB
:1022B0000F920BB60F920CB60F921F9211242F9211
:1022C0003F924F925F926F927F928F929F92AF92C6
:1022D000BF92CF92DF92EF92FF920F931F932F93B3
:1022E0003F934F935F936F937F938F939F93AF939E
:1022F000BF93CF93DF93EF93FF93A0918832B09178
:1023000089320DB60D920EB60D920E9452160E94A1
:102310000318A0918832B0918932CD91CDBFDD9163
:10232000DEBFFF91EF91DF91CF91BF91AF919F9170
:102330008F917F916F915F914F913F912F911F915D
:102340000F91FF90EF90DF90CF90BF90AF909F9054
:102350008F907F906F905F904F903F902F901F9045
:102360000F900CBE0F900BBE0F900FBE0F900895F4
:102370000E9455111895CF93DF93EC0188A181112C
:102380000BC088819981892BE1F58A819B810E940C
:10239000BE191A821B8235C0411117C0482F50E068
:1023A0008C819D810E94FD2628A18C819D81820FB8
:1023B000911D8C839D832A813B818217930708F1AD
:1023C000888199818C839D831CC0482F50E08E8129
:1023D0009F810E94FD2688A190E0919581959109A9
:1023E0002E813F81280F391F2E833F8348815981D9
:1023F0002417350730F42A813B81820F931F8E8387
:102400009F838E8D8F5F8E8FDF91CF910895FC011A
:10241000808191810097A1F040A150E02681378111
:10242000240F351F26833783A281B3812A173B07E8
:1024300010F086839783CB01668177810E94FD2609
:1024400008950F931F93CF93DF93EC010FB6F89489
:102450000F928AA11816B4F48B89811105C012C09D
:102460008B89811104C00EC08E010D5E1F4FC80103
:102470000E948A1881110E9447198AA181508AA35B
:10248000181674F38FEF8AA30F900FBE0FB6F8944F
:102490000F9289A11816B4F48885811105C012C065
:1024A0008885811104C00EC08E01085F1F4FC801CE
:1024B0000E948A1881110E94471989A1815089A31D
:1024C000181674F38FEF89A30F900FBEDF91CF9191
:1024D0001F910F9108951F93CF93DF93613059F0AF
:1024E000FC012389308531112CC011E0211110E04D
:1024F000211128C001C011E0EC014881598128A1B7
:1025000030E06F8D629FC001639F900D1124BA016E
:10251000680F791F6A837B831E8E4C835D83821BC9
:10252000930B840F951F8E839F838FEF89A38AA3BC
:10253000CE0108960E94930FCE0143960E94930FFE
:1025400001C010E0812FDF91CF911F9108950F936B
:102550001F93CF93DF93882301F1062F182F83E277
:1025600090E00E94C10EEC01892BC9F0109FC001C0
:10257000112401960E94C10E88839983892B39F01A
:102580001F8F08A361E0CE010E946B1208C0CE012C
:102590000E945B0FC0E0D0E002C0C0E0D0E0CE01FE
:1025A000DF91CF911F910F910895AF92BF92CF927B
:1025B000DF92EF92FF920F931F93CF93DF93CDB7EC
:1025C000DEB72997CDBFDEBF7C015B012E833F8341
:1025D0004887598710E06C0188E0C80ED11C0FB6FF
:1025E000F8940F92F701968D878D9817A8F4402FD5
:1025F000B501C7010E94BB11F7018389882341F00F
:10260000C70143960E948A18813011F40E94F41089
:102610000F900FBE81E056C08E819F81A885B9853D
:10262000892B8A2B8B2B21F40F900FBE80E04AC0A0
:10263000111105C0CE0101960E94C91811E00F903A
:102640000FBE0E9431160FB6F8940F92F70181A1C8
:102650008F3F09F411A2F70182A18F3F09F412A262
:102660000F900FBEBE016A5F7F4FCE0101960E94A0
:10267000DA18811121C00FB6F8940F92F701968DE8
:102680000F900FBE878D981311C04E815F816885B2
:102690007985C6010E946018C7010E9421120E941C
:1026A000531781119CCF0E94F41099CFC7010E944B
:1026B00021120E94531793CFC7010E9421120E943A
:1026C000531780E02996CDBFDEBFDF91CF911F91D8
:1026D0000F91FF90EF90DF90CF90BF90AF90089553
:1026E0000F931F93CF93DF938A01FC01568D378D93
:1026F0005317C0F4422FEC010E94BB118AA18F3FF7
:1027000069F48B89882381F0CE0143960E948A1850
:10271000882361F081E0F801808309C08F5F8AA37C
:1027200081E005C080E003C081E001C081E0DF916D
:10273000CF911F910F910895AF92BF92CF92DF92E8
:10274000EF92FF920F931F93CF93DF93CDB7DEB736
:102750002997CDBFDEBF7C015B012E833F83488775
:10276000598710E06C0183E1C80ED11C0FB6F894B4
:102770000F92F701868D882399F1C680D780B50125
:10278000C7010E94071201111AC0F701868D8150FE
:10279000868F80819181892B29F40E946419F70129
:1027A00082839383F70180858823B1F0C70108965F
:1027B0000E948A18813081F40E94F4100DC0F70144
:1027C000C682D7828389882339F0C70143960E9445
:1027D0008A1881110E94F4100F900FBE81E062C030
:1027E0008E819F81A885B985892B8A2B8B2B21F41B
:1027F0000F900FBE80E056C0111105C0CE010196AA
:102800000E94C91811E00F900FBE0E9431160FB63A
:10281000F8940F92F70181A18F3F09F411A2F701FB
:1028200082A18F3F09F412A20F900FBEBE016A5F12
:102830007F4FCE0101960E94DA1881112DC00FB68C
:10284000F8940F92F701868D0F900FBE81111EC074
:1028500080819181892B49F40FB6F8940F9282817F
:1028600093810E9469190F900FBE4E815F81688528
:102870007985C6010E946018C7010E9421120E943A
:102880005317811173CF0E94F41070CFC7010E94BB
:1028900021120E9453176ACFC7010E9421120E9481
:1028A000531780E02996CDBFDEBFDF91CF911F91F6
:1028B0000F91FF90EF90DF90CF90BF90AF90089571
:1028C0000F931F93CF93DF93FC01268D2223D9F022
:1028D0008A01EC010E9407128E8D81508E8F89A192
:1028E0008F3F69F48885882381F0CE0108960E9485
:1028F0008A18882361F081E0F801808309C08F5F26
:1029000089A381E005C080E003C081E001C081E0CF
:10291000DF91CF911F910F9108950FB6F8940F9208
:10292000FC01868D0F900FBE0895FC01868D0895E1
:10293000CCE5D2E388818230E8F30E94F410FACF2C
:10294000CF92DF92EF92FF926B017C01E09188328F
:10295000F0918932628373838483958380913032CE
:1029600090913132A0913232B0913332C816D906EB
:10297000EA06FB0668F46091883270918932809192
:102980004232909143326E5F7F4F0E94CF0F21C041
:1029900060918832709189328091443290914532B1
:1029A0006E5F7F4F0E94CF0F809102209091032095
:1029B000A0910420B0910520C816D906EA06FB06AE
:1029C00040F4C0920220D0920320E0920420F092C2
:1029D0000520FF90EF90DF90CF9008954F925F9287
:1029E0006F927F928F929F92AF92BF92CF92DF921F
:1029F000EF92FF920F931F93CF93DF935C014B01F4
:102A00003A01290188E290E00E94C10EEC01892B75
:102A100009F4D4C0C114D10409F0CCC0C3010E9490
:102A2000C10E8B8F9C8F009721F4CE010E945B0F0B
:102A3000C5C0A30161E170E00E9406279301215007
:102A400031098B8D9C8D3C01620E731E4AE050E073
:102A5000B401CE014D960E940D271EA2102F043006
:102A600008F013E01A8F1FA36E0122E0C20ED11CE2
:102A7000C6010E94A40FCE010E960E94A40FCA8721
:102A8000DB8784E090E0A0E0B0E0811B9109A10920
:102A9000B1098E879F87A88BB98BCE8BDF8BA20164
:102AA000B501C3010E94401088839983E114F104A9
:102AB00019F0F701C083D1830FB6F8940F9280917B
:102AC00034328F5F80933432809188329091893292
:102AD000892B89F5C0938832D09389328091343222
:102AE0008130C1F58CE592E30E94930F87E692E373
:102AF0000E94930F82E792E30E94930F8DE792E387
:102B00000E94930F81E592E30E94930F86E492E383
:102B10000E94930F87E392E30E94930F81E592E373
:102B2000809344329093453286E492E3809342321C
:102B3000909343320FC080912D3281110BC0E091F0
:102B40008832F0918932828D081720F0C093883244
:102B5000D09389328A8D90912F32981710F48093F8
:102B60002F32909128329F5F9093283290912E328D
:102B7000981710F480932E32FBE08F9FC001112430
:102B8000B601845A9D4C0E94A80F0F900FBE8091F1
:102B90002D32882359F0E0918832F0918932828D6C
:102BA000801730F40E94F41081E009C081E007C072
:102BB00081E005C0CB8EDC8EC6013BCF8FEFDF916D
:102BC000CF911F910F91FF90EF90DF90CF90BF902A
:102BD000AF909F908F907F906F905F904F900895EF
:102BE0000FB6F8940F92009721F48091883290915B
:102BF00089320F900FBEFC01828D0895AF92BF9273
:102C0000CF92DF92EF92FF920F93A12CB12CC12CA7
:102C1000D12C0F2EF5E3EF2EF2E3FF2EF02D00E086
:102C200020E030E044E650E06DE671E288E994E1AE
:102C30000E94EE14813069F4F89480932D32109242
:102C400030321092313210923232109233320E946E
:102C5000B6100F91FF90EF90DF90CF90BF90AF90A4
:102C6000089580912C328F5F80932C3208950FB697
:102C7000F8940F92609130327091313280913232FB
:102C8000909133320F900FBE0895009721F48091F8
:102C90008832909189324D96089580913532909185
:102CA00036320895FF920F931F93CF93DF93809155
:102CB0002C328111EDC08091303290913132A0914F
:102CC0003232B09133320196A11DB11D8093303262
:102CD00090933132A0933232B093333280913032BC
:102CE00090913132A0913232B0913332892B8A2BBC
:102CF0008B2BF1F5809144329091453220914232F4
:102D000030914332209344323093453280934232A3
:102D100090934332809129328F5F80932932E091E2
:102D20004432F0914532808181110CC08FEF9FEFCA
:102D3000DC018093022090930320A0930420B093A1
:102D4000052016C0E0914432F09145320780F085AD
:102D5000E02D0084F185E02D82819381A481B581ED
:102D60008093022090930320A0930420B093052029
:102D70004091303250913132609132327091333221
:102D80008091022090910320A0910420B091052011
:102D9000481759076A077B0708F47FC0E09144325F
:102DA000F091453280818823F9F0E0914432F0912E
:102DB00045320780F085E02DC085D1858A819B81D1
:102DC000AC81BD81409130325091313260913232CC
:102DD00070913332481759076A077B0758F10F2E55
:102DE000FBE0FF2EF02D2FC08FEF9FEFDC018093D3
:102DF000022090930320A0930420B09305204DC09F
:102E0000E0914432F09145320780F085E02DC08595
:102E1000D1858A819B81AC81BD81409130325091B6
:102E200031326091323270913332481759076A0754
:102E30007B0748F48093022090930320A093042002
:102E4000B09305202AC08E010E5F1F4FC8010E945B
:102E50001A10888D998D892B21F0CE010E960E9433
:102E60001A108A8D90912E32981710F480932E327A
:102E7000F89EC0011124B801845A9D4C0E94A80FED
:102E8000E0914432F091453280818111B9CFACCFCD
:102E900080912B328F5F80932B32DF91CF911F91E6
:102EA0000F91FF900895CF92DF92EF92FF920F93D0
:102EB0001F93CF93DF930FB6F8940F9280912C322B
:102EC000815080932C3280912C32811160C080918E
:102ED000343281112CC05EC0D7011796ED91FC9160
:102EE0001897C085D185CE010E960E941A108E01CA
:102EF0000E5F1F4FC8010E941A108A8D90912E32CA
:102F0000981710F480932E32D89EC0011124B80176
:102F1000845A9D4C0E94A80FE0918832F09189322A
:102F20009A8D828D981770F0CC24C3940BC0C12C5D
:102F30000F2EF7E3EF2EF2E3FF2EF02D0F2EFBE026
:102F4000DF2EF02DF70180818111C6CF80912B32C9
:102F5000882381F080912B32882399F00E945216A9
:102F600080912B32815080932B3280912B328111B2
:102F7000F5CF07C0F1E0CF1621F080912A328130E1
:102F800041F410922A320E94F41081E003C080E0E4
:102F900001C080E00F900FBEDF91CF911F910F9184
:102FA000FF90EF90DF90CF900895CF92DF92EF9255
:102FB000FF926B017C01672B682B692BE9F00E9463
:102FC00031168091303290913132A0913232B091ED
:102FD0003332C80ED91EEA1EFB1E809188329091B2
:102FE000893202960E941A10C701B6010E94A014ED
:102FF0000E945317811102C00E94F410FF90EF90BD
:10300000DF90CF90089580912C3281110CC0E09117
:103010002E324BE0E49FF0011124E45AFD4C8081F4
:10302000882329F014C081E080932A3208959BE020
:1030300080912E32815080932E32E0912E329E9FCD
:10304000F0011124E45AFD4C8081882389F380919A
:103050002E32282F30E04BE0849FC0011124DC0188
:10306000A45ABD4C1196ED91FC9112970480F58104
:10307000E02D1196ED93FC931297815A9D4CE81721
:10308000F90761F4848195814BE0429FF001439FF1
:10309000F00D1124E45AFD4C818392838BE0829FD2
:1030A000F001839FF00D1124E45AFD4C0180F28160
:1030B000E02D8085918580938832909389320895A0
:1030C000CF92DF92EF92FF926A017B01609188328A
:1030D00070918932625F7F4F0E94CF0F809188325A
:1030E0009091893202960E941A108091303290910C
:1030F0003132A0913232B0913332BC01CD016C0D2E
:103100007D1D8E1D9F1D0E94A014FF90EF90DF90EB
:10311000CF9008950F931F93CF93DF93DC01179601
:10312000ED91FC911897C085D1858E01025F1F4FEC
:10313000C8010E941A1080912C32811116C00C50C7
:103140001109C8010E941A108A8D90912E32981789
:1031500010F480932E32BBE08B9FC0011124B80184
:10316000845A9D4C0E94A80F05C0B80187E392E3E2
:103170000E94A80FE0918832F091893281E02A8D77
:10318000928D291708F480E0DF91CF911F910F9164
:10319000089520912932FC012083409130325091D2
:1031A0003132609132327091333241835283638382
:1031B000748308958F929F92AF92BF92CF92DF92C5
:1031C000EF92FF920F931F93CF93DF93FC010FB603
:1031D000F8940F92809129329081981789F080910C
:1031E000303290913132A0913232B091333201813C
:1031F00012812381348180179107A207B307A8F5B4
:103200008091303290913132A0913232B09133328C
:10321000C180D280E380F480EB01088119812A818A
:103220003B818C199D09AE09BF0980179107A20740
:10323000B307E8F4CF018090303290903132A09003
:103240003232B0903332B501A4014C195D096E09D8
:103250007F09041B150B260B370B088319832A8360
:103260003B830E94C91880E003C081E001C081E077
:103270000F900FBEDF91CF911F910F91FF90EF90B4
:10328000DF90CF90BF90AF909F908F90089581E096
:1032900080932A320895009721F48091883290918A
:1032A0008932DC015B96ED91FC915C9780818131E4
:1032B00041F4319680E090E0019621912131E1F3D3
:1032C000089580E090E0089580918832909189324D
:1032D00008950F931F93CF93DF93FC01228DA0914C
:1032E0008832B09189325A968C91281708F041C0E3
:1032F000A0918832B09189325A963C9184E090E056
:10330000A0E0B0E0831B9109A109B10986879787E6
:10331000A08BB18B8BE0289F90011124245A3D4C47
:103320008485958582179307E9F48F01EF01229632
:10333000CE010E941A10E0918832F0918932828D7C
:10334000F801828F90912E32981710F480932E32CC
:10335000FBE08F9FC0011124BE01845A9D4C0E9446
:10336000A80F07C0A0918832B09189325A968C91EB
:10337000828FDF91CF911F910F9108950F931F932B
:10338000CF93DF93009749F1FC01328D27A13217CB
:1033900021F1EC018C010E5F1F4FC8010E941A1031
:1033A0008FA18A8F44E050E060E070E0481B510933
:1033B000610971094E875F87688B798B90912E32F6
:1033C000981710F480932E32FBE08F9FC0011124D8
:1033D000B801845A9D4C0E94A80FDF91CF911F9194
:1033E0000F910895EC01E881F9810190F081E02DC1
:1033F00019951A821B826FEF7FEFCB010E94D517C0
:10340000FACFFC016487658708954F925F926F92AF
:103410007F928F929F92AF92BF92CF92DF92EF9264
:10342000FF920F931F93CF93DF93CDB7DEB72A9709
:10343000CDBFDEBF4C012901380186E791E2F401DE
:1034400080839183FB018081882369F0DE011196DE
:10345000319690E002C0993039F09F5F8D93819151
:103460008111F9CF01C090E0E1E0F0E0EC0FFD1F29
:10347000E90FF11D10827401F2E0EF0EF11CA12C96
:10348000B12CC12CD12C042F9401A201BE016F5F7D
:103490007F4F86E393E00E94EE14F4016682778208
:1034A0004086518620918A3230918B322483358335
:1034B00080928A3290928B32148615864090EC323C
:1034C0005090ED32FFEF4F1A5F0A4092EC3250926B
:1034D000ED32F4014286538616861786108A118AC9
:1034E0006114710409F444C0813079F56AE0C301C4
:1034F0000E946A1F7C0169EB75E00E94331FBE01C8
:103500006F5F7F4FC7010E94331F6AE0C7010E94AF
:103510006A1F7C0160EB75E00E94331F6AE0C701FF
:103520000E946A1F7C0162EA75E00E94331F63E01B
:10353000C7010E946A1FB2010E94B11F62E00E948F
:103540006A1F66E00E946A1F13C06AE0C3010E94FE
:103550006A1F4C016DE875E00E94331FBE016F5F6A
:103560007F4FC4010E94331F66E0C4010E946A1F9E
:103570002A96CDBFDEBFDF91CF911F910F91FF90B3
:10358000EF90DF90CF90BF90AF909F908F907F9003
:103590006F905F904F900895CF92DF92EF92FF92DD
:1035A0000F931F93CF93DF93EC017B018A819B8163
:1035B0000E9445166C016AE0C7010E946A1F8C01D7
:1035C0006CEC75E00E94331F6AE0C8010E946A1F1C
:1035D0008C0165EC75E00E94331FB601C8010E94A2
:1035E000331F6AE0C8010E946A1F8C016FEB75E00F
:1035F0000E94331F66E0C8010E946A1F8A859B856E
:10360000E885F98501E121E0A701BC018E1B9F0B34
:103610000E94CE1D8C819D81009719F0B7010E94F8
:10362000CC1ADF91CF911F910F91FF90EF90DF9017
:10363000CF9008950F931F93CF93DF93EC01809168
:103640008A3290918B32009719F0BE010E94CC1AF9
:103650006AE0CE010E946A1F8C0162EE75E00E9452
:10366000331F6AE0C8010E946A1F8C0167ED75E094
:103670000E94331F6AE0C8010E946A1F8C0161ED3D
:1036800075E00E94331F66E0C8010E946A1F8091A6
:10369000EC329091ED32BC016F5F7F4F01E121E090
:1036A000AE01835691090E94CE1DDF91CF911F91EB
:1036B0000F9108958F929F92AF92BF92CF92DF9217
:1036C000EF92FF920F931F93CF93DF93EC018B0147
:1036D0008A819B810E944516BC01C8010E94331F4C
:1036E000D801ED91FC910280F381E02D69E0C801E1
:1036F00019958A819B810E944516FC01019000204A
:10370000E9F73197E81BF90B389748F4D801ED91A8
:10371000FC910280F381E02D69E0C8011995CE8407
:10372000DF84E888F988A884B9848A819B810E9413
:103730004B19982E8C848A819B810E94F015682FEA
:10374000C8010E9427206AE00E946A1FEC0167E519
:1037500076E00E94331F682DCE010E9427206AE088
:103760000E946A1FEC0165E576E00E94331F692D17
:10377000CE010E9427206AE00E946A1FEC0163E5E7
:1037800076E00E94331FB501CE010E94B11F6AE0AE
:103790000E946A1FEC0161E576E00E94331F6AE037
:1037A000CE010E946A1FEC016FE476E00E94331F95
:1037B000B701A601CE010E94E51FDF91CF911F91B5
:1037C0000F91FF90EF90DF90CF90BF90AF909F90C0
:1037D0008F900895CF93DF93EC01CB01DB01ED9146
:1037E000FC910280F381E02DBE011995CE01DF919D
:1037F000CF9108950F931F93CF93DF93EC018B012B
:10380000BC01C8010E94EA1B66E00E946A1F8C810D
:103810009D81009719F0B8010E94FA1BDF91CF91AA
:103820001F910F9108950F931F93CF93DF93EC0196
:103830006AE00E946A1F8C0164E476E00E94331FF4
:103840006AE0C8010E946A1F8C016DE376E00E9465
:10385000331F66E0C8010E946A1F6AE0CE010E9421
:103860006A1F8C016CE276E00E94331F6AE0C80197
:103870000E946A1F8C0160E276E00E94331F6AE0BA
:10388000C8010E946A1F8C016AE176E00E94331F22
:1038900066E0C8010E946A1F6AE0CE010E946A1FAA
:1038A0008C0169E076E00E94331F6AE0C8010E9443
:1038B0006A1F8C016DEF75E00E94331F6AE0C8013A
:1038C0000E946A1F8C0167EF75E00E94331F66E05B
:1038D000C8010E946A1F80918A3290918B320097B2
:1038E00019F0BE010E94FA1B0E944D160E944B194E
:1038F000182F6AE0CE010E946A1FEC016CEE75E0A1
:103900000E94331F612FCE010E9427206AE00E948F
:103910006A1FEC016AEE75E00E94331F64E670E0F6
:10392000CE010E94B11F6AE00E946A1FEC0167EE9F
:1039300075E00E94331F66E0CE010E946A1FDF918E
:10394000CF911F910F9108950F93CF93DF931F9203
:10395000CDB7DEB700E02FEF3FEFA901BE016F5FEB
:103960007F4FFC01808591850E949C13813019F462
:10397000898190E002C08FEF9FEF0F90DF91CF9190
:103980000F910895FC01808591850E948D1491E02E
:10399000811101C090E0892F08950F93CF93DF9399
:1039A0001F92CDB7DEB76983FC012285338544853C
:1039B000558500E0BE016F5F7F4F808591850E9435
:1039C000D51291E0811101C090E0892F0F90DF9115
:1039D000CF910F9108958F929F92BF92CF92DF92D5
:1039E000EF92FF920F931F93CF93DF93EC01B62ECC
:1039F0004A01680179010E94251F8EE791E28883C0
:103A000099838E869F8640E061E08B2D0E94A712ED
:103A100088879987CA86DB86EC86FD86DF91CF9101
:103A20001F910F91FF90EF90DF90CF90BF909F90EC
:103A30008F900895CF92DF92EF92FF92CF93DF9312
:103A4000EC01688179818A819B810F2EF8EECF2E5F
:103A5000F3E0DF2EE12CF12CF02DA70196010E945E
:103A600099269B01AC0160E472E48FE090E00E9433
:103A70008926A70196010E94992669017A01AC81E5
:103A8000BD8120E432E44FE050E00E94E32620E0D4
:103A900038E448EE51E00E949926C701B601620F52
:103AA000731F841F951FDF91CF91FF90EF90DF90E0
:103AB000CF900895CF92DF92EF92FF920F931F93D2
:103AC000CF93DF93CDB7DEB72F97CDBFDEBF6C01AD
:103AD0008B01DB016D917D918D919C9128EE33E0FE
:103AE00040E050E00E949926BA01A901C6010E9457
:103AF000E51FD601ED91FC910280F381E02D6EE28D
:103B0000C6011995C8010E941A1D8E01095F1F4F39
:103B1000FE0131967F012AE030E040E050E00E9453
:103B2000BB26E62F288739874A875B876885798592
:103B30008A859B8520E32E0FD8012E938D01AE152B
:103B4000BF0549F71F82BE016F5F7F4FC6010E940C
:103B5000331FC6012F96CDBFDEBFDF91CF911F91DE
:103B60000F91FF90EF90DF90CF900895CF93DF9368
:103B7000EC010FB6F8940F928091200890912108E3
:103B80008C839D830E943716688379838A839B8305
:103B90000F900FBECE01DF91CF9108955F926F928B
:103BA0007F928F929F92AF92BF92CF92DF92EF92CD
:103BB000FF920F931F93CF93DF935C014B017A0128
:103BC000122F702E63E0CA010E946A1FA814B90464
:103BD00008F07DC0650184E1C80ED11C00E06A2CAC
:103BE0005B2CB501C7010E94B11F6AE00E946A1FE9
:103BF00069E676E00E94331F112309F46DC00023AB
:103C000009F46AC06AE0C7010E946A1F64E676E0B0
:103C10000E94331F61C0112371F001110CC0888113
:103C2000871549F06AE0C7010E946A1F6FE576E0D8
:103C30000E94331F01E06991C7010E942720DC0127
:103C4000ED91FC910280F381E02D60E21995CC1694
:103C5000DD0609F7112389F06AE0C7010E946A1F97
:103C6000EC0169E576E00E94331FE881F98102806A
:103C7000F381E02D60E2CE011995C62DD52D699115
:103C800080EE860F8F3548F4D701ED91FC910280CC
:103C9000F381E02DC701199509C0D701ED91FC9181
:103CA0000280F381E02D6EE2C7011995CC16DD0686
:103CB00031F7B4E1AB0EB11C66E0C7010E946A1F88
:103CC00084E1C80ED11CA814B90408F488CF62E0BE
:103CD000C7010E946A1F03C0C62DD52D9CCFDF915E
:103CE000CF911F910F91FF90EF90DF90CF90BF90F9
:103CF000AF909F908F907F906F905F9008950E94FB
:103D0000C10E08950E94C10E08950895CF93DF93C8
:103D1000FC01DA01403A68E0560749F480E496E095
:103D20008283938382E0848383E0858332C0403B37
:103D300078E0570749F480E496E08283938386E035
:103D4000848387E0858325C0403A89E0580749F499
:103D500080E696E08283938382E0848383E0858398
:103D600018C0403B69E0560749F480E696E082833C
:103D7000938386E0848387E085830BC0403A5A4072
:103D800041F480E896E08283938382E0848383E039
:103D90008583A683B783CD0101968087918703969B
:103DA000828793872581C281D3814C8181E090E015
:103DB000BC0102C0660F771F2A95E2F79B01242BF6
:103DC0002C832581C281D3814881BC0102C0660F4A
:103DD000771F2A95E2F79B01242B28833481C28127
:103DE000D381288102C0880F991F3A95E2F7809508
:103DF00090958223888380E113968C93139783E0B8
:103E000015968C93159780EF17968C93179781E2F0
:103E100016968C93169788E114968C9380E8858784
:103E200080E4868780E284870680F781E02D8081A8
:103E30008081DF91CF91089581E0089580E090E046
:103E4000089580E0089508950895FC018EE891E2B8
:103E5000808391838AE08283138283E08583148246
:103E60001682178208950F931F93CF93DF938C01CF
:103E7000FB01DC0114968C91811104C060816111F9
:103E800017C023C0D80114961C92EB0121966491AF
:103E90006623D9F0D801ED91FC910280F381E02DE9
:103EA000C8011995FE01649121966111F3CF0DC0EF
:103EB000EF012196D801ED91FC910280F381E02D74
:103EC000C801199569916111F5CFDF91CF911F91CB
:103ED0000F910895CF93DF93EC01862F90E08B3004
:103EE0009105D8F5FC018827E250FF4F8F4F0C94C5
:103EF000DA2682E08A8331C088E08A832EC08AE095
:103F00008A832BC080E18A8328C081E08B8325C00F
:103F10001B8223C0E881F9810280F381E02D6DE0EE
:103F2000CE011995E881F9810280F381E02D6AE0E4
:103F3000CE01199512C0E881F9810284F385E02D44
:103F4000CE0119950AC0E881F9810084F185E02D40
:103F5000CE01199502C081E08C83CE01DF91CF9113
:103F60000895FF920F931F93CF93DF93CDB7DEB7E2
:103F70006197CDBFDEBF8C01F62E972FF8014281ED
:103F8000403121F0483011F0423041F4692FC8012E
:103F90000E9427206F2D0E9427200DC050E0BE01F7
:103FA0006F5F7F4F8F2D0E944927BE016F5F7F4F4C
:103FB000C8010E94331FC8016196CDBFDEBFDF91EB
:103FC000CF911F910F91FF900895DF92EF92FF9292
:103FD0000F931F93CF93DF93CDB7DEB7A197CDBFDC
:103FE000DEBF8C01D42EE52EF62E972FF80122810C
:103FF000203121F0283011F0223071F4692FC801EE
:104000000E9427206F2D0E9427206E2D0E942720BE
:104010006D2D0E9427200FC030E0AE014F5F5F4F33
:104020006D2D7E2D8F2D0E941C27BE016F5F7F4F4F
:10403000C8010E94331FC801A196CDBFDEBFDF912A
:10404000CF911F910F91FF90EF90DF900895CF9245
:10405000DF92EF92FF920F931F93CF93DF93CDB731
:10406000DEB72997CDBFDEBF8C01E62EDC011396AB
:104070008C911397882341F0ED91FC910280F3819C
:10408000E02DC801199556C0F8014281423019F55A
:104090006894CC24C3F8D12C6894FF24F7F88E2DB3
:1040A0008F2151F0D801ED91FC910280F381E02D38
:1040B00061E3C801199509C0D801ED91FC91028016
:1040C000F381E02D60E3C8011995F694B1E0CB1AB5
:1040D000D10829F72FC04031F9F462956F70019033
:1040E000F081E02D0280F381E02D6A3010F0695CF0
:1040F00001C0605DC80119956E2D6F70D801ED91FA
:10410000FC910280F381E02D6A3010F0695C01C0FF
:10411000605DC80119950EC050E0BE016F5F7F4F12
:104120008E2D90E00E944927BE016F5F7F4FC8012E
:104130000E94331FC8012996CDBFDEBFDF91CF910A
:104140001F910F91FF90EF90DF90CF900895DC01C9
:104150005096ED91FC915197808154964C915497D3
:10416000842329F009C02150310919F412C021E239
:104170003EE490819423B9F3908156968C915697A2
:10418000892B80831E96ED91FC911F97608381E0BF
:10419000089580E00895CF93DF93FC01C18DD28D07
:1041A00028813981A38DB48D4D915C9124173507F9
:1041B000E9F3A789B08D0D90BC91A02DA20FB31F7C
:1041C0008C912F5F3F4F288339832436310528F0A7
:1041D000018CF28DE02D1082118290E0DF91CF9161
:1041E0000895CF93DF93EC01A98DBA8DEB8DFC8DF3
:1041F00081E04D915C91208131814217530709F490
:1042000080E0DF91CF910895DC01ED91FC91028077
:10421000F381E02D6CE019950895EF92FF920F93D2
:104220001F93CF93DF93EC017B018A010E94251F2E
:10423000A801B701CE0108960E94861E8EE991E280
:1042400088839983003A88E0180769F488EA92E342
:104250008F8B988F8EE992E3898F9A8F84E992E30E
:104260008B8F9C8F42C0003BE8E01E0769F486EA12
:1042700092E38F8B988F8CE992E3898F9A8F82E9F2
:1042800092E38B8F9C8F31C0003AF9E01F0769F4ED
:1042900084EA92E38F8B988F8AE992E3898F9A8FD1
:1042A00080E992E38B8F9C8F20C0003B89E0180748
:1042B00069F482EA92E38F8B988F88E992E3898F81
:1042C0009A8F8EE892E38B8F9C8F0FC0003A1A4032
:1042D00061F480EA92E38F8B988F86E992E3898F6D
:1042E0009A8F8CE892E38B8F9C8F0F89188D84E6D0
:1042F00090E00E94821EF80180839183E98DFA8DFF
:1043000010821182EB8DFC8D10821182DF91CF9192
:104310001F910F91FF90EF9008951F920F920FB68B
:104320000F92112408B60F9218BE0BB60F921BBE47
:104330002F933F938F939F93EF93FF932091A00828
:10434000E091A832F091A932809194329091953207
:10435000E80FF91F20838091943290919532019655
:104360008436910560F48093943290939532209135
:104370009E3230919F3282179307F1F40CC0109255
:1043800094321092953280919E3290919F321816FD
:10439000190691F40EC001968436910528F4809395
:1043A0009E3290939F3208C010929E3210929F329C
:1043B00003C081E090E0F3CFFF91EF919F918F9147
:1043C0003F912F910F900BBE0F9008BE0F900FBE24
:1043D0000F901F9018951F920F920FB60F921124F5
:1043E00008B60F9218BE0BB60F921BBE2F933F93C9
:1043F0008F939F93EF93FF932091B008E091A632A3
:10440000F091A7328091923290919332E80FF91F88
:104410002083809192329091933201968436910557
:1044200060F4809392329093933220919C32309139
:104430009D3282179307F1F40CC0109292321092C1
:10444000933280919C3290919D321816190691F406
:104450000EC001968436910528F480939C32909387
:104460009D3208C010929C3210929D3203C081E0B0
:1044700090E0F3CFFF91EF919F918F913F912F911A
:104480000F900BBE0F9008BE0F900FBE0F901F90A5
:1044900018951F920F920FB60F92112408B60F9223
:1044A00018BE0BB60F921BBE2F933F938F939F9313
:1044B000EF93FF932091A009E091A432F091A532EF
:1044C0008091943290919532E80FF91F208380916A
:1044D00090329091913201968436910560F48093E8
:1044E00090329093913220919A3230919B32821780
:1044F0009307F1F40CC01092903210929132809197
:104500009A3290919B321816190691F40EC00196BA
:104510008436910528F480939A3290939B3208C098
:1045200010929A3210929B3203C081E090E0F3CF58
:10453000FF91EF919F918F913F912F910F900BBE23
:104540000F9008BE0F900FBE0F901F9018951F92EE
:104550000F920FB60F92112408B60F9218BE0BB629
:104560000F921BBE2F933F938F939F93EF93FF93D5
:104570002091B009E091A232F091A33280918E3265
:1045800090918F32E80FF91F208380918E329091A5
:104590008F3201968436910560F480938E32909329
:1045A0008F32209198323091993282179307F1F42B
:1045B0000CC010928E3210928F328091983290916E
:1045C00099321816190691F40EC001968436910599
:1045D00028F4809398329093993208C010929832C0
:1045E0001092993203C081E090E0F3CFFF91EF91F8
:1045F0009F918F913F912F910F900BBE0F9008BE0E
:104600000F900FBE0F901F9018951F920F920FB62C
:104610000F92112408B60F9218BE0BB60F921BBE54
:104620002F933F938F939F93EF93FF932091A00A33
:10463000E091A032F091A13280918C3290918D3234
:10464000E80FF91F208380918C3290918D32019672
:104650008436910560F480938C3290938D32209152
:1046600096323091973282179307F1F40CC0109272
:104670008C3210928D32809196329091973218162A
:10468000190691F40EC001968436910528F48093A2
:1046900096329093973208C01092963210929732C9
:1046A00003C081E090E0F3CFFF91EF919F918F9154
:1046B0003F912F910F900BBE0F9008BE0F900FBE31
:1046C0000F901F901895FC01848195810E9495148C
:1046D00090E00895FC01848195810E94951491E0F9
:1046E000811101C090E0892F0895FC01848195819A
:1046F0000E94951491E0811190E0892F0895FC01AA
:10470000848195810E94951490E00895FC01848134
:1047100095810E94951491E0811101C090E0892F4C
:104720000895FC01848195810E94951491E0811186
:1047300090E0892F0895FC01848195810E948D1459
:1047400090E00895FC01848195810E948D1491E090
:10475000811101C090E0892F0895FC018481958129
:104760000E948D1491E0811190E0892F0895FC0141
:10477000848195810E948D1490E00895FC018481CC
:1047800095810E948D1491E0811101C090E0892FE4
:104790000895FC01848195810E948D1491E081111E
:1047A00090E0892F08950F9301E02FEF3FEFA901CB
:1047B000FC01848195810E949C130F9108950F93B1
:1047C000CF93DF931F921F92CDB7DEB701E02FEF9B
:1047D0003FEFA901BE016F5F7F4FFC01848195818E
:1047E0000E949C1389819A810F900F90DF91CF9145
:1047F0000F9108950F9300E02FEF3FEFA901FC0107
:10480000848195810E949C130F9108950F93CF93FB
:10481000DF931F921F92CDB7DEB700E02FEF3FEF7F
:10482000A901BE016F5F7F4FFC01848195810E94C9
:104830009C1389819A810F900F90DF91CF910F91F6
:1048400008950F9301E02FEF3FEFA901FC01848150
:1048500095810E949C130F9108950F93CF93DF933E
:104860001F921F92CDB7DEB701E02FEF3FEFA901F6
:10487000BE016F5F7F4FFC01848195810E949C1374
:1048800089819A810F900F90DF91CF910F910895B8
:104890000F9300E02FEF3FEFA901FC018481958188
:1048A0000E949C130F9108950F93CF93DF931F9253
:1048B0001F92CDB7DEB700E02FEF3FEFA901BE0199
:1048C0006F5F7F4FFC01848195810E949C138981D9
:1048D0009A810F900F90DF91CF910F910895CF9310
:1048E000DF931F92CDB7DEB7AE014F5F5F4FFC0184
:1048F000848195810E9460140F90DF91CF9108957B
:10490000CF93DF9300D0CDB7DEB7AE014D5F5F4FE1
:10491000BE016F5F7F4FFC01848195810E9460140E
:1049200089819A812396CDBFDEBFDF91CF91089513
:10493000CF93DF931F92CDB7DEB7AE014F5F5F4FCE
:10494000FC01848195810E9460140F90DF91CF91CA
:104950000895CF93DF9300D0CDB7DEB7AE014D5FA2
:104960005F4FBE016F5F7F4FFC01848195810E9484
:10497000601489819A812396CDBFDEBFDF91CF91EC
:104980000895CF93DF931F92CDB7DEB7198221E050
:10499000AE014F5F5F4FFC01848195810E947013CF
:1049A00091E0811101C090E0892F0F90DF91CF91AC
:1049B0000895CF93DF931F92CDB7DEB7198220E021
:1049C000AE014F5F5F4FFC01848195810E9470139F
:1049D00091E0811101C090E0892F0F90DF91CF917C
:1049E0000895CF93DF931F92CDB7DEB7198221E0F0
:1049F000AE014F5F5F4FFC01848195810E9470136F
:104A000091E0811101C090E0892F0F90DF91CF914B
:104A10000895CF93DF931F92CDB7DEB7198220E0C0
:104A2000AE014F5F5F4FFC01848195810E9470133E
:104A300091E0811101C090E0892F0F90DF91CF911B
:104A400008950F93FC01268137814085518501E04F
:104A5000848195810E94D51291E0811101C090E07E
:104A6000892F0F9108950F93FC012681378140858E
:104A7000518500E0848195810E94D51291E08111D9
:104A800001C090E0892F0F9108950F93FC012681BA
:104A900037814085518501E0848195810E94D5123E
:104AA00091E0811101C090E0892F0F9108950F933B
:104AB000FC01268137814085518500E08481958104
:104AC0000E94D51291E0811101C090E0892F0F91D1
:104AD00008950F93CF93DF931F92CDB7DEB72FB713
:104AE0002983F8941BBEFC0108ED04BF6083898113
:104AF0008FBF0F90DF91CF910F910895EF92FF92AA
:104B00000F931F93CF93DF93CDB7DEB7CA55D1096B
:104B1000CDBFDEBFF894E0E5F0E080818260808365
:104B2000818181FFFDCF60914000687F616080E4FA
:104B300090E00E946925E0E5F0E080818E7F80832F
:104B40009DEF88ED08B618BE84BF9093800008BE24
:104B500040EA5AE060E070E0CE0101960E940D212B
:104B600067E0CE0101960E946A1F8C016AEA71E239
:104B70000E94331F66E0C8010E946A1F66E00E941F
:104B80006A1F8E010F5F1F4F20E332EF40E050E0BD
:104B900060EA74E0CE014E960E94A707A801BE010C
:104BA000625E7F4FCE01C7960E94250AA801BE0112
:104BB000625E7F4FCE01865B9F4F0E943F0982E17C
:104BC00090E00E947F1E20E830E040E069EC71E256
:104BD0000E94510C88E190E00E947F1E9E01295C9A
:104BE0003F4F790120E830E042E061ED71E20E9440
:104BF000340C87E08093A20078940E94FE1580E038
:104C000090E0C65ADF4FCDBFDEBFDF91CF911F913D
:104C10000F91FF90EF900895CF92DF92EF92FF9265
:104C20000F931F93CF93DF930AE010E020E030E072
:104C300040E050E060E270E08CED92E30E94EB1CFB
:104C4000C2EDD2E31A821B828CED91E288839983B4
:104C500040E062E08FEF0E94A7128C839D830F2EAD
:104C6000FAE0CF2ED12CE12CF12CF02DCE82DF8278
:104C7000E886F986C8ECD2E31A821B8200E012E2D1
:104C80000883198340E062E08FEF0E94A7128C83B3
:104C90009D83CE82DF82E886F986CEEBD2E31A824C
:104CA0001B820883198340E062E08FEF0E94A71205
:104CB0008C839D83CE82DF82E886F986C4EBD2E3C3
:104CC0001A821B820883198340E062E08FEF0E9402
:104CD000A7128C839D83CE82DF82E886F986CAEA9A
:104CE000D2E31A821B820883198340E062E08FEFCF
:104CF0000E94A7128C839D83CE82DF82E886F9868C
:104D0000DF91CF911F910F91FF90EF90DF90CF90A7
:104D10000895DB018F939F930E94E326BF91AF918B
:104D2000A29F800D911DA39F900DB29F900D112405
:104D30000895A1E21A2EAA1BBB1BFD010DC0AA1FDC
:104D4000BB1FEE1FFF1FA217B307E407F50720F0F4
:104D5000A21BB30BE40BF50B661F771F881F991F6F
:104D60001A9469F760957095809590959B01AC01B8
:104D7000BD01CF010895052E97FB1EF400940E94FB
:104D8000D22657FD07D00E94992607FC03D04EF487
:104D90000C94D22650954095309521953F4F4F4F1A
:104DA0005F4F089590958095709561957F4F8F4FD7
:104DB0009F4F0895EE0FFF1F881F8BBF0790F6913E
:104DC000E02D1BBE19940E94EE26A59F900DB49F66
:104DD000900DA49F800D911D11240895A29FB001F4
:104DE000B39FC001A39F700D811D1124911DB29F1F
:104DF000700D811D1124911D0895FB01DC0102C07D
:104E000001900D9241505040D8F70895DC0101C047
:104E10006D9341505040E0F70895FB01DC01415093
:104E2000504048F001900D920020C9F701C01D923A
:104E300041505040E0F708952532310520F42230EA
:104E400010F00C942727FA011082CA010895BB279D
:104E5000FA01A62F6217710581059105330B30FB0E
:104E600066F0AA27660F771F881F991FAA1FA2172F
:104E700010F0A21B63953850A9F7A05DAA3308F083
:104E8000A95DA19336F7B111B1931082CA010C94B8
:104E90006E274532510520F4423010F00C9454270F
:104EA000FB011082CB010895BB27FB015527AA27E0
:104EB000880F991FAA1FA41710F0A41B83955051A7
:104EC000B9F7A05DAA3308F0A95DA193009779F71F
:104ED000B111B1931192CB010C946E27DC01FC014E
:104EE000672F71917723E1F7329704C07C916D931E
:104EF00070836291AE17BF07C8F30895F894FFCF8F
:104F0000FF0FFFFFFFFF000000007C039103BC03C5
:104F10007103EE036572726F7200646F6E650072EA
:104F2000207061636B65740074207061636B6574DD
:104F300000722065786368616E676500742065782B
:104F40006368616E6765007374617274004932430F
:104F5000207472616E73666572206661696C656447
:104F60002077697468207374617475733A200049FE
:104F700032434D6173746572206372656174656458
:104F800000446574656374656420693263206164FC
:104F900064723A20000000000013088D0500000034
:104FA000000F04FB0300000000560405040000008D
:104FB000009D04780500000000CD0463050000009A
:104FC00000F3044E0500000000C405390500000090
:104FD000000805240500000000A2050F05000000E0
:104FE000002D0903091B09EB08AB089F08D408C36F
:104FF0000887087B087108550866084A085F084357
:1050000008000000002D0903091B09EB08AB089FED
:1050100008D408C30887087B087108550866084A41
:10502000085F08430800000000851E851E851E8558
:105030001E851E00000000360800000000DF090089
:10504000000000FE09000000000B0A00000000182C
:105050000A783A2000793A20007A3A2000000000CD
:1050600000E50B5A1B00000000940D5A1B49444CEC
:10507000450000000000851E5A1B000000001C1F98
:10508000CD1CC21CA41C231F241F000000001C1FD9
:10509000851E211F1E1F231F241F000000001C1F30
:1050A000A720F120CB20231F0421467265655254AE
:1050B0004F5320586D6567612054657374696E673E
:1050C0002050726F6772616D0055736572496E741E
:1050D0000053656E736F7200000000003325D92401
:1050E0002125C1240624FA2380246F24DF23D3231F
:1050F000AD237523A2236A239B23632300000000B2
:10510000572509254525F12454244824A924982409
:105110002D242124C9239123BE238623B7237F2353
:00000001FF
