S01600004652454552544F535F5348454C4C2E73726563CD
S11300000C9435030C946B030C946B030C946B03EA
S11300100C946B030C946B030C946B030C946B03A4
S11300200C946B030C946B030C946B030C946B0394
S11300300C946B030C946B030C946B030C946B0384
S11300400C946B030C946B030C946B030C946B0374
S11300500C946B030C946B030C94AC0F0C946B0317
S11300600C946B030C94811F0C946B030C946B0322
S11300700C94DF1F0C946B030C946B030C946B03B4
S11300800C946B030C946B030C946B030C946B0334
S11300900C946B030C946B030C946B030C946B0324
S11300A00C946B030C946B030C946B030C946B0314
S11300B00C946B030C946B030C946B030C946B0304
S11300C00C946B030C946B030C946B030C946B03F4
S11300D00C946B030C946B030C946B030C946B03E4
S11300E00C946B030C946B030C94F9200C946B0329
S11300F00C946B030C946B030C946B030C946B03C4
S11301000C946B030C946B030C946B030C946B03B3
S11301100C946B030C946B030C946B030C946B03A3
S11301200C946B030C946B030C946B030C946B0393
S11301300C946B030C946B030C946B030C946B0383
S11301400C946B030C946B030C946B030C946B0373
S11301500C946B030C946B030C946B030C946B0363
S11301600C943D200C946B030C946B030C949B2017
S11301700C946B030C946B030C946B030C946B0343
S11301800C946B030C946B030C946B030C946B0333
S11301900C946B030C946B030C946B030C946B0323
S11301A00C946B030C946B030C946B030C946B0313
S11301B00C946B030C946B030C946B030C946B0303
S11301C00C946B030C946B030C946B030C946B03F3
S11301D00C946B030C946B030C946B030C946B03E3
S11301E00C946B030C946B030C946B030C946B03D3
S11301F00C946B030C946B030C946B036D1D701DBA
S1130200731D761D791D7C1D7E1D8F1D971DA11DDF
S11302109F1D0C945E210C94981A0C947A210C94D2
S1130220880B0C94761D0C94171D0C94BF1E0C9413
S113023085210C947E1D0C9438080C944E190C9452
S11302409B1E0C9496210C9415230C94FD040C9481
S1130250121D0C9415220C948C120C94A11D0C9458
S1130260D8080C9469210C94B2210C94A1040C9428
S1130270D0070C9451050C9466050C9407080C9453
S1130280C0080C9427230C9412050C94D3210C94CD
S113029048220C94731D0C9439230C9427050C9458
S11302A08F1D0C9457210C94A8080C94F7030C94FC
S11302B08C220C94A1210C9421040C94B61A0C9455
S11302C073210C94EA030C9468080C948D030C9429
S11302D0EE210C9400080C94BD210C943C220C9447
S11302E0F6230C949F1D0C94C11A0C9474220C9444
S11302F04B040C94EA080C946D1D0C942E080C9479
S1130300B8030C947C1D0C94181D0C949D220C9421
S1130310E5220C94D3040C94F81E0C94971D0C94B1
S1130320791D0C94151D0C947B040C9421220C94BF
S11303301C080C94B5220C94AB210C94C7210C948A
S11303403C050C946D030C94701D0C94101D0C94BE
S1130350CD220C94BE040C9432030C948F210C9483
S11303604B230C94EA090C947B050C94B6040C946E
S1130370791C0C945C080C9423080C94BA040C9417
S1130380FD220C94E8040C94F3070C9480080C945C
S1130390E51E0C9412080C94FA210C9444080C9455
S11303A091080C9478030C946322536F6E61723A33
S11303B020002C20544343304343413D002F002C64
S11303C0204865617020667265653A200054696D45
S11303D0653A20004D6172203135203230313800C9
S11303E04D45343035206261736520726164696FF4
S11303F02070726F6772616D2056302E3420002099
S1130400202020683A20202048414C502100202000
S11304102020653A2020204578697420636F6D6D33
S1130420616E64206D6F64650020202020733A2083
S11304302020537461636B2064756D7020666F7245
S1130440207461736B730020202020763A202020D2
S113045056657273696F6E20616E6420736574757E
S11304607020696E666F726D6174696F6E00202012
S113047020206E3A20202053686F7720746865200E
S113048074696D65207269676874206E6F770020E7
S113049020496E20636F6D6D616E64206D6F6465BD
S11304A0206F6E6C793A00202043746C2D413A2001
S11304B0456E74657220636F6D6D616E64206D6F3F
S11304C0646500202043746C2D433A2052657365A3
S11304D0742074686520415652002068656C700071
S11304E04D45343035206261736520726164696FF3
S11304F02070726F6772616D2056302E3420001B9D
S11305005B33306D001B5B34366D00496C6C656782
S1130510616C207374617465212052657365747411
S1130520696E6720415652003A5754463F00457859
S1130530697420636F6D6D616E64206D6F64650016
S1130540526573657474696E672041565200507227
S1130550657373204374726C2D4120666F7220633F
S11305606F6D6D616E64206D6F64650052657365B7
S11305707474696E67004552524F5220696E20743C
S113058061736B20004552524F522063726561744F
S1130590696E67207461736B20002C20737461632F
S11305A06B20617420307800206372656174656427
S11305B0005461736B20001B5B32326D0054617315
S11305C06B3A20001B5B316D001B5B32326D0054B3
S11305D061736B3A2049444C45001B5B316D000943
S11305E009002F0049444C45090930092D09000927
S11305F02D2D2D2D00092D2D2D2D2D2D2D2D2D2D78
S1130600002D2D2D2D09092D2D2D2D092D2D2D2DAF
S11306102D000952756E730009467265652F546F7B
S113062074616C004E616D6509095072692E09533D
S1130630746174650009537461636B005461736B76
S113064009092020092000090009002F00090009D8
S1130650001B5B32326D001B5B316D001B5B316D27
S1130660002020000E94E617F62311241FBECFEFBE
S1130670CDBFDFE3DEBF00E00CBF18BE19BE1ABE5B
S11306801BBE11E2A0E0B0E2E4EDFAE400E00BBF2F
S113069002C007900D92A63CB107D9F71BBE22E316
S11306A0A6ECB1E201C01D92A439B207E1F713E050
S11306B0C5E3D3E000E006C021970109802FFE01C5
S11306C00E94C424C433D10780E00807A9F70E941C
S11306D072230C9468250C940000BC016E5F7F4F5C
S11306E0DC01ED91FC910084F185E02D19950895CC
S11306F0CF93DF93EC01E881F9810480F581E02D4B
S11307001995BE01635F7F4FE88DF98D80819181DA
S11307100E94C906DF91CF910895EF92FF920F9343
S1130720CF93DF93EC017C0182E0E80EF11CE881B9
S1130730F9810084F185E02DB701CE011995288552
S113074039854A855B85BE01645E7F4F00E08E81FA
S11307509F810E94C910E88DF98DB7018281938130
S11307600E940E07DF91CF910F91FF90EF900895B3
S1130770CF92DF92EF92FF920F93CF93DF93EC012E
S11307807B016C018DE0C80ED11CE881F9810084E5
S1130790F185E02DB601CE0119952B893C894D894F
S11307A05E89BE01655E7F4F00E089899A890E9457
S11307B0C910D701ED91FC910190F081E02DB601B3
S11307C0C7011995DF91CF910F91FF90EF90DF90C2
S11307D0CF900895CB010E94D3090895FC01628F44
S11307E0862F880F838F682F6160648F0895CF935D
S11307F0DF931F921F92CDB7DEB7FC0181859285EE
S113080089839A8329813A812150310929833A8342
S1130810232B41F0A781B08514960D90BC91A02D97
S113082014968C91A781B08514960D90BC91A02D3F
S113083014968C91848195810F900F90DF91CF91C4
S11308400895CF93DF931F921F92CDB7DEB7FC01BB
S11308508185928589839A8329813A81215031093E
S113086029833A83232B41F0A781B08514960D90F8
S1130870BC91A02D14968C91A781B08514960D90EF
S1130880BC91A02D14968C91848195810F900F902A
S1130890DF91CF910895EF92FF920F931F93CF931F
S11308A0DF938C01EB01E881F981008CF18DE02D5F
S11308B0CB0119958823A9F0E881F9810284F38595
S11308C0E02DE12CF12CB701CE011995D801179632
S11308D0ED91FC9118970480F581E02DD7018C915E
S11308E08783F80182819381DF91CF911F910F91CA
S11308F0FF90EF9008950F931F93CF93DF931F9270
S1130900CDB7DEB78C01CB01D8011796ED91FC91E0
S113091018970480F581E02D27812983DB01ED916F
S1130920FC910190F081E02DBE016F5F7F4F19951E
S1130930F801828193810F90DF91CF911F910F91E4
S11309400895CF93DF93EC01CB01DB01ED91FC9192
S11309500488F589E02D1995882319F08A819B81F3
S113096002C08C819D81DF91CF910895FC01828129
S113097093810895FC01828193810895CF93DF933D
S1130980DC011796ED91FC911897C681D78164E13B
S113099070E2CE010E94271D66E0CE010E945E1D1A
S11309A0DF91CF910895CF93DF93DC011796ED91FA
S11309B0FC911897C681D7816AE170E2CE010E944A
S11309C0271D66E0CE010E945E1DDF91CF91089540
S11309D0CF93DF93DC011796ED91FC911897C681B4
S11309E0D7816FE170E2CE010E94271D66E0CE013F
S11309F00E945E1DDF91CF910895CF93DF93DC01B8
S1130A001796ED91FC911897C681D78168E270E240
S1130A10CE010E94271D66E0CE010E945E1DDF917B
S1130A20CF910895CF93DF93DC011796ED91FC915C
S1130A301897C681D78161E370E2CE010E94271D19
S1130A4066E0CE010E945E1DDF91CF910895CF93A1
S1130A50DF93DC011796ED91FC911897C681D7813D
S1130A606CE370E2CE010E94271D66E0CE010E9475
S1130A705E1DDF91CF910895CF93DF93DC0117962C
S1130A80ED91FC911897C681D78167E470E2CE019D
S1130A900E94271D66E0CE010E945E1DDF91CF916A
S1130AA00895CF93DF93DC011796ED91FC9118978D
S1130AB0C681D78160E570E2CE010E94271D66E001
S1130AC0CE010E945E1DDF91CF910895CF93DF93F5
S1130AD0DC011796ED91FC911897C681D78169E5E1
S1130AE070E2CE010E94271D66E0CE010E945E1DC9
S1130AF0DF91CF9108950F931F93CF93DF938C01D0
S1130B00EB01E881F981048CF58DE02DCB01199579
S1130B102A8530E08217930779F4D8011796ED916E
S1130B20FC9118970480F581E02D87E08383129669
S1130B308D919C9113970EC0D8011796ED91FC915D
S1130B4018970480F581E02D82E0838314968D91BB
S1130B509C911597DF91CF911F910F9108950F9359
S1130B601F93CF93DF93EC018B016883798389E032
S1130B7090E00E94731CFC01168283E690E280835D
S1130B80918307831087EC83FD838BE090E00E94C0
S1130B90731CFC018B899C8916822BE630E220832E
S1130BA031830783108781879287EE83FF8389E0EF
S1130BB090E00E94731CFC0116828BE790E2808314
S1130BC0918307831087E887F98789E090E00E9482
S1130BD0731CFC0116828BE890E280839183078367
S1130BE01087EA87FB8789E090E00E94731CFC0170
S1130BF0168283EA90E28083918307831087EC87CF
S1130C00FD8789E090E00E94731CFC0116828BE949
S1130C1090E28083918307831087EE87FF8780E1CA
S1130C2097E28B8B9C8B8E819F81EC81FD818283EB
S1130C309383848395838C859D8528853985EE816E
S1130C40FF8122833383848395838A859B85E8850A
S1130C50F98582839383848395838E819F812E85F6
S1130C603F85EA85FB852283338384839583DF91E3
S1130C70CF911F910F9108950F931F93CF93DF93FB
S1130C80EC018B016883798389E090E00E94731CF6
S1130C90FC01168283E690E28083918307831087A8
S1130CA0EC83FD838BE090E00E94731CFC018B8934
S1130CB09C89168223E730E22083318307831087DF
S1130CC081879287EE83FF8389E090E00E94731C02
S1130CD0FC01168283E890E2808391830783108766
S1130CE0E887F98789E090E00E94731CFC01168272
S1130CF083E990E28083918307831087EA87FB87E7
S1130D0089E090E00E94731CFC01168283EA90E261
S1130D108083918307831087EC87FD8789E090E0C7
S1130D200E94731CFC0116828BE990E280839183FC
S1130D3007831087EE87FF8780E197E28B8B9C8B7C
S1130D408E819F81EC81FD8182839383848395834B
S1130D508C859D8528853985EE81FF8122833383A7
S1130D60848395838A859B85E885F985828393832B
S1130D70848395838E819F812E853F85EA85FB85BB
S1130D802283338384839583DF91CF911F910F91C5
S1130D900895EF92FF920F931F93CF93DF93EC018B
S1130DA07B018C819D818A839B838A819B812E8593
S1130DB03F858217930729F4AC85BD858A179B0765
S1130DC0A9F0DC01ED91FC910190F081E02DB701D7
S1130DD019958C018A819B81DC01ED91FC91028043
S1130DE0F381E02D19950A831B83DFCFED91FC91EC
S1130DF011970280F381E02DCD01199581E04A819C
S1130E005B812E853F854217530709F080E0DF910F
S1130E10CF911F910F91FF90EF900895EF92FF9261
S1130E200F931F93CF93DF93EC017B018C819D8102
S1130E308A839B838A819B812E853F8582179307B2
S1130E4029F4AC85BD858A179B07A9F0DC01ED91D7
S1130E50FC910190F081E02DB70119958C018A81F4
S1130E609B81DC01ED91FC910280F381E02D1995C9
S1130E700A831B83DFCFED91FC9111970280F381EC
S1130E80E02DCD011995C701DF91CF911F910F91ED
S1130E90FF90EF900895CF93DF93EC019A01AB019B
S1130EA0220F331F441F551F60E078E488EE91E061
S1130EB00E94832425502A87EC81FD812583DF91BC
S1130EC0CF9108958F929F92AF92BF92CF92DF926B
S1130ED0EF92FF920F931F93CF93DF93EC017B016B
S1130EE049015A0185E190E00E94731C6C01BE0126
S1130EF00E94AF05C882D98286E190E00E94731CEB
S1130F006C01BE010E943C06CA82DB82EC82FD8237
S1130F100E831F838B869C86AD86BE8680E8E8168A
S1130F2084E0F80629F480E496E08887998709C06C
S1130F30E0EAEE16E4E0FE0621F480E896E0888715
S1130F409987E885F98583E08183E885F98588E3D5
S1130F50808BE885F985818B82E0F7018283B50176
S1130F60A401CE010E944B07F70184818D6C848318
S1130F7088E08183DF91CF911F910F91FF90EF90D3
S1130F80DF90CF90BF90AF909F908F900895DC0139
S1130F901496ED91FC911597838181608383089564
S1130FA00F931F93CF93DF93EC01CB01DB01ED9102
S1130FB0FC910284F385E02D00E010E0B80119955E
S1130FC08F8198850E94C707EF81F8850480F58199
S1130FD0E02DD8018C9186838A819B81DF91CF910A
S1130FE01F910F910895DB01BC016E5F7F4FED915E
S1130FF0FC9111970190F081E02DCD011995089590
S1131000FC01848195810E94891290E00895FC017D
S1131010848195810E94891291E0811101C090E040
S1131020892F0895FC01848195810E94891291E0A1
S1131030811190E0892F0895FC01848195810E949B
S1131040811290E00895FC01848195810E948112AF
S113105091E0811101C090E0892F0895FC01848101
S113106095810E94811291E0811190E0892F089569
S11310700F9301E02FEF3FEFA901FC0184819581DB
S11310800E9490110F9108950F93CF93DF931F92B5
S1131090CDB7DEB701E02FEF3FEFA901BE016F5FCF
S11310A07F4FFC01848195810E94901189810F906A
S11310B0DF91CF910F9108950F9300E02FEF3FEF51
S11310C0A901FC01848195810E9490110F910895DA
S11310D00F93CF93DF931F92CDB7DEB700E02FEFCE
S11310E03FEFA901BE016F5F7F4FFC0184819581B1
S11310F00E94901189810F90DF91CF910F910895F3
S1131100CF93DF931F92CDB7DEB7AE014F5F5F4F32
S1131110FC01848195810E9454120F90DF91CF913C
S11311200895CF93DF931F921F92CDB7DEB7AE0120
S11311304E5F5F4FBE016F5F7F4FFC0184819581DD
S11311400E94541289810F900F90DF91CF910895DE
S1131150CF93DF931F92CDB7DEB7198221E0AE01A2
S11311604F5F5F4FFC01848195810E94641191E07F
S1131170811101C090E0892F0F90DF91CF910895E4
S1131180CF93DF931F92CDB7DEB7198220E0AE0173
S11311904F5F5F4FFC01848195810E94641191E04F
S11311A0811101C090E0892F0F90DF91CF910895B4
S11311B00F93FC01268137814085518501E08481AC
S11311C095810E94C91091E0811101C090E0892F9E
S11311D00F9108950F93FC01268137814085518535
S11311E000E0848195810E94C91091E0811101C0C1
S11311F090E0892F0F9108954F925F926F927F92A2
S11312008F929F92AF92BF92DF92EF92FF920F93D1
S11312101F93CF93DF938C017B01DC016D937C934F
S11312208DE190E00E94731CEC0183EF90E28883CF
S113123099831C821D820F2EFBEA8F2EF0E29F2ED3
S1131240F02D8A829B8240E061E082E00E949B1044
S11312508E839F830F2EFAE04F2E512C612C712C1C
S1131260F02D488659866A867B860F2EFFECAF2EBA
S1131270F0E2BF2EF02DAA82BB826894DD24D1F85F
S1131280DC861F86188A8D869E8640E061E082E0B7
S11312900E949B10898B9A8B4B8A5C8A6D8A7E8A0A
S11312A0AD86BE86DF8A8AE090E288839983F8015E
S11312B0C283D38380E784831682178210861186C3
S11312C0128683E090E00E94731C21E031E2FC016D
S11312D020833183C1E5C283D8011D968D939C93ED
S11312E01E971296ED91FC911397E08EF18E149651
S11312F06C91149712968D919C9113970E94EE0312
S1131300F801C5838AEA868385EA8783DF91CF91D2
S11313101F910F91FF90EF90DF90BF90AF909F903F
S11313208F907F906F905F904F900895FC01A28101
S1131330B38165857685ED91FC9111970190F081DB
S1131340E02DCD0119950895FF920F931F93CF932C
S1131350DF93EC018A819B81DC01ED91FC91028099
S1131360F381E02D19958C01DC01ED91FC91008451
S1131370F185E02D1995F82ED801ED91FC910084AA
S1131380F185E02DC80119952F2D30E0322F222749
S1131390A901482BCA018B879C87DF91CF911F91AC
S11313A00F91FF900895CF93DF93EC01E881F981C9
S11313B0008CF18DE02DCE011995882341F0E88150
S11313C0F9810084F185E02DCE011995EFCFDF91ED
S11313D0CF910895EC018C85882319F0813051F068
S11313E025C08C899D890E94960961E0CE010E94E6
S11313F0F5171CC08C899D890E94A4097C018A8BE5
S11314009B8B6AE08E819F810E945E1D8C016AEA3B
S113141073E00E94271DB701C8010E94A51D66E064
S11314200E945E1D60E0CE010E94F5178E859F85A7
S1131430A889B9890196A11DB11D8E879F87A88BA4
S1131440B98B64EF71E080E090E00E94C915C3CFCE
S1131450CF92DF92EF92FF920F931F93CF93DF937C
S1131460EC016B010E94F91787E091E2888399836C
S1131470EC8AFD8ACE8ADF8ADF91CF911F910F918A
S1131480FF90EF90DF90CF9008950F931F93CF9329
S1131490DF93EC010E94F9178FE091E2888399832E
S11314A0DF91CF911F910F9108950F931F93CF93C5
S11314B0DF93EC016AE08E819F810E945E1D8C01A6
S11314C065E075E00E94271D6AE0C8010E945E1D68
S11314D08C016FEF74E00E94271D67E0C8010E9431
S11314E05E1D6AE08E819F810E945E1D8C0160EE0C
S11314F074E00E94271D6AE0C8010E945E1D8C01F1
S11315006AED74E00E94271D66E0C8010E945E1D1A
S11315106AE08E819F810E945E1D8C0163EC74E001
S11315200E94271D66E0C8010E945E1D6AE08E814C
S11315309F810E945E1D8C0167EA74E00E94271D52
S113154066E0C8010E945E1D6AE08E819F810E9450
S11315505E1D8C016FE874E00E94271D66E0C801DF
S11315600E945E1D6AE08E819F810E945E1D8C0137
S11315706EE674E00E94271D66E0C8010E945E1DAD
S11315806AE08E819F810E945E1D8C0167E474E095
S11315900E94271D66E0C8010E945E1D6AE08E81DC
S11315A09F810E945E1D8C0169E274E00E94271DE8
S11315B066E0C8010E945E1D6AE08E819F810E94E0
S11315C05E1D8C016EE074E00E94271D66E0C80178
S11315D00E945E1D6AE08E819F810E945E1DEC0167
S11315E06FEF73E00E94271D66E0CE010E945E1D2E
S11315F0DF91CF911F910F910895AF92BF92CF9237
S1131600DF92EF92FF920F931F93CF93DF9300D05B
S113161000D0CDB7DEB78C0119821A821B821C82DE
S11316201D821E820E94820D6C01CE0101960E94D1
S1131630AA1B5C0166E0F801868197810E945E1D09
S11316406AE00E945E1D7C0160EE73E00E94271D2B
S11316506AE0C7010E945E1D7C0164ED73E00E9494
S1131660271D66E0C7010E945E1D6AE00E945E1DA0
S11316707C016DEC73E00E94271DB501C7010E9437
S11316804E1B6AE00E945E1D7C016FEB73E00E94BA
S1131690271DB601C7010E94A51D6AE00E945E1DB8
S11316A07C016DEB73E00E94271D4FEF5FE060E06B
S11316B070E0C7010E94D91DC0902808D090290865
S11316C06AE0F801868197810E945E1D7C0162EBCD
S11316D073E00E94271DB601C7010E94A51D66E0A4
S11316E00E945E1D66E00E945E1DF801868197815E
S11316F00E94071A2696CDBFDEBFDF91CF911F91BE
S11317000F91FF90EF90DF90CF90BF90AF9008952E
S1131710CF93DF9300D000D0CDB7DEB78C01198210
S11317201A821B821C821D821E826AE0DC011696CC
S11317308D919C9117970E945E1D7C016EE475E06B
S11317400E94271D66E0C7010E945E1DF801848582
S1131750882321F0813009F45DC0D8C08681978147
S1131760DC01ED91FC910480F581E02D199588232D
S1131770A9F1F80186819781DC01ED91FC91068045
S1131780F781E02D1995992781309105F9F0039798
S113179009F0D8C06AE0F801868197810E945E1D35
S11317A08C0160E475E00E94271D66E0C8010E9478
S11317B05E1D93E088ED08B618BE84BF9093800048
S11317C08091820081FDFCCF08BEFFCFC8010E943A
S11317D0550A61E0C8010E94F517B4C082E892E39B
S11317E00E94B61A882309F4ADC0D8011696ED916B
S11317F0FC9117970190F081E02DE280F38082E85C
S113180092E30E94981A682FF80186819781F70164
S1131810199598C086819781DC01ED91FC91048033
S1131820F581E02D1995882309F48CC0F80186818F
S11318309781DC01ED91FC910680F781E02D1995EB
S11318409C0133272836310559F13CF42B313105FD
S113185059F12536310541F13BC023373105C1F03B
S11318602637310589F02E36310591F5CE010196E2
S11318700E94AA1BBC01F801868197810E944E1B1D
S113188066E00E945E1D5EC0C8010E94FD0A5AC047
S1131890D80116968D919C9117970E940E1952C0EB
S11318A0C8010E94550A4EC06AE0F80186819781FA
S11318B00E945E1D7C016EE275E00E94271D66E0B9
S11318C0C7010E945E1D60E0C8010E94F5173AC07E
S11318D0F801A681B781ED91FC9111970280F38103
S11318E0E02D682FCD0119956AE0D80116968D91E7
S11318F09C9117970E945E1D7C0168E275E00E942E
S1131900271D66E0C7010E945E1D1CC06AE0F80145
S1131910868197810E945E1D8C016BE075E00E94B8
S1131920271D66E0C8010E945E1D93E088ED08B69D
S113193018BE84BF909380008091820081FDFCCF0B
S113194008BEFFCFF80186859785A089B1890196E5
S1131950A11DB11D86879787A08BB18B61E070E0D4
S113196080E090E00E94C915F1CE0F931F93CF93AE
S1131970DF93EC010E9425148091C62181111DC0C2
S1131980ABECB1E2EFECF1E2ED93FC93119712961C
S11319901D921C921397A7ECB1E28FEF9FE0129671
S11319A08D939C9313971D921C921197828393831A
S11319B0A083B18381E08093C621209709F45FC09E
S11319C09E012B5F3F4F2496CE3FDF4008F05AC064
S11319D0E091CB21F091CC21ABECB1E202C0DF016C
S11319E0FC01828193818217930720F48081918185
S11319F00097A9F7C1E2E73CFC0709F446C0CD9182
S1131A00DC9111978E010B5F1F4F808191818D9323
S1131A109C9382819381821B930B8B30910510F1EF
S1131A20BF01620F731FDB0112968D939C93139772
S1131A302283338312964D915C9113978BEC91E240
S1131A4001C0CD01EC01A881B98112962D913C9180
S1131A50139724173507A8F3EB01A883B983DC0196
S1131A606D937C9380910020909101202281338199
S1131A70821B930B809300209093012008C000E008
S1131A8010E005C000E010E002C000E010E00E9499
S1131A904715C801DF91CF911F910F9108950F93BE
S1131AA01F93CF93DF93009741F1EC018C01055014
S1131AB011090E942514F80142815381ABECB1E273
S1131AC001C0DF01ED91FC9111972281338124172C
S1131AD03507B8F32597E883F9830D931C93209178
S1131AE00020309101208A819B81820F931F809373
S1131AF00020909301200E944715DF91CF911F9100
S1131B000F91089580910020909101200895FC0187
S1131B100396818392834FEF5FEFBA01438354832B
S1131B20658376838783908781879287108208955F
S1131B30FC01128613860895CF93DF93FC01DB0129
S1131B4021813281E9018C819D8114968D939C932E
S1131B5015978181928116968D939C9317978C810A
S1131B609D81EC016E837F83E9016C837D836183B6
S1131B7072831A96ED93FC931B9780818F5F808309
S1131B80DF91CF9108950F931F93CF93DF93EB01D0
S1131B90088119812A813B810F3F4FEF14072407E5
S1131BA0340731F4DC011996ED91FC911A971FC0AA
S1131BB0FC013396DC0117964D915C911897DA017C
S1131BC04D915D916D917C91041715072607370798
S1131BD070F00480F581E02DA481B5814D915D9173
S1131BE06D917C91041715072607370790F7A48198
S1131BF0B581AC83BD831696CD93DC931797EE83A2
S1131C00FF83C483D5838A879B87FC0120812F5F50
S1131C102083DF91CF911F910F910895FC01A4813E
S1131C20B5818681978116968D939C931797A6818B
S1131C30B7818481958114968D939C931597A28581
S1131C40B38511968D919C911297E817F90731F499
S1131C508681978111968D939C9312971286138691
S1131C608C9181508C930895809392329093933207
S1131C7031E1FC013083319722E220833197A3E3E1
S1131C80A0833197608331977083319710823197A5
S1131C901082319760E86083319710823197108207
S1131CA031971082319762E06083319763E06083FB
S1131CB0319764E06083319765E06083319766E033
S1131CC06083319767E06083319768E06083319780
S1131CD069E06083319760E16083319730833197A5
S1131CE032E13083319733E13083319734E130830B
S1131CF0319735E13083319736E13083319737E1DD
S1131D003083319738E13083319739E1308331972B
S1131D1030E23083319731E2308331972083319739
S1131D2023E220833197408331975083319726E211
S1131D302083319727E22083319728E2208331974B
S1131D4029E22083319720E32083319721E3208304
S1131D50899708958CE7809369088FEF80936808CA
S1131D6081E08093400891E1909341088093470873
S1131D70A0912E32B0912F32CD91CDBFDD91DEBF37
S1131D80FF91EF91DF91CF91BF91AF919F918F918F
S1131D907F916F915F914F913F912F911F910F917F
S1131DA0FF90EF90DF90CF90BF90AF909F908F9077
S1131DB07F906F905F904F903F902F901F900F9067
S1131DC00CBE0F900BBE0F900FBE0F900895089598
S1131DD00F920FB6F8940F920BB60F920CB60F92A7
S1131DE01F9211242F923F924F925F926F927F9293
S1131DF08F929F92AF92BF92CF92DF92EF92FF9217
S1131E000F931F932F933F934F935F936F937F93FE
S1131E108F939F93AF93BF93CF93DF93EF93FF93EE
S1131E20A0912E32B0912F320DB60D920EB60D92B6
S1131E300E94F715A0912E32B0912F32CD91CDBFD3
S1131E40DD91DEBFFF91EF91DF91CF91BF91AF9113
S1131E509F918F917F916F915F914F913F912F91BE
S1131E601F910F91FF90EF90DF90CF90BF90AF90B4
S1131E709F908F907F906F905F904F903F902F90A6
S1131E801F900F900CBE0F900BBE0F900FBE0F90C3
S1131E9008950F920FB6F8940F920BB60F920CB6EA
S1131EA00F921F9211242F923F924F925F926F9242
S1131EB07F928F929F92AF92BF92CF92DF92EF92D6
S1131EC0FF920F931F932F933F934F935F936F93BF
S1131ED07F938F939F93AF93BF93CF93DF93EF93AE
S1131EE0FF93A0912E32B0912F320DB60D920EB603
S1131EF00D920E9446140E94F715A0912E32B091C3
S1131F002F32CD91CDBFDD91DEBFFF91EF91DF91F7
S1131F10CF91BF91AF919F918F917F916F915F917D
S1131F204F913F912F911F910F91FF90EF90DF9070
S1131F30CF90BF90AF909F908F907F906F905F9065
S1131F404F903F902F901F900F900CBE0F900BBEA0
S1131F500F900FBE0F9008950E94490F1895CF93CC
S1131F60DF93EC0188A181110BC088819981892BB1
S1131F70E1F58A819B810E94B2171A821B8235C0C7
S1131F80411117C0482F50E08C819D810E94E724A5
S1131F9028A18C819D81820F911D8C839D832A8130
S1131FA03B818217930708F1888199818C839D83F3
S1131FB01CC0482F50E08E819F810E94E72488A195
S1131FC090E09195819591092E813F81280F391FC9
S1131FD02E833F83488159812417350730F42A81A1
S1131FE03B81820F931F8E839F838E8D8F5F8E8F95
S1131FF0DF91CF910895FC01808191810097A1F038
S113200040A150E026813781240F351F2683378372
S1132010A281B3812A173B0710F086839783CB01F3
S1132020668177810E94E72408950F931F93CF93CD
S1132030DF93EC010FB6F8940F928AA11816B4F44A
S11320408B89811105C012C08B89811104C00EC017
S11320508E010D5E1F4FC8010E947E1681110E94E1
S11320603B178AA181508AA3181674F38FEF8AA3B1
S11320700F900FBE0FB6F8940F9289A11816B4F4FE
S11320808885811105C012C08885811104C00EC0E5
S11320908E01085F1F4FC8010E947E1681110E94A5
S11320A03B1789A1815089A3181674F38FEF89A374
S11320B00F900FBEDF91CF911F910F9108951F9341
S11320C0CF93DF93613059F0FC01238930853111BE
S11320D02CC011E0211110E0211128C001C011E031
S11320E0EC014881598128A130E06F8D629FC001C5
S11320F0639F900D1124BA01680F791F6A837B8353
S11321001E8E4C835D83821B930B840F951F8E83DD
S11321109F838FEF89A38AA3CE0108960E94870D1F
S1132120CE0143960E94870D01C010E0812FDF91FC
S1132130CF911F9108950F931F93CF93DF9388231B
S113214001F1062F182F83E290E00E94B50CEC01F8
S1132150892BC9F0109FC001112401960E94B50C6F
S113216088839983892B39F01F8F08A361E0CE01FE
S11321700E945F1008C0CE010E944F0DC0E0D0E065
S113218002C0C0E0D0E0CE01DF91CF911F910F914A
S11321900895AF92BF92CF92DF92EF92FF920F9386
S11321A01F93CF93DF93CDB7DEB72997CDBFDEBFA3
S11321B07C015B012E833F834887598710E06C01C3
S11321C088E0C80ED11C0FB6F8940F92F701968DD3
S11321D0878D9817A8F4402FB501C7010E94AF0F4F
S11321E0F7018389882341F0C70143960E947E1634
S11321F0813011F40E94E80E0F900FBE81E056C0AA
S11322008E819F81A885B985892B8A2B8B2B21F4FC
S11322100F900FBE80E04AC0111105C0CE01019697
S11322200E94BD1611E00F900FBE0E9425140FB638
S1132230F8940F92F70181A18F3F09F411A2F701DD
S113224082A18F3F09F412A20F900FBEBE016A5FF4
S11322507F4FCE0101960E94CE16811121C00FB688
S1132260F8940F92F701968D0F900FBE878D9813F7
S113227011C04E815F8168857985C6010E9454161C
S1132280C7010E9415100E94471581119CCF0E941E
S1132290E80E99CFC7010E9415100E94471593CFED
S11322A0C7010E9415100E94471580E02996CDBFF2
S11322B0DEBFDF91CF911F910F91FF90EF90DF90E0
S11322C0CF90BF90AF9008950F931F93CF93DF9358
S11322D08A01FC01568D378D5317C0F4422FEC014F
S11322E00E94AF0F8AA18F3F69F48B89882381F004
S11322F0CE0143960E947E16882361F081E0F801A6
S1132300808309C08F5F8AA381E005C080E003C099
S113231081E001C081E0DF91CF911F910F91089579
S1132320AF92BF92CF92DF92EF92FF920F931F93DF
S1132330CF93DF93CDB7DEB72997CDBFDEBF7C0146
S11323405B012E833F834887598710E06C0183E14A
S1132350C80ED11C0FB6F8940F92F701868D88230E
S113236099F1C680D780B501C7010E94FB0F011106
S11323701AC0F701868D8150868F80819181892BC7
S113238029F40E945817F70182839383F70180850B
S11323908823B1F0C70108960E947E16813081F42B
S11323A00E94E80E0DC0F701C682D7828389882374
S11323B039F0C70143960E947E1681110E94E80EEF
S11323C00F900FBE81E062C08E819F81A885B98580
S11323D0892B8A2B8B2B21F40F900FBE80E056C0E3
S11323E0111105C0CE0101960E94BD1611E00F9097
S11323F00FBE0E9425140FB6F8940F92F70181A125
S11324008F3F09F411A2F70182A18F3F09F412A2B0
S11324100F900FBEBE016A5F7F4FCE0101960E94EE
S1132420CE1681112DC00FB6F8940F92F701868D48
S11324300F900FBE81111EC080819181892B49F4B8
S11324400FB6F8940F92828193810E945D170F90CA
S11324500FBE4E815F8168857985C6010E9454163E
S1132460C7010E9415100E944715811173CF0E9465
S1132470E80E70CFC7010E9415100E9447156ACF5D
S1132480C7010E9415100E94471580E02996CDBF10
S1132490DEBFDF91CF911F910F91FF90EF90DF90FE
S11324A0CF90BF90AF9008950F931F93CF93DF9376
S11324B0FC01268D2223D9F08A01EC010E94FB0F36
S11324C08E8D81508E8F89A18F3F69F488858823F2
S11324D081F0CE0108960E947E16882361F081E087
S11324E0F801808309C08F5F89A381E005C080E083
S11324F003C081E001C081E0DF91CF911F910F9172
S113250008950FB6F8940F92FC01868D0F900FBEBC
S11325100895FC01868D0895C2E0D2E3888182305B
S1132520E8F30E94E80EFACFCF92DF92EF92FF9287
S11325306B017C01E0912E32F0912F326283738320
S1132540848395838091D6319091D731A091D831ED
S1132550B091D931C816D906EA06FB0668F4609131
S11325602E3270912F328091E8319091E9316E5F73
S11325707F4F0E94C30D21C060912E3270912F3283
S11325808091EA319091EB316E5F7F4F0E94C30DD1
S11325908091022090910320A0910420B091052005
S11325A0C816D906EA06FB0640F4C0920220D0926F
S11325B00320E0920420F0920520FF90EF90DF903A
S11325C0CF9008954F925F926F927F928F929F92D5
S11325D0AF92BF92CF92DF92EF92FF920F931F932D
S11325E0CF93DF935C014B013A01290188E290E02B
S11325F00E94B50CEC01892B09F4D4C0C114D10498
S113260009F0CCC0C3010E94B50C8B8F9C8F00973E
S113261021F4CE010E944F0DC5C0A30161E170E019
S11326200E94F0249301215031098B8D9C8D3C0133
S1132630620E731E4AE050E0B401CE014D960E9432
S1132640F7241EA2102F043008F013E01A8F1FA3E2
S11326506E0122E0C20ED11CC6010E94980DCE016B
S11326600E960E94980DCA87DB8784E090E0A0E074
S1132670B0E0811B9109A109B1098E879F87A88BBE
S1132680B98BCE8BDF8BA201B501C3010E94340E3E
S113269088839983E114F10419F0F701C083D1838D
S11326A00FB6F8940F928091DA318F5F8093DA310C
S11326B080912E3290912F32892B89F5C0932E323E
S11326C0D0932F328091DA318130C1F582E092E3E8
S11326D00E94870D8DE092E30E94870D88E192E3CA
S11326E00E94870D83E292E30E94870D87EF91E3B6
S11326F00E94870D8CEE91E30E94870D8DED91E38E
S11327000E94870D87EF91E38093EA319093EB3138
S11327108CEE91E38093E8319093E9310FC080917E
S1132720D33181110BC0E0912E32F0912F32828D82
S1132730081720F0C0932E32D0932F328A8D9091B7
S1132740D531981710F48093D5319091CE319F5F95
S11327509093CE319091D431981710F48093D43162
S1132760FBE08F9FC0011124B6018E5F9D4C0E9437
S11327709C0D0F900FBE8091D331882359F0E091C6
S11327802E32F0912F32828D801730F40E94E80EA1
S113279081E009C081E007C081E005C0CB8EDC8EFA
S11327A0C6013BCF8FEFDF91CF911F910F91FF9027
S11327B0EF90DF90CF90BF90AF909F908F907F90DD
S11327C06F905F904F9008950FB6F8940F92009712
S11327D021F480912E3290912F320F900FBEFC0184
S11327E0828D0895AF92BF92CF92DF92EF92FF92C3
S11327F00F93A12CB12CC12CD12C0F2EFBEDEF2E5D
S1132800F1E3FF2EF02D00E020E030E044E650E05C
S113281063E171E28CE892E10E94E212813069F492
S1132820F8948093D3311092D6311092D73110920C
S1132830D8311092D9310E94AA0E0F91FF90EF90D7
S1132840DF90CF90BF90AF9008958091D2318F5F89
S11328508093D23108950FB6F8940F926091D631D7
S11328607091D7318091D8319091D9310F900FBEAA
S11328700895009721F480912E3290912F324D9635
S113288008958091DB319091DC310895FF920F938C
S11328901F93CF93DF938091D2318111EDC080914A
S11328A0D6319091D731A091D831B091D9310196D8
S11328B0A11DB11D8093D6319093D731A093D83107
S11328C0B093D9318091D6319091D731A091D8313C
S11328D0B091D931892B8A2B8B2BF1F58091EA3178
S11328E09091EB312091E8313091E9312093EA3134
S11328F03093EB318093E8319093E9318091CF317B
S11329008F5F8093CF31E091EA31F091EB31808198
S113291081110CC08FEF9FEFDC0180930220909314
S11329200320A0930420B093052016C0E091EA315F
S1132930F091EB310780F085E02D0084F185E02DE6
S113294082819381A481B581809302209093032096
S1132950A0930420B09305204091D6315091D731F3
S11329606091D8317091D9318091022090910320E7
S1132970A0910420B0910520481759076A077B07E6
S113298008F47FC0E091EA31F091EB318081882333
S1132990F9F0E091EA31F091EB310780F085E02D18
S11329A0C085D1858A819B81AC81BD814091D6311E
S11329B05091D7316091D8317091D9314817590766
S11329C06A077B0758F10F2EFBE0FF2EF02D2FC076
S11329D08FEF9FEFDC018093022090930320A0935C
S11329E00420B09305204DC0E091EA31F091EB3121
S11329F00780F085E02DC085D1858A819B81AC81DB
S1132A00BD814091D6315091D7316091D8317091C8
S1132A10D931481759076A077B0748F48093022085
S1132A2090930320A0930420B09305202AC08E0124
S1132A300E5F1F4FC8010E940E0E888D998D892B41
S1132A4021F0CE010E960E940E0E8A8D9091D43103
S1132A50981710F48093D431F89EC0011124B80162
S1132A608E5F9D4C0E949C0DE091EA31F091EB3118
S1132A7080818111B9CFACCF8091D1318F5F8093A8
S1132A80D131DF91CF911F910F91FF900895CF9293
S1132A90DF92EF92FF920F931F93CF93DF930FB6C2
S1132AA0F8940F928091D23181508093D2318091E9
S1132AB0D231811160C08091DA3181112CC05EC0A5
S1132AC0D7011796ED91FC911897C085D185CE0159
S1132AD00E960E940E0E8E010E5F1F4FC8010E94BB
S1132AE00E0E8A8D9091D431981710F48093D431BE
S1132AF0D89EC0011124B8018E5F9D4C0E949C0D8C
S1132B00E0912E32F0912F329A8D828D981770F0C9
S1132B10CC24C3940BC0C12C0F2EFDEDEF2EF1E39A
S1132B20FF2EF02D0F2EFBE0DF2EF02DF70180811C
S1132B308111C6CF8091D131882381F08091D13128
S1132B40882399F00E9446148091D131815080935A
S1132B50D1318091D1318111F5CF07C0F1E0CF1689
S1132B6021F08091D031813041F41092D0310E9413
S1132B70E80E81E003C080E001C080E00F900FBE4A
S1132B80DF91CF911F910F91FF90EF90DF90CF9045
S1132B900895CF92DF92EF92FF926B017C01672B35
S1132BA0682B692BE9F00E9425148091D63190910D
S1132BB0D731A091D831B091D931C80ED91EEA1EAF
S1132BC0FB1E80912E3290912F3202960E940E0E9F
S1132BD0C701B6010E9494120E944715811102C0D8
S1132BE00E94E80EFF90EF90DF90CF9008958091BF
S1132BF0D23181110CC0E091D4314BE0E49FF0015B
S1132C001124EE5FFD4C8081882329F014C081E0FB
S1132C108093D03108959BE08091D431815080938A
S1132C20D431E091D4319E9FF0011124EE5FFD4C2C
S1132C308081882389F38091D431282F30E04BE0C0
S1132C40849FC0011124DC01AE5FBD4C1196ED914F
S1132C50FC9112970480F581E02D1196ED93FC937D
S1132C6012978B5F9D4CE817F90761F48481958175
S1132C704BE0429FF001439FF00D1124EE5FFD4CA9
S1132C80818392838BE0829FF001839FF00D112456
S1132C90EE5FFD4C0180F281E02D8085918580936B
S1132CA02E3290932F320895CF92DF92EF92FF92BB
S1132CB06A017B0160912E3270912F32625F7F4FE7
S1132CC00E94C30D80912E3290912F3202960E9461
S1132CD00E0E8091D6319091D731A091D831B09118
S1132CE0D931BC01CD016C0D7D1D8E1D9F1D0E942F
S1132CF09412FF90EF90DF90CF9008950F931F935D
S1132D00CF93DF93DC011796ED91FC911897C08562
S1132D10D1858E01025F1F4FC8010E940E0E809163
S1132D20D231811116C00C501109C8010E940E0E37
S1132D308A8D9091D431981710F48093D431BBE0EC
S1132D408B9FC0011124B8018E5F9D4C0E949C0D85
S1132D5005C0B8018DED91E30E949C0DE0912E32E7
S1132D60F0912F3281E02A8D928D291708F480E0AA
S1132D70DF91CF911F910F9108952091CF31FC01E4
S1132D8020834091D6315091D7316091D8317091E0
S1132D90D931418352836383748308958F929F92C0
S1132DA0AF92BF92CF92DF92EF92FF920F931F9355
S1132DB0CF93DF93FC010FB6F8940F928091CF313B
S1132DC09081981789F08091D6319091D731A09154
S1132DD0D831B091D9310181128123813481801796
S1132DE09107A207B307A8F58091D6319091D73106
S1132DF0A091D831B091D931C180D280E380F480E0
S1132E00EB01088119812A813B818C199D09AE0946
S1132E10BF0980179107A207B307E8F4CF01809098
S1132E20D6319090D731A090D831B090D931B50136
S1132E30A4014C195D096E097F09041B150B260BAF
S1132E40370B088319832A833B830E94BD1680E0D5
S1132E5003C081E001C081E00F900FBEDF91CF91EC
S1132E601F910F91FF90EF90DF90CF90BF90AF90A4
S1132E709F908F90089581E08093D03108950097BA
S1132E8021F480912E3290912F32DC015B96ED91EA
S1132E90FC915C978081813141F4319680E090E02F
S1132EA0019621912131E1F3089580E090E00895A5
S1132EB080912E3290912F3208950F931F93CF93C8
S1132EC0DF93FC01228DA0912E32B0912F325A96BD
S1132ED08C91281708F041C0A0912E32B0912F3266
S1132EE05A963C9184E090E0A0E0B0E0831B910905
S1132EF0A109B10986879787A08BB18B8BE0289FA6
S1132F00900111242E5F3D4C84859585821793078B
S1132F10E9F48F01EF012296CE010E940E0EE0919A
S1132F202E32F0912F32828DF801828F9091D4311C
S1132F30981710F48093D431FBE08F9FC0011124C3
S1132F40BE018E5F9D4C0E949C0D07C0A0912E3245
S1132F50B0912F325A968C91828FDF91CF911F912D
S1132F600F9108950F931F93CF93DF93009749F127
S1132F70FC01328D27A1321721F1EC018C010E5F87
S1132F801F4FC8010E940E0E8FA18A8F44E050E0AB
S1132F9060E070E0481B5109610971094E875F8741
S1132FA0688B798B9091D431981710F48093D43135
S1132FB0FBE08F9FC0011124B8018E5F9D4C0E94DD
S1132FC09C0DDF91CF911F910F910895EC01E88141
S1132FD0F9810190F081E02D19951A821B826FEF1F
S1132FE07FEFCB010E94C915FACFFC016487658786
S1132FF008954F925F926F927F928F929F92AF92B9
S1133000BF92CF92DF92EF92FF920F931F93CF93D1
S1133010DF93CDB7DEB72A97CDBFDEBF4C012901C0
S113302038018CE191E2F40180839183FB0180817A
S1133030882369F0DE011196319690E002C0993040
S113304039F09F5F8D9381918111F9CF01C090E098
S1133050E1E0F0E0EC0FFD1FE90FF11D10827401B7
S1133060F2E0EF0EF11CA12CB12CC12CD12C042FB9
S11330709401A201BE016F5F7F4F82E393E00E943F
S1133080E212F401668277824086518620913032C2
S113309030913132248335838092303290923132B0
S11330A0148615864090923250909332FFEF4F1A57
S11330B05F0A4092923250929332F40142865386D0
S11330C016861786108A118A6114710409F444C0A3
S11330D0813079F56AE0C3010E945E1D7C0161EBD9
S11330E075E00E94271DBE016F5F7F4FC7010E94DC
S11330F0271D6AE0C7010E945E1D7C0168EA75E035
S11331000E94271D6AE0C7010E945E1D7C016AE9D6
S113311075E00E94271D63E0C7010E945E1DB20195
S11331200E94A51D62E00E945E1D66E00E945E1D75
S113313013C06AE0C3010E945E1D4C0165E875E09E
S11331400E94271DBE016F5F7F4FC4010E94271D8F
S113315066E0C4010E945E1D2A96CDBFDEBFDF91EA
S1133160CF911F910F91FF90EF90DF90CF90BF9080
S1133170AF909F908F907F906F905F904F90089545
S1133180CF92DF92EF92FF920F931F93CF93DF932F
S1133190EC017B018A819B810E9439146C016AE0F5
S11331A0C7010E945E1D8C0164EC75E00E94271D1E
S11331B06AE0C8010E945E1D8C016DEB75E00E94FF
S11331C0271DB601C8010E94271D6AE0C8010E949C
S11331D05E1D8C0167EB75E00E94271D66E0C80147
S11331E00E945E1D8A859B85E885F98501E121E0C1
S11331F0A701BC018E1B9F0B0E94C21B8C819D8169
S1133200009719F0B7010E94C018DF91CF911F9168
S11332100F91FF90EF90DF90CF9008950F931F933D
S1133220CF93DF93EC01809130329091313200974B
S113323019F0BE010E94C0186AE0CE010E945E1D12
S11332408C016AED75E00E94271D6AE0C8010E94A6
S11332505E1D8C016FEC75E00E94271D6AE0C801B9
S11332600E945E1D8C0169EC75E00E94271D66E0DA
S1133270C8010E945E1D8091923290919332BC01EC
S11332806F5F7F4F01E121E0AE01835691090E94F7
S1133290C21BDF91CF911F910F9108958F929F923E
S11332A0AF92BF92CF92DF92EF92FF920F931F9350
S11332B0CF93DF93EC018B018A819B810E943914A7
S11332C0BC01C8010E94271DD801ED91FC91028028
S11332D0F381E02D69E0C80119958A819B810E94E0
S11332E03914FC0101900020E9F73197E81BF90B30
S11332F0389748F4D801ED91FC910280F381E02DD8
S113330069E0C8011995CE84DF84E888F988A88427
S1133310B9848A819B810E943F17982E8C848A816C
S11333209B810E94E413682FC8010E941B1E6AE05F
S11333300E945E1DEC016FE476E00E94271D682D5B
S1133340CE010E941B1E6AE00E945E1DEC016DE42A
S113335076E00E94271D692DCE010E941B1E6AE0A3
S11333600E945E1DEC016BE476E00E94271DB5010E
S1133370CE010E94A51D6AE00E945E1DEC0169E475
S113338076E00E94271D6AE0CE010E945E1DEC01DA
S113339067E476E00E94271DB701A601CE010E94D2
S11333A0D91DDF91CF911F910F91FF90EF90DF9086
S11333B0CF90BF90AF909F908F900895CF93DF935D
S11333C0EC01CB01DB01ED91FC910280F381E02D56
S11333D0BE011995CE01DF91CF9108950F931F93EC
S11333E0CF93DF93EC018B01BC01C8010E94DE196D
S11333F066E00E945E1D8C819D81009719F0B801E2
S11334000E94EE19DF91CF911F910F9108950F93B0
S11334101F93CF93DF93EC016AE00E945E1D8C0141
S11334206CE376E00E94271D6AE0C8010E945E1DDD
S11334308C0165E376E00E94271D66E0C8010E94C6
S11334405E1D6AE0CE010E945E1D8C0164E276E09E
S11334500E94271D6AE0C8010E945E1D8C0168E17C
S113346076E00E94271D6AE0C8010E945E1D8C015F
S113347062E176E00E94271D66E0C8010E945E1D9D
S11334806AE0CE010E945E1D8C0161E076E00E943C
S1133490271D6AE0C8010E945E1D8C0165EF75E07E
S11334A00E94271D6AE0C8010E945E1D8C016FEE18
S11334B075E00E94271D66E0C8010E945E1D809190
S11334C0303290913132009719F0BE010E94EE190A
S11334D00E9441140E943F17182F6AE0CE010E94F7
S11334E05E1DEC0164EE75E00E94271D612FCE0184
S11334F00E941B1E6AE00E945E1DEC0162EE75E0F4
S11335000E94271D64E670E0CE010E94A51D6AE0BA
S11335100E945E1DEC016FED75E00E94271D66E0C0
S1133520CE010E945E1DDF91CF911F910F910895EE
S11335300F93CF93DF931F92CDB7DEB700E02FEF49
S11335403FEFA901BE016F5F7F4FFC01808591852C
S11335500E949011813019F4898190E002C08FEFAC
S11335609FEF0F90DF91CF910F910895FC0180851B
S113357091850E94811291E0811101C090E0892F10
S113358008950F93CF93DF931F92CDB7DEB769836E
S1133590FC01228533854485558500E0BE016F5FBB
S11335A07F4F808591850E94C91091E0811101C0EF
S11335B090E0892F0F90DF91CF910F9108958F9212
S11335C09F92BF92CF92DF92EF92FF920F931F933D
S11335D0CF93DF93EC01B62E4A01680179010E9472
S11335E0191D84E291E2888399838E869F8640E048
S11335F061E08B2D0E949B1088879987CA86DB86A1
S1133600EC86FD86DF91CF911F910F91FF90EF9093
S1133610DF90CF90BF909F908F900895CF92DF92CC
S1133620EF92FF92CF93DF93EC01688179818A81D5
S11336309B810F2EF8EECF2EF3E0DF2EE12CF12C40
S1133640F02DA70196010E9483249B01AC0160E444
S113365072E48FE090E00E947324A70196010E9417
S1133660832469017A01AC81BD8120E432E44FE016
S113367050E00E94CD2420E038E448EE51E00E945E
S11336808324C701B601620F731F841F951FDF9146
S1133690CF91FF90EF90DF90CF900895CF92DF927B
S11336A0EF92FF920F931F93CF93DF93CDB7DEB7C3
S11336B02F97CDBFDEBF6C018B01DB016D917D9136
S11336C08D919C9128EE33E040E050E00E948324E9
S11336D0BA01A901C6010E94D91DD601ED91FC9140
S11336E00280F381E02D6EE2C6011995C8010E94A3
S11336F00E1B8E01095F1F4FFE0131967F012AE0E8
S113370030E040E050E00E94A524E62F2887398766
S11337104A875B87688579858A859B8520E32E0F98
S1133720D8012E938D01AE15BF0549F71F82BE0146
S11337306F5F7F4FC6010E94271DC6012F96CDBF24
S1133740DEBFDF91CF911F910F91FF90EF90DF903B
S1133750CF900895CF93DF93EC010FB6F8940F92B6
S113376080912008909121088C839D830E942B14C2
S1133770688379838A839B830F900FBECE01DF9188
S1133780CF9108955F926F927F928F929F92AF92A2
S1133790BF92CF92DF92EF92FF920F931F93CF933A
S11337A0DF935C014B017A01122F702E63E0CA0192
S11337B00E945E1DA814B90408F07DC0650184E16F
S11337C0C80ED11C00E06A2C5B2CB501C7010E9415
S11337D0A51D6AE00E945E1D61E676E00E94271D39
S11337E0112309F46DC0002309F46AC06AE0C7011B
S11337F00E945E1D6CE576E00E94271D61C01123C6
S113380071F001110CC08881871549F06AE0C70185
S11338100E945E1D67E576E00E94271D01E0699124
S1133820C7010E941B1EDC01ED91FC910280F38113
S1133830E02D60E21995CC16DD0609F7112389F015
S11338406AE0C7010E945E1DEC0161E576E00E941A
S1133850271DE881F9810280F381E02D60E2CE0129
S11338601995C62DD52D699180EE860F8F3548F4B4
S1133870D701ED91FC910280F381E02DC7011995E8
S113388009C0D701ED91FC910280F381E02D6EE235
S1133890C7011995CC16DD0631F7B4E1AB0EB11CA6
S11338A066E0C7010E945E1D84E1C80ED11CA81405
S11338B0B90408F488CF62E0C7010E945E1D03C00A
S11338C0C62DD52D9CCFDF91CF911F910F91FF90E5
S11338D0EF90DF90CF90BF90AF909F908F907F90AC
S11338E06F905F9008950E94B50C08950E94B50CE6
S11338F008950895CF93DF93FC01DA01403A68E01C
S1133900560749F480E496E08283938382E08483BB
S113391083E0858332C0403B78E0570749F480E474
S113392096E08283938386E0848387E0858325C041
S1133930403A89E0580749F480E696E0828393830D
S113394082E0848383E0858318C0403B69E05607A6
S113395049F480E696E08283938386E0848387E05B
S113396085830BC0403A5A4041F480E896E0828354
S1133970938382E0848383E08583A683B783CD0128
S11339800196808791870396828793872581C281D8
S1133990D3814C8181E090E0BC0102C0660F771FA7
S11339A02A95E2F79B01242B2C832581C281D381A4
S11339B04881BC0102C0660F771F2A95E2F79B017C
S11339C0242B28833481C281D381288102C0880FAB
S11339D0991F3A95E2F7809590958223888380E138
S11339E013968C93139783E015968C93159780EF19
S11339F017968C93179781E216968C93169788E105
S1133A0014968C9380E8858780E4868780E2848797
S1133A100680F781E02D80818081DF91CF91089528
S1133A2081E0089580E090E0089580E0089508958D
S1133A300895FC0184E391E2808391838AE0828388
S1133A40138283E0858314821682178208950F936C
S1133A501F93CF93DF938C01FB01DC0114968C91AF
S1133A60811104C06081611117C023C0D80114966C
S1133A701C92EB01219664916623D9F0D801ED9153
S1133A80FC910280F381E02DC8011995FE01649137
S1133A9021966111F3CF0DC0EF012196D801ED916C
S1133AA0FC910280F381E02DC8011995699161119F
S1133AB0F5CFDF91CF911F910F910895CF93DF93AD
S1133AC0EC01862F90E08B309105D8F5FC01882716
S1133AD0E250FF4F8F4F0C94C42482E08A8331C09C
S1133AE088E08A832EC08AE08A832BC080E18A839F
S1133AF028C081E08B8325C01B8223C0E881F98123
S1133B000280F381E02D6DE0CE011995E881F98101
S1133B100280F381E02D6AE0CE01199512C0E8819C
S1133B20F9810284F385E02DCE0119950AC0E8815C
S1133B30F9810084F185E02DCE01199502C081E060
S1133B408C83CE01DF91CF910895FF920F931F9341
S1133B50CF93DF93CDB7DEB76197CDBFDEBF8C01C6
S1133B60F62E972FF8014281403121F0483011F0B0
S1133B70423041F4692FC8010E941B1E6F2D0E9420
S1133B801B1E0DC050E0BE016F5F7F4F8F2D0E9442
S1133B903325BE016F5F7F4FC8010E94271DC801F6
S1133BA06196CDBFDEBFDF91CF911F910F91FF9042
S1133BB00895DF92EF92FF920F931F93CF93DF93B9
S1133BC0CDB7DEB7A197CDBFDEBF8C01D42EE52ED5
S1133BD0F62E972FF8012281203121F0283011F0A0
S1133BE0223071F4692FC8010E941B1E6F2D0E94A0
S1133BF01B1E6E2D0E941B1E6D2D0E941B1E0FC0CE
S1133C0030E0AE014F5F5F4F6D2D7E2D8F2D0E94F2
S1133C100625BE016F5F7F4FC8010E94271DC801A2
S1133C20A196CDBFDEBFDF91CF911F910F91FF9081
S1133C30EF90DF900895CF92DF92EF92FF920F936F
S1133C401F93CF93DF93CDB7DEB72997CDBFDEBFE8
S1133C508C01E62EDC0113968C911397882341F096
S1133C60ED91FC910280F381E02DC801199556C0B5
S1133C70F8014281423019F56894CC24C3F8D12C60
S1133C806894FF24F7F88E2D8F2151F0D801ED911F
S1133C90FC910280F381E02D61E3C801199509C00C
S1133CA0D801ED91FC910280F381E02D60E3C8011D
S1133CB01995F694B1E0CB1AD10829F72FC04031F9
S1133CC0F9F462956F700190F081E02D0280F38128
S1133CD0E02D6A3010F0695C01C0605DC80119957F
S1133CE06E2D6F70D801ED91FC910280F381E02D6F
S1133CF06A3010F0695C01C0605DC80119950EC09E
S1133D0050E0BE016F5F7F4F8E2D90E00E943325FF
S1133D10BE016F5F7F4FC8010E94271DC80129960D
S1133D20CDBFDEBFDF91CF911F910F91FF90EF9038
S1133D30DF90CF900895DC015096ED91FC9151975E
S1133D40808154964C915497842329F009C02150C2
S1133D50310919F412C021E23EE490819423B9F3AD
S1133D60908156968C915697892B80831E96ED915F
S1133D70FC911F97608381E0089580E00895CF93BC
S1133D80DF93FC01C18DD28D28813981A38DB48D3F
S1133D904D915C9124173507E9F3A789B08D0D90F7
S1133DA0BC91A02DA20FB31F8C912F5F3F4F28838E
S1133DB039832436310528F0018CF28DE02D1082F0
S1133DC0118290E0DF91CF910895CF93DF93EC01BE
S1133DD0A98DBA8DEB8DFC8D81E04D915C91208194
S1133DE031814217530709F480E0DF91CF910895A0
S1133DF0DC01ED91FC910280F381E02D6CE01995DA
S1133E000895EF92FF920F931F93CF93DF93EC01EA
S1133E107B018A010E94191DA801B701CE010896F1
S1133E200E947A1C84E491E288839983003A88E0B2
S1133E30180769F48EE492E38F8B988F84E492E3FD
S1133E40898F9A8F8AE392E38B8F9C8F42C0003BC9
S1133E50E8E01E0769F48CE492E38F8B988F82E488
S1133E6092E3898F9A8F88E392E38B8F9C8F31C082
S1133E70003AF9E01F0769F48AE492E38F8B988F84
S1133E8080E492E3898F9A8F86E392E38B8F9C8FF1
S1133E9020C0003B89E0180769F488E492E38F8B23
S1133EA0988F8EE392E3898F9A8F84E392E38B8FCA
S1133EB09C8F0FC0003A1A4061F486E492E38F8B22
S1133EC0988F8CE392E3898F9A8F82E392E38B8FAE
S1133ED09C8F0F89188D84E690E00E94761CF8016F
S1133EE080839183E98DFA8D10821182EB8DFC8D94
S1133EF010821182DF91CF911F910F91FF90EF906B
S1133F0008951F920F920FB60F92112408B60F92C4
S1133F1018BE0BB60F921BBE2F933F938F939F93A4
S1133F20EF93FF932091A008E0914E32F0914F322D
S1133F3080913A3290913B32E80FF91F20838091AF
S1133F403A3290913B3201968436910560F4809325
S1133F503A3290933B322091443230914532821769
S1133F609307F1F40CC010923A3210923B328091D4
S1133F704432909145321816190691F40EC00196F8
S1133F808436910528F4809344329093453208C0D6
S1133F90109244321092453203C081E090E0F3CF96
S1133FA0FF91EF919F918F913F912F910F900BBEB5
S1133FB00F9008BE0F900FBE0F901F9018951F9280
S1133FC00F920FB60F92112408B60F9218BE0BB6BB
S1133FD00F921BBE2F933F938F939F93EF93FF9367
S1133FE02091B008E0914C32F0914D3280913832FA
S1133FF090913932E80FF91F2083809138329091E3
S1134000393201968436910560F480933832909366
S11340103932209142323091433282179307F1F4BE
S11340200CC0109238321092393280914232909101
S113403043321816190691F40EC001968436910580
S113404028F4809342329093433208C01092423253
S11340501092433203C081E090E0F3CFFF91EF91DF
S11340609F918F913F912F910F900BBE0F9008BE9F
S11340700F900FBE0F901F9018951F920F920FB6BE
S11340800F92112408B60F9218BE0BB60F921BBEE6
S11340902F933F938F939F93EF93FF932091A009C6
S11340A0E0914A32F0914B3280913A3290913B3216
S11340B0E80FF91F208380913632909137320196B0
S11340C08436910560F48093363290933732209190
S11340D040323091413282179307F1F40CC01092B0
S11340E03632109237328091403290914132181614
S11340F0190691F40EC001968436910528F4809334
S113410040329093413208C01092403210924132B2
S113411003C081E090E0F3CFFF91EF919F918F91E5
S11341203F912F910F900BBE0F9008BE0F900FBEC2
S11341300F901F9018951F920F920FB60F92112493
S113414008B60F9218BE0BB60F921BBE2F933F9367
S11341508F939F93EF93FF932091B009E09148329E
S1134160F09149328091343290913532E80FF91F41
S113417020838091343290913532019684369105B2
S113418060F4809334329093353220913E323091F2
S11341903F3282179307F1F40CC01092343210921C
S11341A0353280913E3290913F321816190691F4BF
S11341B00EC001968436910528F480933E32909384
S11341C03F3208C010923E3210923F3203C081E069
S11341D090E0F3CFFF91EF919F918F913F912F91B9
S11341E00F900BBE0F9008BE0F900FBE0F901F9044
S11341F018951F920F920FB60F92112408B60F92C2
S113420018BE0BB60F921BBE2F933F938F939F93B1
S1134210EF93FF932091A00AE0914632F091473248
S11342208091323290913332E80FF91F20838091CC
S113423032329091333201968436910560F4809342
S113424032329093333220913C3230913D32821796
S11342509307F1F40CC010923232109233328091F1
S11342603C3290913D321816190691F40EC0019615
S11342708436910528F480933C3290933D3208C0F3
S113428010923C3210923D3203C081E090E0F3CFB3
S1134290FF91EF919F918F913F912F910F900BBEC2
S11342A00F9008BE0F900FBE0F901F901895FC0141
S11342B0848195810E94891290E00895FC01848193
S11342C095810E94891291E0811101C090E0892FAB
S11342D00895FC01848195810E94891291E08111E5
S11342E090E0892F0895FC01848195810E948912B0
S11342F090E00895FC01848195810E94891291E0E7
S1134300811101C090E0892F0895FC018481958179
S11343100E94891291E0811190E0892F0895FC0197
S1134320848195810E94811290E00895FC0184812A
S113433095810E94811291E0811101C090E0892F42
S11343400895FC01848195810E94811291E081117C
S113435090E0892F0895FC01848195810E94811247
S113436090E00895FC01848195810E94811291E07E
S1134370811101C090E0892F0895FC018481958109
S11343800E94811291E0811190E0892F08950F938A
S113439001E02FEF3FEFA901FC01848195810E9488
S11343A090110F9108950F93CF93DF931F921F9253
S11343B0CDB7DEB701E02FEF3FEFA901BE016F5F7C
S11343C07F4FFC01848195810E94901189819A819B
S11343D00F900F90DF91CF910F9108950F9300E00C
S11343E02FEF3FEFA901FC01848195810E94901178
S11343F00F9108950F93CF93DF931F921F92CDB720
S1134400DEB700E02FEF3FEFA901BE016F5F7F4FE2
S1134410FC01848195810E94901189819A810F9079
S11344200F90DF91CF910F9108950F9301E02FEF3B
S11344303FEFA901FC01848195810E9490110F91A5
S113444008950F93CF93DF931F921F92CDB7DEB7DA
S113445001E02FEF3FEFA901BE016F5F7F4FFC0129
S1134460848195810E94901189819A810F900F9087
S1134470DF91CF910F9108950F9300E02FEF3FEF5D
S1134480A901FC01848195810E9490110F910895E6
S11344900F93CF93DF931F921F92CDB7DEB700E047
S11344A02FEF3FEFA901BE016F5F7F4FFC018481B5
S11344B095810E94901189819A810F900F90DF91CC
S11344C0CF910F910895CF93DF931F92CDB7DEB7AD
S11344D0AE014F5F5F4FFC01848195810E945412AD
S11344E00F90DF91CF910895CF93DF9300D0CDB794
S11344F0DEB7AE014D5F5F4FBE016F5F7F4FFC01C2
S1134500848195810E94541289819A812396CDBF1A
S1134510DEBFDF91CF910895CF93DF931F92CDB784
S1134520DEB7AE014F5F5F4FFC01848195810E942D
S113453054120F90DF91CF910895CF93DF9300D061
S1134540CDB7DEB7AE014D5F5F4FBE016F5F7F4FEA
S1134550FC01848195810E94541289819A81239659
S1134560CDBFDEBFDF91CF910895CF93DF931F922C
S1134570CDB7DEB7198221E0AE014F5F5F4FFC017A
S1134580848195810E94641191E0811101C090E0C1
S1134590892F0F90DF91CF910895CF93DF931F92CE
S11345A0CDB7DEB7198220E0AE014F5F5F4FFC014B
S11345B0848195810E94641191E0811101C090E091
S11345C0892F0F90DF91CF910895CF93DF931F929E
S11345D0CDB7DEB7198221E0AE014F5F5F4FFC011A
S11345E0848195810E94641191E0811101C090E061
S11345F0892F0F90DF91CF910895CF93DF931F926E
S1134600CDB7DEB7198220E0AE014F5F5F4FFC01EA
S1134610848195810E94641191E0811101C090E030
S1134620892F0F90DF91CF9108950F93FC0126817C
S113463037814085518501E0848195810E94C910AC
S113464091E0811101C090E0892F0F9108950F939B
S1134650FC01268137814085518500E08481958164
S11346600E94C91091E0811101C090E0892F0F913F
S113467008950F93FC01268137814085518501E01F
S1134680848195810E94C91091E0811101C090E05C
S1134690892F0F9108950F93FC012681378140855E
S11346A0518500E0848195810E94C91091E08111B7
S11346B001C090E0892F0F9108950F93CF93DF935A
S11346C01F92CDB7DEB72FB72983F8941BBEFC0128
S11346D008ED04BF608389818FBF0F90DF91CF9174
S11346E00F910895EF92FF920F931F93CF93DF934F
S11346F0CDB7DEB7C554D109CDBFDEBFF894E0E530
S1134700F0E0808182608083818181FFFDCF6091B0
S11347104000687F616080E490E00E945D23E0E5F2
S1134720F0E080818E7F80839DEF88ED08B618BE0F
S113473084BF9093800008BE40EA5AE060E070E0D5
S1134740CE0101960E94011F67E0CE0101960E94EE
S11347505E1D8C0160E571E20E94271D66E0C801C0
S11347600E945E1D66E00E945E1D8E010F5F1F4F5A
S113477020E332EF40E050E060EA74E0CE014E9670
S11347800E946207BE01625E7F4FCE01C7960E94FF
S1134790FC0882E190E00E94731C20E830E040E0D5
S11347A06FE671E20E94450A88E190E00E94731C62
S11347B09E01295C3F4F790120E830E042E067E741
S11347C071E20E94280A87E08093A20078940E94F4
S11347D0F21380E090E0CB5BDF4FCDBFDEBFDF9113
S11347E0CF911F910F91FF90EF900895CF92DF9298
S11347F0EF92FF920F931F93CF93DF930AE010E0A1
S113480020E030E040E050E060E270E082E892E3D3
S11348100E94DF1AC8E7D2E31A821B8281E891E280
S11348208883998340E062E08FEF0E949B108C8321
S11348309D830F2EFAE0CF2ED12CE12CF12CF02DFC
S1134840CE82DF82E886F986CEE6D2E31A821B8224
S113485005EA11E20883198340E062E08FEF0E94C9
S11348609B108C839D83CE82DF82E886F986C4E622
S1134870D2E31A821B820883198340E062E08FEF3F
S11348800E949B108C839D83CE82DF82E886F9860A
S1134890CAE5D2E31A821B820883198340E062E0EE
S11348A08FEF0E949B108C839D83CE82DF82E886EB
S11348B0F986C0E5D2E31A821B820883198340E09B
S11348C062E08FEF0E949B108C839D83CE82DF82F7
S11348D0E886F986DF91CF911F910F91FF90EF90B9
S11348E0DF90CF900895DB018F939F930E94CD2496
S11348F0BF91AF91A29F800D911DA39F900DB29F78
S1134900900D11240895A1E21A2EAA1BBB1BFD01D0
S11349100DC0AA1FBB1FEE1FFF1FA217B307E4079A
S1134920F50720F0A21BB30BE40BF50B661F771FF2
S1134930881F991F1A9469F76095709580959095D2
S11349409B01AC01BD01CF010895052E97FB1EF418
S113495000940E94BC2457FD07D00E94832407FCC6
S113496003D04EF40C94BC24509540953095219579
S11349703F4F4F4F5F4F0895909580957095619587
S11349807F4F8F4F9F4F0895EE0FFF1F881F8BBFE0
S11349900790F691E02D1BBE19940E94D824A59F80
S11349A0900DB49F900DA49F800D911D1124089526
S11349B0A29FB001B39FC001A39F700D811D11245C
S11349C0911DB29F700D811D1124911D0895FB014D
S11349D0DC0102C001900D9241505040D8F7089577
S11349E0DC0101C06D9341505040E0F70895FB0194
S11349F0DC014150504048F001900D920020C9F76D
S1134A0001C01D9241505040E0F708952532310510
S1134A1020F4223010F00C941125FA011082CA01FE
S1134A200895BB27FA01A62F621771058105910528
S1134A30330B30FB66F0AA27660F771F881F991F78
S1134A40AA1FA21710F0A21B63953850A9F7A05D06
S1134A50AA3308F0A95DA19336F7B111B19310827E
S1134A60CA010C9458254532510520F4423010F007
S1134A700C943E25FB011082CB010895BB27FB015A
S1134A805527AA27880F991FAA1FA41710F0A41B43
S1134A9083955051B9F7A05DAA3308F0A95DA1939D
S1134AA0009779F7B111B1931192CB010C94582569
S1134AB0DC01FC01672F71917723E1F7329704C081
S1134AC07C916D9370836291AE17BF07C8F308950C
S1074AD0F894FFCF84
S1134AD4FF0FFFFFFFFF0000000078038D03B803FE
S1134AE46D03EA036572726F7200646F6E6500721F
S1134AF4207061636B65740074207061636B65740A
S1134B0400722065786368616E6765007420657857
S1134B146368616E676500722073746174757300F1
S1134B247420737461747573007374617274000017
S1134B34000000D007660500000000F703510500DB
S1134B4400000021043C05000000004B042705007C
S1134B540000007B04120500000000A104FD040011
S1134B640000007B05E80400000000B604D3040040
S1134B74000000BA04BE0400000000EA08C008D81B
S1134B8408A80868085C0891088008440838082EB6
S1134B94081208230807081C08000800000000EA9B
S1134BA408C008D808A80868085C08910880084464
S1134BB40838082E081208230807081C08000800EF
S1134BC4000000791C791C791C791C791C000000F4
S1134BD400F30700000000EA094E190000000088F1
S1134BE40B4E1949444C450000000000791C4E1931
S1134BF400000000101DC11AB61A981A171D181DBA
S1134C0400000000101D791C151D121D171D181D10
S1134C1400000000101D9B1EE51EBF1E171DF81E7C
S1134C244672656552544F5320586D65676120542C
S1134C34657374696E672050726F6772616D005595
S1134C44736572496E7400536F6E617200000000E4
S1134C54002723CD221523B522FA21EE21742263E1
S1134C6422D321C721A121692196215E218F2157B5
S1134C7421000000004B23FD223923E52248223C75
S1134C84229D228C2221221522BD218521B2217A42
S1094C9421AB2173210095
S9030000FC
