S01600004652454552544F535F5348454C4C2E73726563CD
S11300000C943B030C9471030C9471030C947103D2
S11300100C9471030C9471030C9471030C9471038C
S11300200C9471030C9471030C9471030C9471037C
S11300300C9471030C9471030C9471030C9471036C
S11300400C9471030C9471030C9471030C9471035C
S11300500C9471030C9471030C9456120C94710358
S11300600C9471030C9468220C9471030C94710326
S11300700C94C6220C9471030C9471030C947103B8
S11300800C9471030C9471030C9471030C9471031C
S11300900C9471030C9471030C9471030C9471030C
S11300A00C9471030C9471030C9471030C947103FC
S11300B00C9471030C9471030C9471030C947103EC
S11300C00C9471030C9471030C9471030C947103DC
S11300D00C9471030C9471030C9471030C947103CC
S11300E00C9471030C9471030C94E0230C9471032D
S11300F00C9471030C9471030C9471030C947103AC
S11301000C9471030C9471030C9471030C9471039B
S11301100C9471030C9471030C9471030C9471038B
S11301200C9471030C9471030C9471030C9471037B
S11301300C9471030C9471030C9471030C9471036B
S11301400C9471030C9471030C9471030C9471035B
S11301500C9471030C9471030C9471030C9471034B
S11301600C9424230C9471030C9471030C94822337
S11301700C9471030C9471030C9471030C9471032B
S11301800C9471030C9471030C9471030C9471031B
S11301900C9471030C9471030C9471030C9471030B
S11301A00C9471030C9471030C9471030C947103FB
S11301B00C9471030C9471030C9471030C947103EB
S11301C00C9471030C9471030C9471030C947103DB
S11301D00C9471030C9471030C9471030C947103CB
S11301E00C9471030C9471030C9471030C947103BB
S11301F00C9471030C9471030C94710317201A204E
S11302001D202020232026202820392041204B2077
S113021049200C9432260C94FC240C946B1D0C94F1
S1130220900C0C94E4250C946C240C947A0A0C9491
S113023036150C94340B0C9439200C9468050C94EA
S11302404B200C9420260C94BF040C945B250C9436
S1130250FC250C94FC050C943B060C943A0A0C9473
S1130260080B0C94250A0C947D050C9450240C94D2
S11302703E240C949B050C94BA1F0C94F60A0C941F
S113028019040C9473250C9408250C9449200C949F
S1130290A6210C94D6030C94AF0A0C947E030C9400
S11302A038030C945A240C94300A0C941E0A0C94AF
S11302B00E260C94B4250C9441200C944A250C94DD
S11302C01A200C9415040C94C11F0C9414050C945E
S11302D0D5240C94231F0C94BA240C941D200C9444
S11302E01D040C94F81B0C94AE240C94E1240C947F
S11302F026200C94C21F0C94620A0C94601D0C946A
S1130300AB030C94DF210C94DE260C9488240C940B
S11303103E050C9417200C94BF1F0C947D240C9460
S1130320421D0C9484250C9428200C9420200C94B9
S1130330BC1F0C9476240C946E040C949C250C9491
S1130340270B0C944C0A0C94CC250C9492240C94FA
S113035099240C9445240C94B9050C9408040C9429
S113036073030C9423250C9429050C94320E0C94DD
S1130370410B0C9461240C94EA040C9482210C9497
S11303809E0A0C94560A0C94FF040C9453050C9486
S1130390C60A0C94CC210C941A0B0C94410A0C94AC
S11303A02F250C94860A0C94DE0A0C9423200C94BA
S11303B0A4240C94C208536F6E61723A20002C205E
S11303C0544343304343413D002F002C2048656192
S11303D07020667265653A200054696D653A2000A4
S11303E04E6F762032332032303138004D45343070
S11303F035206261736520726164696F2070726F69
S11304006772616D2056302E342000202020206831
S11304103A20202048414C50210020202020653AD9
S11304202020204578697420636F6D6D616E6420AF
S11304306D6F64650020202020733A2020205374BF
S113044061636B2064756D7020666F7220746173D4
S11304506B730020202020763A202020566572738A
S1130460696F6E20616E6420736574757020696EA7
S1130470666F726D6174696F6E00202020206E3A81
S113048020202053686F77207468652074696D6537
S1130490207269676874206E6F77002020496E208F
S11304A0636F6D6D616E64206D6F6465206F6E6C3B
S11304B0793A00202043746C2D413A20456E7465CE
S11304C07220636F6D6D616E64206D6F64650020D2
S11304D02043746C2D433A2052657365742074680C
S11304E06520415652002068656C70004D453430DB
S11304F035206261736520726164696F2070726F68
S11305006772616D2056302E3420001B5B33306DD2
S1130510001B5B34366D00496C6C6567616C20733D
S1130520746174652120526573657474696E672003
S1130530415652003A5754463F0045786974206347
S11305406F6D6D616E64206D6F64650052657365D7
S11305507474696E6720415652005072657373203B
S11305604374726C2D4120666F7220636F6D6D61F0
S11305706E64206D6F646500526573657474696E92
S113058067004552524F5220696E207461736B208C
S1130590004552524F52206372656174696E672040
S11305A07461736B20002C20737461636B2061741D
S11305B0203078002063726561746564005461734F
S11305C06B20001B5B32326D005461736B3A200068
S11305D01B5B316D001B5B32326D005461736B3AEF
S11305E02049444C45001B5B316D000909002F0074
S11305F049444C45090930092D0900092D2D2D2D9B
S113060000092D2D2D2D2D2D2D2D2D2D002D2D2D94
S11306102D09092D2D2D2D092D2D2D2D2D0009529E
S1130620756E730009467265652F546F74616C00B2
S11306304E616D6509095072692E095374617465C0
S11306400009537461636B005461736B09092020C2
S1130650092000090009002F00090009001B5B3272
S1130660326D001B5B316D001B5B316D002020007F
S11306700E94901ADE2611241FBECFEFCDBFDFE308
S1130680DEBF00E00CBF18BE19BE1ABE1BBE12E2CC
S1130690A0E0B0E2E4EAF0E500E00BBF02C007909E
S11306A00D92AA3DB107D9F71BBE23E3AAEDB2E22E
S11306B001C01D92A83AB207E1F713E0CBE3D3E0FF
S11306C000E006C021970109802FFE010E94AC279B
S11306D0CA33D10780E00807A9F70E9459260C9471
S11306E050280C940000BC016E5F7F4FDC01ED913B
S11306F0FC910084F185E02D19950895EF92FF9205
S11307000F931F93CF93DF93EC017B01EA8DFB8D55
S11307100681178166E070E2C8010E94D11F66E07D
S1130720C8010E940820E881F9810480F581E02D48
S1130730B701CE011995BE01635F7F4FEA8DFB8D32
S1130740808191810E941108DF91CF911F910F91B7
S1130750FF90EF900895EF92FF920F93CF93DF9362
S1130760EC017C0182E0E80EF11CE881F98100844F
S1130770F185E02DB701CE011995288539854A8583
S11307805B85BE01625E7F4F00E08E819F810E9487
S11307907313EA8DFB8DB701828193810E94530804
S11307A0DF91CF910F91FF90EF900895CF92DF9258
S11307B0EF92FF920F93CF93DF93EC017B016C01D7
S11307C08DE0C80ED11CE881F9810084F185E02D0B
S11307D0B601CE0119952B893C894D895E89BE01EC
S11307E0635E7F4F00E089899A890E947313D70161
S11307F0ED91FC910190F081E02DB601C7011995AE
S1130800DF91CF910F91FF90EF90DF90CF900895FB
S1130810CB010E94790C0895FC01648F862F880F08
S1130820858F682F6160668F0895FC0182819381B2
S11308300895FC01828193810895EF92FF920F93B2
S11308401F93CF93DF931F921F92CDB7DEB78C0116
S1130850DC011796ED91FC911897E680F7806AE128
S113086070E2C7010E94D11F66E0C7010E94082000
S1130870F8018185928589839A8389819A81019778
S113088089839A83892B59F0D8011796ED91FC91AD
S113089018970480F581E02D848186FFEECFD8017E
S11308A01796ED91FC9118970480F581E02D8481D1
S11308B084FD08C0848186FF05C012968D919C91A9
S11308C0139703C0F801848195810F900F90DF91F5
S11308D0CF911F910F91FF90EF900895EF92FF92A7
S11308E00F931F93CF93DF931F921F92CDB7DEB761
S11308F08C01DC011796ED91FC911897E680F78046
S113090063E270E2C7010E94D11F66E0C7010E9442
S11309100820F8018185928589839A8389819A8147
S1130920019789839A83892B59F0D8011796ED9101
S1130930FC9118970480F581E02D8481882374F755
S1130940D8011796ED91FC9118970480F581E02D5C
S1130950848184FD08C0848188232CF412968D91AF
S11309609C91139703C0F801848195810F900F9097
S1130970DF91CF911F910F91FF90EF900895EF9227
S1130980FF920F931F93CF93DF93EC018B01EF81C1
S1130990F885E680F7806CE270E2C7010E94D11FFF
S11309A066E0C7010E940820D801ED91FC910488FB
S11309B0F589E02DC8011995882319F08A819B8156
S11309C002C08C819D81DF91CF911F910F91FF9087
S11309D0EF900895CF93DF93DC011796ED91FC918E
S11309E01897C681D78166E370E2CE010E94D11FB9
S11309F066E0CE010E940820DF91CF910895CF9345
S1130A00DF93DC011796ED91FC911897C681D7818D
S1130A106CE370E2CE010E94D11F66E0CE010E9419
S1130A200820DF91CF910895CF93DF93DC011796CF
S1130A30ED91FC911897C681D78161E470E2CE01F3
S1130A400E94D11F66E0CE010E940820DF91CF9161
S1130A500895CF93DF93DC011796ED91FC911897DD
S1130A60C681D7816AE470E2CE010E94D11F66E09C
S1130A70CE010E940820DF91CF910895CF93DF9398
S1130A80DC011796ED91FC911897C681D78163E537
S1130A9070E2CE010E94D11F66E0CE010E940820C0
S1130AA0DF91CF910895CF93DF93DC011796ED91F9
S1130AB0FC911897C681D7816EE570E2CE010E9441
S1130AC0D11F66E0CE010E940820DF91CF910895E6
S1130AD0CF93DF93DC011796ED91FC911897C681B3
S1130AE0D78169E670E2CE010E94D11F66E0CE0193
S1130AF00E940820DF91CF9108951F93CF93DF9335
S1130B00DC011796ED91FC911897A481B581149698
S1130B101C91C681D7816FE670E2CE010E94D11F7D
S1130B20612FCE010E94022166E00E940820DF911D
S1130B30CF911F9108951F93CF93DF93DC011796F4
S1130B40ED91FC911897A481B58114961C91C681EE
S1130B50D7816AE770E2CE010E94D11F612FCE01D6
S1130B600E94022166E00E940820DF91CF911F912C
S1130B700895EF92FF920F931F93CF93DF938C010D
S1130B80EB01E881F981008CF18DE02DCB01199501
S1130B90882341F1E881F9810284F385E02DE12C79
S1130BA0F12CB701CE011995D701CC91D801179634
S1130BB0ED91FC911897E680F78065E870E2C70133
S1130BC00E94D11F6C2FC7010E94022166E00E947F
S1130BD00820D8011796ED91FC9118970480F581AF
S1130BE0E02DC783F80182819381DF91CF911F911A
S1130BF00F91FF90EF900895BF92CF92DF92EF9202
S1130C00FF920F931F93CF93DF931F92CDB7DEB75D
S1130C108C017B01DC011796ED91FC911897A4815E
S1130C20B5811796BC90B982C680D78067E970E217
S1130C30C6010E94D11F6B2DC6010E94022166E0ED
S1130C400E940820D701ED91FC910190F081E02DE4
S1130C50BE016F5F7F4FC7011995F80182819381AF
S1130C600F90DF91CF911F910F91FF90EF90DF9044
S1130C70CF90BF900895EF92FF920F931F93CF935D
S1130C80DF93EC018B01EF81F885E680F78067EA5A
S1130C9070E2C7010E94D11F66E0C7010E940820CC
S1130CA0D801ED91FC91048CF58DE02DC8011995C6
S1130CB0F801228530E082179307B9F4EF81F885B3
S1130CC00480F581E02D87E08383EF81F885068138
S1130CD0178161EB70E2C8010E94D11F66E0C80170
S1130CE00E9408208A819B8116C0EF81F8850480C8
S1130CF0F581E02D82E08383EF81F88506811781F9
S1130D0066EB70E2C8010E94D11F66E0C8010E9430
S1130D1008208C819D81DF91CF911F910F91FF90CD
S1130D20EF900895AF92BF92CF92DF92EF92FF922D
S1130D300F931F93CF93DF93EC018B017A016883A8
S1130D4079834A835B838BE090E00E941D1F6C01D2
S1130D50FC01168285E691E28083918307831087E4
S1130D60E186F286F801A680B7806FEB70E2C501D8
S1130D700E94D11FB501C5010E94672066E00E9450
S1130D800820CE82DF828BE090E00E941D1FFC01D0
S1130D908D899E8916822DE631E220833183078373
S1130DA0108781879287E887F98789E090E00E941D
S1130DB01D1FFC0116828DE791E2808391830783D6
S1130DC01087EA87FB8789E090E00E941D1FFC01E1
S1130DD016828DE891E28083918307831087EC87E4
S1130DE0FD8789E090E00E941D1FFC01168285EAC0
S1130DF091E28083918307831087EE87FF8789E0E0
S1130E0090E00E941D1FFC0116828DE991E280830F
S1130E10918307831087E88BF98B80E197E28D8BB0
S1130E209E8B68ED70E2C7010E94D11FB801C70113
S1130E300E94672066E00E940820F801068117815D
S1130E4064EF70E2C7010E94D11FB801C7010E947C
S1130E50672066E00E9408206AE071E2C7010E94F0
S1130E60D11FB701C7010E94672066E00E940820D5
S1130E7088859985EE81FF8182839383848395831A
S1130E808E859F852A853B85E885F9852283338372
S1130E90848395838C859D85EA85FB8582839383F2
S1130EA0848395838885998528893989EC85FD858E
S1130EB02283338384839583DF91CF911F910F9194
S1130EC0FF90EF90DF90CF90BF90AF900895CF92B6
S1130ED0DF92EF92FF920F931F93CF93DF93EC0176
S1130EE08B016A01688379834A835B838BE090E09A
S1130EF00E941D1F7C01FC01168285E691E280831D
S1130F00918307831087C186D286F801C680D78073
S1130F106FEB70E2C6010E94D11FB601C6010E94A8
S1130F20672066E00E940820EE82FF828BE090E05A
S1130F300E941D1FFC018D899E89168225E731E2DE
S1130F40208331830783108781879287E887F98715
S1130F5089E090E00E941D1FFC01168285E891E261
S1130F608083918307831087EA87FB8789E090E079
S1130F700E941D1FFC01168285E991E28083918302
S1130F8007831087EC87FD8789E090E00E941D1F8E
S1130F90FC01168285EA91E280839183078310879E
S1130FA0EE87FF8789E090E00E941D1FFC011682F6
S1130FB08DE991E28083918307831087E88BF98B15
S1130FC080E197E28D8B9E8B88859985EE81FF81E8
S1130FD082839383848395838E859F852A853B852D
S1130FE0E885F98522833383848395838C859D8565
S1130FF0EA85FB8582839383848395838885998599
S113100028893989EC85FD852283338384839583FC
S1131010DF91CF911F910F91FF90EF90DF90CF90D0
S113102008950F931F93CF93DF93EC018B018E816F
S11310309F818C839D832889398982179307D9F0EE
S11310402E853F858217930731F417C02E853F857F
S11310502817390799F0DC01ED91FC910190F0819A
S1131060E02DB80119958C839D8328893989281727
S1131070390761F703C0C90101C0C901DC01ED9161
S1131080FC910280F381E02D199581E04C815D8112
S1131090288939894217530709F080E0DF91CF91FD
S11310A01F910F910895EF92FF920F931F93CF9387
S11310B0DF93EC017B018E819F818C839D83A889C2
S11310C0B9898A179B0771F1AE85BF858A179B077B
S11310D039F428C0AE85BF85C801A017B10711F146
S11310E0DC01ED91FC910190F081E02DB70119959F
S11310F08C018C819D81DC01ED91FC910280F38156
S1131100E02D199588859985DC01ED91FC9102808B
S1131110F381E02D19950C831D83A889B989A01743
S1131120B107C1F6ED91FC9111970280F381E02D96
S1131130CD011995C701DF91CF911F910F91FF90B8
S1131140EF900895CF93DF93EC019A01AB01220F46
S1131150331F441F551F60E078E488EE91E00E943D
S11311606B2725502A87EC81FD812583DF91CF9160
S11311700895DC011496ED91FC91159783818160AB
S1131180838308950F931F93CF93DF93EC01CB01D7
S1131190DB01ED91FC910284F385E02D00E010E089
S11311A0B80119958F8198850E94B908EF81F88557
S11311B00480F581E02DD8018C9186838A819B81FE
S11311C0DF91CF911F910F910895FF920F931F9379
S11311D0CF93DF931F921F92CDB7DEB78C01F62E0B
S11311E084EF91E089839A83C8010E94B908D801E9
S11311F01496ED91FC911597FF0CF68289819A81E2
S1131200019789839A83892B41F0D8011496ED9133
S1131210FC911597848184FDF1CF29813A8181E085
S1131220232B09F480E00F900F90DF91CF911F9151
S11312300F91FF9008958F929F92AF92BF92CF9299
S1131240DF92EF92FF920F931F93CF93DF931F923E
S11312501F92CDB7DEB78C01DD24D394B12C0F2EB1
S1131260F4E6EF2EF12CF02D0F2EF7E0CF2EF02D1B
S1131270E982FA82C8010E94B908D8011496ED9156
S1131280FC9115978D2D880F868389819A8101970A
S113129089839A83892B89F1D8011496ED91FC9165
S11312A01597848184FDF1CF28C0D8011496ED915F
S11312B0FC911597A68016968D909C90179763E1E4
S11312C071E2C4010E94D11F6A2DC4010E9402214F
S11312D066E00E940820F801EB0DF11DD786B39457
S11312E0D8011496ED91FC911597C382D394B0E87C
S11312F0DB12BECFC8010F9605C089819A81892B64
S113130079F3D3CF0F900F90DF91CF911F910F916D
S1131310FF90EF90DF90CF90BF90AF909F908F9011
S11313200895EF92FF920F931F93CF93DF93EC01F5
S11313307B01BA01A901EC82FD820E831F834B87D6
S11313405C876D877E8780E8E81684E0F80629F4D8
S113135080E496E08887998709C0E0EAEE16E4E025
S1131360FE0621F480E896E088879987E885F98568
S113137083E08183E885F98588E3808BE885F985B6
S1131380818B82E0F7018283CE010E94A208F701DB
S113139084818D6C848388E0818367E271E2C80173
S11313A00E94D11FBE01C8010E94672066E00E940E
S11313B00820EE80FF806EE371E2C8010E94D11F15
S11313C0B701C8010E94672066E00E94082087E1F7
S11313D090E00E941D1F7C01A801BE010E9492069C
S11313E0E882F98288E190E00E941D1F7C01A80137
S11313F0BE010E946707EA82FB82CE010E941B099C
S11314006DE1CE010E94E508682FC8010E944F20BB
S113141066E00E9408200E80DF81C02D6FE471E237
S1131420CE010E94D11F66E0CE010E940820DF9108
S1131430CF911F910F91FF90EF900895FC0184814B
S113144095810E94331590E00895FC018481958173
S11314500E94331591E0811101C090E0892F089515
S1131460FC01848195810E94331591E0811190E003
S1131470892F0895FC01848195810E942B1590E0A9
S11314800895FC01848195810E942B1591E08111BE
S113149001C090E0892F0895FC01848195810E9408
S11314A02B1591E0811190E0892F08950F9301E0AD
S11314B02FEF3FEFA901FC01848195810E943A142A
S11314C00F9108950F93CF93DF931F92CDB7DEB79B
S11314D001E02FEF3FEFA901BE016F5F7F4FFC01D9
S11314E0848195810E943A1489810F90DF91CF9174
S11314F00F9108950F9300E02FEF3FEFA901FC0136
S1131500848195810E943A140F9108950F93CF938B
S1131510DF931F92CDB7DEB700E02FEF3FEFA901B5
S1131520BE016F5F7F4FFC01848195810E943A1454
S113153089810F90DF91CF910F910895CF93DF931D
S11315401F92CDB7DEB7AE014F5F5F4FFC018481C0
S113155095810E94FE140F90DF91CF910895CF934F
S1131560DF931F921F92CDB7DEB7AE014E5F5F4F80
S1131570BE016F5F7F4FFC01848195810E94FE1440
S113158089810F900F90DF91CF910895CF93DF93CE
S11315901F92CDB7DEB7198221E0AE014F5F5F4FD6
S11315A0FC01848195810E940E1491E0811101C097
S11315B090E0892F0F90DF91CF910895CF93DF931F
S11315C01F92CDB7DEB7198220E0AE014F5F5F4FA7
S11315D0FC01848195810E940E1491E0811101C067
S11315E090E0892F0F90DF91CF9108950F93FC0124
S11315F0268137814085518501E0848195810E944F
S1131600731391E0811101C090E0892F0F91089527
S11316100F93FC01268137814085518500E0848148
S113162095810E94731391E0811101C090E0892F8C
S11316300F910895DB01BC016E5F7F4FED91FC912A
S113164011970190F081E02DCD0119950895DB01EA
S1131650BC016E5F7F4FED91FC9111970190F08179
S1131660E02DCD0119950895DB01BC016E5F7F4F1C
S1131670ED91FC9111970190F081E02DCD01199528
S11316800895DB01BC016E5F7F4FED91FC911197D2
S11316900190F081E02DCD01199508953F924F926C
S11316A05F926F927F928F929F92AF92BF92CF92EE
S11316B0DF92EF92FF920F931F93CF93DF938C01EE
S11316C07B016A01DC016D937C93119712964D9313
S11316D05C9313978FE190E00E941D1FEC0185EF4E
S11316E091E2888399831C821D820F2EFDEAAF2E1E
S11316F0F1E2BF2EF02DAA82BB8240E061E082E0DD
S11317000E9445138E839F830F2EFAE04F2E512C97
S1131710612C712CF02D488659866A867B860F2EA3
S1131720F1ED8F2EF1E29F2EF02D8A829B82689438
S1131730332431F83C861F86188AAD86BE8640E085
S113174061E082E00E944513898B9A8B4B8A5C8A04
S11317506D8A7E8A8D869E863F8A80E190E28883A8
S11317609983C88ED98EF801C483D5838DE186838D
S113177084E090E00E941D1FFC0183E092E28083DC
S113178091838AE28283C1E0C383D8011996ED93E1
S1131790FC931A9783E090E00E941D1F29E032E237
S11317A0FC0120833183C283D8011B968D939C93C3
S11317B01C9783E090E00E941D1F2FE032E2FC01A1
S11317C02083318323E02283D8011D968D939C933B
S11317D01E9783E090E00E941D1F25E132E2FC0188
S11317E02083318325E02283D8011F968D939C9317
S11317F050971496ED91FC911597E28EF38E169600
S11318006C91169714968D919C9115970E940C04D7
S1131810DF91CF911F910F91FF90EF90DF90CF90C8
S1131820BF90AF909F908F907F906F905F904F90FC
S11318303F9008950F931F93CF93DF93EC018C8116
S11318409D816B857C85DC01ED91FC910190F0819B
S1131850E02D19958C819D81DC01ED91FC91028034
S1131860F381E02D19958C018C819D816D857E8598
S1131870DC01ED91FC910190F081E02D19958C81B2
S11318809D81DC01ED91FC910280F381E02D19959D
S11318908C819D816F857889DC01ED91FC910190AB
S11318A0F081E02D19958C819D81DC01ED91FC91F5
S11318B00280F381E02D1995D801ED91FC9100840B
S11318C0F185E02DC8011995C82FD801ED91FC913F
S11318D00084F185E02DC80119952C2F30E0322FBA
S11318E02227A901482BCA01DF91CF911F910F91A3
S11318F00895CF93DF93EC01E881F981008CF18D99
S1131900E02DCE011995882341F0E881F981008406
S1131910F185E02DCE011995EFCFDF91CF91089598
S1131920EC018C85882319F0813071F029C08C89F1
S11319309D890E941A0CBC018E819F810E948C207B
S113194066E00E9408201CC08C899D890E941A0CA4
S11319507C018A8B9B8B6AE08E819F810E94082088
S11319608C0166EB73E00E94D11FB701C8010E948D
S11319708C2066E00E94082060E0CE010E949F1A3D
S11319808E859F85A889B9890196A11DB11D8E8771
S11319909F87A88BB98B68E873E180E090E00E9490
S11319A07318BFCFCF92DF92EF92FF920F931F93E2
S11319B0CF93DF93EC016B010E94A31A8BE192E2B7
S11319C088839983EC8AFD8ACE8ADF8ADF91CF915E
S11319D01F910F91FF90EF90DF90CF9008950F9398
S11319E01F93CF93DF93EC010E94A31A83E292E248
S11319F088839983DF91CF911F910F9108950F935D
S1131A001F93CF93DF93EC016AE08E819F810E9444
S1131A1008208C0161E175E00E94D11F6AE0C801D1
S1131A200E9408208C016BE075E00E94D11F67E0E2
S1131A30C8010E9408206AE08E819F810E940820CC
S1131A408C016CEE74E00E94D11F6AE0C8010E9410
S1131A5008208C0166EE74E00E94D11F66E0C80184
S1131A600E9408206AE08E819F810E9408208C01D8
S1131A706FEC74E00E94D11F66E0C8010E94082048
S1131A806AE08E819F810E9408208C0163EB74E0E0
S1131A900E94D11F66E0C8010E9408206AE08E817E
S1131AA09F810E9408208C016BE974E00E94D11F81
S1131AB066E0C8010E9408206AE08E819F810E942E
S1131AC008208C016AE774E00E94D11F66E0C80117
S1131AD00E9408206AE08E819F810E9408208C0168
S1131AE063E574E00E94D11F66E0C8010E940820EB
S1131AF06AE08E819F810E9408208C0165E374E076
S1131B000E94D11F66E0C8010E9408206AE08E810D
S1131B109F810E9408208C016AE174E00E94D11F19
S1131B2066E0C8010E9408206AE08E819F810E94BD
S1131B300820EC016BE074E00E94D11F66E0CE0146
S1131B400E940820DF91CF911F910F910895AF92C9
S1131B50BF92CF92DF92EF92FF920F931F93CF9396
S1131B60DF9300D000D0CDB7DEB78C0119821A8282
S1131B701B821C821D821E820E942C106C01CE01CD
S1131B8001960E94541E5C0166E0F80186819781EB
S1131B900E9408206AE00E9408207C016CEE73E039
S1131BA00E94D11F6AE0C7010E9408207C0160EEF8
S1131BB073E00E94D11F66E0C7010E9408206AE01A
S1131BC00E9408207C0169ED73E00E94D11FB501D9
S1131BD0C7010E94F81D6AE00E9408207C016BEC9A
S1131BE073E00E94D11FB601C7010E948C206AE0F5
S1131BF00E9408207C0169EC73E00E94D11F4FEF22
S1131C005FE060E070E0C7010E94C020C090280837
S1131C10D09029086AE0F801868197810E94082003
S1131C207C016EEB73E00E94D11FB601C7010E94D4
S1131C308C2066E00E94082066E00E940820F801DB
S1131C40868197810E94B11C2696CDBFDEBFDF91AD
S1131C50CF911F910F91FF90EF90DF90CF90BF90A5
S1131C60AF900895CF93DF9300D000D0CDB7DEB707
S1131C708C0119821A821B821C821D821E826AE0D8
S1131C80DC0116968D919C9117970E9408207C0187
S1131C906AE575E00E94D11F66E0C7010E94082032
S1131CA0F8018485882321F0813009F45DC0D8C00F
S1131CB086819781DC01ED91FC910480F581E02D12
S1131CC019958823A9F1F80186819781DC01ED91AA
S1131CD0FC910680F781E02D1995992781309105B3
S1131CE0F9F0039709F0D8C06AE0F801868197817A
S1131CF00E9408208C016CE475E00E94D11F66E00C
S1131D00C8010E94082093E088ED08B618BE84BF7D
S1131D10909380008091820081FDFCCF08BEFFCFAC
S1131D20C8010E94FF0C61E0C8010E949F1AB4C060
S1131D3086E993E30E94601D882309F4ADC0D801AD
S1131D401696ED91FC9117970190F081E02DE280B9
S1131D50F38086E993E30E94421D682FF80186818F
S1131D609781F701199598C086819781DC01ED91DF
S1131D70FC910480F581E02D1995882309F48CC029
S1131D80F80186819781DC01ED91FC910680F78151
S1131D90E02D19959C0133272836310559F13CF47F
S1131DA02B31310559F12536310541F13BC023373B
S1131DB03105C1F02637310589F02E36310591F50C
S1131DC0CE0101960E94541EBC01F80186819781C0
S1131DD00E94F81D66E00E9408205EC0C8010E94AF
S1131DE0A70D5AC0D80116968D919C9117970E9401
S1131DF0B81B52C0C8010E94FF0C4EC06AE0F80133
S1131E00868197810E9408207C016AE375E00E9424
S1131E10D11F66E0C7010E94082060E0C8010E944B
S1131E209F1A3AC0F801A681B781ED91FC911197F0
S1131E300280F381E02D682FCD0119956AE0D80165
S1131E4016968D919C9117970E9408207C0164E35B
S1131E5075E00E94D11F66E0C7010E9408201CC0E3
S1131E606AE0F801868197810E9408208C0167E16D
S1131E7075E00E94D11F66E0C8010E94082093E02B
S1131E8088ED08B618BE84BF9093800080918200CC
S1131E9081FDFCCF08BEFFCFF80186859785A08918
S1131EA0B1890196A11DB11D86879787A08BB18B3F
S1131EB068EE73E080E090E00E947318F1CE0F9317
S1131EC01F93CF93DF93EC010E94CF168091DA2207
S1131ED081111DC0AFEDB2E2E3EEF2E2ED93FC93AB
S1131EE0119712961D921C921397ABEDB2E28FEFED
S1131EF09FE012968D939C9313971D921C921197B9
S1131F0082839383A083B18381E08093DA22209734
S1131F1009F45FC09E012B5F3F4F2496CE3FDF4004
S1131F2008F05AC0E091DF22F091E022AFEDB2E276
S1131F3002C0DF01FC01828193818217930720F4A0
S1131F40808191810097A9F7C2E2EB3DFC0709F477
S1131F5046C0CD91DC9111978E010B5F1F4F80819C
S1131F6091818D939C9382819381821B930B8B30FF
S1131F70910510F1BF01620F731FDB0112968D935F
S1131F809C9313972283338312964D915C911397FC
S1131F908FED92E201C0CD01EC01A881B9811296C6
S1131FA02D913C91139724173507A8F3EB01A883CF
S1131FB0B983DC016D937C93809100209091012082
S1131FC022813381821B930B809300209093012004
S1131FD008C000E010E005C000E010E002C000E02E
S1131FE010E00E94F117C801DF91CF911F910F916A
S1131FF008950F931F93CF93DF93009741F1EC0162
S11320008C01055011090E94CF16F80142815381B9
S1132010AFEDB2E201C0DF01ED91FC911197228195
S1132020338124173507B8F32597E883F9830D9393
S11320301C9320910020309101208A819B81820F82
S1132040931F80930020909301200E94F117DF9149
S1132050CF911F910F9108958091002090910120BC
S11320600895FC010396818392834FEF5FEFBA01D9
S1132070438354836583768387839087818792879C
S113208010820895FC01128613860895CF93DF937E
S1132090FC01DB0121813281E9018C819D8114964F
S11320A08D939C9315978181928116968D939C9321
S11320B017978C819D81EC016E837F83E9016C838A
S11320C07D83618372831A96ED93FC931B978081C1
S11320D08F5F8083DF91CF9108950F931F93CF93E8
S11320E0DF93EB01088119812A813B810F3F4FEF78
S11320F014072407340731F4DC011996ED91FC919F
S11321001A971FC0FC013396DC0117964D915C9120
S11321101897DA014D915D916D917C910417150723
S11321202607370770F00480F581E02DA481B5817E
S11321304D915D916D917C91041715072607370722
S113214090F7A481B581AC83BD831696CD93DC93BF
S11321501797EE83FF83C483D5838A879B87FC010B
S113216020812F5F2083DF91CF911F910F910895DC
S1132170FC01A481B5818681978116968D939C93E9
S11321801797A681B7818481958114968D939C932A
S11321901597A285B38511968D919C911297E81796
S11321A0F90731F48681978111968D939C93129748
S11321B0128613868C9181508C9308958093A63354
S11321C09093A73331E1FC013083319722E22083DD
S11321D03197A3E3A083319760833197708331975C
S11321E0108231971082319760E8608331971082B2
S11321F03197108231971082319762E06083319772
S113220063E06083319764E06083319765E06083C5
S1132210319766E06083319767E06083319768E0C7
S11322206083319769E06083319760E1608331971F
S11322303083319732E13083319733E13083319702
S113224034E13083319735E13083319736E130839F
S1132250319737E13083319738E13083319739E171
S11322603083319730E23083319731E230833197D4
S11322702083319723E22083319740833197508321
S1132280319726E22083319727E22083319728E291
S11322902083319729E22083319720E320833197EB
S11322A021E32083899708958CE7809369088FEF51
S11322B08093680881E08093400891E190934108FD
S11322C080934708A0914233B0914333CD91CDBF61
S11322D0DD91DEBFFF91EF91DF91CF91BF91AF917F
S11322E09F918F917F916F915F914F913F912F912A
S11322F01F910F91FF90EF90DF90CF90BF90AF9020
S11323009F908F907F906F905F904F903F902F9011
S11323101F900F900CBE0F900BBE0F900FBE0F902E
S1132320089508950F920FB6F8940F920BB60F927A
S11323300CB60F921F9211242F923F924F925F92EC
S11323406F927F928F929F92AF92BF92CF92DF92C1
S1132350EF92FF920F931F932F933F934F935F93AB
S11323606F937F938F939F93AF93BF93CF93DF9399
S1132370EF93FF93A0914233B09143330DB60D9286
S11323800EB60D920E94A118A0914233B09143332E
S1132390CD91CDBFDD91DEBFFF91EF91DF91CF9164
S11323A0BF91AF919F918F917F916F915F914F9169
S11323B03F912F911F910F91FF90EF90DF90CF905D
S11323C0BF90AF909F908F907F906F905F904F9051
S11323D03F902F901F900F900CBE0F900BBE0F904C
S11323E00FBE0F9008950F920FB6F8940F920BB68C
S11323F00F920CB60F921F9211242F923F924F927C
S11324005F926F927F928F929F92AF92BF92CF9280
S1132410DF92EF92FF920F931F932F933F934F936B
S11324205F936F937F938F939F93AF93BF93CF9358
S1132430DF93EF93FF93A0914233B09143330DB6F2
S11324400D920EB60D920E94F0160E94A118A09152
S11324504233B0914333CD91CDBFDD91DEBFFF91C7
S1132460EF91DF91CF91BF91AF919F918F917F9128
S11324706F915F914F913F912F911F910F91FF9019
S1132480EF90DF90CF90BF90AF909F908F907F9010
S11324906F905F904F903F902F901F900F900CBEC5
S11324A00F900BBE0F900FBE0F9008950E94F31172
S11324B01895CF93DF93EC0188A181110BC088811B
S11324C09981892BE1F58A819B810E945C1A1A8289
S11324D01B8235C0411117C0482F50E08C819D816B
S11324E00E94CF2728A18C819D81820F911D8C830E
S11324F09D832A813B818217930708F18881998102
S11325008C839D831CC0482F50E08E819F810E9444
S1132510CF2788A190E09195819591092E813F81E3
S1132520280F391F2E833F8348815981241735078B
S113253030F42A813B81820F931F8E839F838E8D7B
S11325408F5F8E8FDF91CF910895FC0180819181FF
S11325500097A1F040A150E026813781240F351F58
S113256026833783A281B3812A173B0710F0868321
S11325709783CB01668177810E94CF2708950F93BB
S11325801F93CF93DF93EC010FB6F8940F928AA1B7
S11325901816B4F48B89811105C012C08B8981117E
S11325A004C00EC08E010D5E1F4FC8010E94281981
S11325B081110E94E5198AA181508AA3181674F327
S11325C08FEF8AA30F900FBE0FB6F8940F9289A1D4
S11325D01816B4F48885811105C012C0888581114C
S11325E004C00EC08E01085F1F4FC8010E94281945
S11325F081110E94E51989A1815089A3181674F3E9
S11326008FEF89A30F900FBEDF91CF911F910F9190
S113261008951F93CF93DF93613059F0FC01238910
S1132620308531112CC011E0211110E0211128C096
S113263001C011E0EC014881598128A130E06F8D7F
S1132640629FC001639F900D1124BA01680F791F26
S11326506A837B831E8E4C835D83821B930B840F62
S1132660951F8E839F838FEF89A38AA3CE0108963B
S11326700E943110CE0143960E94311001C010E037
S1132680812FDF91CF911F9108950F931F93CF93C3
S1132690DF93882301F1062F182F83E290E00E9434
S11326A05F0FEC01892BC9F0109FC0011124019622
S11326B00E945F0F88839983892B39F01F8F08A3A9
S11326C061E0CE010E94091308C0CE010E94F90FF7
S11326D0C0E0D0E002C0C0E0D0E0CE01DF91CF91F5
S11326E01F910F910895AF92BF92CF92DF92EF9214
S11326F0FF920F931F93CF93DF93CDB7DEB7299744
S1132700CDBFDEBF7C015B012E833F8348875987A1
S113271010E06C0188E0C80ED11C0FB6F8940F923B
S1132720F701968D878D9817A8F4402FB501C7013E
S11327300E945912F7018389882341F0C701439607
S11327400E942819813011F40E9492110F900FBE3B
S113275081E056C08E819F81A885B985892B8A2BFB
S11327608B2B21F40F900FBE80E04AC0111105C0DD
S1132770CE0101960E94671911E00F900FBE0E94CE
S1132780CF160FB6F8940F92F70181A18F3F09F489
S113279011A2F70182A18F3F09F412A20F900FBE7C
S11327A0BE016A5F7F4FCE0101960E9478198111A4
S11327B021C00FB6F8940F92F701968D0F900FBEBB
S11327C0878D981311C04E815F8168857985C60114
S11327D00E94FE18C7010E94BF120E94F1178111C6
S11327E09CCF0E94921199CFC7010E94BF120E94F0
S11327F0F11793CFC7010E94BF120E94F11780E026
S11328002996CDBFDEBFDF91CF911F910F91FF902D
S1132810EF90DF90CF90BF90AF9008950F931F93E8
S1132820CF93DF938A01FC01568D378D5317C0F483
S1132830422FEC010E9459128AA18F3F69F48B89BF
S1132840882381F0CE0143960E942819882361F0E1
S113285081E0F801808309C08F5F8AA381E005C00D
S113286080E003C081E001C081E0DF91CF911F913E
S11328700F910895AF92BF92CF92DF92EF92FF92A1
S11328800F931F93CF93DF93CDB7DEB72997CDBFB7
S1132890DEBF7C015B012E833F834887598710E0AC
S11328A06C0183E1C80ED11C0FB6F8940F92F701A6
S11328B0868D882399F1C680D780B501C7010E940F
S11328C0A51201111AC0F701868D8150868F80816F
S11328D09181892B29F40E94021AF7018283938340
S11328E0F70180858823B1F0C70108960E94281952
S11328F0813081F40E9492110DC0F701C682D78203
S11329008389882339F0C70143960E9428198111CD
S11329100E9492110F900FBE81E062C08E819F8150
S1132920A885B985892B8A2B8B2B21F40F900FBE98
S113293080E056C0111105C0CE0101960E946719AE
S113294011E00F900FBE0E94CF160FB6F8940F92AD
S1132950F70181A18F3F09F411A2F70182A18F3FF2
S113296009F412A20F900FBEBE016A5F7F4FCE0121
S113297001960E94781981112DC00FB6F8940F9218
S1132980F701868D0F900FBE81111EC08081918149
S1132990892B49F40FB6F8940F92828193810E9497
S11329A0071A0F900FBE4E815F8168857985C60135
S11329B00E94FE18C7010E94BF120E94F1178111E4
S11329C073CF0E94921170CFC7010E94BF120E9460
S11329D0F1176ACFC7010E94BF120E94F11780E06D
S11329E02996CDBFDEBFDF91CF911F910F91FF904C
S11329F0EF90DF90CF90BF90AF9008950F931F9307
S1132A00CF93DF93FC01268D2223D9F08A01EC01B8
S1132A100E94A5128E8D81508E8F89A18F3F69F4FB
S1132A208885882381F0CE0108960E94281988237E
S1132A3061F081E0F801808309C08F5F89A381E0A0
S1132A4005C080E003C081E001C081E0DF91CF9147
S1132A501F910F9108950FB6F8940F92FC01868D83
S1132A600F900FBE0895FC01868D0895C6E1D3E34F
S1132A7088818230E8F30E949211FACFCF92DF92DC
S1132A80EF92FF926B017C01E0914233F09143336A
S1132A9062837383848395838091EA329091EB32CD
S1132AA0A091EC32B091ED32C816D906EA06FB06C5
S1132AB068F460914233709143338091FC32909179
S1132AC0FD326E5F7F4F0E946D1021C060914233D2
S1132AD0709143338091FE329091FF326E5F7F4F4D
S1132AE00E946D108091022090910320A0910420F7
S1132AF0B0910520C816D906EA06FB0640F4C09238
S1132B000220D0920320E0920420F0920520FF904E
S1132B10EF90DF90CF9008954F925F926F927F92E3
S1132B208F929F92AF92BF92CF92DF92EF92FF92D9
S1132B300F931F93CF93DF935C014B013A0129015B
S1132B4088E290E00E945F0FEC01892B09F4D4C065
S1132B50C114D10409F0CCC0C3010E945F0F8B8F54
S1132B609C8F009721F4CE010E94F90FC5C0A301E8
S1132B7061E170E00E94D8279301215031098B8DC7
S1132B809C8D3C01620E731E4AE050E0B401CE01FC
S1132B904D960E94DF271EA2102F043008F013E088
S1132BA01A8F1FA36E0122E0C20ED11CC6010E941F
S1132BB04210CE010E960E944210CA87DB8784E041
S1132BC090E0A0E0B0E0811B9109A109B1098E87D2
S1132BD09F87A88BB98BCE8BDF8BA201B501C30174
S1132BE00E94DE1088839983E114F10419F0F7013F
S1132BF0C083D1830FB6F8940F928091EE328F5F29
S1132C008093EE328091423390914333892B89F53E
S1132C10C0934233D09343338091EE328130C1F577
S1132C2086E193E30E94311081E293E30E94311024
S1132C308CE293E30E94311087E393E30E94311006
S1132C408BE093E30E94311080E093E30E94311003
S1132C5081EF92E30E9431108BE093E38093FE3284
S1132C609093FF3280E093E38093FC329093FD32A3
S1132C700FC08091E73281110BC0E0914233F09193
S1132C804333828D081720F0C0934233D0934333EB
S1132C908A8D9091E932981710F48093E9329091DB
S1132CA0E2329F5F9093E2329091E832981710F4E9
S1132CB08093E832FBE08F9FC0011124B6018A5E45
S1132CC09C4C0E9446100F900FBE8091E7328823DF
S1132CD059F0E0914233F0914333828D801730F400
S1132CE00E94921181E009C081E007C081E005C023
S1132CF0CB8EDC8EC6013BCF8FEFDF91CF911F913E
S1132D000F91FF90EF90DF90CF90BF90AF909F9086
S1132D108F907F906F905F904F9008950FB6F894C6
S1132D200F92009721F480914233909143330F9096
S1132D300FBEFC01828D0895AF92BF92CF92DF92B5
S1132D40EF92FF920F93A12CB12CC12CD12C0F2EFA
S1132D50FFEEEF2EF2E3FF2EF02D00E020E030E056
S1132D6044E650E067E272E286E395E10E948C1546
S1132D70813069F4F8948093E7321092EA32109229
S1132D80EB321092EC321092ED320E9454110F91FA
S1132D90FF90EF90DF90CF90BF90AF900895809117
S1132DA0E6328F5F8093E63208950FB6F8940F925F
S1132DB06091EA327091EB328091EC329091ED3275
S1132DC00F900FBE0895009721F4809142339091A3
S1132DD043334D9608958091EF329091F0320895E7
S1132DE0FF920F931F93CF93DF938091E63281116B
S1132DF0EDC08091EA329091EB32A091EC32B09127
S1132E00ED320196A11DB11D8093EA329093EB320D
S1132E10A093EC32B093ED328091EA329091EB3290
S1132E20A091EC32B091ED32892B8A2B8B2BF1F5EA
S1132E308091FE329091FF322091FC323091FD322C
S1132E402093FE323093FF328093FC329093FD3214
S1132E508091E3328F5F8093E332E091FE32F09110
S1132E60FF32808181110CC08FEF9FEFDC018093D2
S1132E70022090930320A0930420B093052016C051
S1132E80E091FE32F091FF320780F085E02D00845E
S1132E90F185E02D82819381A481B5818093022004
S1132EA090930320A0930420B09305204091EA322C
S1132EB05091EB326091EC327091ED3280910220AE
S1132EC090910320A0910420B09105204817590740
S1132ED06A077B0708F47FC0E091FE32F091FF326D
S1132EE080818823F9F0E091FE32F091FF3207806F
S1132EF0F085E02DC085D1858A819B81AC81BD811F
S1132F004091EA325091EB326091EC327091ED32A3
S1132F10481759076A077B0758F10F2EFBE0FF2E6D
S1132F20F02D2FC08FEF9FEFDC0180930220909350
S1132F300320A0930420B09305204DC0E091FE32FD
S1132F40F091FF320780F085E02DC085D1858A811C
S1132F509B81AC81BD814091EA325091EB3260910A
S1132F60EC327091ED32481759076A077B0748F431
S1132F708093022090930320A0930420B093052013
S1132F802AC08E010E5F1F4FC8010E94B810888DA1
S1132F90998D892B21F0CE010E960E94B8108A8D4E
S1132FA09091E832981710F48093E832F89EC001AB
S1132FB01124B8018A5E9C4C0E944610E091FE32B6
S1132FC0F091FF3280818111B9CFACCF8091E5328D
S1132FD08F5F8093E532DF91CF911F910F91FF9026
S1132FE00895CF92DF92EF92FF920F931F93CF93A6
S1132FF0DF930FB6F8940F928091E632815080935C
S1133000E6328091E632811160C08091EE32811106
S11330102CC05EC0D7011796ED91FC911897C0851E
S1133020D185CE010E960E94B8108E010E5F1F4FFF
S1133030C8010E94B8108A8D9091E832981710F454
S11330408093E832D89EC0011124B8018A5E9C4C5A
S11330500E944610E0914233F09143339A8D828D61
S1133060981770F0CC24C3940BC0C12C0F2EF1EF31
S1133070EF2EF2E3FF2EF02D0F2EFBE0DF2EF02DCE
S1133080F70180818111C6CF8091E532882381F0D8
S11330908091E532882399F00E94F0168091E53200
S11330A081508093E5328091E5328111F5CF07C0DC
S11330B0F1E0CF1621F08091E432813041F4109296
S11330C0E4320E94921181E003C080E001C080E0FC
S11330D00F900FBEDF91CF911F910F91FF90EF9052
S11330E0DF90CF900895CF92DF92EF92FF926B0121
S11330F07C01672B682B692BE9F00E94CF16809125
S1133100EA329091EB32A091EC32B091ED32C80EDC
S1133110D91EEA1EFB1E80914233909143330296DE
S11331200E94B810C701B6010E943E150E94F11713
S1133130811102C00E949211FF90EF90DF90CF9016
S113314008958091E63281110CC0E091E8324BE0A1
S1133150E49FF0011124EA5EFC4C8081882329F06D
S113316014C081E08093E43208959BE08091E832BA
S113317081508093E832E091E8329E9FF00111245F
S1133180EA5EFC4C8081882389F38091E832282F01
S113319030E04BE0849FC0011124DC01AA5EBC4CEA
S11331A01196ED91FC9112970480F581E02D119612
S11331B0ED93FC931297875E9C4CE817F90761F432
S11331C0848195814BE0429FF001439FF00D1124CF
S11331D0EA5EFC4C818392838BE0829FF001839FA3
S11331E0F00D1124EA5EFC4C0180F281E02D808513
S11331F0918580934233909343330895CF92DF9225
S1133200EF92FF926A017B016091423370914333E4
S1133210625F7F4F0E946D108091423390914333DF
S113322002960E94B8108091EA329091EB32A091FC
S1133230EC32B091ED32BC01CD016C0D7D1D8E1DC3
S11332409F1D0E943E15FF90EF90DF90CF90089550
S11332500F931F93CF93DF93DC011796ED91FC91AD
S11332601897C085D1858E01025F1F4FC8010E9447
S1133270B8108091E632811116C00C501109C801B2
S11332800E94B8108A8D9091E832981710F48093B8
S1133290E832BBE08B9FC0011124B8018A5E9C4CCC
S11332A00E94461005C0B80181EF92E30E944610C7
S11332B0E0914233F091433381E02A8D928D2917B6
S11332C008F480E0DF91CF911F910F910895209130
S11332D0E332FC0120834091EA325091EB32609159
S11332E0EC327091ED324183528363837483089589
S11332F08F929F92AF92BF92CF92DF92EF92FF9202
S11333000F931F93CF93DF93FC010FB6F8940F92A2
S11333108091E3329081981789F08091EA329091FC
S1133320EB32A091EC32B091ED3201811281238114
S1133330348180179107A207B307A8F58091EA3278
S11333409091EB32A091EC32B091ED32C180D280F9
S1133350E380F480EB01088119812A813B818C1977
S11333609D09AE09BF0980179107A207B307E8F4C6
S1133370CF018090EA329090EB32A090EC32B09082
S1133380ED32B501A4014C195D096E097F09041BD6
S1133390150B260B370B088319832A833B830E9462
S11333A0671980E003C081E001C081E00F900FBE87
S11333B0DF91CF911F910F91FF90EF90DF90CF900D
S11333C0BF90AF909F908F90089581E08093E432F6
S11333D00895009721F48091423390914333DC01A6
S11333E05B96ED91FC915C978081813141F431963B
S11333F080E090E0019621912131E1F3089580E08D
S113340090E00895809142339091433308950F934F
S11334101F93CF93DF93FC01228DA0914233B0918F
S113342043335A968C91281708F041C0A091423337
S1133430B09143335A963C9184E090E0A0E0B0E030
S1133440831B9109A109B10986879787A08BB18B4A
S11334508BE0289F900111242A5E3C4C848595853D
S113346082179307E9F48F01EF012296CE010E949F
S1133470B810E0914233F0914333828DF801828F8A
S11334809091E832981710F48093E832FBE08F9F14
S1133490C0011124BE018A5E9C4C0E94461007C0E4
S11334A0A0914233B09143335A968C91828FDF912D
S11334B0CF911F910F9108950F931F93CF93DF9393
S11334C0009749F1FC01328D27A1321721F1EC015B
S11334D08C010E5F1F4FC8010E94B8108FA18A8F04
S11334E044E050E060E070E0481B51096109710953
S11334F04E875F87688B798B9091E832981710F428
S11335008093E832FBE08F9FC0011124B8018A5EEA
S11335109C4C0E944610DF91CF911F910F9108950A
S1133520EC01E881F9810190F081E02D19951A826E
S11335301B826FEF7FEFCB010E947318FACFFC015F
S11335406487658708954F925F926F927F928F92FE
S11335509F92AF92BF92CF92DF92EF92FF920F931E
S11335601F93CF93DF93CDB7DEB72A97CDBFDEBFCE
S11335704C012901380180E392E2F40180839183B4
S1133580FB018081882369F0DE011196319690E079
S113359002C0993039F09F5F8D9381918111F9CFE9
S11335A001C090E0E1E0F0E0EC0FFD1FE90FF11D38
S11335B010827401F2E0EF0EF11CA12CB12CC12C8D
S11335C0D12C042F9401A201BE016F5F7F4F88E3C9
S11335D093E00E948C15F4016682778240865186BE
S11335E0209144333091453324833583809244338E
S11335F090924533148615864090A6335090A73395
S1133600FFEF4F1A5F0A4092A6335092A733F4019A
S11336104286538616861786108A118A61147104AD
S113362009F444C0813079F56AE0C3010E9408209E
S11336307C016DEB75E00E94D11FBE016F5F7F4F6F
S1133640C7010E94D11F6AE0C7010E9408207C01C3
S113365064EB75E00E94D11F6AE0C7010E94082054
S11336607C0166EA75E00E94D11F63E0C7010E94F5
S11336700820B2010E948C2062E00E94082066E0CB
S11336800E94082013C06AE0C3010E9408204C0174
S113369061E975E00E94D11FBE016F5F7F4FC401D5
S11336A00E94D11F66E0C4010E9408202A96CDBF63
S11336B0DEBFDF91CF911F910F91FF90EF90DF90CC
S11336C0CF90BF90AF909F908F907F906F905F90BE
S11336D04F900895CF92DF92EF92FF920F931F9332
S11336E0CF93DF93EC017B018A819B810E94E316D7
S11336F06C016AE0C7010E9408208C0160ED75E04E
S11337000E94D11F6AE0C8010E9408208C0169EC64
S113371075E00E94D11FB601C8010E94D11F6AE062
S1133720C8010E9408208C0163EC75E00E94D11F3F
S113373066E0C8010E9408208A859B85E885F98592
S113374001E121E0A701BC018E1B9F0B0E946C1EAE
S11337508C819D81009719F0B7010E946A1BDF914B
S1133760CF911F910F91FF90EF90DF90CF9008952C
S11337700F931F93CF93DF93EC0180914433909187
S11337804533009719F0BE010E946A1B6AE0CE011E
S11337900E9408208C0166EE75E00E94D11F6AE049
S11337A0C8010E9408208C016BED75E00E94D11FB6
S11337B06AE0C8010E9408208C0165ED75E00E9452
S11337C0D11F66E0C8010E9408208091A633909121
S11337D0A733BC016F5F7F4F01E121E0AE01835647
S11337E091090E946C1EDF91CF911F910F91089552
S11337F08F929F92AF92BF92CF92DF92EF92FF92FD
S11338000F931F93CF93DF93EC018B018A819B81EC
S11338100E94E316BC01C8010E94D11FD801ED919A
S1133820FC910280F381E02D69E0C80119958A8139
S11338309B810E94E316FC0101900020E9F7319777
S1133840E81BF90B389748F4D801ED91FC910280FC
S1133850F381E02D69E0C8011995CE84DF84E888FE
S1133860F988A884B9848A819B810E94E919982ED9
S11338708C848A819B810E948E16682FC8010E94C5
S113388002216AE00E940820EC016BE576E00E94C8
S1133890D11F682DCE010E9402216AE00E940820F7
S11338A0EC0169E576E00E94D11F692DCE010E94EA
S11338B002216AE00E940820EC0167E576E00E949C
S11338C0D11FB501CE010E948C206AE00E9408201D
S11338D0EC0165E576E00E94D11F6AE0CE010E940A
S11338E00820EC0163E576E00E94D11FB701A60130
S11338F0CE010E94C020DF91CF911F910F91FF90C4
S1133900EF90DF90CF90BF90AF909F908F900895ED
S1133910CF93DF93EC01CB01DB01ED91FC910280AD
S1133920F381E02DBE011995CE01DF91CF91089569
S11339300F931F93CF93DF93EC018B01BC01C8015C
S11339400E94881C66E00E9408208C819D8100975B
S113395019F0B8010E94981CDF91CF911F910F912B
S113396008950F931F93CF93DF93EC016AE00E94B5
S113397008208C0168E476E00E94D11F6AE0C80147
S11339800E9408208C0161E476E00E94D11F66E069
S1133990C8010E9408206AE0CE010E9408208C0120
S11339A060E376E00E94D11F6AE0C8010E9408200B
S11339B08C0164E276E00E94D11F6AE0C8010E9493
S11339C008208C016EE176E00E94D11F66E0C801F8
S11339D00E9408206AE0CE010E9408208C016DE05C
S11339E076E00E94D11F6AE0C8010E9408208C0181
S11339F061E076E00E94D11F6AE0C8010E940820BD
S1133A008C016BEF75E00E94D11F66E0C8010E9433
S1133A1008208091443390914533009719F0BE01FA
S1133A200E94981C0E94EB160E94E919182F6AE064
S1133A30CE010E940820EC0160EF75E00E94D11FC6
S1133A40612FCE010E9402216AE00E940820EC014D
S1133A506EEE75E00E94D11F64E670E0CE010E9414
S1133A608C206AE00E940820EC016BEE75E00E9455
S1133A70D11F66E0CE010E940820DF91CF911F91F3
S1133A800F9108950F93CF93DF931F92CDB7DEB7B5
S1133A9000E02FEF3FEFA901BE016F5F7F4FFC01F4
S1133AA0808591850E943A14813019F4898190E0CF
S1133AB002C08FEF9FEF0F90DF91CF910F91089588
S1133AC0FC01808591850E942B1591E0811101C034
S1133AD090E0892F08950F93CF93DF931F92CDB772
S1133AE0DEB76983FC01228533854485558500E072
S1133AF0BE016F5F7F4F808591850E94731391E0B3
S1133B00811101C090E0892F0F90DF91CF910F9127
S1133B1008958F929F92BF92CF92DF92EF92FF927D
S1133B200F931F93CF93DF93EC01B62E4A016801E4
S1133B3079010E94C31F88E392E2888399838E8669
S1133B409F8640E061E08B2D0E944513888799870A
S1133B50CA86DB86EC86FD86DF91CF911F910F919B
S1133B60FF90EF90DF90CF90BF909F908F9008953B
S1133B70CF92DF92EF92FF92CF93DF93EC016881B3
S1133B8079818A819B810F2EF8EECF2EF3E0DF2E10
S1133B90E12CF12CF02DA70196010E946B279B01CB
S1133BA0AC0160E472E48FE090E00E945B27A7011F
S1133BB096010E946B2769017A01AC81BD8120E4E2
S1133BC032E44FE050E00E94B52720E038E448EEAC
S1133BD051E00E946B27C701B601620F731F841F57
S1133BE0951FDF91CF91FF90EF90DF90CF900895D4
S1133BF0CF92DF92EF92FF920F931F93CF93DF93B5
S1133C00CDB7DEB72F97CDBFDEBF6C018B01DB01D3
S1133C106D917D918D919C9128EE33E040E050E0D0
S1133C200E946B27BA01A901C6010E94C020D601D7
S1133C30ED91FC910280F381E02D6EE2C6011995AD
S1133C40C8010E94B81D8E01095F1F4FFE01319605
S1133C507F012AE030E040E050E00E948D27E62F0B
S1133C60288739874A875B87688579858A859B8514
S1133C7020E32E0FD8012E938D01AE15BF0549F711
S1133C801F82BE016F5F7F4FC6010E94D11FC60114
S1133C902F96CDBFDEBFDF91CF911F910F91FF9083
S1133CA0EF90DF90CF900895CF93DF93EC010FB6A0
S1133CB0F8940F9280912008909121088C839D8321
S1133CC00E94D516688379838A839B830F900FBEE5
S1133CD0CE01DF91CF9108955F926F927F928F9280
S1133CE09F92AF92BF92CF92DF92EF92FF920F9387
S1133CF01F93CF93DF935C014B017A01122F702E37
S1133D0063E0CA010E940820A814B90408F07DC029
S1133D10650184E1C80ED11C00E06A2C5B2CB5015E
S1133D20C7010E948C206AE00E9408206DE676E0BC
S1133D300E94D11F112309F46DC0002309F46AC045
S1133D406AE0C7010E94082068E676E00E94D11F5D
S1133D5061C0112371F001110CC08881871549F0ED
S1133D606AE0C7010E94082063E676E00E94D11F42
S1133D7001E06991C7010E940221DC01ED91FC91EF
S1133D800280F381E02D60E21995CC16DD0609F777
S1133D90112389F06AE0C7010E940820EC016DE557
S1133DA076E00E94D11FE881F9810280F381E02D41
S1133DB060E2CE011995C62DD52D699180EE860F4E
S1133DC08F3548F4D701ED91FC910280F381E02D09
S1133DD0C701199509C0D701ED91FC910280F381C7
S1133DE0E02D6EE2C7011995CC16DD0631F7B4E17A
S1133DF0AB0EB11C66E0C7010E94082084E1C80E26
S1133E00D11CA814B90408F488CF62E0C7010E9449
S1133E10082003C0C62DD52D9CCFDF91CF911F91D3
S1133E200F91FF90EF90DF90CF90BF90AF909F9055
S1133E308F907F906F905F9008950E945F0F089518
S1133E400E945F0F08950895CF93DF93FC01DA0178
S1133E50403A68E0560749F480E496E0828393830D
S1133E6082E0848383E0858332C0403B78E0570757
S1133E7049F480E496E08283938386E0848387E038
S1133E80858325C0403A89E0580749F480E696E0E6
S1133E908283938382E0848383E0858318C0403BDC
S1133EA069E0560749F480E696E08283938386E0CE
S1133EB0848387E085830BC0403A5A4041F480E80C
S1133EC096E08283938382E0848383E08583A68360
S1133ED0B783CD0101968087918703968287938764
S1133EE02581C281D3814C8181E090E0BC0102C074
S1133EF0660F771F2A95E2F79B01242B2C832581DB
S1133F00C281D3814881BC0102C0660F771F2A9504
S1133F10E2F79B01242B28833481C281D381288139
S1133F2002C0880F991F3A95E2F7809590958223F5
S1133F30888380E113968C93139783E015968C9372
S1133F40159780EF17968C93179781E216968C93AA
S1133F50169788E114968C9380E8858780E4868799
S1133F6080E284870680F781E02D80818081DF9163
S1133F70CF91089581E0089580E090E0089580E075
S1133F80089508950895FC0188E492E28083918362
S1133F908AE08283138283E08583148216821782E7
S1133FA008950F931F93CF93DF938C01FB01DC01E2
S1133FB014968C91811104C06081611117C023C0D3
S1133FC0D80114961C92EB01219664916623D9F0D2
S1133FD0D801ED91FC910280F381E02DC80119957F
S1133FE0FE01649121966111F3CF0DC0EF0121967A
S1133FF0D801ED91FC910280F381E02DC80119955F
S113400069916111F5CFDF91CF911F910F910895BF
S1134010CF93DF93EC01862F90E08B309105D8F598
S1134020FC018827E250FF4F8F4F0C94AC2782E0AD
S11340308A8331C088E08A832EC08AE08A832BC0B9
S113404080E18A8328C081E08B8325C01B8223C042
S1134050E881F9810280F381E02D6DE0CE011995AC
S1134060E881F9810280F381E02D6AE0CE0119959F
S113407012C0E881F9810284F385E02DCE011995FF
S11340800AC0E881F9810084F185E02DCE011995FB
S113409002C081E08C83CE01DF91CF910895CF934C
S11340A0DF93EC01662341F0E881F9810280F3811A
S11340B0E02D64E5199507C0E881F9810280F38158
S11340C0E02D66E41995CE01DF91CF9108950F9309
S11340D01F93CF93DF93EC018B01E881F981028078
S11340E0F381E02D6BE5199563E0CE010E94082071
S11340F0B8010E948C2062E00E940820E881F981C6
S11341000280F381E02D6DE5CE011995CE01DF919A
S1134110CF911F910F910895FF920F931F93CF9307
S1134120DF93CDB7DEB76197CDBFDEBF8C01F62E2E
S1134130972FF8014281403121F0483011F042308C
S113414041F4692FC8010E9402216F2D0E940221AF
S11341500DC050E0BE016F5F7F4F8F2D0E941B2862
S1134160BE016F5F7F4FC8010E94D11FC8016196D5
S1134170CDBFDEBFDF91CF911F910F91FF900895C6
S1134180DF92EF92FF920F931F93CF93DF93CDB7FC
S1134190DEB7A197CDBFDEBF8C01D42EE52EF62E5F
S11341A0972FF8012281203121F0283011F022309C
S11341B071F4692FC8010E9402216F2D0E9402210F
S11341C06E2D0E9402216D2D0E9402210FC030E04D
S11341D0AE014F5F5F4F6D2D7E2D8F2D0E94EE2718
S11341E0BE016F5F7F4FC8010E94D11FC801A19615
S11341F0CDBFDEBFDF91CF911F910F91FF90EF9064
S1134200DF900895CF92DF92EF92FF920F931F9366
S1134210CF93DF93CDB7DEB72997CDBFDEBF8C0137
S1134220E62EDC0113968C911397882341F0ED91CF
S1134230FC910280F381E02DC801199556C0F80164
S11342404281423019F56894CC24C3F8D12C689487
S1134250FF24F7F88E2D8F2151F0D801ED91FC91B8
S11342600280F381E02D61E3C801199509C0D801EA
S1134270ED91FC910280F381E02D60E3C801199572
S1134280F694B1E0CB1AD10829F72FC04031F9F4E4
S113429062956F700190F081E02D0280F381E02D32
S11342A06A3010F0695C01C0605DC80119956E2D1B
S11342B06F70D801ED91FC910280F381E02D6A309A
S11342C010F0695C01C0605DC80119950EC050E032
S11342D0BE016F5F7F4F8E2D90E00E941B28BE01B0
S11342E06F5F7F4FC8010E94D11FC8012996CDBFBF
S11342F0DEBFDF91CF911F910F91FF90EF90DF9080
S1134300CF900895DC015096ED91FC9151978081F6
S113431054964C915497842329F009C021503109B3
S113432019F412C021E23EE490819423B9F3908100
S113433056968C915697892B80831E96ED91FC910D
S11343401F97608381E0089580E00895CF93DF9301
S1134350FC01C18DD28D28813981A38DB48D4D91FD
S11343605C9124173507E9F3A789B08D0D90BC91B2
S1134370A02DA20FB31F8C912F5F3F4F2883398349
S11343802436310528F0018CF28DE02D1082118243
S113439090E0DF91CF910895CF93DF93EC01A98D45
S11343A0BA8DEB8DFC8D81E04D915C912081318142
S11343B04217530709F480E0DF91CF910895DC019F
S11343C0ED91FC910280F381E02D6CE01995089544
S11343D0EF92FF920F931F93CF93DF93EC017B0136
S11343E08A010E94C31FA801B701CE0108960E944A
S11343F0241F88E592E288839983003A88E01807AD
S113440069F482E693E38F8B988F88E593E3898F31
S11344109A8F8EE493E38B8F9C8F42C0003BE8E03D
S11344201E0769F480E693E38F8B988F86E593E308
S1134430898F9A8F8CE493E38B8F9C8F31C0003AE1
S1134440F9E01F0769F48EE593E38F8B988F84E579
S113445093E3898F9A8F8AE493E38B8F9C8F20C098
S1134460003B89E0180769F48CE593E38F8B988F00
S113447082E593E3898F9A8F88E493E38B8F9C8FF3
S11344800FC0003A1A4061F48AE593E38F8B988F4A
S113449080E593E3898F9A8F86E493E38B8F9C8FD7
S11344A00F89188D84E690E00E94201FF801808314
S11344B09183E98DFA8D10821182EB8DFC8D10822F
S11344C01182DF91CF911F910F91FF90EF9008958A
S11344D01F920F920FB60F92112408B60F9218BEB6
S11344E00BB60F921BBE2F933F938F939F93EF9323
S11344F0FF932091A008E0916233F091633380919F
S11345004E3390914F33E80FF91F208380914E333F
S113451090914F3301968436910560F480934E3325
S113452090934F3320915833309159338217930726
S1134530F1F40CC010924E3310924F3380915833E3
S1134540909159331816190691F40EC001968436C9
S1134550910528F4809358339093593308C01092EE
S113456058331092593303C081E090E0F3CFFF91A8
S1134570EF919F918F913F912F910F900BBE0F90D0
S113458008BE0F900FBE0F901F9018951F920F92A8
S11345900FB60F92112408B60F9218BE0BB60F92E5
S11345A01BBE2F933F938F939F93EF93FF93209181
S11345B0B008E0916033F091613380914C33909175
S11345C04D33E80FF91F208380914C3390914D3384
S11345D001968436910560F480934C3390934D3367
S11345E0209156333091573382179307F1F40CC05E
S11345F010924C3310924D3380915633909157332F
S11346001816190691F40EC001968436910528F403
S1134610809356339093573308C0109256331092B8
S1134620573303C081E090E0F3CFFF91EF919F9166
S11346308F913F912F910F900BBE0F9008BE0F905A
S11346400FBE0F901F9018951F920F920FB60F92E6
S1134650112408B60F9218BE0BB60F921BBE2F93EF
S11346603F938F939F93EF93FF932091A009E09141
S11346705E33F0915F3380914E3390914F33E80F66
S1134680F91F208380914A3390914B3301968436ED
S1134690910560F480934A3390934B3320915433C3
S11346A03091553382179307F1F40CC010924A33BA
S11346B010924B3380915433909155331816190648
S11346C091F40EC001968436910528F480935433F6
S11346D09093553308C0109254331092553303C04D
S11346E081E090E0F3CFFF91EF919F918F913F9103
S11346F02F910F900BBE0F9008BE0F900FBE0F901E
S11347001F9018951F920F920FB60F92112408B69E
S11347100F9218BE0BB60F921BBE2F933F938F932D
S11347209F93EF93FF932091B009E0915C33F09154
S11347305D338091483390914933E80FF91F20830A
S1134740809148339091493301968436910560F401
S113475080934833909349332091523330915333AB
S113476082179307F1F40CC0109248331092493326
S113477080915233909153331816190691F40EC058
S113478001968436910528F48093523390935333E1
S113479008C0109252331092533303C081E090E06A
S11347A0F3CFFF91EF919F918F913F912F910F90B4
S11347B00BBE0F9008BE0F900FBE0F901F90189560
S11347C01F920F920FB60F92112408B60F9218BEC3
S11347D00BB60F921BBE2F933F938F939F93EF9330
S11347E0FF932091A00AE0915A33F0915B338091BA
S11347F0463390914733E80FF91F20838091463365
S11348009091473301968436910560F48093463342
S1134810909347332091503330915133821793074B
S1134820F1F40CC010924633109247338091503308
S1134830909151331816190691F40EC001968436DE
S1134840910528F4809350339093513308C010920B
S113485050331092513303C081E090E0F3CFFF91C5
S1134860EF919F918F913F912F910F900BBE0F90DD
S113487008BE0F900FBE0F901F901895FC01848105
S113488095810E94331590E00895FC0184819581FF
S11348900E94331591E0811101C090E0892F0895A1
S11348A0FC01848195810E94331591E0811190E08F
S11348B0892F0895FC01848195810E94331590E02D
S11348C00895FC01848195810E94331591E0811142
S11348D001C090E0892F0895FC01848195810E9494
S11348E0331591E0811190E0892F0895FC018481B2
S11348F095810E942B1590E00895FC018481958197
S11349000E942B1591E0811101C090E0892F089538
S1134910FC01848195810E942B1591E0811190E026
S1134920892F0895FC01848195810E942B1590E0C4
S11349300895FC01848195810E942B1591E08111D9
S113494001C090E0892F0895FC01848195810E9423
S11349502B1591E0811190E0892F08950F9301E0C8
S11349602FEF3FEFA901FC01848195810E943A1445
S11349700F9108950F93CF93DF931F921F92CDB79A
S1134980DEB701E02FEF3FEFA901BE016F5F7F4F5C
S1134990FC01848195810E943A1489819A810F9047
S11349A00F90DF91CF910F9108950F9300E02FEFB7
S11349B03FEFA901FC01848195810E943A140F9173
S11349C008950F93CF93DF931F921F92CDB7DEB755
S11349D000E02FEF3FEFA901BE016F5F7F4FFC01A5
S11349E0848195810E943A1489819A810F900F9055
S11349F0DF91CF910F9108950F9301E02FEF3FEFD7
S1134A00A901FC01848195810E943A140F910895B3
S1134A100F93CF93DF931F921F92CDB7DEB701E0C0
S1134A202FEF3FEFA901BE016F5F7F4FFC0184812F
S1134A3095810E943A1489819A810F900F90DF9199
S1134A40CF910F9108950F9300E02FEF3FEFA9014D
S1134A50FC01848195810E943A140F9108950F936B
S1134A60CF93DF931F921F92CDB7DEB700E02FEFF5
S1134A703FEFA901BE016F5F7F4FFC0184819581E7
S1134A800E943A1489819A810F900F90DF91CF91FF
S1134A900F910895CF93DF931F92CDB7DEB7AE0188
S1134AA04F5F5F4FFC01848195810E94FE140F903B
S1134AB0DF91CF910895CF93DF9300D0CDB7DEB7C8
S1134AC0AE014D5F5F4FBE016F5F7F4FFC0184817C
S1134AD095810E94FE1489819A812396CDBFDEBF01
S1134AE0DF91CF910895CF93DF931F92CDB7DEB7B7
S1134AF0AE014F5F5F4FFC01848195810E94FE14DB
S1134B000F90DF91CF910895CF93DF9300D0CDB76D
S1134B10DEB7AE014D5F5F4FBE016F5F7F4FFC019B
S1134B20848195810E94FE1489819A812396CDBF48
S1134B30DEBFDF91CF910895CF93DF931F92CDB75E
S1134B40DEB7198221E0AE014F5F5F4FFC01848123
S1134B5095810E940E1491E0811101C090E0892F8B
S1134B600F90DF91CF910895CF93DF931F92CDB72C
S1134B70DEB7198220E0AE014F5F5F4FFC018481F4
S1134B8095810E940E1491E0811101C090E0892F5B
S1134B900F90DF91CF910895CF93DF931F92CDB7FC
S1134BA0DEB7198221E0AE014F5F5F4FFC018481C3
S1134BB095810E940E1491E0811101C090E0892F2B
S1134BC00F90DF91CF910895CF93DF931F92CDB7CC
S1134BD0DEB7198220E0AE014F5F5F4FFC01848194
S1134BE095810E940E1491E0811101C090E0892FFB
S1134BF00F90DF91CF9108950F93FC0126813781A7
S1134C004085518501E0848195810E94731391E070
S1134C10811101C090E0892F0F9108950F93FC0139
S1134C20268137814085518500E0848195810E94E9
S1134C30731391E0811101C090E0892F0F910895C1
S1134C400F93FC01268137814085518501E08481E1
S1134C5095810E94731391E0811101C090E0892F26
S1134C600F9108950F93FC0126813781408551856A
S1134C7000E0848195810E94731391E0811101C049
S1134C8090E0892F0F9108950F93CF93DF931F9294
S1134C90CDB7DEB72FB72983F8941BBEFC0108ED0E
S1134CA004BF608389818FBF0F90DF91CF910F91F3
S1134CB00895EF92FF920F931F93CF93DF93CDB795
S1134CC0DEB7C754D109CDBFDEBFF894E0E5F0E00C
S1134CD0808182608083818181FFFDCF609140006B
S1134CE0687F616080E490E00E944426E0E5F0E0A3
S1134CF080818E7F80839DEF88ED08B618BE84BFC7
S1134D009093800008BE40EA5AE060E070E0CE0173
S1134D1001960E94E82167E0CE0101960E940820D6
S1134D208C0164E672E20E94D11F66E0C8010E9411
S1134D30082066E00E9408208E010F5F1F4F20E3C9
S1134D4032EF40E050E060EA74E0CE014E960E94FB
S1134D509109A801BE01625E7F4FCE01C7960E94F1
S1134D604E0B82E190E00E941D1F20E830E040E0FD
S1134D7063E872E20E94EF0C88E190E00E941D1F3C
S1134D809E01295C3F4F790120E830E042E06BE866
S1134D9072E20E94D20C87E08093A20078940E9471
S1134DA09C1680E090E0C95BDF4FCDBFDEBFDF9192
S1134DB0CF911F910F91FF90EF900895CF92DF92C2
S1134DC0EF92FF920F931F93CF93DF930AE010E0CB
S1134DD020E030E040E050E060E270E086E993E3F8
S1134DE00E94891DCCE8D3E31A821B8285E992E2F2
S1134DF08883998340E062E08FEF0E9445138C839F
S1134E009D830F2EFAE0CF2ED12CE12CF12CF02D26
S1134E10CE82DF82E886F986C2E8D3E31A821B8257
S1134E2009EB12E20883198340E062E08FEF0E94ED
S1134E3045138C839D83CE82DF82E886F986C8E79A
S1134E40D3E31A821B820883198340E062E08FEF68
S1134E500E9445138C839D83CE82DF82E886F98687
S1134E60CEE6D3E31A821B820883198340E062E012
S1134E708FEF0E9445138C839D83CE82DF82E88668
S1134E80F986C4E6D3E31A821B820883198340E0BF
S1134E9062E08FEF0E9445138C839D83CE82DF8274
S1134EA0E886F986DF91CF911F910F91FF90EF90E3
S1134EB0DF90CF900895DB018F939F930E94B527D5
S1134EC0BF91AF91A29F800D911DA39F900DB29FA2
S1134ED0900D11240895A1E21A2EAA1BBB1BFD01FB
S1134EE00DC0AA1FBB1FEE1FFF1FA217B307E407C5
S1134EF0F50720F0A21BB30BE40BF50B661F771F1D
S1134F00881F991F1A9469F76095709580959095FC
S1134F109B01AC01BD01CF010895052E97FB1EF442
S1134F2000940E94A42757FD07D00E946B2707FC1A
S1134F3003D04EF40C94A4275095409530952195B8
S1134F403F4F4F4F5F4F08959095809570956195B1
S1134F507F4F8F4F9F4F0895EE0FFF1F881F8BBF0A
S1134F600790F691E02D1BBE19940E94C027A59FBF
S1134F70900DB49F900DA49F800D911D1124089550
S1134F80A29FB001B39FC001A39F700D811D112486
S1134F90911DB29F700D811D1124911D0895FB0177
S1134FA0DC0102C001900D9241505040D8F70895A1
S1134FB0DC0101C06D9341505040E0F70895FB01BE
S1134FC0DC014150504048F001900D920020C9F797
S1134FD001C01D9241505040E0F70895253231053B
S1134FE020F4223010F00C94F927FA011082CA013F
S1134FF00895BB27FA01A62F621771058105910553
S1135000330B30FB66F0AA27660F771F881F991FA2
S1135010AA1FA21710F0A21B63953850A9F7A05D30
S1135020AA3308F0A95DA19336F7B111B1931082A8
S1135030CA010C9440284532510520F4423010F046
S11350400C942628FB011082CB010895BB27FB0199
S11350505527AA27880F991FAA1FA41710F0A41B6D
S113506083955051B9F7A05DAA3308F0A95DA193C7
S1135070009779F7B111B1931192CB010C944028A8
S1135080DC01FC01672F71917723E1F7329704C0AB
S11350907C916D9370836291AE17BF07C8F3089536
S10750A0F894FFCFAE
S11350A4FF0FFFFFFFFF7472616E730000000000C6
S11350B47E03AB03D603730308047420737461740E
S11350C47573007220737461747573007420707343
S11350D47461747573006572726F7200646F6E65C7
S11350E40072207061636B65740074207061636B7B
S11350F4657400722065786368616E676500742066
S113510465786368616E67650073746172740054D2
S1135114205374617475733A20005220537461747B
S113512475733A2000542065786368616E6765205E
S1135134646174613A20005265636569766564202C
S1135144627974653A2000722070737461747573A3
S11351540073746F7000636F6E74696E75650053C9
S11351647461727420737461746520736572696107
S11351746C207074723A20007472616E7320636FD1
S11351846E7374727563746F722069326320707401
S1135194723A20007472616E7320636F6E7374725A
S11351A47563746F72206765742073657269616CCA
S11351B43A2000446574656374656420693263202D
S11351C4616464723A200069326320636F6E73749D
S11351D4727563746F7220746869733A200069325B
S11351E4632073657269616C207074723A2000499B
S11351F432434D61737465722063726561746564CE
S11352040000000000C2086805000000001D047DC1
S113521405000000006E049B0500000000B905535E
S11352240500000000FC053E0500000000BF042941
S113523405000000003B061405000000001504FFEF
S113524404000000001904EA0400000000080BDE56
S11352540AF60AC60A860A7A0AAF0A9E0A620A5635
S11352640A4C0A300A410A250A3A0A1E0A000000B6
S113527400080BDE0AF60AC60A860A7A0AAF0A9EF0
S11352840A620A560A4C0A300A410A250A3A0A1ED4
S11352940A00000000231F231F231F231F231F00B2
S11352A40000001A0B00000000270B00000000346B
S11352B40B00000000410B00000000900CF81B00E0
S11352C4000000320EF81B49444C45000000000065
S11352D4231FF81B00000000BA1F6B1D601D421D34
S11352E4C11FC21F00000000BA1F231FBF1FBC1F21
S11352F4C11FC21F00000000BA1F8221CC21A621B5
S1135304C11FDF214672656552544F5320586D65A1
S113531467612054657374696E672050726F677295
S1135324616D0055736572496E7400536F6E6172DA
S113533400000000000E26B425FC259C25E124D59C
S1135344245B254A25BA24AE24882450247D24458C
S11353542476243E24000000003226E4252026CCB2
S1135364252F252325842573250825FC24A4246CB2
S10D5374249924612492245A240091
S9030000FC
