:100000000C9439030C946F030C946F030C946F03DE
:100010000C946F030C946F030C946F030C946F0398
:100020000C946F030C946F030C946F030C946F0388
:100030000C946F030C946F030C946F030C946F0378
:100040000C946F030C946F030C946F030C946F0368
:100050000C946F030C946F030C94B5110C946F0304
:100060000C946F030C948A210C946F030C946F030F
:100070000C94E8210C946F030C946F030C946F03A1
:100080000C946F030C946F030C946F030C946F0328
:100090000C946F030C946F030C946F030C946F0318
:1000A0000C946F030C946F030C946F030C946F0308
:1000B0000C946F030C946F030C946F030C946F03F8
:1000C0000C946F030C946F030C946F030C946F03E8
:1000D0000C946F030C946F030C946F030C946F03D8
:1000E0000C946F030C946F030C9402230C946F0315
:1000F0000C946F030C946F030C946F030C946F03B8
:100100000C946F030C946F030C946F030C946F03A7
:100110000C946F030C946F030C946F030C946F0397
:100120000C946F030C946F030C946F030C946F0387
:100130000C946F030C946F030C946F030C946F0377
:100140000C946F030C946F030C946F030C946F0367
:100150000C946F030C946F030C946F030C946F0357
:100160000C9446220C946F030C946F030C94A422FD
:100170000C946F030C946F030C946F030C946F0337
:100180000C946F030C946F030C946F030C946F0327
:100190000C946F030C946F030C946F030C946F0317
:1001A0000C946F030C946F030C946F030C946F0307
:1001B0000C946F030C946F030C946F030C946F03F7
:1001C0000C946F030C946F030C946F030C946F03E7
:1001D0000C946F030C946F030C946F030C946F03D7
:1001E0000C946F030C946F030C946F030C946F03C7
:1001F0000C946F030C946F030C946F03761F791F9C
:100200007C1F7F1F821F851F871F981FA01FAA1F8B
:10021000A81F0C942A240C94EE200C94BE240C9459
:1002200072230C94CA1C0C94201F0C94D6240C949A
:10023000DC230C94D1080C94AA1F0C94A01F0C94DE
:100240005F050C941E250C946C240C94A11C0C943A
:100250001E240C94A81F0C9451240C9401210C947E
:100260009F230C94211F0C94F7230C94D2050C941B
:1002700009260C94260A0C947F080C946D080C94A3
:1002800074050C94A6240C94791F0C9492050C947C
:10029000C8200C9406250C9444080C946F040C940C
:1002A0007C1F0C94AA230C947C230C94851F0C9423
:1002B0009F040C9430250C94E20B0C94EE030C94E8
:1002C0001B1F0C9411090C94910D0C9491030C9428
:1002D00074080C94871F0C9463080C9403240C94EA
:1002E000C6230C94571B0C9498230C9495240C94BF
:1002F000761F0C9435040C940B050C9460230C941D
:1003000045240C9421080C94C5040C9467230C9488
:10031000BF1C0C947F1F0C94B9080C940C0A0C940D
:10032000BC030C947D240C94190A0C94981F0C9413
:1003300035050C94821F0C94B4230C9436030C9452
:10034000FB030C94DA040C9495140C94BB230C94CA
:1003500095080C94D0230C941E1F0C9442250C94E9
:1003600051080C94B0050C9471030C9483230C94E5
:1003700020050C94EE240C94821E0C94E1040C9441
:10038000F9080C94AD080C94F6040C944A050C94EE
:1003900054250C9458080C9429090C94ED090C94DC
:1003A00089080C948E230C94A4200C94E2080C94DD
:1003B0003B090C947C030C94191F2C2054434330AC
:1003C0004343413D002F002C204865617020667238
:1003D00065653A200054696D653A20004E6F7620BD
:1003E00032332032303138004D45343035206261AF
:1003F000736520726164696F2070726F6772616DDE
:100400002056302E34200020202020683A20202042
:1004100048414C50210020202020653A20202045D2
:1004200078697420636F6D6D616E64206D6F6465B3
:100430000020202020733A202020537461636B2019
:1004400064756D7020666F72207461736B73002029
:10045000202020763A20202056657273696F6E2026
:10046000616E6420736574757020696E666F726D5D
:100470006174696F6E00202020206E3A2020205386
:10048000686F77207468652074696D65207269678C
:100490006874206E6F77002020496E20636F6D6D49
:1004A000616E64206D6F6465206F6E6C793A002018
:1004B0002043746C2D413A20456E74657220636F41
:1004C0006D6D616E64206D6F646500202043746CF7
:1004D0002D433A2052657365742074686520415637
:1004E00052002068656C70004D45343035206261E3
:1004F000736520726164696F2070726F6772616DDD
:100500002056302E3420001B5B33306D001B5B34D3
:10051000366D00496C6C6567616C2073746174653D
:100520002120526573657474696E672041565200CC
:100530003A5754463F004578697420636F6D6D618A
:100540006E64206D6F646500526573657474696EC6
:100550006720415652005072657373204374726C69
:100560002D4120666F7220636F6D6D616E64206D2A
:100570006F646500526573657474696E67004552F7
:10058000524F5220696E207461736B2000455252A5
:100590004F52206372656174696E67207461736B7A
:1005A00020002C20737461636B206174203078000C
:1005B0002063726561746564005461736B20001B75
:1005C0005B32326D005461736B3A20001B5B316DFE
:1005D000001B5B32326D005461736B3A2049444C0E
:1005E00045001B5B316D000909002F0049444C4553
:1005F000090930092D0900092D2D2D2D00092D2D5A
:100600002D2D2D2D2D2D2D2D002D2D2D2D09092D8F
:100610002D2D2D092D2D2D2D2D000952756E7300B8
:1006200009467265652F546F74616C004E616D658B
:1006300009095072692E0953746174650009537475
:1006400061636B005461736B090920200920000964
:100650000009002F00090009001B5B32326D001BEE
:100660005B316D001B5B316D002020000E94EF1993
:10067000092611241FBECFEFCDBFDFE3DEBF00E0B0
:100680000CBF18BE19BE1ABE1BBE12E2A0E0B0E23B
:10069000EAEFFEE400E00BBF02C007900D92A63324
:1006A000B107D9F71BBE23E3A6E3B2E201C01D9256
:1006B000A430B207E1F713E0C9E3D3E000E006C0DD
:1006C00021970109802FFE010E94D726C833D10748
:1006D00080E00807A9F70E947B250C947B270C94E7
:1006E0000000BC016E5F7F4FDC01ED91FC91008446
:1006F000F185E02D19950895CF93DF93EC01E88102
:10070000F9810480F581E02D1995BE01625F7F4F6C
:10071000EC8DFD8D808191810E942007DF91CF912A
:100720000895EF92FF920F93CF93DF93EC017C013A
:1007300082E0E80EF11CE881F9810084F185E02D6A
:10074000B701CE011995288539854A855B85BE019B
:10075000605E7F4F00E08E819F810E94D212EC8DFF
:10076000FD8DB701828193810E946307DF91CF9154
:100770000F91FF90EF900895CF92DF92EF92FF924A
:100780000F93CF93DF93EC017B016C018EE0C80ED9
:10079000D11CE881F9810084F185E02DB601CE01FC
:1007A00019952C893D894E895F89BE01615E7F4F15
:1007B00000E08A899B890E94D212D701ED91FC91B9
:1007C0000190F081E02DB601C7011995DF91CF911D
:1007D0000F91FF90EF90DF90CF900895CB010E9492
:1007E000CA0B0895FC01668F862F880F878F682FAC
:1007F000616060A30895CF93DF931F921F92CDB7DE
:10080000DEB7DC0119968D919C911A9789839A83A2
:1008100029813A812150310929833A83232B51F0D0
:100820001796ED91FC9118970480F581E02D948145
:1008300096FFEECF1796ED91FC9118970480F58105
:10084000E02D848184FD08C0848186FF05C0129656
:100850008D919C91139704C014968D919C9115973E
:100860000F900F90DF91CF910895CF93DF931F9258
:100870001F92CDB7DEB7DC0119968D919C911A9726
:1008800089839A8329813A812150310929833A83C6
:10089000232B51F01796ED91FC9118970480F58168
:1008A000E02D9481992374F71796ED91FC91189798
:1008B0000480F581E02D848184FD08C08481882333
:1008C0002CF412968D919C91139704C014968D91DF
:1008D0009C9115970F900F90DF91CF910895EF9213
:1008E000FF920F931F93CF93DF938C01EB01E8816D
:1008F000F981008CF18DE02DCB0119958823A9F0A9
:10090000E881F9810284F385E02DE12CF12CB70117
:10091000CE011995D8011796ED91FC911897048096
:10092000F581E02DD7018C918783F8018281938135
:10093000DF91CF911F910F91FF90EF9008950F934A
:100940001F93CF93DF931F92CDB7DEB78C01CB01FE
:10095000D8011796ED91FC9118970480F581E02D50
:1009600027812983DB01ED91FC910190F081E02D3D
:10097000BE016F5F7F4F1995F801828193810F90BF
:10098000DF91CF911F910F910895CF93DF93EC01E9
:10099000CB01DB01ED91FC910488F589E02D1995DF
:1009A000882319F08A819B8102C08C819D81DF910F
:1009B000CF91089521E0FB012387FC01828193817F
:1009C0000895CF93DF93DC011796ED91FC91189772
:1009D000C681D78164E170E2CE010E94301F66E0DB
:1009E000CE010E94671FDF91CF910895CF93DF93CF
:1009F000DC011796ED91FC911897C681D7816AE1C9
:100A000070E2CE010E94301F66E0CE010E94671F97
:100A1000DF91CF910895CF93DF93DC011796ED918D
:100A2000FC911897C681D7816FE170E2CE010E94D8
:100A3000301F66E0CE010E94671FDF91CF910895BD
:100A4000CF93DF93DC011796ED91FC911897C68147
:100A5000D78168E270E2CE010E94301F66E0CE01CD
:100A60000E94671FDF91CF910895CF93DF93DC0140
:100A70001796ED91FC911897C681D78161E370E2DA
:100A8000CE010E94301F66E0CE010E94671FDF91F9
:100A9000CF910895CF93DF93DC011796ED91FC91F0
:100AA0001897C681D7816CE370E2CE010E94301F97
:100AB00066E0CE010E94671FDF91CF910895CF932A
:100AC000DF93DC011796ED91FC911897C681D781D1
:100AD00067E470E2CE010E94301F66E0CE010E9402
:100AE000671FDF91CF9108951F93CF93DF93DC01B0
:100AF0001796ED91FC911897A481B58114961C91DD
:100B0000C681D7816DE470E2CE010E94301F612F53
:100B1000CE010E94242066E00E94671FDF91CF91E2
:100B20001F9108951F93CF93DF93DC011796ED91EA
:100B3000FC911897A481B58114961C91C681D78128
:100B400068E570E2CE010E94301F612FCE010E9445
:100B5000242066E00E94671FDF91CF911F910895C6
:100B6000FF920F931F93CF93DF93EC01EF81F885F2
:100B7000A481B5811496FC900681178163E670E22A
:100B8000C8010E94301F6F2DC8010E94242066E01A
:100B90000E94671F8A819B81DF91CF911F910F91E6
:100BA000FF9008950F931F93CF93DF938C01EB0178
:100BB000E881F981048CF58DE02DCB0119952A850A
:100BC00030E08217930779F4D8011796ED91FC91E4
:100BD00018970480F581E02D87E0838312968D912C
:100BE0009C9113970EC0D8011796ED91FC91189720
:100BF0000480F581E02D82E0838314968D919C9191
:100C00001597DF91CF911F910F9108950F931F9327
:100C1000CF93DF93EC018B016883798389E090E0C7
:100C20000E947C1EFC0116828FEA90E280839183F1
:100C300007831087EC83FD838BE090E00E947C1E8D
:100C4000FC0189899A89168227EB30E2208331835F
:100C50000783108781879287EE83FF8389E090E086
:100C60000E947C1EFC01168287EC90E280839183B7
:100C700007831087E887F98789E090E00E947C1E4F
:100C8000FC01168287ED90E28083918307831087B1
:100C9000EA87FB8789E090E00E947C1EFC011682B7
:100CA0008FEE90E28083918307831087EC87FD8726
:100CB00089E090E00E947C1EFC01168287EE90E2A3
:100CC0008083918307831087EE87FF8780E197E217
:100CD000898B9A8B8E819F81EC81FD8182839383A6
:100CE000848395838C859D8528853985EE81FF8158
:100CF00022833383848395838A859B85E885F98560
:100D000082839383848395838E819F812E853F8503
:100D1000EA85FB852283338384839583DF91CF919A
:100D20001F910F9108950F931F93CF93DF93EC01C1
:100D30008B016883798389E090E00E947C1EFC012E
:100D400016828FEA90E28083918307831087EC8379
:100D5000FD838BE090E00E947C1EFC0189899A89CA
:100D600016822FEB30E2208331830783108781873F
:100D70009287EE83FF8389E090E00E947C1EFC0155
:100D800016828FEC90E28083918307831087E88737
:100D9000F98789E090E00E947C1EFC0116828FEDAD
:100DA00090E28083918307831087EA87FB8789E03D
:100DB00090E00E947C1EFC0116828FEE90E2808300
:100DC000918307831087EC87FD8789E090E00E947C
:100DD0007C1EFC01168287EE90E28083918307835C
:100DE0001087EE87FF8780E197E2898B9A8B8E814F
:100DF0009F81EC81FD8182839383848395838C859D
:100E00009D8528853985EE81FF8122833383848304
:100E100095838A859B85E885F9858283938384837E
:100E200095838E819F812E853F85EA85FB85228370
:100E3000338384839583DF91CF911F910F91089520
:100E40000F931F93CF93DF93EC018B018C819D81D6
:100E50008A839B832E853F8582179307D9F02C8543
:100E60003D858217930731F417C02C853D852817DF
:100E7000390799F0DC01ED91FC910190F081E02DB2
:100E8000B80119958A839B832E853F8528173907DA
:100E900061F703C0C90101C0C901DC01ED91FC91FA
:100EA0000190F081E02DB801199581E04A815B81C4
:100EB0002E853F854217530709F080E0DF91CF91DF
:100EC0001F910F9108950F931F93CF93DF93EC0120
:100ED0008B018C819D818A839B832E853F85821720
:100EE0009307D9F02C853D858217930731F417C0FD
:100EF0002C853D852817390799F0DC01ED91FC918F
:100F00000190F081E02DB80119958A839B832E858D
:100F10003F852817390761F703C0C90101C0C9011E
:100F2000DC01ED91FC910190F081E02DB801199563
:100F3000C801DF91CF911F910F910895CF93DF9357
:100F4000EC019A01AB01220F331F441F551F60E0D3
:100F500078E488EE91E00E94962625502A87EC815D
:100F6000FD812583DF91CF910895EF92FF920F933A
:100F70001F93CF93DF93EC017B01BA01A901EC82AF
:100F8000FD820E831F834B875C876D877E8780E899
:100F9000E81684E0F80629F480E496E088879987CB
:100FA00009C0E0EAEE16E4E0FE0621F480E896E0EF
:100FB00088879987E885F98583E08183E885F985C5
:100FC00088E3808BE885F985818B82E0F701828355
:100FD000CE010E949E07F70184818D6C848388E096
:100FE000818383E190E00E947C1E7C01BE010E940F
:100FF0000606E882F98284E190E00E947C1E7C0172
:10100000BE010E949306EA82FB820E80DF81C02D22
:1010100065E870E2CE010E94301F66E0CE010E94BA
:10102000671FDF91CF911F910F91FF90EF9008956F
:10103000DC011496ED91FC91159783818160838387
:1010400008950F931F93CF93DF93EC01CB01DB0146
:10105000ED91FC910284F385E02D00E010E0B801F1
:1010600019958F8198850E941808EF81F885048072
:10107000F581E02DD8018C9186838A819B81DF9157
:10108000CF911F910F910895DB01BC016E5F7F4FDF
:10109000ED91FC9111970190F081E02DCD01199512
:1010A0000895FC01848195810E94921490E0089536
:1010B000FC01848195810E94921491E0811101C00C
:1010C00090E0892F0895FC01848195810E949214FB
:1010D00091E0811190E0892F0895FC018481958130
:1010E0000E948A1490E00895FC01848195810E94F9
:1010F0008A1491E0811101C090E0892F0895FC01CC
:10110000848195810E948A1491E0811190E0892F59
:1011100008950F9301E02FEF3FEFA901FC018481B7
:1011200095810E9499130F9108950F93CF93DF93A8
:101130001F92CDB7DEB701E02FEF3FEFA901BE014F
:101140006F5F7F4FFC01848195810E949913898193
:101150000F90DF91CF910F9108950F9300E02FEF43
:101160003FEFA901FC01848195810E9499130F91A1
:1011700008950F93CF93DF931F92CDB7DEB700E0B2
:101180002FEF3FEFA901BE016F5F7F4FFC0184810C
:1011900095810E94991389810F90DF91CF910F91D2
:1011A0000895CF93DF931F92CDB7DEB7AE014F5FA7
:1011B0005F4FFC01848195810E945D140F90DF9147
:1011C000CF910895CF93DF931F921F92CDB7DEB7D3
:1011D000AE014E5F5F4FBE016F5F7F4FFC018481A8
:1011E00095810E945D1489810F900F90DF91CF91BE
:1011F0000895CF93DF931F92CDB7DEB7198221E018
:10120000AE014F5F5F4FFC01848195810E946D1399
:1012100091E0811101C090E0892F0F90DF91CF9173
:101220000895CF93DF931F92CDB7DEB7198220E0E8
:10123000AE014F5F5F4FFC01848195810E946D1369
:1012400091E0811101C090E0892F0F90DF91CF9143
:1012500008950F93FC01268137814085518501E077
:10126000848195810E94D21291E0811101C090E0A9
:10127000892F0F9108950F93FC01268137814085B6
:10128000518500E0848195810E94D21291E0811104
:1012900001C090E0892F0F9108953F924F925F9285
:1012A0006F927F928F929F92AF92BF92CF92DF9276
:1012B000EF92FF920F931F93CF93DF938C017B01EB
:1012C0006A01DC016D937C93119712964D935C93A8
:1012D000139781E290E00E947C1EEC018FE391E283
:1012E000888399831C821D820F2EF7EFAF2EF0E2C8
:1012F000BF2EF02DAA82BB8240E061E082E00E9416
:10130000A4128E839F830F2EFAE04F2E512C612C56
:10131000712CF02D488659866A867B860F2EFBE15C
:101320008F2EF1E29F2EF02D8A829B8268943324C7
:1013300031F83C86188A198AAE86BF8640E061E0A3
:1013400082E00E94A4128A8B9B8B4C8A5D8A6E8AF3
:101350007F8A8E869F86388E8AE090E28883998382
:10136000CA8EDB8EF801C483D58380E7868310861E
:10137000118612861386148683E090E00E947C1EFC
:101380002DE431E2FC012083318321E52283D80161
:101390001F968D939C9350971496ED91FC91159701
:1013A000E48EF58E16966C91169714968D919C91FD
:1013B00015970E94F203DF91CF911F910F91FF903B
:1013C000EF90DF90CF90BF90AF909F908F907F90E5
:1013D0006F905F904F903F9008950F931F93CF931E
:1013E000DF938C01EB01BC016E5F7F4FE881F981D7
:1013F0000190F081E02DCE011995B8016D5F7F4F0E
:10140000E881F9810190F081E02DCE011995DF91FD
:10141000CF911F910F910895DB01BC016E5F7F4F4B
:10142000ED91FC9111970190F081E02DCD0119957E
:101430000895DB01BC016E5F7F4FED91FC91119728
:101440000190F081E02DCD0119950895DB01BC01DB
:101450006E5F7F4FED91FC9111970190F081E02D2F
:10146000CD01199508954F925F926F927F928F925E
:101470009F92AF92BF92CF92DF92EF92FF920F9323
:101480001F93CF93DF938C017B016A01DC016D9385
:101490007C93119712964D935C93139781E290E0A1
:1014A0000E947C1EEC018FE391E2888399831C8269
:1014B0001D820F2EF7EFAF2EF0E2BF2EF02DAA8285
:1014C000BB8240E061E082E00E94A4128E839F8391
:1014D0000F2EFAE04F2E512C612C712CF02D4886E6
:1014E00059866A867B860F2EFBE18F2EF1E29F2EB6
:1014F000F02D8A829B8282E08C87188A198AAE86B8
:10150000BF8640E061E083E00E94A4128A8B9B8B3F
:101510004C8A5D8A6E8A7F8A8E869F860F2EF3E0C4
:10152000BF2EF02DB88E8AE090E288839983CA8E10
:10153000DB8EF801C483D5838DE1868384E090E05F
:101540000E947C1EFC0183E591E2808391838AE204
:101550008283C1E0C383D8011996ED93FC931A9757
:1015600083E090E00E947C1E29E531E2FC012083AB
:101570003183C283D8011B968D939C931C9783E083
:1015800090E00E947C1E2FE531E2FC012083318334
:10159000B282D8011D968D939C931E9783E090E0B4
:1015A0000E947C1E25E631E2FC012083318325E088
:1015B0002283D8011F968D939C9350971496ED919A
:1015C000FC911597E48EF58E16966C9116971496ED
:1015D0008D919C9115970E94F203DF91CF911F91FD
:1015E0000F91FF90EF90DF90CF90BF90AF909F90C2
:1015F0008F907F906F905F904F9008951F93CF933F
:10160000DF93EC018C819D8169857A85DC01ED9108
:10161000FC910190F081E02D19958C819D816B8565
:101620007C85DC01ED91FC910190F081E02D199514
:101630008C819D81DC01ED91FC910280F381E02D94
:101640001995EC018B858823B9F0E881F981008434
:10165000F185E02DCE011995182FE881F9810084DC
:10166000F185E02DCE011995212F30E0322F222770
:10167000A901482BCA0102C080E090E0DF91CF9120
:101680001F9108951F93CF93DF93EC018C819D816F
:1016900069857A85DC01ED91FC910190F081E02D66
:1016A00019958C819D816D857E85DC01ED91FC9184
:1016B0000190F081E02D19958C819D81DC01ED91E7
:1016C000FC910280F381E02D1995EC018B85882334
:1016D000B9F0E881F9810084F185E02DCE011995FA
:1016E000182FE881F9810084F185E02DCE0119954C
:1016F000212F30E0322F2227A901482BCA0102C036
:1017000080E090E0DF91CF911F9108951F93CF93D8
:10171000DF93EC018C819D8169857A85DC01ED91F7
:10172000FC910190F081E02D19958C819D816F8550
:101730007889DC01ED91FC910190F081E02D199503
:101740008C819D81DC01ED91FC910280F381E02D83
:101750001995EC018B858823B9F0E881F981008423
:10176000F185E02DCE011995182FE881F9810084CB
:10177000F185E02DCE011995212F30E0322F22275F
:10178000A901482BCA0102C080E090E0DF91CF910F
:101790001F910895CF93DF93EC011B86E881F981B7
:1017A000008CF18DE02DCE011995882341F0E88160
:1017B000F9810084F185E02DCE011995EFCFDF91FD
:1017C000CF910895EC018C85811139C08C899D8958
:1017D0000E94FE0A7C010E811F8167E671E2C8014A
:1017E0000E94301FB701C8010E94AE1F66E00E9430
:1017F000671F8C899D890E94420B7C010E811F818D
:101800006BE671E2C8010E94301FB701C8010E9457
:10181000AE1F66E00E94671F8C899D890E94860B1F
:101820007C010E811F816FE671E2C8010E94301FAA
:10183000B701C8010E94AE1F66E00E94671F8E8537
:101840009F85A889B9890196A11DB11D8E879F87A3
:10185000A88BB98B68EE73E080E090E00E94D2170D
:10186000B2CFCF92DF92EF92FF920F931F93CF935D
:10187000DF93EC016B010E94021A87E791E28883F3
:101880009983EC8AFD8ACE8ADF8ADF91CF911F91FE
:101890000F91FF90EF90DF90CF9008950F931F93DB
:1018A000CF93DF93EC010E94021A8FE791E28883C5
:1018B0009983DF91CF911F910F9108950F931F93FB
:1018C000CF93DF93EC016AE08E819F810E94671FB6
:1018D0008C016DE075E00E94301F6AE0C8010E9433
:1018E000671F8C0167E075E00E94301F67E0C80148
:1018F0000E94671F6AE08E819F810E94671F8C0192
:1019000068EE74E00E94301F6AE0C8010E94671F01
:101910008C0162EE74E00E94301F66E0C8010E94F4
:10192000671F6AE08E819F810E94671F8C016BECAC
:1019300074E00E94301F66E0C8010E94671F6AE0E1
:101940008E819F810E94671F8C016FEA74E00E9464
:10195000301F66E0C8010E94671F6AE08E819F8188
:101960000E94671F8C0167E974E00E94301F66E0E7
:10197000C8010E94671F6AE08E819F810E94671FD5
:101980008C0166E774E00E94301F66E0C8010E9487
:10199000671F6AE08E819F810E94671F8C016FE440
:1019A00074E00E94301F66E0C8010E94671F6AE071
:1019B0008E819F810E94671F8C0161E374E00E9409
:1019C000301F66E0C8010E94671F6AE08E819F8118
:1019D0000E94671F8C0166E174E00E94301F66E080
:1019E000C8010E94671F6AE08E819F810E94671F65
:1019F000EC0167E074E00E94301F66E0CE010E94B7
:101A0000671FDF91CF911F910F910895AF92BF9201
:101A1000CF92DF92EF92FF920F931F93CF93DF93BA
:101A200000D000D0CDB7DEB78C0119821A821B829C
:101A30001C821D821E820E948B0F6C01CE010196BA
:101A40000E94B31D5C0166E0F801868197810E94C7
:101A5000671F6AE00E94671F7C0168EE73E00E94C6
:101A6000301F6AE0C7010E94671F7C016CED73E0C4
:101A70000E94301F66E0C7010E94671F6AE00E9453
:101A8000671F7C0165ED73E00E94301FB501C7013F
:101A90000E94571D6AE00E94671F7C0167EC73E09B
:101AA0000E94301FB601C7010E94AE1F6AE00E946B
:101AB000671F7C0165EC73E00E94301F4FEF5FE011
:101AC00060E070E0C7010E94E21FC0902808D0903B
:101AD00029086AE0F801868197810E94671F7C01CE
:101AE0006AEB73E00E94301FB601C7010E94AE1F6F
:101AF00066E00E94671F66E00E94671FF80186810A
:101B000097810E94101C2696CDBFDEBFDF91CF913A
:101B10001F910F91FF90EF90DF90CF90BF90AF900B
:101B20000895CF93DF9300D000D0CDB7DEB78C01FE
:101B300019821A821B821C821D821E826AE0DC01CD
:101B400016968D919C9117970E94671F7C0166E500
:101B500075E00E94301F66E0C7010E94671FF80110
:101B60008485882321F0813009F45DC0D8C0868146
:101B70009781DC01ED91FC910480F581E02D1995B0
:101B80008823A9F1F80186819781DC01ED91FC9110
:101B90000680F781E02D1995992781309105F9F09C
:101BA000039709F0D8C06AE0F801868197810E9406
:101BB000671F8C0168E475E00E94301F66E0C80171
:101BC0000E94671F93E088ED08B618BE84BF90930B
:101BD00080008091820081FDFCCF08BEFFCFC8014C
:101BE0000E945E0C61E0C8010E94FE19B4C082EF41
:101BF00092E30E94BF1C882309F4ADC0D801169659
:101C0000ED91FC9117970190F081E02DE280F38037
:101C100082EF92E30E94A11C682FF80186819781D0
:101C2000F701199598C086819781DC01ED91FC91AF
:101C30000480F581E02D1995882309F48CC0F80102
:101C400086819781DC01ED91FC910680F781E02D82
:101C500019959C0133272836310559F13CF42B3175
:101C6000310559F12536310541F13BC023373105A6
:101C7000C1F02637310589F02E36310591F5CE01B8
:101C800001960E94B31DBC01F801868197810E94D4
:101C9000571D66E00E94671F5EC0C8010E94060DC6
:101CA0005AC0D80116968D919C9117970E94171BC8
:101CB00052C0C8010E945E0C4EC06AE0F8018681E5
:101CC00097810E94671F7C0166E375E00E94301FC8
:101CD00066E0C7010E94671F60E0C8010E94FE190C
:101CE0003AC0F801A681B781ED91FC91119702806D
:101CF000F381E02D682FCD0119956AE0D801169681
:101D00008D919C9117970E94671F7C0160E375E09D
:101D10000E94301F66E0C7010E94671F1CC06AE076
:101D2000F801868197810E94671F8C0163E175E04D
:101D30000E94301F66E0C8010E94671F93E088ED93
:101D400008B618BE84BF909380008091820081FD08
:101D5000FCCF08BEFFCFF80186859785A089B189A1
:101D60000196A11DB11D86879787A08BB18B68EE68
:101D700073E080E090E00E94D217F1CE0F931F93A2
:101D8000CF93DF93EC010E942E16809136228111B1
:101D90001DC0ABE3B2E2EFE3F2E2ED93FC931197E7
:101DA00012961D921C921397A7E3B2E28FEF9FE069
:101DB00012968D939C9313971D921C921197828378
:101DC0009383A083B18381E080933622209709F426
:101DD0005FC09E012B5F3F4F2496CE3FDF4008F04F
:101DE0005AC0E0913B22F0913C22ABE3B2E202C048
:101DF000DF01FC01828193818217930720F48081A7
:101E000091810097A9F7C2E2E733FC0709F446C0C5
:101E1000CD91DC9111978E010B5F1F4F80819181D5
:101E20008D939C9382819381821B930B8B309105C0
:101E300010F1BF01620F731FDB0112968D939C930B
:101E400013972283338312964D915C9113978BE302
:101E500092E201C0CD01EC01A881B98112962D91C9
:101E60003C91139724173507A8F3EB01A883B98396
:101E7000DC016D937C938091002090910120228160
:101E80003381821B930B809300209093012008C024
:101E900000E010E005C000E010E002C000E010E04B
:101EA0000E945017C801DF91CF911F910F910895A3
:101EB0000F931F93CF93DF93009741F1EC018C01B7
:101EC000055011090E942E16F80142815381ABE39F
:101ED000B2E201C0DF01ED91FC91119722813381C3
:101EE00024173507B8F32597E883F9830D931C93DE
:101EF00020910020309101208A819B81820F931FC5
:101F000080930020909301200E945017DF91CF9181
:101F10001F910F91089580910020909101200895C4
:101F2000FC010396818392834FEF5FEFBA014383F5
:101F30005483658376838783908781879287108215
:101F40000895FC01128613860895CF93DF93FC0158
:101F5000DB0121813281E9018C819D8114968D9371
:101F60009C9315978181928116968D939C931797D8
:101F70008C819D81EC016E837F83E9016C837D837D
:101F8000618372831A96ED93FC931B9780818F5F18
:101F90008083DF91CF9108950F931F93CF93DF93A9
:101FA000EB01088119812A813B810F3F4FEF140714
:101FB0002407340731F4DC011996ED91FC911A974E
:101FC0001FC0FC013396DC0117964D915C91189768
:101FD000DA014D915D916D917C91041715072607EB
:101FE000370770F00480F581E02DA481B5814D9113
:101FF0005D916D917C91041715072607370790F7BF
:10200000A481B581AC83BD831696CD93DC931797DD
:10201000EE83FF83C483D5838A879B87FC0120815D
:102020002F5F2083DF91CF911F910F910895FC01C5
:10203000A481B5818681978116968D939C9317977D
:10204000A681B7818481958114968D939C93159771
:10205000A285B38511968D919C911297E817F90787
:1020600031F48681978111968D939C9312971286F5
:1020700013868C9181508C930895809302339093B2
:10208000033331E1FC013083319722E22083319721
:10209000A3E3A083319760833197708331971082D7
:1020A00031971082319760E86083319710823197C1
:1020B000108231971082319762E06083319763E03C
:1020C0006083319764E06083319765E06083319786
:1020D00066E06083319767E06083319768E06083F2
:1020E000319769E06083319760E160833197308395
:1020F000319732E13083319733E13083319734E1E6
:102100003083319735E13083319736E13083319731
:1021100037E13083319738E13083319739E13083CB
:10212000319730E23083319731E230833197208329
:10213000319723E220833197408331975083319741
:1021400026E22083319727E22083319728E22083FB
:10215000319729E22083319720E32083319721E3CF
:102160002083899708958CE7809369088FEF809387
:10217000680881E08093400891E190934108809342
:102180004708A0919E32B0919F32CD91CDBFDD9195
:10219000DEBFFF91EF91DF91CF91BF91AF919F9102
:1021A0008F917F916F915F914F913F912F911F91EF
:1021B0000F91FF90EF90DF90CF90BF90AF909F90E6
:1021C0008F907F906F905F904F903F902F901F90D7
:1021D0000F900CBE0F900BBE0F900FBE0F90089586
:1021E00008950F920FB6F8940F920BB60F920CB69B
:1021F0000F921F9211242F923F924F925F926F92F3
:102200007F928F929F92AF92BF92CF92DF92EF9286
:10221000FF920F931F932F933F934F935F936F936F
:102220007F938F939F93AF93BF93CF93DF93EF935E
:10223000FF93A0919E32B0919F320DB60D920EB6D3
:102240000D920E940018A0919E32B0919F32CD91C4
:10225000CDBFDD91DEBFFF91EF91DF91CF91BF91B7
:10226000AF919F918F917F916F915F914F913F912E
:102270002F911F910F91FF90EF90DF90CF90BF9023
:10228000AF909F908F907F906F905F904F903F9016
:102290002F901F900F900CBE0F900BBE0F900FBE93
:1022A0000F9008950F920FB6F8940F920BB60F92FD
:1022B0000CB60F921F9211242F923F924F925F9271
:1022C0006F927F928F929F92AF92BF92CF92DF9246
:1022D000EF92FF920F931F932F933F934F935F9330
:1022E0006F937F938F939F93AF93BF93CF93DF931E
:1022F000EF93FF93A0919E32B0919F320DB60D9255
:102300000EB60D920E944F160E940018A0919E32A8
:10231000B0919F32CD91CDBFDD91DEBFFF91EF91A6
:10232000DF91CF91BF91AF919F918F917F916F91ED
:102330005F914F913F912F911F910F91FF90EF90DF
:10234000DF90CF90BF90AF909F908F907F906F90D5
:102350005F904F903F902F901F900F900CBE0F906A
:102360000BBE0F900FBE0F9008950E94521118954A
:10237000CF93DF93EC0188A181110BC088819981F3
:10238000892BE1F58A819B810E94BB191A821B82ED
:1023900035C0411117C0482F50E08C819D810E94AB
:1023A000FA2628A18C819D81820F911D8C839D83AB
:1023B0002A813B818217930708F1888199818C8358
:1023C0009D831CC0482F50E08E819F810E94FA2679
:1023D00088A190E09195819591092E813F81280FE8
:1023E000391F2E833F83488159812417350730F4E4
:1023F0002A813B81820F931F8E839F838E8D8F5FF7
:102400008E8FDF91CF910895FC018081918100979B
:10241000A1F040A150E026813781240F351F26838B
:102420003783A281B3812A173B0710F086839783F5
:10243000CB01668177810E94FA2608950F931F933E
:10244000CF93DF93EC010FB6F8940F928AA1181680
:10245000B4F48B89811105C012C08B89811104C02D
:102460000EC08E010D5E1F4FC8010E94871881119A
:102470000E9444198AA181508AA3181674F38FEF21
:102480008AA30F900FBE0FB6F8940F9289A1181669
:10249000B4F48885811105C012C08885811104C0FB
:1024A0000EC08E01085F1F4FC8010E94871881115E
:1024B0000E94441989A1815089A3181674F38FEFE3
:1024C00089A30F900FBEDF91CF911F910F910895B7
:1024D0001F93CF93DF93613059F0FC01238930853E
:1024E00031112CC011E0211110E0211128C001C0D0
:1024F00011E0EC014881598128A130E06F8D629F85
:10250000C001639F900D1124BA01680F791F6A837F
:102510007B831E8E4C835D83821B930B840F951FE0
:102520008E839F838FEF89A38AA3CE0108960E9492
:10253000900FCE0143960E94900F01C010E0812FB2
:10254000DF91CF911F9108950F931F93CF93DF9346
:10255000882301F1062F182F83E290E00E94BE0E1F
:10256000EC01892BC9F0109FC001112401960E9433
:10257000BE0E88839983892B39F01F8F08A361E0F1
:10258000CE010E94681208C0CE010E94580FC0E020
:10259000D0E002C0C0E0D0E0CE01DF91CF911F912A
:1025A0000F910895AF92BF92CF92DF92EF92FF9278
:1025B0000F931F93CF93DF93CDB7DEB72997CDBF8E
:1025C000DEBF7C015B012E833F834887598710E083
:1025D0006C0188E0C80ED11C0FB6F8940F92F70179
:1025E000968D878D9817A8F4402FB501C7010E94DA
:1025F000B811F7018389882341F0C70143960E94EF
:102600008718813011F40E94F1100F900FBE81E005
:1026100056C08E819F81A885B985892B8A2B8B2BEB
:1026200021F40F900FBE80E04AC0111105C0CE0109
:1026300001960E94C61811E00F900FBE0E942E1640
:102640000FB6F8940F92F70181A18F3F09F411A200
:10265000F70182A18F3F09F412A20F900FBEBE01B5
:102660006A5F7F4FCE0101960E94D718811121C069
:102670000FB6F8940F92F701968D0F900FBE878DCD
:10268000981311C04E815F8168857985C6010E94CB
:102690005D18C7010E941E120E94501781119CCF25
:1026A0000E94F11099CFC7010E941E120E9450177C
:1026B00093CFC7010E941E120E94501780E02996F6
:1026C000CDBFDEBFDF91CF911F910F91FF90EF90B3
:1026D000DF90CF90BF90AF9008950F931F93CF934B
:1026E000DF938A01FC01568D378D5317C0F4422FBA
:1026F000EC010E94B8118AA18F3F69F48B8988236D
:1027000081F0CE0143960E948718882361F081E012
:10271000F801808309C08F5F8AA381E005C080E053
:1027200003C081E001C081E0DF91CF911F910F9143
:102730000895AF92BF92CF92DF92EF92FF920F93E4
:102740001F93CF93DF93CDB7DEB72997CDBFDEBF01
:102750007C015B012E833F834887598710E06C0121
:1027600083E1C80ED11C0FB6F8940F92F701868D45
:10277000882399F1C680D780B501C7010E94041251
:1027800001111AC0F701868D8150868F8081918159
:10279000892B29F40E946119F70182839383F70141
:1027A00080858823B1F0C70108960E948718813080
:1027B00081F40E94F1100DC0F701C682D78283898F
:1027C000882339F0C70143960E94871881110E941F
:1027D000F1100F900FBE81E062C08E819F81A885AD
:1027E000B985892B8A2B8B2B21F40F900FBE80E0AB
:1027F00056C0111105C0CE0101960E94C61811E005
:102800000F900FBE0E942E160FB6F8940F92F7018C
:1028100081A18F3F09F411A2F70182A18F3F09F432
:1028200012A20F900FBEBE016A5F7F4FCE010196CC
:102830000E94D71881112DC00FB6F8940F92F7019E
:10284000868D0F900FBE81111EC080819181892BD2
:1028500049F40FB6F8940F92828193810E94661911
:102860000F900FBE4E815F8168857985C6010E94F9
:102870005D18C7010E941E120E945017811173CF6C
:102880000E94F11070CFC7010E941E120E945017C3
:102890006ACFC7010E941E120E94501780E029963D
:1028A000CDBFDEBFDF91CF911F910F91FF90EF90D1
:1028B000DF90CF90BF90AF9008950F931F93CF9369
:1028C000DF93FC01268D2223D9F08A01EC010E94BE
:1028D00004128E8D81508E8F89A18F3F69F4888577
:1028E000882381F0CE0108960E948718882361F022
:1028F00081E0F801808309C08F5F89A381E005C072
:1029000080E003C081E001C081E0DF91CF911F91A1
:102910000F9108950FB6F8940F92FC01868D0F90D9
:102920000FBE0895FC01868D0895C2E7D2E3888129
:102930008230E8F30E94F110FACFCF92DF92EF924B
:10294000FF926B017C01E0919E32F0919F32628395
:102950007383848395838091463290914732A0910E
:102960004832B0914932C816D906EA06FB0668F427
:1029700060919E3270919F3280915832909159327D
:102980006E5F7F4F0E94CC0F21C060919E3270918C
:102990009F3280915A3290915B326E5F7F4F0E94DE
:1029A000CC0F8091022090910320A0910420B0913F
:1029B0000520C816D906EA06FB0640F4C09202209C
:1029C000D0920320E0920420F0920520FF90EF9037
:1029D000DF90CF9008954F925F926F927F928F9287
:1029E0009F92AF92BF92CF92DF92EF92FF920F939E
:1029F0001F93CF93DF935C014B013A01290188E2D9
:102A000090E00E94BE0EEC01892B09F4D4C0C114E1
:102A1000D10409F0CCC0C3010E94BE0E8B8F9C8FE5
:102A2000009721F4CE010E94580FC5C0A30161E1B7
:102A300070E00E9403279301215031098B8D9C8DFA
:102A40003C01620E731E4AE050E0B401CE014D9687
:102A50000E940A271EA2102F043008F013E01A8FDC
:102A60001FA36E0122E0C20ED11CC6010E94A10F5D
:102A7000CE010E960E94A10FCA87DB8784E090E00A
:102A8000A0E0B0E0811B9109A109B1098E879F8761
:102A9000A88BB98BCE8BDF8BA201B501C3010E943D
:102AA0003D1088839983E114F10419F0F701C08384
:102AB000D1830FB6F8940F9280914A328F5F809342
:102AC0004A3280919E3290919F32892B89F5C09332
:102AD0009E32D0939F3280914A328130C1F582E795
:102AE00092E30E94900F8DE792E30E94900F88E896
:102AF00092E30E94900F83E992E30E94900F87E691
:102B000092E30E94900F8CE592E30E94900F8DE477
:102B100092E30E94900F87E692E380935A3290935B
:102B20005B328CE592E380935832909359320FC018
:102B30008091433281110BC0E0919E32F0919F321F
:102B4000828D081720F0C0939E32D0939F328A8DD9
:102B500090914532981710F48093453290913E320F
:102B60009F5F90933E3290914432981710F4809377
:102B70004432FBE08F9FC0011124B6018E589D4C5A
:102B80000E94A50F0F900FBE80914332882359F009
:102B9000E0919E32F0919F32828D801730F40E9436
:102BA000F11081E009C081E007C081E005C0CB8E53
:102BB000DC8EC6013BCF8FEFDF91CF911F910F913C
:102BC000FF90EF90DF90CF90BF90AF909F908F904D
:102BD0007F906F905F904F9008950FB6F8940F928A
:102BE000009721F480919E3290919F320F900FBEFA
:102BF000FC01828D0895AF92BF92CF92DF92EF9247
:102C0000FF920F93A12CB12CC12CD12C0F2EFBE4E1
:102C1000EF2EF2E3FF2EF02D00E020E030E044E65E
:102C200050E063E871E285E994E10E94EB148130A1
:102C300069F4F894809343321092463210924732EE
:102C400010924832109249320E94B3100F91FF90B7
:102C5000EF90DF90CF90BF90AF9008958091423277
:102C60008F5F8093423208950FB6F8940F9260916F
:102C700046327091473280914832909149320F909C
:102C80000FBE0895009721F480919E3290919F325B
:102C90004D96089580914B3290914C320895FF9259
:102CA0000F931F93CF93DF93809142328111EDC038
:102CB0008091463290914732A0914832B09149328A
:102CC0000196A11DB11D8093463290934732A09387
:102CD0004832B09349328091463290914732A09168
:102CE0004832B0914932892B8A2B8B2BF1F5809198
:102CF0005A3290915B322091583230915932209360
:102D00005A3230935B32809358329093593280918B
:102D10003F328F5F80933F32E0915A32F0915B32C5
:102D2000808181110CC08FEF9FEFDC018093022026
:102D300090930320A0930420B093052016C0E09147
:102D40005A32F0915B320780F085E02D0084F185E6
:102D5000E02D82819381A481B5818093022090939C
:102D60000320A0930420B093052040914632509157
:102D7000473260914832709149328091022090919F
:102D80000320A0910420B0910520481759076A0735
:102D90007B0708F47FC0E0915A32F0915B3280816A
:102DA0008823F9F0E0915A32F0915B320780F08588
:102DB000E02DC085D1858A819B81AC81BD81409108
:102DC00046325091473260914832709149324817EB
:102DD00059076A077B0758F10F2EFBE0FF2EF02DF5
:102DE0002FC08FEF9FEFDC01809302209093032090
:102DF000A0930420B09305204DC0E0915A32F09189
:102E00005B320780F085E02DC085D1858A819B816A
:102E1000AC81BD8140914632509147326091483239
:102E200070914932481759076A077B0748F4809325
:102E3000022090930320A0930420B09305202AC081
:102E40008E010E5F1F4FC8010E941710888D998D4B
:102E5000892B21F0CE010E960E9417108A8D909139
:102E60004432981710F480934432F89EC001112424
:102E7000B8018E589D4C0E94A50FE0915A32F091F6
:102E80005B3280818111B9CFACCF809141328F5FAD
:102E900080934132DF91CF911F910F91FF90089560
:102EA000CF92DF92EF92FF920F931F93CF93DF9316
:102EB0000FB6F8940F928091423281508093423243
:102EC00080914232811160C080914A3281112CC0C0
:102ED0005EC0D7011796ED91FC911897C085D185FA
:102EE000CE010E960E9417108E010E5F1F4FC80173
:102EF0000E9417108A8D90914432981710F4809395
:102F00004432D89EC0011124B8018E589D4C0E94B5
:102F1000A50FE0919E32F0919F329A8D828D981785
:102F200070F0CC24C3940BC0C12C0F2EFDE4EF2E07
:102F3000F2E3FF2EF02D0F2EFBE0DF2EF02DF70138
:102F400080818111C6CF80914132882381F08091A8
:102F50004132882399F00E944F168091413281506E
:102F600080934132809141328111F5CF07C0F1E069
:102F7000CF1621F080914032813041F410924032DE
:102F80000E94F11081E003C080E001C080E00F905A
:102F90000FBEDF91CF911F910F91FF90EF90DF90C7
:102FA000CF900895CF92DF92EF92FF926B017C0158
:102FB000672B682B692BE9F00E942E168091463210
:102FC00090914732A0914832B0914932C80ED91E33
:102FD000EA1EFB1E80919E3290919F3202960E94C3
:102FE0001710C701B6010E949D140E94501781114D
:102FF00002C00E94F110FF90EF90DF90CF900895F3
:103000008091423281110CC0E09144324BE0E49F48
:10301000F0011124EE58FD4C8081882329F014C062
:1030200081E08093403208959BE08091443281504A
:1030300080934432E09144329E9FF0011124EE5877
:10304000FD4C8081882389F380914432282F30E021
:103050004BE0849FC0011124DC01AE58BD4C119699
:10306000ED91FC9112970480F581E02D1196ED937E
:10307000FC9312978B589D4CE817F90761F48481F3
:1030800095814BE0429FF001439FF00D1124EE58D3
:10309000FD4C818392838BE0829FF001839FF00D32
:1030A0001124EE58FD4C0180F281E02D8085918540
:1030B00080939E3290939F320895CF92DF92EF9249
:1030C000FF926A017B0160919E3270919F32625F34
:1030D0007F4F0E94CC0F80919E3290919F3202963A
:1030E0000E9417108091463290914732A091483249
:1030F000B0914932BC01CD016C0D7D1D8E1D9F1D0F
:103100000E949D14FF90EF90DF90CF9008950F9351
:103110001F93CF93DF93DC011796ED91FC911897E5
:10312000C085D1858E01025F1F4FC8010E94171014
:1031300080914232811116C00C501109C8010E94C1
:1031400017108A8D90914432981710F4809344326E
:10315000BBE08B9FC0011124B8018E589D4C0E948A
:10316000A50F05C0B8018DE492E30E94A50FE09180
:103170009E32F0919F3281E02A8D928D291708F4BA
:1031800080E0DF91CF911F910F91089520913F3200
:10319000FC01208340914632509147326091483281
:1031A00070914932418352836383748308958F926F
:1031B0009F92AF92BF92CF92DF92EF92FF920F93C6
:1031C0001F93CF93DF93FC010FB6F8940F92809179
:1031D0003F329081981789F0809146329091473222
:1031E000A0914832B091493201811281238134810A
:1031F00080179107A207B307A8F5809146329091F6
:103200004732A0914832B0914932C180D280E380E8
:10321000F480EB01088119812A813B818C199D0979
:10322000AE09BF0980179107A207B307E8F4CF01E1
:103230008090463290904732A0904832B090493208
:10324000B501A4014C195D096E097F09041B150B1A
:10325000260B370B088319832A833B830E94C618E9
:1032600080E003C081E001C081E00F900FBEDF91DC
:10327000CF911F910F91FF90EF90DF90CF90BF9073
:10328000AF909F908F90089581E080934032089591
:10329000009721F480919E3290919F32DC015B96E1
:1032A000ED91FC915C978081813141F4319680E011
:1032B00090E0019621912131E1F3089580E090E0C2
:1032C000089580919E3290919F3208950F931F939D
:1032D000CF93DF93FC01228DA0919E32B0919F325B
:1032E0005A968C91281708F041C0A0919E32B09157
:1032F0009F325A963C9184E090E0A0E0B0E0831BBE
:103300009109A109B10986879787A08BB18B8BE0C2
:10331000289F900111242E583D4C84859585821755
:103320009307E9F48F01EF012296CE010E94171056
:10333000E0919E32F0919F32828DF801828F9091C0
:103340004432981710F480934432FBE08F9FC00101
:103350001124BE018E589D4C0E94A50F07C0A0915C
:103360009E32B0919F325A968C91828FDF91CF918D
:103370001F910F9108950F931F93CF93DF930097A1
:1033800049F1FC01328D27A1321721F1EC018C01AA
:103390000E5F1F4FC8010E9417108FA18A8F44E053
:1033A00050E060E070E0481B5109610971094E87E7
:1033B0005F87688B798B90914432981710F48093D3
:1033C0004432FBE08F9FC0011124B8018E589D4C00
:1033D0000E94A50FDF91CF911F910F910895EC01ED
:1033E000E881F9810190F081E02D19951A821B8204
:1033F0006FEF7FEFCB010E94D217FACFFC016487F9
:10340000658708954F925F926F927F928F929F92FD
:10341000AF92BF92CF92DF92EF92FF920F931F93E2
:10342000CF93DF93CDB7DEB72A97CDBFDEBF4C0178
:10343000290138018CE891E2F40180839183FB013A
:103440008081882369F0DE011196319690E002C0F8
:10345000993039F09F5F8D9381918111F9CF01C02F
:1034600090E0E1E0F0E0EC0FFD1FE90FF11D1082AC
:103470007401F2E0EF0EF11CA12CB12CC12CD12C67
:10348000042F9401A201BE016F5F7F4F86E393E09A
:103490000E94EB14F4016682778240865186209167
:1034A000A0323091A132248335838092A032909251
:1034B000A132148615864090023350900333FFEFFB
:1034C0004F1A5F0A4092023350920333F40142864E
:1034D000538616861786108A118A6114710409F4BE
:1034E00044C0813079F56AE0C3010E94671F7C0106
:1034F00069EB75E00E94301FBE016F5F7F4FC7010F
:103500000E94301F6AE0C7010E94671F7C0160EBC8
:1035100075E00E94301F6AE0C7010E94671F7C01AE
:1035200062EA75E00E94301F63E0C7010E94671FD6
:10353000B2010E94AE1F62E00E94671F66E00E9417
:10354000671F13C06AE0C3010E94671F4C016DE84A
:1035500075E00E94301FBE016F5F7F4FC4010E9463
:10356000301F66E0C4010E94671F2A96CDBFDEBFF0
:10357000DF91CF911F910F91FF90EF90DF90CF904F
:10358000BF90AF909F908F907F906F905F904F9083
:103590000895CF92DF92EF92FF920F931F93CF93F4
:1035A000DF93EC017B018A819B810E9442166C01B2
:1035B0006AE0C7010E94671F8C016CEC75E00E94F5
:1035C000301F6AE0C8010E94671F8C0165EC75E03E
:1035D0000E94301FB601C8010E94301F6AE0C80176
:1035E0000E94671F8C016FEB75E00E94301F66E040
:1035F000C8010E94671F8A859B85E885F98501E1DE
:1036000021E0A701BC018E1B9F0B0E94CB1D8C816A
:103610009D81009719F0B7010E94C91ADF91CF91DF
:103620001F910F91FF90EF90DF90CF9008950F932F
:103630001F93CF93DF93EC018091A0329091A13240
:10364000009719F0BE010E94C91A6AE0CE010E94DB
:10365000671F8C0162EE75E00E94301F6AE0C801AE
:103660000E94671F8C0167ED75E00E94301F6AE0C1
:10367000C8010E94671F8C0161ED75E00E94301F38
:1036800066E0C8010E94671F809102339091033366
:10369000BC016F5F7F4F01E121E0AE0183569109CC
:1036A0000E94CB1DDF91CF911F910F9108958F92B2
:1036B0009F92AF92BF92CF92DF92EF92FF920F93C1
:1036C0001F93CF93DF93EC018B018A819B810E9432
:1036D0004216BC01C8010E94301FD801ED91FC9137
:1036E0000280F381E02D69E0C80119958A819B81F0
:1036F0000E944216FC0101900020E9F73197E81B77
:10370000F90B389748F4D801ED91FC910280F381D0
:10371000E02D69E0C8011995CE84DF84E888F98836
:10372000A884B9848A819B810E944819982E8C8430
:103730008A819B810E94ED15682FC8010E94242078
:103740006AE00E94671FEC0167E576E00E94301F87
:10375000682DCE010E9424206AE00E94671FEC01C0
:1037600065E576E00E94301F692DCE010E9424207D
:103770006AE00E94671FEC0163E576E00E94301F5B
:10378000B501CE010E94AE1F6AE00E94671FEC01E6
:1037900061E576E00E94301F6AE0CE010E94671F5B
:1037A000EC016FE476E00E94301FB701A601CE0164
:1037B0000E94E21FDF91CF911F910F91FF90EF9038
:1037C000DF90CF90BF90AF909F908F900895CF9350
:1037D000DF93EC01CB01DB01ED91FC910280F381E1
:1037E000E02DBE011995CE01DF91CF9108950F9381
:1037F0001F93CF93DF93EC018B01BC01C8010E94A2
:10380000E71B66E00E94671F8C819D81009719F07D
:10381000B8010E94F71BDF91CF911F910F9108957E
:103820000F931F93CF93DF93EC016AE00E94671F11
:103830008C0164E476E00E94301F6AE0C8010E94B7
:10384000671F8C016DE376E00E94301F66E0C801BF
:103850000E94671F6AE0CE010E94671F8C016CE224
:1038600076E00E94301F6AE0C8010E94671F8C0149
:1038700060E276E00E94301F6AE0C8010E94671F84
:103880008C016AE176E00E94301F66E0C8010E9468
:10389000671F6AE0CE010E94671F8C0169E076E035
:1038A0000E94301F6AE0C8010E94671F8C016DEF03
:1038B00075E00E94301F6AE0C8010E94671F8C01FA
:1038C00067EF75E00E94301F66E0C8010E94671F25
:1038D0008091A0329091A132009719F0BE010E9410
:1038E000F71B0E944A160E944819182F6AE0CE0161
:1038F0000E94671FEC016CEE75E00E94301F612F83
:10390000CE010E9424206AE00E94671FEC016AEE4B
:1039100075E00E94301F64E670E0CE010E94AE1F89
:103920006AE00E94671FEC0167EE75E00E94301F9D
:1039300066E0CE010E94671FDF91CF911F910F912A
:1039400008950F93CF93DF931F92CDB7DEB700E0BA
:103950002FEF3FEFA901BE016F5F7F4FFC01808514
:1039600091850E949913813019F4898190E002C0F9
:103970008FEF9FEF0F90DF91CF910F910895FC0192
:10398000808591850E948A1491E0811101C090E0A8
:10399000892F08950F93CF93DF931F92CDB7DEB792
:1039A0006983FC01228533854485558500E0BE018D
:1039B0006F5F7F4F808591850E94D21291E08111C7
:1039C00001C090E0892F0F90DF91CF910F91089562
:1039D0008F929F92BF92CF92DF92EF92FF920F93BE
:1039E0001F93CF93DF93EC01B62E4A016801790152
:1039F0000E94221F84E991E2888399838E869F86A4
:103A000040E061E08B2D0E94A41288879987CA86C6
:103A1000DB86EC86FD86DF91CF911F910F91FF90A1
:103A2000EF90DF90CF90BF909F908F900895CF92AE
:103A3000DF92EF92FF92CF93DF93EC01688179815F
:103A40008A819B810F2EF8EECF2EF3E0DF2EE12C42
:103A5000F12CF02DA70196010E9496269B01AC0146
:103A600060E472E48FE090E00E948626A701960150
:103A70000E94962669017A01AC81BD8120E432E47E
:103A80004FE050E00E94E02620E038E448EE51E0AC
:103A90000E949626C701B601620F731F841F951FEF
:103AA000DF91CF91FF90EF90DF90CF900895CF926C
:103AB000DF92EF92FF920F931F93CF93DF93CDB7D7
:103AC000DEB72F97CDBFDEBF6C018B01DB016D919F
:103AD0007D918D919C9128EE33E040E050E00E9472
:103AE0009626BA01A901C6010E94E21FD601ED91F6
:103AF000FC910280F381E02D6EE2C6011995C801A8
:103B00000E94171D8E01095F1F4FFE0131967F0134
:103B10002AE030E040E050E00E94B826E62F2887F7
:103B200039874A875B87688579858A859B8520E305
:103B30002E0FD8012E938D01AE15BF0549F71F82B8
:103B4000BE016F5F7F4FC6010E94301FC6012F96D6
:103B5000CDBFDEBFDF91CF911F910F91FF90EF900E
:103B6000DF90CF900895CF93DF93EC010FB6F894D8
:103B70000F9280912008909121088C839D830E9450
:103B80003416688379838A839B830F900FBECE019E
:103B9000DF91CF9108955F926F927F928F929F9263
:103BA000AF92BF92CF92DF92EF92FF920F931F934B
:103BB000CF93DF935C014B017A01122F702E63E0EB
:103BC000CA010E94671FA814B90408F07DC06501EE
:103BD00084E1C80ED11C00E06A2C5B2CB501C70142
:103BE0000E94AE1F6AE00E94671F69E676E00E94AD
:103BF000301F112309F46DC0002309F46AC06AE084
:103C0000C7010E94671F64E676E00E94301F61C012
:103C1000112371F001110CC08881871549F06AE009
:103C2000C7010E94671F6FE576E00E94301F01E028
:103C30006991C7010E942420DC01ED91FC91028072
:103C4000F381E02D60E21995CC16DD0609F711230A
:103C500089F06AE0C7010E94671FEC0169E576E020
:103C60000E94301FE881F9810280F381E02D60E23B
:103C7000CE011995C62DD52D699180EE860F8F3511
:103C800048F4D701ED91FC910280F381E02DC7014A
:103C9000199509C0D701ED91FC910280F381E02DC7
:103CA0006EE2C7011995CC16DD0631F7B4E1AB0E13
:103CB000B11C66E0C7010E94671F84E1C80ED11CD9
:103CC000A814B90408F488CF62E0C7010E94671FF6
:103CD00003C0C62DD52D9CCFDF91CF911F910F91A1
:103CE000FF90EF90DF90CF90BF90AF909F908F901C
:103CF0007F906F905F9008950E94BE0E08950E947D
:103D0000BE0E08950895CF93DF93FC01DA01403A87
:103D100068E0560749F480E496E08283938382E06A
:103D2000848383E0858332C0403B78E0570749F4C1
:103D300080E496E08283938386E0848387E08583B2
:103D400025C0403A89E0580749F480E696E082832E
:103D5000938382E0848383E0858318C0403B69E0DD
:103D6000560749F480E696E08283938386E0848355
:103D700087E085830BC0403A5A4041F480E896E0E2
:103D80008283938382E0848383E08583A683B783E1
:103D9000CD0101968087918703968287938725813D
:103DA000C281D3814C8181E090E0BC0102C0660FEA
:103DB000771F2A95E2F79B01242B2C832581C28152
:103DC000D3814881BC0102C0660F771F2A95E2F7B4
:103DD0009B01242B28833481C281D381288102C096
:103DE000880F991F3A95E2F78095909582238883F2
:103DF00080E113968C93139783E015968C93159717
:103E000080EF17968C93179781E216968C931697EE
:103E100088E114968C9380E8858780E4868780E229
:103E200084870680F781E02D80818081DF91CF91AA
:103E3000089581E0089580E090E0089580E008957D
:103E400008950895FC0184EA91E2808391838AE0D9
:103E50008283138283E085831482168217820895F9
:103E60000F931F93CF93DF938C01FB01DC0114961A
:103E70008C91811104C06081611117C023C0D801E9
:103E800014961C92EB01219664916623D9F0D80117
:103E9000ED91FC910280F381E02DC8011995FE019E
:103EA000649121966111F3CF0DC0EF012196D801E5
:103EB000ED91FC910280F381E02DC8011995699183
:103EC0006111F5CFDF91CF911F910F910895CF939D
:103ED000DF93EC01862F90E08B309105D8F5FC0143
:103EE0008827E250FF4F8F4F0C94D72682E08A83B9
:103EF00031C088E08A832EC08AE08A832BC080E1AB
:103F00008A8328C081E08B8325C01B8223C0E8817F
:103F1000F9810280F381E02D6DE0CE011995E881F1
:103F2000F9810280F381E02D6AE0CE01199512C07B
:103F3000E881F9810284F385E02DCE0119950AC04C
:103F4000E881F9810084F185E02DCE01199502C048
:103F500081E08C83CE01DF91CF910895FF920F9382
:103F60001F93CF93DF93CDB7DEB76197CDBFDEBF91
:103F70008C01F62E972FF8014281403121F0483014
:103F800011F0423041F4692FC8010E9424206F2DA6
:103F90000E9424200DC050E0BE016F5F7F4F8F2D27
:103FA0000E944627BE016F5F7F4FC8010E94301FED
:103FB000C8016196CDBFDEBFDF91CF911F910F91F8
:103FC000FF900895DF92EF92FF920F931F93CF938C
:103FD000DF93CDB7DEB7A197CDBFDEBF8C01D42E66
:103FE000E52EF62E972FF8012281203121F028307E
:103FF00011F0223071F4692FC8010E9424206F2D26
:104000000E9424206E2D0E9424206D2D0E942420C9
:104010000FC030E0AE014F5F5F4F6D2D7E2D8F2DB5
:104020000E941927BE016F5F7F4FC8010E94301F99
:10403000C801A196CDBFDEBFDF91CF911F910F9137
:10404000FF90EF90DF900895CF92DF92EF92FF9272
:104050000F931F93CF93DF93CDB7DEB72997CDBFD3
:10406000DEBF8C01E62EDC0113968C91139788231A
:1040700041F0ED91FC910280F381E02DC80119958A
:1040800056C0F8014281423019F56894CC24C3F837
:10409000D12C6894FF24F7F88E2D8F2151F0D80190
:1040A000ED91FC910280F381E02D61E3C801199547
:1040B00009C0D801ED91FC910280F381E02D60E30D
:1040C000C8011995F694B1E0CB1AD10829F72FC091
:1040D0004031F9F462956F700190F081E02D02801B
:1040E000F381E02D6A3010F0695C01C0605DC801A9
:1040F00019956E2D6F70D801ED91FC910280F381BE
:10410000E02D6A3010F0695C01C0605DC80119954E
:104110000EC050E0BE016F5F7F4F8E2D90E00E9479
:104120004627BE016F5F7F4FC8010E94301FC80144
:104130002996CDBFDEBFDF91CF911F910F91FF90E8
:10414000EF90DF90CF900895DC015096ED91FC91B7
:104150005197808154964C915497842329F009C03B
:104160002150310919F412C021E23EE490819423D8
:10417000B9F3908156968C915697892B80831E9621
:10418000ED91FC911F97608381E0089580E0089590
:10419000CF93DF93FC01C18DD28D28813981A38D0E
:1041A000B48D4D915C9124173507E9F3A789B08D43
:1041B0000D90BC91A02DA20FB31F8C912F5F3F4F8C
:1041C000288339832436310528F0018CF28DE02DC7
:1041D0001082118290E0DF91CF910895CF93DF9309
:1041E000EC01A98DBA8DEB8DFC8D81E04D915C9138
:1041F000208131814217530709F480E0DF91CF918C
:104200000895DC01ED91FC910280F381E02D6CE0DA
:1042100019950895EF92FF920F931F93CF93DF9319
:10422000EC017B018A010E94221FA801B701CE0187
:1042300008960E94831E84EB91E288839983003A5A
:1042400088E0180769F48EEB92E38F8B988F84EBEC
:1042500092E3898F9A8F8AEA92E38B8F9C8F42C078
:10426000003BE8E01E0769F48CEB92E38F8B988F9C
:1042700082EB92E3898F9A8F88EA92E38B8F9C8FEF
:1042800031C0003AF9E01F0769F48AEB92E38F8BA3
:10429000988F80EB92E3898F9A8F86EA92E38B8FD7
:1042A0009C8F20C0003B89E0180769F488EB92E3FB
:1042B0008F8B988F8EEA92E3898F9A8F84EA92E3AC
:1042C0008B8F9C8F0FC0003A1A4061F486EB92E30B
:1042D0008F8B988F8CEA92E3898F9A8F82EA92E390
:1042E0008B8F9C8F0F89188D84E690E00E947F1E33
:1042F000F80180839183E98DFA8D10821182EB8D14
:10430000FC8D10821182DF91CF911F910F91FF9050
:10431000EF9008951F920F920FB60F92112408B6D6
:104320000F9218BE0BB60F921BBE2F933F938F9325
:104330009F93EF93FF932091A008E091BE32F091FC
:10434000BF328091AA329091AB32E80FF91F2083DF
:104350008091AA329091AB3201968436910560F437
:104360008093AA329093AB322091B4323091B5321F
:1043700082179307F1F40CC01092AA321092AB325C
:104380008091B4329091B5321816190691F40EC08E
:1043900001968436910528F48093B4329093B53217
:1043A00008C01092B4321092B53203C081E090E0A0
:1043B000F3CFFF91EF919F918F913F912F910F90AC
:1043C0000BBE0F9008BE0F900FBE0F901F90189558
:1043D0001F920F920FB60F92112408B60F9218BEBB
:1043E0000BB60F921BBE2F933F938F939F93EF9328
:1043F000FF932091B008E091BC32F091BD328091E2
:10440000A8329091A932E80FF91F20838091A83239
:104410009091A93201968436910560F48093A83278
:104420009093A9322091B2323091B3328217930720
:10443000F1F40CC01092A8321092A9328091B232DD
:104440009091B3321816190691F40EC00196843675
:10445000910528F48093B2329093B33208C0109241
:10446000B2321092B33203C081E090E0F3CFFF91FB
:10447000EF919F918F913F912F910F900BBE0F90D5
:1044800008BE0F900FBE0F901F9018951F920F92AD
:104490000FB60F92112408B60F9218BE0BB60F92EA
:1044A0001BBE2F933F938F939F93EF93FF93209186
:1044B000A009E091BA32F091BB328091AA3290917A
:1044C000AB32E80FF91F20838091A6329091A7327A
:1044D00001968436910560F48093A6329093A732BA
:1044E0002091B0323091B13282179307F1F40CC0B1
:1044F0001092A6321092A7328091B0329091B132D0
:104500001816190691F40EC001968436910528F408
:104510008093B0329093B13208C01092B0321092B2
:10452000B13203C081E090E0F3CFFF91EF919F9112
:104530008F913F912F910F900BBE0F9008BE0F905F
:104540000FBE0F901F9018951F920F920FB60F92EB
:10455000112408B60F9218BE0BB60F921BBE2F93F4
:104560003F938F939F93EF93FF932091B009E09136
:10457000B832F091B9328091A4329091A532E80F0F
:10458000F91F20838091A4329091A5320196843640
:10459000910560F48093A4329093A5322091AE32BD
:1045A0003091AF3282179307F1F40CC01092A4320D
:1045B0001092A5328091AE329091AF321816190642
:1045C00091F40EC001968436910528F48093AE32A2
:1045D0009093AF3208C01092AE321092AF3203C047
:1045E00081E090E0F3CFFF91EF919F918F913F9108
:1045F0002F910F900BBE0F9008BE0F900FBE0F9023
:104600001F9018951F920F920FB60F92112408B6A3
:104610000F9218BE0BB60F921BBE2F933F938F9332
:104620009F93EF93FF932091A00AE091B632F0910F
:10463000B7328091A2329091A332E80FF91F208304
:104640008091A2329091A33201968436910560F454
:104650008093A2329093A3322091AC323091AD324C
:1046600082179307F1F40CC01092A2321092A33279
:104670008091AC329091AD321816190691F40EC0AB
:1046800001968436910528F48093AC329093AD3234
:1046900008C01092AC321092AD3203C081E090E0BD
:1046A000F3CFFF91EF919F918F913F912F910F90B9
:1046B0000BBE0F9008BE0F900FBE0F901F90189565
:1046C000FC01848195810E94921490E00895FC0180
:1046D000848195810E94921491E0811101C090E043
:1046E000892F0895FC01848195810E94921491E0A4
:1046F000811190E0892F0895FC01848195810E94A9
:10470000921490E00895FC01848195810E94921496
:1047100091E0811101C090E0892F0895FC0184810E
:1047200095810E94921491E0811190E0892F089563
:10473000FC01848195810E948A1490E00895FC0117
:10474000848195810E948A1491E0811101C090E0DA
:10475000892F0895FC01848195810E948A1491E03B
:10476000811190E0892F0895FC01848195810E9438
:104770008A1490E00895FC01848195810E948A1436
:1047800091E0811101C090E0892F0895FC0184819E
:1047900095810E948A1491E0811190E0892F0895FB
:1047A0000F9301E02FEF3FEFA901FC018481958178
:1047B0000E9499130F9108950F93CF93DF931F9247
:1047C0001F92CDB7DEB701E02FEF3FEFA901BE0189
:1047D0006F5F7F4FFC01848195810E9499138981CD
:1047E0009A810F900F90DF91CF910F9108950F93C1
:1047F00000E02FEF3FEFA901FC01848195810E9429
:1048000099130F9108950F93CF93DF931F921F92E7
:10481000CDB7DEB700E02FEF3FEFA901BE016F5F1C
:104820007F4FFC01848195810E94991389819A812F
:104830000F900F90DF91CF910F9108950F9301E0AA
:104840002FEF3FEFA901FC01848195810E9499130C
:104850000F9108950F93CF93DF931F921F92CDB7BF
:10486000DEB701E02FEF3FEFA901BE016F5F7F4F81
:10487000FC01848195810E94991389819A810F900E
:104880000F90DF91CF910F9108950F9300E02FEFDC
:104890003FEFA901FC01848195810E9499130F913A
:1048A00008950F93CF93DF931F921F92CDB7DEB77A
:1048B00000E02FEF3FEFA901BE016F5F7F4FFC01CA
:1048C000848195810E94991389819A810F900F901C
:1048D000DF91CF910F910895CF93DF931F92CDB7C2
:1048E000DEB7AE014F5F5F4FFC01848195810E946E
:1048F0005D140F90DF91CF910895CF93DF9300D097
:10490000CDB7DEB7AE014D5F5F4FBE016F5F7F4F2A
:10491000FC01848195810E945D1489819A8123968E
:10492000CDBFDEBFDF91CF910895CF93DF931F926C
:10493000CDB7DEB7AE014F5F5F4FFC01848195813B
:104940000E945D140F90DF91CF910895CF93DF9374
:1049500000D0CDB7DEB7AE014D5F5F4FBE016F5FD8
:104960007F4FFC01848195810E945D1489819A8129
:104970002396CDBFDEBFDF91CF910895CF93DF9314
:104980001F92CDB7DEB7198221E0AE014F5F5F4FB6
:10499000FC01848195810E946D1391E0811101C019
:1049A00090E0892F0F90DF91CF910895CF93DF93FF
:1049B0001F92CDB7DEB7198220E0AE014F5F5F4F87
:1049C000FC01848195810E946D1391E0811101C0E9
:1049D00090E0892F0F90DF91CF910895CF93DF93CF
:1049E0001F92CDB7DEB7198221E0AE014F5F5F4F56
:1049F000FC01848195810E946D1391E0811101C0B9
:104A000090E0892F0F90DF91CF910895CF93DF939E
:104A10001F92CDB7DEB7198220E0AE014F5F5F4F26
:104A2000FC01848195810E946D1391E0811101C088
:104A300090E0892F0F90DF91CF9108950F93FC01A3
:104A4000268137814085518501E0848195810E94CE
:104A5000D21291E0811101C090E0892F0F91089549
:104A60000F93FC01268137814085518500E08481C8
:104A700095810E94D21291E0811101C090E0892FAE
:104A80000F9108950F93FC01268137814085518550
:104A900001E0848195810E94D21291E0811101C0D0
:104AA00090E0892F0F9108950F93FC0126813781A3
:104AB0004085518500E0848195810E94D21291E069
:104AC000811101C090E0892F0F9108950F93CF932A
:104AD000DF931F92CDB7DEB72FB72983F8941BBEA3
:104AE000FC0108ED04BF608389818FBF0F90DF91C7
:104AF000CF910F910895EF92FF920F931F93CF9351
:104B0000DF93CDB7DEB7C855D109CDBFDEBFF8946E
:104B1000E0E5F0E0808182608083818181FFFDCFCC
:104B200060914000687F616080E490E00E946625AB
:104B3000E0E5F0E080818E7F80839DEF88ED08B610
:104B400018BE84BF9093800008BE40EA5AE060E03F
:104B500070E0CE0101960E940A2167E0CE01019625
:104B60000E94671F8C0160EC71E20E94301F66E0BA
:104B7000C8010E94671F66E00E94671F8E010F5FD9
:104B80001F4F20E332EF40E050E060EA74E0CE01D6
:104B90004E960E94B507A801BE01625E7F4FCE010E
:104BA000C7960E94330AA801BE01625E7F4FCE0104
:104BB000885B9F4F0E944D0982E190E00E947C1E1D
:104BC00020E830E040E06FED71E20E944E0C88E199
:104BD00090E00E947C1E9E01295C3F4F790120E8F5
:104BE00030E042E067EE71E20E94310C87E0809392
:104BF000A20078940E94FB1580E090E0C85ADF4F35
:104C0000CDBFDEBFDF91CF911F910F91FF90EF904D
:104C10000895CF92DF92EF92FF920F931F93CF935D
:104C2000DF930AE010E020E030E040E050E060E296
:104C300070E082EF92E30E94E81CC8EED2E31A8291
:104C40001B8282EF91E28883998340E062E08FEFDC
:104C50000E94A4128C839D830F2EFAE0CF2ED12CBC
:104C6000E12CF12CF02DCE82DF82E886F986CEEDA4
:104C7000D2E31A821B8206E112E20883198340E024
:104C800062E08FEF0E94A4128C839D83CE82DF822C
:104C9000E886F986C4EDD2E31A821B820883198361
:104CA00040E062E08FEF0E94A4128C839D83CE824D
:104CB000DF82E886F986CAECD2E31A821B82088377
:104CC000198340E062E08FEF0E94A4128C839D83E1
:104CD000CE82DF82E886F986C0ECD2E31A821B829C
:104CE0000883198340E062E08FEF0E94A4128C8356
:104CF0009D83CE82DF82E886F986DF91CF911F9176
:104D00000F91FF90EF90DF90CF900895DB018F938C
:104D10009F930E94E026BF91AF91A29F800D911DAD
:104D2000A39F900DB29F900D11240895A1E21A2E19
:104D3000AA1BBB1BFD010DC0AA1FBB1FEE1FFF1F3F
:104D4000A217B307E407F50720F0A21BB30BE40B8F
:104D5000F50B661F771F881F991F1A9469F76095D6
:104D60007095809590959B01AC01BD01CF01089590
:104D7000052E97FB1EF400940E94CF2657FD07D006
:104D80000E94962607FC03D04EF40C94CF26509533
:104D90004095309521953F4F4F4F5F4F0895909527
:104DA0008095709561957F4F8F4F9F4F0895EE0FBF
:104DB000FF1F881F8BBF0790F691E02D1BBE199433
:104DC0000E94EB26A59F900DB49F900DA49F800D8F
:104DD000911D11240895A29FB001B39FC001A39F0C
:104DE000700D811D1124911DB29F700D811D112424
:104DF000911D0895FB01DC0102C001900D9241500C
:104E00005040D8F70895DC0101C06D9341505040E7
:104E1000E0F70895FB01DC014150504048F001905B
:104E20000D920020C9F701C01D9241505040E0F79B
:104E300008952532310520F4223010F00C942427F7
:104E4000FA011082CA010895BB27FA01A62F621742
:104E5000710581059105330B30FB66F0AA27660FBB
:104E6000771F881F991FAA1FA21710F0A21B639516
:104E70003850A9F7A05DAA3308F0A95DA19336F7D1
:104E8000B111B1931082CA010C946B2745325105C0
:104E900020F4423010F00C945127FB011082CB011A
:104EA0000895BB27FB015527AA27880F991FAA1F22
:104EB000A41710F0A41B83955051B9F7A05DAA3335
:104EC00008F0A95DA193009779F7B111B193119200
:104ED000CB010C946B27DC01FC01672F71917723C8
:104EE000E1F7329704C07C916D9370836291AE17A5
:0A4EF000BF07C8F30895F894FFCF40
:104EFA00FF0FFFFFFFFF000000007C039103BC03CC
:104F0A007103EE036572726F7200646F6E650072F0
:104F1A00207061636B65740074207061636B6574E3
:104F2A0000722065786368616E6765007420657831
:104F3A006368616E6765007374617274005420530C
:104F4A0074617475733A20005220537461747573D6
:104F5A003A2000493243207472616E73666572208A
:104F6A006661696C6564207769746820737461741A
:104F7A0075733A20004932434D6173746572206338
:104F8A007265617465640044657465637465642060
:104F9A0069326320616464723A20000000000021D3
:104FAA00085F0500000000FB0374050000000035DF
:104FBA00049205000000006F044A05000000009FEB
:104FCA0004350500000000C504200500000000D2D9
:104FDA00050B0500000000DA04F60400000000B02A
:104FEA0005E104000000003B0911092909F908B983
:104FFA0008AD08E208D108950889087F0863087493
:10500A000858086D085108000000003B09110929D9
:10501A0009F908B908AD08E208D108950889087F96
:10502A00086308740858086D0851080000000082D7
:10503A001E821E821E821E821E000000004408007C
:10504A00000000ED09000000000C0A000000001931
:10505A000A00000000260A783A2000793A20007AED
:10506A003A200000000000E20B571B0000000091EC
:10507A000D571B49444C450000000000821E571B77
:10508A0000000000191FCA1CBF1CA11C201F211FE1
:10509A0000000000191F821E1E1F1B1F201F211F38
:1050AA0000000000191FA420EE20C820201F0121A3
:1050BA004672656552544F5320586D656761205496
:1050CA00657374696E672050726F6772616D0055FF
:1050DA00736572496E740053656E736F72000000D7
:1050EA0000003025D6241E25BE240324F7237D2460
:1050FA006C24DC23D023AA2372239F2367239823BB
:10510A00602300000000542506254225EE24512480
:10511A004524A62495242A241E24C6238E23BB2391
:06512A008323B4237C2363
:00000001FF
