:100000000C94EB020C9421030C9421030C94210317
:100010000C9421030C9421030C9421030C942103D0
:100020000C9421030C9421030C9421030C942103C0
:100030000C9421030C9421030C9421030C942103B0
:100040000C9421030C9421030C9421030C942103A0
:100050000C9421030C9421030C94130A0C94210397
:100060000C9421030C94E8190C9421030C942103A3
:100070000C94461A0C9421030C9421030C94210334
:100080000C9421030C9421030C9421030C94210360
:100090000C9421030C9421030C9421030C94210350
:1000A0000C9421030C9421030C9421030C94210340
:1000B0000C9421030C9421030C9421030C94210330
:1000C0000C9421030C9421030C9421030C94210320
:1000D0000C9421030C9421030C9421030C94210310
:1000E0000C9421030C9421030C94601B0C942103A9
:1000F0000C9421030C9421030C9421030C942103F0
:100100000C9421030C9421030C9421030C942103DF
:100110000C9421030C9421030C9421030C942103CF
:100120000C9421030C9421030C9421030C942103BF
:100130000C9421030C9421030C9421030C942103AF
:100140000C9421030C9421030C9421030C9421039F
:100150000C9421030C9421030C9421030C9421038F
:100160000C94A41A0C9421030C9421030C94021BEC
:100170000C9421030C9421030C9421030C9421036F
:100180000C9421030C9421030C9421030C9421035F
:100190000C9421030C9421030C9421030C9421034F
:1001A0000C9421030C9421030C9421030C9421033F
:1001B0000C9421030C9421030C9421030C9421032F
:1001C0000C9421030C9421030C9421030C9421031F
:1001D0000C9421030C9421030C9421030C9421030F
:1001E0000C9421030C9421030C9421030C942103FF
:1001F0000C9421030C9421030C942103D417D717DA
:10020000DA17DD17E017E317E517F617FE170818DA
:1002100006180C948E1D0C94A31C0C9426190C9497
:10022000F31C0C94FE170C94F6170C94A8030C9472
:10023000F30C0C947E170C94411E0C94AF1C0C9480
:10024000EF050C94121C0C94FF140C94A01D0C943C
:100250003B030C9402190C94191C0C947F170C94FA
:10026000EC1B0C94241C0C94E0170C947C1D0C9437
:10027000D4170C94FD1B0C94B21D0C94E3170C9432
:10028000081C0C94551C0C94D7170C94E8020C9481
:10029000E11B0C945F190C9493030C942E1C0C948A
:1002A00023030C94341D0C94E0160C94CA1C0C947B
:1002B000F61B0C94DB1C0C94881C0C944C1D0C94A9
:1002C0007C1C0C9479170C94C51B0C9477170C9418
:1002D0007C170C9406180C9408180C94041D0C94AC
:1002E000AC030C94B5130C941C1D0C94DA170C94ED
:1002F0006C030C94D01B0C94DD170C94E5170C9434
:100300004C190C943A1C0C94611C0C941D150C9403
:10031000641D0C9428150C94DA1B0C94BE1B2C2025
:10032000544343304343413D002F002C2048656136
:100330007020667265653A200054696D653A200048
:100340004D61722031352032303138004D45343026
:1003500035206261736520726164696F2070726F0D
:100360006772616D2056302E3420002020202068D6
:100370003A20202048414C50210020202020653A7E
:100380002020204578697420636F6D6D616E642054
:100390006D6F64650020202020733A202020537464
:1003A00061636B2064756D7020666F722074617379
:1003B0006B730020202020763A202020566572732F
:1003C000696F6E20616E6420736574757020696E4C
:1003D000666F726D6174696F6E00202020206E3A26
:1003E00020202053686F77207468652074696D65DC
:1003F000207269676874206E6F77002020496E2034
:10040000636F6D6D616E64206D6F6465206F6E6CDF
:10041000793A00202043746C2D413A20456E746572
:100420007220636F6D6D616E64206D6F6465002076
:100430002043746C2D433A205265736574207468B0
:100440006520415652002068656C70004D4534307F
:1004500035206261736520726164696F2070726F0C
:100460006772616D2056302E3420001B5B33306D77
:10047000001B5B34366D00496C6C6567616C2073E2
:10048000746174652120526573657474696E6720A8
:10049000415652003A5754463F00457869742063EC
:1004A0006F6D6D616E64206D6F646500526573657C
:1004B0007474696E672041565200507265737320E0
:1004C0004374726C2D4120666F7220636F6D6D6195
:1004D0006E64206D6F646500526573657474696E37
:1004E00067004552524F5220696E207461736B2031
:1004F000004552524F52206372656174696E6720E5
:100500007461736B20002C20737461636B206174C1
:1005100020307800206372656174656400546173F3
:100520006B20001B5B32326D005461736B3A20000C
:100530001B5B316D001B5B32326D005461736B3A93
:100540002049444C45001B5B316D000909002F0018
:1005500049444C45090930092D0900092D2D2D2D3F
:1005600000092D2D2D2D2D2D2D2D2D2D002D2D2D39
:100570002D09092D2D2D2D092D2D2D2D2D00095243
:10058000756E730009467265652F546F74616C0057
:100590004E616D6509095072692E09537461746565
:1005A0000009537461636B005461736B0909202067
:1005B000092000090009002F00090009001B5B3217
:1005C000326D001B5B316D001B5B316D0020200024
:1005D0000E944D12411E11241FBECFEFCDBFDFE39D
:1005E000DEBF00E00CBF18BE19BE1ABE1BBE10E273
:1005F000A0E0B0E2EAE6FFE300E00BBF02C0079034
:100600000D92AE3DB107D9F71BBE21E3AEEDB0E2CE
:1006100001C01D92AC3AB207E1F712E0CBEED2E096
:1006200000E006C021970109802FFE010E940F1FE4
:10063000CA3ED10780E00807A9F70E94D91D0C9493
:10064000B31F0C9400000F931F93CF93DF93EC0123
:10065000CB010E811F81DB01ED91FC910084F185BE
:10066000E02D1995F80186838A819B81DF91CF91D6
:100670001F910F910895CF93DF931F921F92CDB7D3
:10068000DEB7DC0118968D919C91199789839A8326
:1006900029813A812150310929833A83232B91F012
:1006A0001696ED91FC9117979481907589F70AC081
:1006B00014968D919C9115970AC012968D919C91DC
:1006C000139705C029813A81232BB9F7F1CF0F90F9
:1006D0000F90DF91CF910895EF92FF920F931F93A8
:1006E000CF93DF938C01EB01E881F981008CF18DD0
:1006F000E02DCB011995882361F0F801E680F780A1
:10070000E881F9810084F185E02DCE011995F7018A
:100710008783F80182819381DF91CF911F910F919F
:10072000FF90EF900895CF93DF93EC01CB01DB01B5
:10073000ED91FC910488F589E02D1995882319F035
:100740008A819B8102C08C819D81DF91CF91089528
:10075000FC01828193810895FC0182819381089537
:100760000F931F93CF93DF93EC018B0188E090E010
:100770000E94DA162AE030E2FC01208331830683EE
:1007800017838A839B838AE090E00E94DA16FC013B
:1007900089899A8920E130E2208331830683178397
:1007A00080879187EC83FD8388E090E00E94DA16D1
:1007B00026E130E2FC0120833183068317838E8398
:1007C0009F8388E090E00E94DA162CE130E2FC0181
:1007D00020833183068317838887998788E090E098
:1007E0000E94DA1628E230E2FC012083318306837E
:1007F00017838A879B8788E090E00E94DA1622E2BE
:1008000030E2FC0120833183068317838C879D8728
:1008100080E197E2898B9A8B8C819D81EA81FB81B3
:1008200082839383848395838A859B852E813F81F0
:10083000EC81FD8122833383848395838885998528
:10084000EE81FF8182839383848395838C819D8154
:100850002C853D85E885F9852283338384839583C0
:10086000DF91CF911F910F910895CF93DF93EC010A
:100870009A01AB01220F331F441F551F60E078E43B
:1008800088EE91E00E94CE1E25502E83EA81FB81E6
:100890002583DF91CF910895AF92BF92CF92DF92DF
:1008A000EF92FF920F931F93CF93DF938C01EB0195
:1008B00069017A0183E190E00E94DA165C01BE01D1
:1008C0000E94B003D801AD92BC9211971296CD93BD
:1008D000DC931397F801C782D086E186F286C03890
:1008E000F4E0DF0739F480E496E014968D939C934E
:1008F000159709C0C03AB4E0DB0729F480E896E018
:10090000F80184839583D8011496ED91FC91159795
:1009100083E081831496ED91FC91159788E3808B99
:100920001496ED91FC911597818B82E08A83B70133
:10093000A601C8010E9435048C818D6C8C8388E0EF
:100940008983DF91CF911F910F91FF90EF90DF90FE
:10095000CF90BF90AF9008950F931F93CF93DF93E5
:10096000EC010E9460128EE290E288839983DF910D
:10097000CF911F910F9108950F931F93CF93DF9302
:10098000EC016AE08E819F810E94C5178C0161E7AE
:1009900074E00E948E176AE0C8010E94C5178C019E
:1009A0006BE674E00E948E1767E0C8010E94C517CD
:1009B0006AE08E819F810E94C5178C016CE474E00F
:1009C0000E948E176AE0C8010E94C5178C0166E478
:1009D00074E00E948E1766E0C8010E94C5176AE0A5
:1009E0008E819F810E94C5178C016FE274E00E9486
:1009F0008E1766E0C8010E94C5176AE08E819F814C
:100A00000E94C5178C0163E174E00E948E1766E0B6
:100A1000C8010E94C5176AE08E819F810E94C51798
:100A20008C016BEF73E00E948E1766E0C8010E9494
:100A3000C5176AE08E819F810E94C5178C016AEDFF
:100A400073E00E948E1766E0C8010E94C5176AE035
:100A50008E819F810E94C5178C0163EB73E00E9419
:100A60008E1766E0C8010E94C5176AE08E819F81DB
:100A70000E94C5178C0165E973E00E948E1766E03D
:100A8000C8010E94C5176AE08E819F810E94C51728
:100A90008C016AE773E00E948E1766E0C8010E942D
:100AA000C5176AE08E819F810E94C517EC016BE635
:100AB00073E00E948E1766E0CE010E94C517DF9199
:100AC000CF911F910F910895AF92BF92CF92DF9275
:100AD000EF92FF920F931F93CF93DF9300D000D03C
:100AE000CDB7DEB78C0119821A821B821C821D824F
:100AF0001E820E94E9076C01CE0101960E94111628
:100B00005C0166E0F801868197810E94C5176AE062
:100B10000E94C5177C016CE473E00E948E176AE0A6
:100B2000C7010E94C5177C0160E473E00E948E1724
:100B300066E0C7010E94C5176AE00E94C5177C01E4
:100B400069E373E00E948E17B501C7010E94B515D5
:100B50006AE00E94C5177C016BE273E00E948E1769
:100B6000B601C7010E940C186AE00E94C5177C01FB
:100B700069E273E00E948E174FEF5FE060E070E083
:100B8000C7010E944018C0902808D09029086AE048
:100B9000F801868197810E94C5177C016EE173E0A0
:100BA0000E948E17B601C7010E940C1866E00E94D1
:100BB000C51766E00E94C517F801868197810E94DB
:100BC0006E142696CDBFDEBFDF91CF911F910F919E
:100BD000FF90EF90DF90CF90BF90AF900895CF93AC
:100BE000DF9300D000D0CDB7DEB78C0119821A8216
:100BF0001B821C821D821E826AE0DC0116968D918A
:100C00009C9117970E94C5177C016AEB74E00E94C3
:100C10008E1766E0C7010E94C517F80184858823F6
:100C200021F0813009F45DC0D8C086819781DC0154
:100C3000ED91FC910480F581E02D19958823A9F1AF
:100C4000F80186819781DC01ED91FC910680F781A6
:100C5000E02D1995992781309105F9F0039709F056
:100C6000D8C06AE0F801868197810E94C5178C017F
:100C70006CEA74E00E948E1766E0C8010E94C517F6
:100C800093E088ED08B618BE84BF909380008091F1
:100C9000820081FDFCCF08BEFFCFC8010E94BC04CA
:100CA00061E0C8010E945C12B4C08AE991E30E942D
:100CB0001D15882309F4ADC0D8011696ED91FC915D
:100CC00017970190F081E02DE280F3808AE991E3AB
:100CD0000E94FF14682FF80186819781F70119950A
:100CE00098C086819781DC01ED91FC910480F581AB
:100CF000E02D1995882309F48CC0F801868197812D
:100D0000DC01ED91FC910680F781E02D19959C01A5
:100D100033272836310559F13CF42B31310559F18F
:100D20002536310541F13BC023373105C1F0263767
:100D3000310589F02E36310591F5CE0101960E94DC
:100D40001116BC01F801868197810E94B51566E0F5
:100D50000E94C5175EC0C8010E9464055AC0D80130
:100D600016968D919C9117970E94751352C0C801D9
:100D70000E94BC044EC06AE0F801868197810E94FF
:100D8000C5177C016AE974E00E948E1766E0C7010E
:100D90000E94C51760E0C8010E945C123AC0F801C9
:100DA000A681B781ED91FC9111970280F381E02D2E
:100DB000682FCD0119956AE0D80116968D919C9106
:100DC00017970E94C5177C0164E974E00E948E1792
:100DD00066E0C7010E94C5171CC06AE0F801868161
:100DE00097810E94C5178C0167E774E00E948E17F7
:100DF00066E0C8010E94C51793E088ED08B618BEEA
:100E000084BF909380008091820081FDFCCF08BE5A
:100E1000FFCFF80186859785A089B1890196A11D2C
:100E2000B11D86879787A08BB18B61E070E080E071
:100E300090E00E943010F1CE0F931F93CF93DF9379
:100E4000EC010E948C0E8091DE2081111DC0A3EE6A
:100E5000B0E2E7EEF0E2ED93FC93119712961D924B
:100E60001C921397AFEDB0E28FEF9FE012968D9337
:100E70009C9313971D921C92119782839383A08356
:100E8000B18381E08093DE20209709F45FC09E014A
:100E90002B5F3F4F2496CE3FDF4008F05AC0E091D1
:100EA000E320F091E420A3EEB0E202C0DF01FC01F8
:100EB000828193818217930720F48081918100972A
:100EC000A9F7C0E2EF3DFC0709F446C0CD91DC91E3
:100ED00011978E010B5F1F4F808191818D939C93A1
:100EE00082819381821B930B8B30910510F1BF019E
:100EF000620F731FDB0112968D939C9313972283CD
:100F0000338312964D915C91139783EE90E201C06A
:100F1000CD01EC01A881B98112962D913C911397D6
:100F200024173507A8F3EB01A883B983DC016D937F
:100F30007C93809100209091012022813381821B3B
:100F4000930B809300209093012008C000E010E0F4
:100F500005C000E010E002C000E010E00E94AE0F0B
:100F6000C801DF91CF911F910F9108950F931F93A7
:100F7000CF93DF93009741F1EC018C0105501109EB
:100F80000E948C0EF80142815381A3EEB0E201C0B1
:100F9000DF01ED91FC9111972281338124173507F0
:100FA000B8F32597E883F9830D931C9320910020D3
:100FB000309101208A819B81820F931F80930020B2
:100FC000909301200E94AE0FDF91CF911F910F915E
:100FD000089580910020909101200895FC010396CE
:100FE000818392834FEF5FEFBA014383548365831C
:100FF0007683878390878187928710820895FC018A
:10100000128613860895CF93DF93FC01DB012181C3
:101010003281E9018C819D8114968D939C93159763
:101020008181928116968D939C9317978C819D81D7
:10103000EC016E837F83E9016C837D83618372831E
:101040001A96ED93FC931B9780818F5F8083DF91CD
:10105000CF9108950F931F93CF93DF93EB010881F6
:1010600019812A813B810F3F4FEF14072407340772
:1010700031F4DC011996ED91FC911A971FC0FC0127
:101080003396DC0117964D915C911897DA014D91DA
:101090005D916D917C91041715072607370770F055
:1010A0000480F581E02DA481B5814D915D916D9114
:1010B0007C91041715072607370790F7A481B5819F
:1010C000AC83BD831696CD93DC931797EE83FF8395
:1010D000C483D5838A879B87FC0120812F5F20836F
:1010E000DF91CF911F910F910895FC01A481B581EB
:1010F0008681978116968D939C931797A681B781C9
:101100008481958114968D939C931597A285B385C0
:1011100011968D919C911297E817F90731F4868109
:10112000978111968D939C931297128613868C91BA
:1011300081508C9308958093AA319093AB3131E123
:10114000FC013083319722E220833197A3E3A0830F
:101150003197608331977083319710823197108275
:10116000319760E860833197108231971082319710
:101170001082319762E06083319763E0608331973A
:1011800064E06083319765E06083319766E0608357
:10119000319767E06083319768E06083319769E059
:1011A0006083319760E1608331973083319732E11A
:1011B0003083319733E13083319734E13083319795
:1011C00035E13083319736E13083319737E1308331
:1011D000319738E13083319739E13083319730E20C
:1011E0003083319731E2308331972083319723E286
:1011F00020833197408331975083319726E22083B3
:10120000319727E22083319728E22083319729E222
:101210002083319720E32083319721E3208389972E
:1012200008958CE7809369088FEF8093680881E0C8
:101230008093400891E19093410880934708A091E2
:101240004631B0914731CD91CDBFDD91DEBFFF91E9
:10125000EF91DF91CF91BF91AF919F918F917F914E
:101260006F915F914F913F912F911F910F91FF903F
:10127000EF90DF90CF90BF90AF909F908F907F9036
:101280006F905F904F903F902F901F900F900CBEEB
:101290000F900BBE0F900FBE0F90089508950F9200
:1012A0000FB6F8940F920BB60F920CB60F921F92D6
:1012B00011242F923F924F925F926F927F928F9262
:1012C0009F92AF92BF92CF92DF92EF92FF920F93D5
:1012D0001F932F933F934F935F936F937F938F93BE
:1012E0009F93AF93BF93CF93DF93EF93FF93A0911F
:1012F0004631B09147310DB60D920EB60D920E9457
:101300005E10A0914631B0914731CD91CDBFDD91B6
:10131000DEBFFF91EF91DF91CF91BF91AF919F9190
:101320008F917F916F915F914F913F912F911F917D
:101330000F91FF90EF90DF90CF90BF90AF909F9074
:101340008F907F906F905F904F903F902F901F9065
:101350000F900CBE0F900BBE0F900FBE0F90089514
:101360000F920FB6F8940F920BB60F920CB60F9225
:101370001F9211242F923F924F925F926F927F9211
:101380008F929F92AF92BF92CF92DF92EF92FF9295
:101390000F931F932F933F934F935F936F937F937D
:1013A0008F939F93AF93BF93CF93DF93EF93FF936D
:1013B000A0914631B09147310DB60D920EB60D9207
:1013C0000E94AD0E0E945E10A0914631B09147314F
:1013D000CD91CDBFDD91DEBFFF91EF91DF91CF9138
:1013E000BF91AF919F918F917F916F915F914F913D
:1013F0003F912F911F910F91FF90EF90DF90CF9031
:10140000BF90AF909F908F907F906F905F904F9024
:101410003F902F901F900F900CBE0F900BBE0F901F
:101420000FBE0F9008950E94B0091895CF93DF93D7
:10143000EC0188A181110BC088819981892BE1F58C
:101440008A819B810E9419121A821B8235C0411128
:1014500017C0482F50E08C819D810E94321F28A127
:101460008C819D81820F911D8C839D832A813B817C
:101470008217930708F1888199818C839D831CC012
:10148000482F50E08E819F810E94321F88A190E0FA
:101490009195819591092E813F81280F391F2E83C7
:1014A0003F83488159812417350730F42A813B81D5
:1014B000820F931F8E839F838E8D8F5F8E8FDF9120
:1014C000CF910895FC01808191810097A1F040A106
:1014D00050E026813781240F351F26833783A28170
:1014E000B3812A173B0710F086839783CB0166816F
:1014F00077810E94321F08950F931F93CF93DF933C
:10150000EC010FB6F8940F928AA11816B4F48B89E7
:10151000811105C012C08B89811104C00EC08E01DB
:101520000D5E1F4FC8010E94E51081110E94A2119B
:101530008AA181508AA3181674F38FEF8AA30F90A3
:101540000FBE0FB6F8940F9289A11816B4F48885CF
:10155000811105C012C08885811104C00EC08E01A2
:10156000085F1F4FC8010E94E51081110E94A2115F
:1015700089A1815089A3181674F38FEF89A30F9066
:101580000FBEDF91CF911F910F9108951F93CF93BD
:10159000DF93613059F0FC012389308531112CC073
:1015A00011E0211110E0211128C001C011E0EC016F
:1015B0004881598128A130E06F8D629FC001639FEF
:1015C000900D1124BA01680F791F6A837B831E8EE8
:1015D0004C835D83821B930B840F951F8E839F83A7
:1015E0008FEF89A38AA3CE0108960E94EE07CE0151
:1015F00043960E94EE0701C010E0812FDF91CF914A
:101600001F9108950F931F93CF93DF93882301F1C8
:10161000062F182F83E290E00E941C07EC01892B13
:10162000C9F0109FC001112401960E941C078883F5
:101630009983892B39F01F8F08A361E0CE010E94A6
:10164000C60A08C0CE010E94B607C0E0D0E002C0C2
:10165000C0E0D0E0CE01DF91CF911F910F910895AE
:10166000AF92BF92CF92DF92EF92FF920F931F93B0
:10167000CF93DF93CDB7DEB72997CDBFDEBF7C0117
:101680005B012E833F834887598710E06C0188E017
:10169000C80ED11C0FB6F8940F92F701968D878D66
:1016A0009817A8F4402FB501C7010E94160AF70148
:1016B0008389882341F0C70143960E94E510813059
:1016C00011F40E944F090F900FBE81E056C08E8129
:1016D0009F81A885B985892B8A2B8B2B21F40F90AC
:1016E0000FBE80E04AC0111105C0CE0101960E94D4
:1016F000241111E00F900FBE0E948C0E0FB6F894CB
:101700000F92F70181A18F3F09F411A2F70182A185
:101710008F3F09F412A20F900FBEBE016A5F7F4F88
:10172000CE0101960E943511811121C00FB6F894A7
:101730000F92F701968D0F900FBE878D981311C0F1
:101740004E815F8168857985C6010E94BB10C70103
:101750000E947C0A0E94AE0F81119CCF0E944F090B
:1017600099CFC7010E947C0A0E94AE0F93CFC70198
:101770000E947C0A0E94AE0F80E02996CDBFDEBF9A
:10178000DF91CF911F910F91FF90EF90DF90CF905D
:10179000BF90AF9008950F931F93CF93DF938A016B
:1017A000FC01568D378D5317C0F4422FEC010E9477
:1017B000160A8AA18F3F69F48B89882381F0CE01B4
:1017C00043960E94E510882361F081E0F801808350
:1017D00009C08F5F8AA381E005C080E003C081E07B
:1017E00001C081E0DF91CF911F910F910895AF92D9
:1017F000BF92CF92DF92EF92FF920F931F93CF93FE
:10180000DF93CDB7DEB72997CDBFDEBF7C015B018B
:101810002E833F834887598710E06C0183E1C80E0F
:10182000D11C0FB6F8940F92F701868D882399F199
:10183000C680D780B501C7010E94620A01111AC093
:10184000F701868D8150868F80819181892B29F4C3
:101850000E94BF11F70182839383F701808588235B
:10186000B1F0C70108960E94E510813081F40E9412
:101870004F090DC0F701C682D7828389882339F0CA
:10188000C70143960E94E51081110E944F090F90F5
:101890000FBE81E062C08E819F81A885B985892BAA
:1018A0008A2B8B2B21F40F900FBE80E056C01111B4
:1018B00005C0CE0101960E94241111E00F900FBEC9
:1018C0000E948C0E0FB6F8940F92F70181A18F3F02
:1018D00009F411A2F70182A18F3F09F412A20F901F
:1018E0000FBEBE016A5F7F4FCE0101960E94351187
:1018F00081112DC00FB6F8940F92F701868D0F90CD
:101900000FBE81111EC080819181892B49F40FB6D1
:10191000F8940F92828193810E94C4110F900FBEA0
:101920004E815F8168857985C6010E94BB10C70121
:101930000E947C0A0E94AE0F811173CF0E944F0952
:1019400070CFC7010E947C0A0E94AE0F6ACFC70108
:101950000E947C0A0E94AE0F80E02996CDBFDEBFB8
:10196000DF91CF911F910F91FF90EF90DF90CF907B
:10197000BF90AF9008950F931F93CF93DF93FC0117
:10198000268D2223D9F08A01EC010E94620A8E8DF5
:1019900081508E8F89A18F3F69F48885882381F0DB
:1019A000CE0108960E94E510882361F081E0F801DD
:1019B000808309C08F5F89A381E005C080E003C0F8
:1019C00081E001C081E0DF91CF911F910F910895D7
:1019D0000FB6F8940F92FC01868D0F900FBE0895FC
:1019E000FC01868D0895CAE1D1E388818230E8F355
:1019F0000E944F09FACFCF92DF92EF92FF926B01D4
:101A00007C01E0914631F091473162837383848396
:101A100095838091EE309091EF30A091F030B091AD
:101A2000F130C816D906EA06FB0668F46091463123
:101A30007091473180910031909101316E5F7F4FFD
:101A40000E942A0821C060914631709147318091EF
:101A50000231909103316E5F7F4F0E942A0880917E
:101A6000022090910320A0910420B0910520C81677
:101A7000D906EA06FB0640F4C0920220D092032069
:101A8000E0920420F0920520FF90EF90DF90CF903D
:101A900008954F925F926F927F928F929F92AF9232
:101AA000BF92CF92DF92EF92FF920F931F93CF934B
:101AB000DF935C014B013A01290188E290E00E942A
:101AC0001C07EC01892B09F4D4C0C114D10409F01E
:101AD000CCC0C3010E941C078B8F9C8F009721F400
:101AE000CE010E94B607C5C0A30161E170E00E946B
:101AF0003B1F9301215031098B8D9C8D3C01620E5F
:101B0000731E4AE050E0B401CE014D960E94421F80
:101B10001EA2102F043008F013E01A8F1FA36E01CD
:101B200022E0C20ED11CC6010E94FF07CE010E9614
:101B30000E94FF07CA87DB8784E090E0A0E0B0E066
:101B4000811B9109A109B1098E879F87A88BB98B49
:101B5000CE8BDF8BA201B501C3010E949B08888355
:101B60009983E114F10419F0F701C083D1830FB612
:101B7000F8940F928091F2308F5F8093F2308091D1
:101B8000463190914731892B89F5C0934631D093E6
:101B900047318091F2308130C1F58AE191E30E94B2
:101BA000EE0785E291E30E94EE0780E391E30E9455
:101BB000EE078BE391E30E94EE078FE091E30E9432
:101BC000EE0784E091E30E94EE0785EF90E30E9428
:101BD000EE078FE091E3809302319093033184E02C
:101BE00091E380930031909301310FC08091EB30ED
:101BF00081110BC0E0914631F0914731828D081779
:101C000020F0C0934631D09347318A8D9091ED30CA
:101C1000981710F48093ED309091E6309F5F909389
:101C2000E6309091EC30981710F48093EC30FBE0A4
:101C30008F9FC0011124B601865E9E4C0E9403084E
:101C40000F900FBE8091EB30882359F0E091463120
:101C5000F0914731828D801730F40E944F0981E066
:101C600009C081E007C081E005C0CB8EDC8EC601D3
:101C70003BCF8FEFDF91CF911F910F91FF90EF90AE
:101C8000DF90CF90BF90AF909F908F907F906F909C
:101C90005F904F9008950FB6F8940F92009721F43B
:101CA00080914631909147310F900FBEFC01828D9B
:101CB0000895AF92BF92CF92DF92EF92FF920F936F
:101CC000A12CB12CC12CD12C0F2EF3EFEF2EF0E371
:101CD000FF2EF02D00E020E030E044E650E062E32B
:101CE00070E283EF9CE00E94490D813069F4F89422
:101CF0008093EB301092EE301092EF301092F03073
:101D00001092F1300E9411090F91FF90EF90DF9037
:101D1000CF90BF90AF9008958091EA308F5F80930D
:101D2000EA3008950FB6F8940F926091EE307091FA
:101D3000EF308091F0309091F1300F900FBE089508
:101D4000009721F480914631909147314D96089546
:101D50008091F3309091F4300895FF920F931F9388
:101D6000CF93DF938091EA308111EDC08091EE3006
:101D70009091EF30A091F030B091F1300196A11D1B
:101D8000B11D8093EE309093EF30A093F030B0937C
:101D9000F1308091EE309091EF30A091F030B09121
:101DA000F130892B8A2B8B2BF1F5809102319091A8
:101DB0000331209100313091013120930231309371
:101DC000033180930031909301318091E7308F5F30
:101DD0008093E730E0910231F091033180818111ED
:101DE0000CC08FEF9FEFDC018093022090930320C3
:101DF000A0930420B093052016C0E0910231F09129
:101E000003310780F085E02D0084F185E02D82818B
:101E10009381A481B5818093022090930320A093A5
:101E20000420B09305204091EE305091EF30609146
:101E3000F0307091F1308091022090910320A091B8
:101E40000420B0910520481759076A077B0708F45A
:101E50007FC0E0910231F091033180818823F9F055
:101E6000E0910231F09103310780F085E02DC085CB
:101E7000D1858A819B81AC81BD814091EE305091AA
:101E8000EF306091F0307091F130481759076A07D0
:101E90007B0758F10F2EFBE0FF2EF02D2FC08FEFA8
:101EA0009FEFDC018093022090930320A0930420F5
:101EB000B09305204DC0E0910231F09103310780CD
:101EC000F085E02DC085D1858A819B81AC81BD8163
:101ED0004091EE305091EF306091F0307091F130E0
:101EE000481759076A077B0748F4809302209093AC
:101EF0000320A0930420B09305202AC08E010E5F1A
:101F00001F4FC8010E947508888D998D892B21F07B
:101F1000CE010E960E9475088A8D9091EC3098172C
:101F200010F48093EC30F89EC0011124B801865E55
:101F30009E4C0E940308E0910231F09103318081B0
:101F40008111B9CFACCF8091E9308F5F8093E930B8
:101F5000DF91CF911F910F91FF900895CF92DF9263
:101F6000EF92FF920F931F93CF93DF930FB6F894E6
:101F70000F928091EA3081508093EA308091EA306C
:101F8000811160C08091F23081112CC05EC0D701F8
:101F90001796ED91FC911897C085D185CE010E96CC
:101FA0000E9475088E010E5F1F4FC8010E947508C0
:101FB0008A8D9091EC30981710F48093EC30D89E75
:101FC000C0011124B801865E9E4C0E940308E09176
:101FD0004631F09147319A8D828D981770F0CC245C
:101FE000C3940BC0C12C0F2EF5EFEF2EF0E3FF2EA4
:101FF000F02D0F2EFBE0DF2EF02DF70180818111F7
:10200000C6CF8091E930882381F08091E930882320
:1020100099F00E94AD0E8091E93081508093E930B3
:102020008091E9308111F5CF07C0F1E0CF1621F0A2
:102030008091E830813041F41092E8300E944F09DD
:1020400081E003C080E001C080E00F900FBEDF910F
:10205000CF911F910F91FF90EF90DF90CF90089557
:10206000CF92DF92EF92FF926B017C01672B682B7E
:10207000692BE9F00E948C0E8091EE309091EF3048
:10208000A091F030B091F130C80ED91EEA1EFB1EAF
:10209000809146319091473102960E947508C701A0
:1020A000B6010E94FB0C0E94AE0F811102C00E947B
:1020B0004F09FF90EF90DF90CF9008958091EA3024
:1020C00081110CC0E091EC304BE0E49FF001112451
:1020D000E65EFE4C8081882329F014C081E0809365
:1020E000E83008959BE08091EC3081508093EC3093
:1020F000E091EC309E9FF0011124E65EFE4C808161
:10210000882389F38091EC30282F30E04BE0849FC6
:10211000C0011124DC01A65EBE4C1196ED91FC912C
:1021200012970480F581E02D1196ED93FC931297A0
:10213000835E9E4CE817F90761F4848195814BE03A
:10214000429FF001439FF00D1124E65EFE4C818317
:1021500092838BE0829FF001839FF00D1124E65E55
:10216000FE4C0180F281E02D80859185809346317F
:10217000909347310895CF92DF92EF92FF926A01D8
:102180007B016091463170914731625F7F4F0E94C1
:102190002A08809146319091473102960E94750835
:1021A0008091EE309091EF30A091F030B091F1300D
:1021B000BC01CD016C0D7D1D8E1D9F1D0E94FB0C71
:1021C000FF90EF90DF90CF9008950F931F93CF93E0
:1021D000DF93DC011796ED91FC911897C085D185AE
:1021E0008E01025F1F4FC8010E9475088091EA307E
:1021F000811116C00C501109C8010E9475088A8D02
:102200009091EC30981710F48093EC30BBE08B9FEA
:10221000C0011124B801865E9E4C0E94030805C0CF
:10222000B80185EF90E30E940308E0914631F091F8
:10223000473181E02A8D928D291708F480E0DF91E3
:10224000CF911F910F9108952091E730FC012083D9
:102250004091EE305091EF306091F0307091F1305C
:10226000418352836383748308958F929F92AF92C8
:10227000BF92CF92DF92EF92FF920F931F93CF9373
:10228000DF93FC010FB6F8940F928091E7309081B4
:10229000981789F08091EE309091EF30A091F03056
:1022A000B091F1300181128123813481801791072F
:1022B000A207B307A8F58091EE309091EF30A0917E
:1022C000F030B091F130C180D280E380F480EB0136
:1022D000088119812A813B818C199D09AE09BF09AA
:1022E00080179107A207B307E8F4CF018090EE3082
:1022F0009090EF30A090F030B090F130B501A40193
:102300004C195D096E097F09041B150B260B370B51
:10231000088319832A833B830E94241180E003C031
:1023200081E001C081E00F900FBEDF91CF911F913E
:102330000F91FF90EF90DF90CF90BF90AF909F9064
:102340008F90089581E08093E8300895009721F4FC
:102350008091463190914731DC015B96ED91FC9183
:102360005C978081813141F4319680E090E0019664
:1023700021912131E1F3089580E090E0089580916A
:1023800046319091473108950F931F93CF93DF9378
:10239000FC01228DA0914631B09147315A968C9123
:1023A000281708F041C0A0914631B09147315A96A4
:1023B0003C9184E090E0A0E0B0E0831B9109A1098A
:1023C000B10986879787A08BB18B8BE0289F9001FE
:1023D0001124265E3E4C8485958582179307E9F487
:1023E0008F01EF012296CE010E947508E0914631DF
:1023F000F0914731828DF801828F9091EC309817DF
:1024000010F48093EC30FBE08F9FC0011124BE01DB
:10241000865E9E4C0E94030807C0A0914631B09191
:1024200047315A968C91828FDF91CF911F910F91F6
:1024300008950F931F93CF93DF93009749F1FC0109
:10244000328D27A1321721F1EC018C010E5F1F4F55
:10245000C8010E9475088FA18A8F44E050E060E0B7
:1024600070E0481B5109610971094E875F87688BCD
:10247000798B9091EC30981710F48093EC30FBE05E
:102480008F9FC0011124B801865E9E4C0E940308F4
:10249000DF91CF911F910F910895EC01E881F981AF
:1024A0000190F081E02D19951A821B826FEF7FEF6A
:1024B000CB010E943010FACFFC0164876587089534
:1024C0004F925F926F927F928F929F92AF92BF9244
:1024D000CF92DF92EF92FF920F931F93CF93DF93F0
:1024E000CDB7DEB72A97CDBFDEBF4C012901380139
:1024F0008BE390E2F40180839183FB018081882348
:1025000069F0DE011196319690E002C0993039F001
:102510009F5F8D9381918111F9CF01C090E0E1E03F
:10252000F0E0EC0FFD1FE90FF11D10827401F2E0E5
:10253000EF0EF11CA12CB12CC12CD12C042F940135
:10254000A201BE016F5F7F4F88EE92E00E94490DAD
:10255000F40166827782408651862091483130911D
:1025600049312483358380924831909249311486D1
:1025700015864090AA315090AB31FFEF4F1A5F0A99
:102580004092AA315092AB31F401428653861686AE
:102590001786108A118A6114710409F444C08130CD
:1025A00079F56AE0C3010E94C5177C016DE175E011
:1025B0000E948E17BE016F5F7F4FC7010E948E176A
:1025C0006AE0C7010E94C5177C0164E175E00E94C2
:1025D0008E176AE0C7010E94C5177C0166E075E0AE
:1025E0000E948E1763E0C7010E94C517B2010E94C6
:1025F0000C1862E00E94C51766E00E94C51713C060
:102600006AE0C3010E94C5174C0161EF74E00E94AB
:102610008E17BE016F5F7F4FC4010E948E1766E068
:10262000C4010E94C5172A96CDBFDEBFDF91CF91AE
:102630001F910F91FF90EF90DF90CF90BF90AF90E0
:102640009F908F907F906F905F904F900895CF9262
:10265000DF92EF92FF920F931F93CF93DF93EC01E2
:102660007B018A819B810E94A00E6C016AE0C701F8
:102670000E94C5178C0160E375E00E948E176AE026
:10268000C8010E94C5178C0169E275E00E948E178F
:10269000B601C8010E948E176AE0C8010E94C517E2
:1026A0008C0163E275E00E948E1766E0C8010E940B
:1026B000C5178A859B85E885F98501E121E0A70199
:1026C000BC018E1B9F0B0E9429168C819D81009757
:1026D00019F0B7010E942713DF91CF911F910F913D
:1026E000FF90EF90DF90CF9008950F931F93CF93BB
:1026F000DF93EC018091483190914931009719F0B6
:10270000BE010E9427136AE0CE010E94C5178C010A
:1027100066E475E00E948E176AE0C8010E94C51742
:102720008C016BE375E00E948E176AE0C8010E947D
:10273000C5178C0165E375E00E948E1766E0C8013D
:102740000E94C5178091AA319091AB31BC016F5F97
:102750007F4F01E121E0AE01835691090E942916C5
:10276000DF91CF911F910F9108958F929F92AF9219
:10277000BF92CF92DF92EF92FF920F931F93CF936E
:10278000DF93EC018B018A819B810E94A00EBC012A
:10279000C8010E948E17D801ED91FC910280F3814F
:1027A000E02D69E0C80119958A819B810E94A00EE5
:1027B000FC0101900020E9F73197E81BF90B3897ED
:1027C00048F4D801ED91FC910280F381E02D69E09D
:1027D000C8011995CE84DF84E888F988A884B98473
:1027E0008A819B810E94A611982E8C848A819B816C
:1027F0000E944B0E682FC8010E9482186AE00E9456
:10280000C517EC016BEB75E00E948E17682DCE01A9
:102810000E9482186AE00E94C517EC0169EB75E01E
:102820000E948E17692DCE010E9482186AE00E94D4
:10283000C517EC0167EB75E00E948E17B501CE015C
:102840000E940C186AE00E94C517EC0165EB75E068
:102850000E948E176AE0CE010E94C517EC0163EB5F
:1028600075E00E948E17B701A601CE010E944018A4
:10287000DF91CF911F910F91FF90EF90DF90CF905C
:10288000BF90AF909F908F900895CF93DF93EC010E
:10289000CB01DB01ED91FC910280F381E02DBE01C3
:1028A0001995CE01DF91CF9108950F931F93CF9388
:1028B000DF93EC018B01BC01C8010E94451466E066
:1028C0000E94C5178C819D81009719F0B8010E9464
:1028D0005514DF91CF911F910F9108950F931F937E
:1028E000CF93DF93EC016AE00E94C5178C0168EA80
:1028F00075E00E948E176AE0C8010E94C5178C011E
:1029000061EA75E00E948E1766E0C8010E94C51753
:102910006AE0CE010E94C5178C0160E975E00E9453
:102920008E176AE0C8010E94C5178C0164E875E043
:102930000E948E176AE0C8010E94C5178C016EE7DD
:1029400075E00E948E1766E0C8010E94C5176AE014
:10295000CE010E94C5178C016DE675E00E948E17AE
:102960006AE0C8010E94C5178C0161E675E00E940B
:102970008E176AE0C8010E94C5178C016BE575E0EF
:102980000E948E1766E0C8010E94C51780914831E9
:1029900090914931009719F0BE010E9455140E9490
:1029A000A80E0E94A611182F6AE0CE010E94C5173A
:1029B000EC0160E575E00E948E17612FCE010E9448
:1029C00082186AE00E94C517EC016EE475E00E946F
:1029D0008E1764E670E0CE010E940C186AE00E9437
:1029E000C517EC016BE475E00E948E1766E0CE011E
:1029F0000E94C517DF91CF911F910F9108950F93FA
:102A0000CF93DF931F92CDB7DEB700E02FEF3FEFFC
:102A1000A901BE016F5F7F4FFC01808591850E94F7
:102A2000F70B813019F4898190E002C08FEF9FEF9E
:102A30000F90DF91CF910F910895FC0180859185D2
:102A40000E94E80C91E0811101C090E0892F089567
:102A50000F93CF93DF931F92CDB7DEB76983FC014D
:102A6000228533854485558500E0BE016F5F7F4F29
:102A7000808591850E94300B91E0811101C090E02A
:102A8000892F0F90DF91CF910F9108958F929F9290
:102A9000BF92CF92DF92EF92FF920F931F93CF934B
:102AA000DF93EC01B62E4A01680179010E9480177C
:102AB00083E490E2888399838E869F8640E061E07C
:102AC0008B2D0E94020B88879987CA86DB86EC864D
:102AD000FD86DF91CF911F910F91FF90EF90DF90D6
:102AE000CF90BF909F908F900895CF92DF92EF92FA
:102AF000FF92CF93DF93EC01688179818A819B817A
:102B00000F2EF8EECF2EF3E0DF2EE12CF12CF02D7E
:102B1000A70196010E94CE1E9B01AC0160E472E405
:102B20008FE090E00E94BE1EA70196010E94CE1E7B
:102B300069017A01AC81BD8120E432E44FE050E0CC
:102B40000E94181F20E038E448EE51E00E94CE1E9B
:102B5000C701B601620F731F841F951FDF91CF91CC
:102B6000FF90EF90DF90CF900895CF92DF92EF9299
:102B7000FF920F931F93CF93DF93CDB7DEB72F97BD
:102B8000CDBFDEBF6C018B01DB016D917D918D911D
:102B90009C9128EE33E040E050E00E94CE1EBA0146
:102BA000A901C6010E944018D601ED91FC91028056
:102BB000F381E02D6EE2C6011995C8010E947515DA
:102BC0008E01095F1F4FFE0131967F012AE030E040
:102BD00040E050E00E94F01EE62F288739874A87A0
:102BE0005B87688579858A859B8520E32E0FD801D0
:102BF0002E938D01AE15BF0549F71F82BE016F5F91
:102C00007F4FC6010E948E17C6012F96CDBFDEBF33
:102C1000DF91CF911F910F91FF90EF90DF90CF90B8
:102C20000895CF93DF93EC010FB6F8940F92809143
:102C30002008909121088C839D830E94920E6883C6
:102C400079838A839B830F900FBECE01DF91CF9152
:102C500008955F926F927F928F929F92AF92BF92F0
:102C6000CF92DF92EF92FF920F931F93CF93DF9358
:102C70005C014B017A01122F702E63E0CA010E94A1
:102C8000C517A814B90408F07DC0650184E1C80E19
:102C9000D11C00E06A2C5B2CB501C7010E940C1806
:102CA0006AE00E94C5176DEC75E00E948E17112333
:102CB00009F46DC0002309F46AC06AE0C7010E94EC
:102CC000C51768EC75E00E948E1761C0112371F082
:102CD00001110CC08881871549F06AE0C7010E9484
:102CE000C51763EC75E00E948E1701E06991C7017A
:102CF0000E948218DC01ED91FC910280F381E02DAD
:102D000060E21995CC16DD0609F7112389F06AE017
:102D1000C7010E94C517EC016DEB75E00E948E178C
:102D2000E881F9810280F381E02D60E2CE011995FE
:102D3000C62DD52D699180EE860F8F3548F4D701C9
:102D4000ED91FC910280F381E02DC701199509C036
:102D5000D701ED91FC910280F381E02D6EE2C70175
:102D60001995CC16DD0631F7B4E1AB0EB11C66E067
:102D7000C7010E94C51784E1C80ED11CA814B9046C
:102D800008F488CF62E0C7010E94C51703C0C62DB2
:102D9000D52D9CCFDF91CF911F910F91FF90EF9098
:102DA000DF90CF90BF90AF909F908F907F906F906B
:102DB0005F9008950E941C0708950E941C070895C3
:102DC0000895CF93DF93FC01DA01403A68E056079B
:102DD00049F480E496E08283938382E0848383E0F5
:102DE000858332C0403B78E0570749F480E496E0A1
:102DF0008283938386E0848387E0858325C0403A7D
:102E000089E0580749F480E696E08283938382E064
:102E1000848383E0858318C0403B69E0560749F40A
:102E200080E696E08283938386E0848387E08583CF
:102E30000BC0403A5A4041F480E896E08283938385
:102E400082E0848383E08583A683B783CD010196E6
:102E5000808791870396828793872581C281D3815A
:102E60004C8181E090E0BC0102C0660F771F2A957B
:102E7000E2F79B01242B2C832581C281D3814881D9
:102E8000BC0102C0660F771F2A95E2F79B01242B35
:102E900028833481C281D381288102C0880F991F81
:102EA0003A95E2F7809590958223888380E1139686
:102EB0008C93139783E015968C93159780EF179654
:102EC0008C93179781E216968C93169788E1149647
:102ED0008C9380E8858780E4868780E284870680FB
:102EE000F781E02D80818081DF91CF91089581E08D
:102EF000089580E090E0089580E008950895089591
:102F0000FC0183E590E2808391838AE082831382CF
:102F100083E0858314821682178208950F931F938E
:102F2000CF93DF938C01FB01DC0114968C9181110E
:102F300004C06081611117C023C0D80114961C928F
:102F4000EB01219664916623D9F0D801ED91FC91B3
:102F50000280F381E02DC8011995FE01649121964C
:102F60006111F3CF0DC0EF012196D801ED91FC91D5
:102F70000280F381E02DC801199569916111F5CFA7
:102F8000DF91CF911F910F910895CF93DF93EC01C3
:102F9000862F90E08B309105D8F5FC018827E25010
:102FA000FF4F8F4F0C940F1F82E08A8331C088E05F
:102FB0008A832EC08AE08A832BC080E18A8328C05E
:102FC00081E08B8325C01B8223C0E881F9810280C8
:102FD000F381E02D6DE0CE011995E881F981028041
:102FE000F381E02D6AE0CE01199512C0E881F981E4
:102FF0000284F385E02DCE0119950AC0E881F9819C
:103000000084F185E02DCE01199502C081E08C830A
:10301000CE01DF91CF910895FF920F931F93CF932D
:10302000DF93CDB7DEB76197CDBFDEBF8C01F62E43
:10303000972FF8014281403121F0483011F04230A1
:1030400041F4692FC8010E9482186F2D0E948218D6
:103050000DC050E0BE016F5F7F4F8F2D0E947E1F1D
:10306000BE016F5F7F4FC8010E948E17C801619635
:10307000CDBFDEBFDF91CF911F910F91FF900895DB
:10308000DF92EF92FF920F931F93CF93DF93CDB711
:10309000DEB7A197CDBFDEBF8C01D42EE52EF62E74
:1030A000972FF8012281203121F0283011F02230B1
:1030B00071F4692FC8010E9482186F2D0E94821836
:1030C0006E2D0E9482186D2D0E9482180FC030E074
:1030D000AE014F5F5F4F6D2D7E2D8F2D0E94511FD2
:1030E000BE016F5F7F4FC8010E948E17C801A19675
:1030F000CDBFDEBFDF91CF911F910F91FF90EF9079
:10310000DF900895CF92DF92EF92FF920F931F937B
:10311000CF93DF93CDB7DEB72997CDBFDEBF8C014C
:10312000E62EDC0113968C911397882341F0ED91E4
:10313000FC910280F381E02DC801199556C0F80179
:103140004281423019F56894CC24C3F8D12C68949C
:10315000FF24F7F88E2D8F2151F0D801ED91FC91CD
:103160000280F381E02D61E3C801199509C0D801FF
:10317000ED91FC910280F381E02D60E3C801199587
:10318000F694B1E0CB1AD10829F72FC04031F9F4F9
:1031900062956F700190F081E02D0280F381E02D47
:1031A0006A3010F0695C01C0605DC80119956E2D30
:1031B0006F70D801ED91FC910280F381E02D6A30AF
:1031C00010F0695C01C0605DC80119950EC050E047
:1031D000BE016F5F7F4F8E2D90E00E947E1FBE016B
:1031E0006F5F7F4FC8010E948E17C8012996CDBF1F
:1031F000DEBFDF91CF911F910F91FF90EF90DF9095
:10320000CF900895DC015096ED91FC91519780810B
:1032100054964C915497842329F009C021503109C8
:1032200019F412C021E23EE490819423B9F3908115
:1032300056968C915697892B80831E96ED91FC9122
:103240001F97608381E0089580E00895CF93DF9316
:10325000FC01C18DD28D28813981A38DB48D4D9112
:103260005C9124173507E9F3A789B08D0D90BC91C7
:10327000A02DA20FB31F8C912F5F3F4F288339835E
:103280002436310528F0018CF28DE02D1082118258
:1032900090E0DF91CF910895CF93DF93EC01A98D5A
:1032A000BA8DEB8DFC8D81E04D915C912081318157
:1032B0004217530709F480E0DF91CF910895DC01B4
:1032C000ED91FC910280F381E02D6CE01995089559
:1032D000EF92FF920F931F93CF93DF93EC017B014B
:1032E0008A010E948017A801B701CE0108960E94AA
:1032F000E11683E690E288839983003A88E0180714
:1033000069F486E691E38F8B988F8CE591E3898F42
:103310009A8F82E591E38B8F9C8F42C0003BE8E05F
:103320001E0769F484E691E38F8B988F8AE591E319
:10333000898F9A8F80E591E38B8F9C8F31C0003A03
:10334000F9E01F0769F482E691E38F8B988F88E597
:1033500091E3898F9A8F8EE491E38B8F9C8F20C0AD
:10336000003B89E0180769F480E691E38F8B988F22
:1033700086E591E3898F9A8F8CE491E38B8F9C8F04
:103380000FC0003A1A4061F48EE591E38F8B988F5D
:1033900084E591E3898F9A8F8AE491E38B8F9C8FE8
:1033A0000F89188D84E690E00E94DD16F801808375
:1033B0009183E98DFA8D10821182EB8DFC8D108244
:1033C0001182DF91CF911F910F91FF90EF9008959F
:1033D0001F920F920FB60F92112408B60F9218BECB
:1033E0000BB60F921BBE2F933F938F939F93EF9338
:1033F000FF932091A008E0916631F09167318091B0
:10340000523190915331E80FF91F2083809152314E
:103410009091533101968436910560F48093523136
:103420009093533120915C3130915D318217930735
:10343000F1F40CC0109252311092533180915C31F2
:1034400090915D311816190691F40EC001968436DC
:10345000910528F480935C3190935D3108C01092FF
:103460005C3110925D3103C081E090E0F3CFFF91B9
:10347000EF919F918F913F912F910F900BBE0F90E5
:1034800008BE0F900FBE0F901F9018951F920F92BD
:103490000FB60F92112408B60F9218BE0BB60F92FA
:1034A0001BBE2F933F938F939F93EF93FF93209196
:1034B000B008E0916431F091653180915031909184
:1034C0005131E80FF91F2083809150319091513193
:1034D00001968436910560F4809350319093513178
:1034E00020915A3130915B3182179307F1F40CC06F
:1034F000109250311092513180915A3190915B313C
:103500001816190691F40EC001968436910528F418
:1035100080935A3190935B3108C010925A311092C7
:103520005B3103C081E090E0F3CFFF91EF919F9179
:103530008F913F912F910F900BBE0F9008BE0F906F
:103540000FBE0F901F9018951F920F920FB60F92FB
:10355000112408B60F9218BE0BB60F921BBE2F9304
:103560003F938F939F93EF93FF932091A009E09156
:103570006231F09163318091523190915331E80F73
:10358000F91F208380914E3190914F3101968436FE
:10359000910560F480934E3190934F3120915831D2
:1035A0003091593182179307F1F40CC010924E31CB
:1035B00010924F3180915831909159311816190657
:1035C00091F40EC001968436910528F48093583109
:1035D0009093593108C0109258311092593103C05C
:1035E00081E090E0F3CFFF91EF919F918F913F9118
:1035F0002F910F900BBE0F9008BE0F900FBE0F9033
:103600001F9018951F920F920FB60F92112408B6B3
:103610000F9218BE0BB60F921BBE2F933F938F9342
:103620009F93EF93FF932091B009E0916031F09167
:10363000613180914C3190914D31E80FF91F208319
:1036400080914C3190914D3101968436910560F412
:1036500080934C3190934D312091563130915731B8
:1036600082179307F1F40CC010924C3110924D3137
:1036700080915631909157311816190691F40EC069
:1036800001968436910528F48093563190935731F2
:1036900008C0109256311092573103C081E090E07B
:1036A000F3CFFF91EF919F918F913F912F910F90C9
:1036B0000BBE0F9008BE0F900FBE0F901F90189575
:1036C0001F920F920FB60F92112408B60F9218BED8
:1036D0000BB60F921BBE2F933F938F939F93EF9345
:1036E000FF932091A00AE0915E31F0915F318091CB
:1036F0004A3190914B31E80FF91F208380914A3174
:1037000090914B3101968436910560F480934A3153
:1037100090934B312091543130915531821793075A
:10372000F1F40CC010924A3110924B318091543117
:10373000909155311816190691F40EC001968436F1
:10374000910528F4809354319093553108C010921C
:1037500054311092553103C081E090E0F3CFFF91D6
:10376000EF919F918F913F912F910F900BBE0F90F2
:1037700008BE0F900FBE0F901F901895FC0184811A
:1037800095810E94F00C90E00895FC018481958160
:103790000E94F00C91E0811101C090E0892F089502
:1037A000FC01848195810E94F00C91E0811190E0F0
:1037B000892F0895FC01848195810E94F00C90E08E
:1037C0000895FC01848195810E94F00C91E08111A3
:1037D00001C090E0892F0895FC01848195810E94A9
:1037E000F00C91E0811190E0892F0895FC01848113
:1037F00095810E94E80C90E00895FC0184819581F8
:103800000E94E80C91E0811101C090E0892F089599
:10381000FC01848195810E94E80C91E0811190E087
:10382000892F0895FC01848195810E94E80C90E025
:103830000895FC01848195810E94E80C91E081113A
:1038400001C090E0892F0895FC01848195810E9438
:10385000E80C91E0811190E0892F08950F9301E029
:103860002FEF3FEFA901FC01848195810E94F70BA6
:103870000F9108950F93CF93DF931F921F92CDB7AF
:10388000DEB701E02FEF3FEFA901BE016F5F7F4F71
:10389000FC01848195810E94F70B89819A810F90A8
:1038A0000F90DF91CF910F9108950F9300E02FEFCC
:1038B0003FEFA901FC01848195810E94F70B0F91D4
:1038C00008950F93CF93DF931F921F92CDB7DEB76A
:1038D00000E02FEF3FEFA901BE016F5F7F4FFC01BA
:1038E000848195810E94F70B89819A810F900F90B6
:1038F000DF91CF910F9108950F9301E02FEF3FEFEC
:10390000A901FC01848195810E94F70B0F91089514
:103910000F93CF93DF931F921F92CDB7DEB701E0D5
:103920002FEF3FEFA901BE016F5F7F4FFC01848144
:1039300095810E94F70B89819A810F900F90DF91FA
:10394000CF910F9108950F9300E02FEF3FEFA90162
:10395000FC01848195810E94F70B0F9108950F93CC
:10396000CF93DF931F921F92CDB7DEB700E02FEF0A
:103970003FEFA901BE016F5F7F4FFC0184819581FC
:103980000E94F70B89819A810F900F90DF91CF9160
:103990000F910895CF93DF931F92CDB7DEB7AE019D
:1039A0004F5F5F4FFC01848195810E94BB0C0F909B
:1039B000DF91CF910895CF93DF9300D0CDB7DEB7DD
:1039C000AE014D5F5F4FBE016F5F7F4FFC01848191
:1039D00095810E94BB0C89819A812396CDBFDEBF61
:1039E000DF91CF910895CF93DF931F92CDB7DEB7CC
:1039F000AE014F5F5F4FFC01848195810E94BB0C3B
:103A00000F90DF91CF910895CF93DF9300D0CDB782
:103A1000DEB7AE014D5F5F4FBE016F5F7F4FFC01B0
:103A2000848195810E94BB0C89819A812396CDBFA8
:103A3000DEBFDF91CF910895CF93DF931F92CDB773
:103A4000DEB7198221E0AE014F5F5F4FFC01848138
:103A500095810E94CB0B91E0811101C090E0892FEC
:103A60000F90DF91CF910895CF93DF931F92CDB741
:103A7000DEB7198220E0AE014F5F5F4FFC01848109
:103A800095810E94CB0B91E0811101C090E0892FBC
:103A90000F90DF91CF910895CF93DF931F92CDB711
:103AA000DEB7198221E0AE014F5F5F4FFC018481D8
:103AB00095810E94CB0B91E0811101C090E0892F8C
:103AC0000F90DF91CF910895CF93DF931F92CDB7E1
:103AD000DEB7198220E0AE014F5F5F4FFC018481A9
:103AE00095810E94CB0B91E0811101C090E0892F5C
:103AF0000F90DF91CF9108950F93FC0126813781BC
:103B00004085518501E0848195810E94300B91E0D0
:103B1000811101C090E0892F0F9108950F93FC014E
:103B2000268137814085518500E0848195810E94FE
:103B3000300B91E0811101C090E0892F0F91089521
:103B40000F93FC01268137814085518501E08481F6
:103B500095810E94300B91E0811101C090E0892F86
:103B60000F9108950F93FC0126813781408551857F
:103B700000E0848195810E94300B91E0811101C0A9
:103B800090E0892F0F9108950F93CF93DF931F92A9
:103B9000CDB7DEB72FB72983F8941BBEFC0108ED23
:103BA00004BF608389818FBF0F90DF91CF910F9108
:103BB00008950F931F93CF93DF93CDB7DEB7E297AE
:103BC000CDBFDEBFF894E0E5F0E0808182608083C5
:103BD000818181FFFDCF60914000687F616080E45A
:103BE00090E00E94C41DE0E5F0E080818E7F80833C
:103BF0009DEF88ED08B618BE84BF9093800008BE84
:103C000040EA5AE060E070E0CE0101960E94681937
:103C100067E0CE0101960E94C5178C016FE670E245
:103C20000E948E1766E0C8010E94C51766E00E94D8
:103C3000C51720E332EF40E050E060EA74E0CE01C7
:103C40004E960E944C0482E190E00E94DA168E01AA
:103C50000F5F1F4F20E830E040E06EE870E20E9406
:103C6000AC0487E08093A20078940E94590E80E013
:103C700090E0E296CDBFDEBFDF91CF911F910F9113
:103C80000895CF92DF92EF92FF920F931F93CF93FD
:103C9000DF930AE010E020E030E040E050E060E236
:103CA00070E08AE991E30E944615C0E9D1E31A82E7
:103CB0001B828AE990E28883998340E062E08FEF7B
:103CC0000E94020B8C839D830F2EFAE0CF2ED12C05
:103CD000E12CF12CF02DCE82DF82E886F986C6E851
:103CE000D1E31A821B820EEB10E20883198340E0B5
:103CF00062E08FEF0E94020B8C839D83CE82DF8275
:103D0000E886F986CCE7D1E31A821B8208831983FF
:103D100040E062E08FEF0E94020B8C839D83CE8295
:103D2000DF82E886F986C2E7D1E31A821B82088324
:103D3000198340E062E08FEF0E94020B8C839D8329
:103D4000CE82DF82E886F986C8E6D1E31A821B823A
:103D50000883198340E062E08FEF0E94020B8C839E
:103D60009D83CE82DF82E886F986DF91CF911F9115
:103D70000F91FF90EF90DF90CF900895DB018F932C
:103D80009F930E94181FBF91AF91A29F800D911D1C
:103D9000A39F900DB29F900D11240895A1E21A2EB9
:103DA000AA1BBB1BFD010DC0AA1FBB1FEE1FFF1FDF
:103DB000A217B307E407F50720F0A21BB30BE40B2F
:103DC000F50B661F771F881F991F1A9469F7609576
:103DD0007095809590959B01AC01BD01CF01089530
:103DE000052E97FB1EF400940E94071F57FD07D075
:103DF0000E94CE1E07FC03D04EF40C94071F509572
:103E00004095309521953F4F4F4F5F4F08959095C6
:103E10008095709561957F4F8F4F9F4F0895EE0F5E
:103E2000FF1F881F8BBF0790F691E02D1BBE1994D2
:103E30000E94231FA59F900DB49F900DA49F800DFD
:103E4000911D11240895A29FB001B39FC001A39FAB
:103E5000700D811D1124911DB29F700D811D1124C3
:103E6000911D0895FB01DC0102C001900D924150AB
:103E70005040D8F70895DC0101C06D934150504087
:103E8000E0F70895FB01DC014150504048F00190FB
:103E90000D920020C9F701C01D9241505040E0F73B
:103EA00008952532310520F4223010F00C945C1F67
:103EB000FA011082CA010895BB27FA01A62F6217E2
:103EC000710581059105330B30FB66F0AA27660F5B
:103ED000771F881F991FAA1FA21710F0A21B6395B6
:103EE0003850A9F7A05DAA3308F0A95DA19336F771
:103EF000B111B1931082CA010C94A31F4532510530
:103F000020F4423010F00C94891FFB011082CB0189
:103F10000895BB27FB015527AA27880F991FAA1FC1
:103F2000A41710F0A41B83955051B9F7A05DAA33D4
:103F300008F0A95DA193009779F7B111B19311929F
:103F4000CB010C94A31FDC01FC01672F7191772337
:103F5000E1F7329704C07C916D9370836291AE1744
:0A3F6000BF07C8F30895F894FFCFDF
:103F6A00FF0FFFFFFFFF0000000023030000000017
:103F7A003B03000000006C030000000093030000F4
:103F8A000000A80300000000AC0300000000EF05D9
:103F9A00B51349444C450000000000E016B5130073
:103FAA00000000771728151D15FF147E177F1700CC
:103FBA000000007717E0167C1779177E177F170025
:103FCA00000000771702194C1926197E175F194647
:103FDA0072656552544F5320586D65676120546568
:103FEA007374696E672050726F6772616D005573E2
:103FFA006572496E7400000000008E1D341D7C1D20
:10400A001C1D611C551CDB1CCA1C3A1C2E1C081CDE
:10401A00D01BFD1BC51BF61BBE1B00000000B21DFA
:10402A00641DA01D4C1DAF1CA31C041DF31C881C81
:0E403A007C1C241CEC1B191CE11B121CDA1B45
:00000001FF
