:100000000C94EB020C9421030C9421030C94210317
:100010000C9421030C9421030C9421030C942103D0
:100020000C9421030C9421030C9421030C942103C0
:100030000C9421030C9421030C9421030C942103B0
:100040000C9421030C9421030C9421030C942103A0
:100050000C9421030C9421030C94F00A0C942103BA
:100060000C9421030C94C51A0C9421030C942103C5
:100070000C94231B0C9421030C9421030C94210356
:100080000C9421030C9421030C9421030C94210360
:100090000C9421030C9421030C9421030C94210350
:1000A0000C9421030C9421030C9421030C94210340
:1000B0000C9421030C9421030C9421030C94210330
:1000C0000C9421030C9421030C9421030C94210320
:1000D0000C9421030C9421030C9421030C94210310
:1000E0000C9421030C9421030C943D1C0C942103CB
:1000F0000C9421030C9421030C9421030C942103F0
:100100000C9421030C9421030C9421030C942103DF
:100110000C9421030C9421030C9421030C942103CF
:100120000C9421030C9421030C9421030C942103BF
:100130000C9421030C9421030C9421030C942103AF
:100140000C9421030C9421030C9421030C9421039F
:100150000C9421030C9421030C9421030C9421038F
:100160000C94811B0C9421030C9421030C94DF1B31
:100170000C9421030C9421030C9421030C9421036F
:100180000C9421030C9421030C9421030C9421035F
:100190000C9421030C9421030C9421030C9421034F
:1001A0000C9421030C9421030C9421030C9421033F
:1001B0000C9421030C9421030C9421030C9421032F
:1001C0000C9421030C9421030C9421030C9421031F
:1001D0000C9421030C9421030C9421030C9421030F
:1001E0000C9421030C9421030C9421030C942103FF
:1001F0000C9421030C9421030C942103B118B4181E
:10020000B718BA18BD18C018C218D318DB18E518EB
:10021000E3180C94171D0C94D31C0C94D3180C9455
:1002200054180C94DF190C94011D0C94A71D0C9408
:10023000BE1C0C94BD170C94C91C0C94A21C0C94ED
:10024000CC060C949B1C0C945C180C9432030C94FC
:10025000E51C0C94B4180C940B1D0C94591E0C94B2
:1002600056180C94111E0C94DC150C94DB180C948D
:10027000651D0C94591D0C942E050C94C0180C94FB
:10028000B71C0C9423030C94FA150C94291E0C949F
:100290005B180C94E11D0C94B81D0C94AD1C0C94CF
:1002A00005160C94E5180C94EF1C0C947D1E0C9410
:1002B000801D0C94291A0C94B1180C946B1E0C948C
:1002C000BA180C9459180C94411E0C948C1D0C9463
:1002D000B7180C94E3180C9463030C94C2180C9494
:1002E000D01D0C94DA1C0C94F91D0C94031A0C9478
:1002F000D00D0C94F61C0C94381F0C9492140C9492
:10030000321D0C948F1E0C943E1D0C943C1A0C94C0
:10031000E8020C94BD18536F6E61723A20002C20D5
:10032000544343304343413D002F002C2048656136
:100330007020667265653A200054696D653A200048
:100340004D61722031352032303138004D45343026
:1003500035206261736520726164696F2070726F0D
:100360006772616D2056302E3420002020202068D6
:100370003A20202048414C50210020202020653A7E
:100380002020204578697420636F6D6D616E642054
:100390006D6F64650020202020733A202020537464
:1003A00061636B2064756D7020666F722074617379
:1003B0006B730020202020763A202020566572732F
:1003C000696F6E20616E6420736574757020696E4C
:1003D000666F726D6174696F6E00202020206E3A26
:1003E00020202053686F77207468652074696D65DC
:1003F000207269676874206E6F77002020496E2034
:10040000636F6D6D616E64206D6F6465206F6E6CDF
:10041000793A00202043746C2D413A20456E746572
:100420007220636F6D6D616E64206D6F6465002076
:100430002043746C2D433A205265736574207468B0
:100440006520415652002068656C70004D4534307F
:1004500035206261736520726164696F2070726F0C
:100460006772616D2056302E3420001B5B33306D77
:10047000001B5B34366D00496C6C6567616C2073E2
:10048000746174652120526573657474696E6720A8
:10049000415652003A5754463F00457869742063EC
:1004A0006F6D6D616E64206D6F646500526573657C
:1004B0007474696E672041565200507265737320E0
:1004C0004374726C2D4120666F7220636F6D6D6195
:1004D0006E64206D6F646500526573657474696E37
:1004E00067004552524F5220696E207461736B2031
:1004F000004552524F52206372656174696E6720E5
:100500007461736B20002C20737461636B206174C1
:1005100020307800206372656174656400546173F3
:100520006B20001B5B32326D005461736B3A20000C
:100530001B5B316D001B5B32326D005461736B3A93
:100540002049444C45001B5B316D000909002F0018
:1005500049444C45090930092D0900092D2D2D2D3F
:1005600000092D2D2D2D2D2D2D2D2D2D002D2D2D39
:100570002D09092D2D2D2D092D2D2D2D2D00095243
:10058000756E730009467265652F546F74616C0057
:100590004E616D6509095072692E09537461746565
:1005A0000009537461636B005461736B0909202067
:1005B000092000090009002F00090009001B5B3217
:1005C000326D001B5B316D001B5B316D0020200024
:1005D0000E942A13381F11241FBECFEFCDBFDFE3C7
:1005E000DEBF00E00CBF18BE19BE1ABE1BBE10E273
:1005F000A0E0B0E2E8E5F1E400E00BBF02C0079044
:100600000D92AA3DB107D9F71BBE21E3AAEDB0E2D6
:1006100001C01D92A83AB207E1F712E0CBEED2E09A
:1006200000E006C021970109802FFE010E940620EC
:10063000CA3ED10780E00807A9F70E94B61E0C94B5
:10064000AA200C940000CF93DF93FC01A681B78110
:10065000EB019881990F16969C9382819381DF918B
:10066000CF910895CF93DF931F921F92CDB7DEB73E
:10067000DC0118968D919C91199789839A83298121
:100680003A812150310929833A83232B91F0169620
:10069000ED91FC911797948194FDF1CF0AC01496C7
:1006A0008D919C9115970AC012968D919C911397EC
:1006B00005C029813A81232BB9F7F1CF0F900F9014
:1006C000DF91CF910895FC018281938108950F936A
:1006D0001F93CF93DF93EC018B0180E197E28D872D
:1006E0009E8788E090E00E94B7172AE030E2FC0184
:1006F00020833183068317838A839B838AE090E07B
:100700000E94B717FC018D859E8520E130E2208391
:1007100031830683178380879187EC83FD8388E08C
:1007200090E00E94B71726E130E2FC01208331837C
:100730000683178388879987DF91CF911F910F9147
:100740000895CF93DF93EC019A01AB01220F331F81
:10075000441F551F60E078E488EE91E00E94C51FB9
:1007600025502C83E881F9812583DF91CF9108956D
:10077000AF92BF92CF92DF92EF92FF920F931F93AF
:10078000CF93DF938C01EB0169017A01DC016D935A
:100790007C93FC0125833683478350878FE090E06C
:1007A0000E94B7175C01BE010E946703D8015396EF
:1007B000AD92BC925497C038B4E0DB0731F480E4CA
:1007C00096E0F801828393830BC0C03AF4E0DF0720
:1007D00039F480E896E0D80112968D939C93139794
:1007E000D8011296ED91FC91139783E081831296C4
:1007F000ED91FC91139788E3808B1296ED91FC911B
:100800001397818B82E08A83B701A601C8010E94F9
:10081000A1038C818D6C8C8388E08983DF91CF91DB
:100820001F910F91FF90EF90DF90CF90BF90AF900E
:1008300008950F931F93CF93DF931F921F92CDB70D
:10084000DEB7DC0109831A83ED91FC911197660FE5
:10085000668389819A81019789839A83892BD1F153
:10086000ED91FC911197848186FFF3CF33C0222351
:1008700049F1BA012150822F90E00196480F591F8B
:1008800009831A832D913C911197FB018191BF013E
:10089000F901878329813A812150310929833A83DB
:1008A000232BF1F0ED91FC911197948194FDF2CFFF
:1008B00017C0ED91FC911197848180648483461761
:1008C0005707F1F6ED91FC9183E0838381E00DC041
:1008D00080E00BC089819A81892B49F680E005C0B0
:1008E00029813A81232B29F7F3CF0F900F90DF91C5
:1008F000CF911F910F9108950F931F93CF93DF9383
:1009000000D0CDB7DEB7DC0109831A83ED91FC91ED
:100910001197660F6160668389819A810197898347
:100920009A83892B09F447C0ED91FC91119784813A
:10093000882394F740C01B828B818217D8F532E060
:1009400009831A8369817A816150710969837A8385
:10095000672BC1F1ED91FC9111979481992394F744
:1009600031C09B81ED91FC9111978781FA01E90FCC
:10097000F11D80838B81821788F4ED91FC91119792
:100980003383ED91FC9111978481806884838B81FE
:100990008F5F8B838B81821798F20CC0ED91FC9155
:1009A000119787E08383ED91FC9184818068848333
:1009B00081E00DC00CC089819A81892B09F0BBCFE1
:1009C00080E005C069817A81672B59F680E0239623
:1009D000CDBFDEBFDF91CF911F910F910895FC0134
:1009E000608371831482158216821782108680E7D5
:1009F000828381E583838AEA848385EA85830895F7
:100A00000F931F93AC014D5F5F4F08EE13E021E0A1
:100A1000FC016281808191810E9419041F910F91D4
:100A200008950F931F93CF93DF93EC01AC01495FBF
:100A30005F4F08EE13E022E06A81888199810E946D
:100A40007C048F8190E0982F88272885822B8987C6
:100A50009A87DF91CF911F910F910895EC018C85BA
:100A6000882319F0813051F025C08C899D890E941E
:100A7000000561E0CE010E9439131CC08C899D895C
:100A80000E9411057C018A8B9B8B6AE08E819F817D
:100A90000E94A2188C0166E173E00E946B18B701F6
:100AA000C8010E94E91866E00E94A21860E0CE0129
:100AB0000E9439138E859F85A889B9890196A11D49
:100AC000B11D8E879F87A88BB98B64EF71E080E0A2
:100AD00090E00E940D11C3CFCF92DF92EF92FF9270
:100AE0000F931F93CF93DF93EC016B010E943D1393
:100AF0008CE190E288839983EC8AFD8ACE8ADF8A32
:100B0000DF91CF911F910F91FF90EF90DF90CF90E9
:100B100008950F931F93CF93DF93EC010E943D1331
:100B200084E290E288839983DF91CF911F910F91A6
:100B300008950F931F93CF93DF93EC016AE08E81AA
:100B40009F810E94A2188C0161E774E00E946B18DB
:100B50006AE0C8010E94A2188C016BE674E00E9452
:100B60006B1867E0C8010E94A2186AE08E819F811D
:100B70000E94A2188C016CE474E00E946B186AE079
:100B8000C8010E94A2188C0166E474E00E946B18F0
:100B900066E0C8010E94A2186AE08E819F810E94CF
:100BA000A2188C016FE274E00E946B1866E0C80125
:100BB0000E94A2186AE08E819F810E94A2188C0177
:100BC00063E174E00E946B1866E0C8010E94A218FD
:100BD0006AE08E819F810E94A2188C016BEF73E006
:100BE0000E946B1866E0C8010E94A2186AE08E811C
:100BF0009F810E94A2188C016AED73E00E946B181D
:100C000066E0C8010E94A2186AE08E819F810E945E
:100C1000A2188C0163EB73E00E946B1866E0C801B8
:100C20000E94A2186AE08E819F810E94A2188C0106
:100C300065E973E00E946B1866E0C8010E94A21883
:100C40006AE08E819F810E94A2188C016AE773E09E
:100C50000E946B1866E0C8010E94A2186AE08E81AB
:100C60009F810E94A218EC016BE673E00E946B1852
:100C700066E0CE010E94A218DF91CF911F910F91E3
:100C80000895AF92BF92CF92DF92EF92FF920F93AF
:100C90001F93CF93DF9300D000D0CDB7DEB78C0188
:100CA00019821A821B821C821D821E820E94C60823
:100CB0006C01CE0101960E94EE165C0166E0F8011F
:100CC000868197810E94A2186AE00E94A2187C0186
:100CD0006CE473E00E946B186AE0C7010E94A218DE
:100CE0007C0160E473E00E946B1866E0C7010E941B
:100CF000A2186AE00E94A2187C0169E373E00E94D6
:100D00006B18B501C7010E9492166AE00E94A218F2
:100D10007C016BE273E00E946B18B601C7010E9470
:100D2000E9186AE00E94A2187C0169E273E00E945F
:100D30006B184FEF5FE060E070E0C7010E941D1983
:100D4000C0902808D09029086AE0F8018681978130
:100D50000E94A2187C016EE173E00E946B18B6013C
:100D6000C7010E94E91866E00E94A21866E00E948E
:100D7000A218F801868197810E944B152696CDBF57
:100D8000DEBFDF91CF911F910F91FF90EF90DF9029
:100D9000CF90BF90AF900895CF93DF9300D000D055
:100DA000CDB7DEB78C0119821A821B821C821D828C
:100DB0001E826AE0DC0116968D919C9117970E9425
:100DC000A2187C016AEB74E00E946B1866E0C70110
:100DD0000E94A218F8018485882321F0813009F44B
:100DE0005DC0D8C086819781DC01ED91FC910480C3
:100DF000F581E02D19958823A9F1F8018681978165
:100E0000DC01ED91FC910680F781E02D1995992781
:100E100081309105F9F0039709F0D8C06AE0F80134
:100E2000868197810E94A2188C016CEA74E00E946E
:100E30006B1866E0C8010E94A21893E088ED08B61E
:100E400018BE84BF909380008091820081FDFCCF0A
:100E500008BEFFCFC8010E94990561E0C8010E9449
:100E60003913B4C086E991E30E94FA15882309F486
:100E7000ADC0D8011696ED91FC9117970190F081C5
:100E8000E02DE280F38086E991E30E94DC15682F73
:100E9000F80186819781F701199598C0868197811D
:100EA000DC01ED91FC910480F581E02D19958823FA
:100EB00009F48CC0F80186819781DC01ED91FC91E9
:100EC0000680F781E02D19959C01332728363105DE
:100ED00059F13CF42B31310559F12536310541F1F9
:100EE0003BC023373105C1F02637310589F02E3656
:100EF000310591F5CE0101960E94EE16BC01F80174
:100F0000868197810E94921666E00E94A2185EC0B8
:100F1000C8010E9441065AC0D80116968D919C9135
:100F200017970E94521452C0C8010E9499054EC0E2
:100F30006AE0F801868197810E94A2187C016AE923
:100F400074E00E946B1866E0C7010E94A21860E07E
:100F5000C8010E9439133AC0F801A681B781ED910A
:100F6000FC9111970280F381E02D682FCD01199536
:100F70006AE0D80116968D919C9117970E94A2184D
:100F80007C0164E974E00E946B1866E0C7010E946E
:100F9000A2181CC06AE0F801868197810E94A218FD
:100FA0008C0167E774E00E946B1866E0C8010E943C
:100FB000A21893E088ED08B618BE84BF9093800015
:100FC0008091820081FDFCCF08BEFFCFF8018685AD
:100FD0009785A089B1890196A11DB11D8687978744
:100FE000A08BB18B61E070E080E090E00E940D1179
:100FF000F1CE0F931F93CF93DF93EC010E94690F03
:101000008091DA2081111DC0AFEDB0E2E3EEF0E295
:10101000ED93FC93119712961D921C921397ABEDD2
:10102000B0E28FEF9FE012968D939C9313971D92E1
:101030001C92119782839383A083B18381E0809374
:10104000DA20209709F45FC09E012B5F3F4F249662
:10105000CE3FDF4008F05AC0E091DF20F091E02061
:10106000AFEDB0E202C0DF01FC0182819381821703
:10107000930720F4808191810097A9F7C0E2EB3DAE
:10108000FC0709F446C0CD91DC9111978E010B5FEE
:101090001F4F808191818D939C9382819381821BCC
:1010A000930B8B30910510F1BF01620F731FDB01B1
:1010B00012968D939C9313972283338312964D91AE
:1010C0005C9113978FED90E201C0CD01EC01A881F6
:1010D000B98112962D913C91139724173507A8F3E7
:1010E000EB01A883B983DC016D937C938091002090
:1010F0009091012022813381821B930B80930020E9
:101100009093012008C000E010E005C000E010E06E
:1011100002C000E010E00E948B10C801DF91CF9167
:101120001F910F9108950F931F93CF93DF93009713
:1011300041F1EC018C01055011090E94690FF80181
:1011400042815381AFEDB0E201C0DF01ED91FC912E
:1011500011972281338124173507B8F32597E88347
:10116000F9830D931C9320910020309101208A81F6
:101170009B81820F931F80930020909301200E94F7
:101180008B10DF91CF911F910F91089580910020D6
:10119000909101200895FC010396818392834FEF83
:1011A0005FEFBA0143835483658376838783908797
:1011B0008187928710820895FC0112861386089514
:1011C000CF93DF93FC01DB0121813281E9018C8126
:1011D0009D8114968D939C9315978181928116968B
:1011E0008D939C9317978C819D81EC016E837F83F7
:1011F000E9016C837D83618372831A96ED93FC937E
:101200001B9780818F5F8083DF91CF9108950F932B
:101210001F93CF93DF93EB01088119812A813B81D2
:101220000F3F4FEF14072407340731F4DC01199600
:10123000ED91FC911A971FC0FC013396DC011796C3
:101240004D915C911897DA014D915D916D917C9172
:10125000041715072607370770F00480F581E02D85
:10126000A481B5814D915D916D917C910417150715
:101270002607370790F7A481B581AC83BD83169606
:10128000CD93DC931797EE83FF83C483D5838A873E
:101290009B87FC0120812F5F2083DF91CF911F91DD
:1012A0000F910895FC01A481B581868197811696DE
:1012B0008D939C931797A681B7818481958114960D
:1012C0008D939C931597A285B38511968D919C91D2
:1012D0001297E817F90731F48681978111968D935B
:1012E0009C931297128613868C9181508C9308954B
:1012F0008093A6319093A73131E1FC01308331977F
:1013000022E220833197A3E3A08331976083319752
:1013100070833197108231971082319760E8608333
:10132000319710823197108231971082319762E0A5
:101330006083319763E06083319764E06083319725
:1013400065E06083319766E06083319767E0608392
:10135000319768E06083319769E06083319760E19D
:10136000608331973083319732E13083319733E1B5
:101370003083319734E13083319735E130833197D1
:1013800036E13083319737E13083319738E130836C
:10139000319739E13083319730E23083319731E250
:1013A000308331972083319723E220833197408324
:1013B00031975083319726E22083319727E22083AB
:1013C000319728E22083319729E22083319720E367
:1013D0002083319721E32083899708958CE78093B8
:1013E00069088FEF8093680881E08093400891E15D
:1013F0009093410880934708A0914231B0914331C6
:10140000CD91CDBFDD91DEBFFF91EF91DF91CF9107
:10141000BF91AF919F918F917F916F915F914F910C
:101420003F912F911F910F91FF90EF90DF90CF9000
:10143000BF90AF909F908F907F906F905F904F90F4
:101440003F902F901F900F900CBE0F900BBE0F90EF
:101450000FBE0F90089508950F920FB6F8940F9253
:101460000BB60F920CB60F921F9211242F923F923F
:101470004F925F926F927F928F929F92AF92BF92A4
:10148000CF92DF92EF92FF920F931F932F933F9390
:101490004F935F936F937F938F939F93AF93BF937C
:1014A000CF93DF93EF93FF93A0914231B0914331FB
:1014B0000DB60D920EB60D920E943B11A0914231D5
:1014C000B0914331CD91CDBFDD91DEBFFF91EF9162
:1014D000DF91CF91BF91AF919F918F917F916F914C
:1014E0005F914F913F912F911F910F91FF90EF903E
:1014F000DF90CF90BF90AF909F908F907F906F9034
:101500005F904F903F902F901F900F900CBE0F90C8
:101510000BBE0F900FBE0F9008950F920FB6F89468
:101520000F920BB60F920CB60F921F9211242F92AE
:101530003F924F925F926F927F928F929F92AF9263
:10154000BF92CF92DF92EF92FF920F931F932F9350
:101550003F934F935F936F937F938F939F93AF933B
:10156000BF93CF93DF93EF93FF93A0914231B0915C
:1015700043310DB60D920EB60D920E948A0F0E9455
:101580003B11A0914231B0914331CD91CDBFDD915E
:10159000DEBFFF91EF91DF91CF91BF91AF919F910E
:1015A0008F917F916F915F914F913F912F911F91FB
:1015B0000F91FF90EF90DF90CF90BF90AF909F90F2
:1015C0008F907F906F905F904F903F902F901F90E3
:1015D0000F900CBE0F900BBE0F900FBE0F90089592
:1015E0000E948D0A1895CF93DF93EC0188A1811199
:1015F0000BC088819981892BE1F58A819B810E94AA
:10160000F6121A821B8235C0411117C0482F50E0D4
:101610008C819D810E94292028A18C819D81820F2F
:10162000911D8C839D832A813B818217930708F14A
:10163000888199818C839D831CC0482F50E08E81C6
:101640009F810E94292088A190E091958195910920
:101650002E813F81280F391F2E833F834881598176
:101660002417350730F42A813B81820F931F8E8324
:101670009F838E8D8F5F8E8FDF91CF910895FC01B8
:10168000808191810097A1F040A150E026813781AF
:10169000240F351F26833783A281B3812A173B0786
:1016A00010F086839783CB01668177810E94292081
:1016B00008950F931F93CF93DF93EC010FB6F89427
:1016C0000F928AA11816B4F48B89811105C012C03B
:1016D0008B89811104C00EC08E010D5E1F4FC801A1
:1016E0000E94C21181110E947F128AA181508AA397
:1016F000181674F38FEF8AA30F900FBE0FB6F894ED
:101700000F9289A11816B4F48885811105C012C002
:101710008885811104C00EC08E01085F1F4FC8016B
:101720000E94C21181110E947F1289A1815089A358
:10173000181674F38FEF89A30F900FBEDF91CF912E
:101740001F910F9108951F93CF93DF93613059F04C
:10175000FC012389308531112CC011E0211110E0EA
:10176000211128C001C011E0EC014881598128A154
:1017700030E06F8D629FC001639F900D1124BA010C
:10178000680F791F6A837B831E8E4C835D83821B67
:10179000930B840F951F8E839F838FEF89A38AA35A
:1017A000CE0108960E94CB08CE0143960E94CB083A
:1017B00001C010E0812FDF91CF911F9108950F9309
:1017C0001F93CF93DF93882301F1062F182F83E215
:1017D00090E00E94F907EC01892BC9F0109FC0012D
:1017E000112401960E94F90788839983892B39F087
:1017F0001F8F08A361E0CE010E94A30B08C0CE0199
:101800000E949308C0E0D0E002C0C0E0D0E0CE016A
:10181000DF91CF911F910F910895AF92BF92CF9218
:10182000DF92EF92FF920F931F93CF93DF93CDB789
:10183000DEB72997CDBFDEBF7C015B012E833F83DE
:101840004887598710E06C0188E0C80ED11C0FB69C
:10185000F8940F92F701968D878D9817A8F4402F72
:10186000B501C7010E94F30AF7018389882341F07B
:10187000C70143960E94C211813011F40E942C0AC4
:101880000F900FBE81E056C08E819F81A885B985DB
:10189000892B8A2B8B2B21F40F900FBE80E04AC03E
:1018A000111105C0CE0101960E94011211E00F90A6
:1018B0000FBE0E94690F0FB6F8940F92F70181A135
:1018C0008F3F09F411A2F70182A18F3F09F412A200
:1018D0000F900FBEBE016A5F7F4FCE0101960E943E
:1018E0001212811121C00FB6F8940F92F701968D54
:1018F0000F900FBE878D981311C04E815F81688550
:101900007985C6010E949811C7010E94590B0E9457
:101910008B1081119CCF0E942C0A99CFC7010E9485
:10192000590B0E948B1093CFC7010E94590B0E9444
:101930008B1080E02996CDBFDEBFDF91CF911F9144
:101940000F91FF90EF90DF90CF90BF90AF900895F0
:101950000F931F93CF93DF938A01FC01568D378D30
:101960005317C0F4422FEC010E94F30A8AA18F3F63
:1019700069F48B89882381F0CE0143960E94C211BD
:10198000882361F081E0F801808309C08F5F8AA31A
:1019900081E005C080E003C081E001C081E0DF910B
:1019A000CF911F910F910895AF92BF92CF92DF9286
:1019B000EF92FF920F931F93CF93DF93CDB7DEB7D4
:1019C0002997CDBFDEBF7C015B012E833F83488713
:1019D000598710E06C0183E1C80ED11C0FB6F89452
:1019E0000F92F701868D882399F1C680D780B501C3
:1019F000C7010E943F0B01111AC0F701868D81506B
:101A0000868F80819181892B29F40E949C12F70195
:101A100082839383F70180858823B1F0C7010896FC
:101A20000E94C211813081F40E942C0A0DC0F7017E
:101A3000C682D7828389882339F0C70143960E94E2
:101A4000C21181110E942C0A0F900FBE81E062C06A
:101A50008E819F81A885B985892B8A2B8B2B21F4B8
:101A60000F900FBE80E056C0111105C0CE01019647
:101A70000E94011211E00F900FBE0E94690F0FB675
:101A8000F8940F92F70181A18F3F09F411A2F70199
:101A900082A18F3F09F412A20F900FBEBE016A5FB0
:101AA0007F4FCE0101960E94121281112DC00FB6F8
:101AB000F8940F92F701868D0F900FBE81111EC012
:101AC00080819181892B49F40FB6F8940F9282811D
:101AD00093810E94A1120F900FBE4E815F81688595
:101AE0007985C6010E949811C7010E94590B0E9476
:101AF0008B10811173CF0E942C0A70CFC7010E94F6
:101B0000590B0E948B106ACFC7010E94590B0E948B
:101B10008B1080E02996CDBFDEBFDF91CF911F9162
:101B20000F91FF90EF90DF90CF90BF90AF9008950E
:101B30000F931F93CF93DF93FC01268D2223D9F0BF
:101B40008A01EC010E943F0B8E8D81508E8F89A1FE
:101B50008F3F69F48885882381F0CE0108960E9422
:101B6000C211882361F081E0F801808309C08F5F92
:101B700089A381E005C080E003C081E001C081E06D
:101B8000DF91CF911F910F9108950FB6F8940F92A6
:101B9000FC01868D0F900FBE0895FC01868D08957F
:101BA000C6E1D1E388818230E8F30E942C0AFACFA3
:101BB000CF92DF92EF92FF926B017C01E091423174
:101BC000F091433162837383848395838091EA30FB
:101BD0009091EB30A091EC30B091ED30C816D90661
:101BE000EA06FB0668F460914231709143318091BE
:101BF000FC309091FD306E5F7F4F0E94070921C03D
:101C000060914231709143318091FE309091FF306C
:101C10006E5F7F4F0E940709809102209091032000
:101C2000A0910420B0910520C816D906EA06FB064B
:101C300040F4C0920220D0920320E0920420F0925F
:101C40000520FF90EF90DF90CF9008954F925F9224
:101C50006F927F928F929F92AF92BF92CF92DF92BC
:101C6000EF92FF920F931F93CF93DF935C014B0191
:101C70003A01290188E290E00E94F907EC01892BE2
:101C800009F4D4C0C114D10409F0CCC0C3010E942E
:101C9000F9078B8F9C8F009721F4CE010E94930847
:101CA000C5C0A30161E170E00E9432209301215080
:101CB00031098B8D9C8D3C01620E731E4AE050E011
:101CC000B401CE014D960E9439201EA2102F04307F
:101CD00008F013E01A8F1FA36E0122E0C20ED11C80
:101CE000C6010E94DC08CE010E960E94DC08CA875D
:101CF000DB8784E090E0A0E0B0E0811B9109A109BE
:101D0000B1098E879F87A88BB98BCE8BDF8BA20101
:101D1000B501C3010E94780988839983E114F10415
:101D200019F0F701C083D1830FB6F8940F92809118
:101D3000EE308F5F8093EE3080914231909143314D
:101D4000892B89F5C0934231D09343318091EE3095
:101D50008130C1F586E191E30E94CB0881E291E3F5
:101D60000E94CB088CE291E30E94CB0887E391E3C9
:101D70000E94CB088BE091E30E94CB0880E091E3C6
:101D80000E94CB0881EF90E30E94CB088BE091E3A7
:101D90008093FE309093FF3080E091E38093FC309D
:101DA0009093FD300FC08091E73081110BC0E0911E
:101DB0004231F0914331828D081720F0C0934231B7
:101DC000D09343318A8D9091E930981710F4809325
:101DD000E9309091E2309F5F9093E2309091E8304B
:101DE000981710F48093E830FBE08F9FC001112416
:101DF000B6018A5E9E4C0E94E0080F900FBE809153
:101E0000E730882359F0E0914231F0914331828DDF
:101E1000801730F40E942C0A81E009C081E007C0DD
:101E200081E005C0CB8EDC8EC6013BCF8FEFDF910A
:101E3000CF911F910F91FF90EF90DF90CF90BF90C7
:101E4000AF909F908F907F906F905F904F9008958C
:101E50000FB6F8940F92009721F48091423190913F
:101E600043310F900FBEFC01828D0895AF92BF9257
:101E7000CF92DF92EF92FF920F93A12CB12CC12C45
:101E8000D12C0F2EFFEEEF2EF0E3FF2EF02D00E011
:101E900020E030E044E650E068E270E280ED9DE052
:101EA0000E94260E813069F4F8948093E7301092F6
:101EB000EA301092EB301092EC301092ED300E942C
:101EC000EE090F91FF90EF90DF90CF90BF90AF9011
:101ED00008958091E6308F5F8093E63008950FB6C5
:101EE000F8940F926091EA307091EB308091EC3071
:101EF0009091ED300F900FBE0895009721F48091DE
:101F00004231909143314D9608958091EF309091F8
:101F1000F0300895FF920F931F93CF93DF9380913A
:101F2000E6308111EDC08091EA309091EB30A091C4
:101F3000EC30B091ED300196A11DB11D8093EA30D7
:101F40009093EB30A093EC30B093ED308091EA3079
:101F50009091EB30A091EC30B091ED30892B8A2B31
:101F60008B2BF1F58091FE309091FF302091FC3069
:101F70003091FD302093FE303093FF308093FC3061
:101F80009093FD308091E3308F5F8093E330E09158
:101F9000FE30F091FF30808181110CC08FEF9FEFF8
:101FA000DC018093022090930320A0930420B0933F
:101FB000052016C0E091FE30F091FF300780F085DB
:101FC000E02D0084F185E02D82819381A481B5818B
:101FD0008093022090930320A0930420B0930520C7
:101FE0004091EA305091EB306091EC307091ED30DF
:101FF0008091022090910320A0910420B0910520AF
:10200000481759076A077B0708F47FC0E091FE3044
:10201000F091FF3080818823F9F0E091FE30F0915B
:10202000FF300780F085E02DC085D1858A819B81B6
:10203000AC81BD814091EA305091EB306091EC3041
:102040007091ED30481759076A077B0758F10F2E3A
:10205000FBE0FF2EF02D2FC08FEF9FEFDC01809370
:10206000022090930320A0930420B09305204DC03C
:10207000E091FE30F091FF300780F085E02DC085C3
:10208000D1858A819B81AC81BD814091EA3050919C
:10209000EB306091EC307091ED30481759076A07CA
:1020A0007B0748F48093022090930320A0930420A0
:1020B000B09305202AC08E010E5F1F4FC8010E94F9
:1020C0005209888D998D892B21F0CE010E960E94A0
:1020D00052098A8D9091E830981710F48093E83077
:1020E000F89EC0011124B8018A5E9E4C0E94E0084F
:1020F000E091FE30F091FF3080818111B9CFACCFFB
:102100008091E5308F5F8093E530DF91CF911F9113
:102110000F91FF900895CF92DF92EF92FF920F936D
:102120001F93CF93DF930FB6F8940F928091E63010
:1021300081508093E6308091E630811160C08091BB
:10214000EE3081112CC05EC0D7011796ED91FC9145
:102150001897C085D185CE010E960E9452098E0136
:102160000E5F1F4FC8010E9452098A8D9091E8307E
:10217000981710F48093E830D89EC0011124B8015C
:102180008A5E9E4C0E94E008E0914231F09143311A
:102190009A8D828D981770F0CC24C3940BC0C12CFB
:1021A0000F2EF1EFEF2EF0E3FF2EF02D0F2EFBE0C0
:1021B000DF2EF02DF70180818111C6CF8091E530AF
:1021C000882381F08091E530882399F00E948A0F5E
:1021D0008091E53081508093E5308091E530811128
:1021E000F5CF07C0F1E0CF1621F08091E4308130C7
:1021F00041F41092E4300E942C0A81E003C080E098
:1022000001C080E00F900FBEDF91CF911F910F9121
:10221000FF90EF90DF90CF900895CF92DF92EF92F2
:10222000FF926B017C01672B682B692BE9F00E9400
:10223000690F8091EA309091EB30A091EC30B09131
:10224000ED30C80ED91EEA1EFB1E809142319091DE
:10225000433102960E945209C701B6010E94D80D6F
:102260000E948B10811102C00E942C0AFF90EF90F7
:10227000DF90CF9008958091E63081110CC0E091FD
:10228000E8304BE0E49FF0011124EA5EFE4C8081CF
:10229000882329F014C081E08093E43008959BE006
:1022A0008091E83081508093E830E091E8309E9F43
:1022B000F0011124EA5EFE4C8081882389F380912D
:1022C000E830282F30E04BE0849FC0011124DC016E
:1022D000AA5EBE4C1196ED91FC9112970480F58197
:1022E000E02D1196ED93FC931297875E9E4CE817B4
:1022F000F90761F4848195814BE0429FF001439F8F
:10230000F00D1124EA5EFE4C818392838BE0829F64
:10231000F001839FF00D1124EA5EFE4C0180F281F2
:10232000E02D8085918580934231909343310895CB
:10233000CF92DF92EF92FF926A017B01609142316E
:1023400070914331625F7F4F0E9407098091423153
:102350009091433102960E9452098091EA30909107
:10236000EB30A091EC30B091ED30BC01CD016C0DA3
:102370007D1D8E1D9F1D0E94D80DFF90EF90DF9058
:10238000CF9008950F931F93CF93DF93DC0117969F
:10239000ED91FC911897C085D1858E01025F1F4F8A
:1023A000C8010E9452098091E630811116C00C507C
:1023B0001109C8010E9452098A8D9091E83098173E
:1023C00010F48093E830BBE08B9FC0011124B8016A
:1023D0008A5E9E4C0E94E00805C0B80181EF90E340
:1023E0000E94E008E0914231F091433181E02A8D72
:1023F000928D291708F480E0DF91CF911F910F9102
:1024000008952091E330FC0120834091EA305091FF
:10241000EB306091EC307091ED30418352836383F7
:10242000748308958F929F92AF92BF92CF92DF9262
:10243000EF92FF920F931F93CF93DF93FC010FB6A0
:10244000F8940F928091E3309081981789F08091F1
:10245000EA309091EB30A091EC30B091ED300181F9
:1024600012812381348180179107A207B307A8F551
:102470008091EA309091EB30A091EC30B091ED304A
:10248000C180D280E380F480EB01088119812A8128
:102490003B818C199D09AE09BF0980179107A207DE
:1024A000B307E8F4CF018090EA309090EB30A09031
:1024B000EC30B090ED30B501A4014C195D096E0906
:1024C0007F09041B150B260B370B088319832A83FE
:1024D0003B830E94011280E003C081E001C081E0E3
:1024E0000F900FBEDF91CF911F910F91FF90EF9052
:1024F000DF90CF90BF90AF909F908F90089581E034
:102500008093E4300895009721F4809142319091B6
:102510004331DC015B96ED91FC915C9780818131C8
:1025200041F4319680E090E0019621912131E1F370
:10253000089580E090E00895809142319091433178
:1025400008950F931F93CF93DF93FC01228DA091E9
:102550004231B09143315A968C91281708F041C00E
:10256000A0914231B09143315A963C9184E090E081
:10257000A0E0B0E0831B9109A109B1098687978784
:10258000A08BB18B8BE0289F900111242A5E3E4CDA
:102590008485958582179307E9F48F01EF012296D0
:1025A000CE010E945209E0914231F0914331828D77
:1025B000F801828F9091E830981710F48093E830FA
:1025C000FBE08F9FC0011124BE018A5E9E4C0E94D9
:1025D000E00807C0A0914231B09143315A968C91E6
:1025E000828FDF91CF911F910F9108950F931F93C9
:1025F000CF93DF93009749F1FC01328D27A1321769
:1026000021F1EC018C010E5F1F4FC8010E9452099D
:102610008FA18A8F44E050E060E070E0481B5109D0
:10262000610971094E875F87688B798B9091E830DB
:10263000981710F48093E830FBE08F9FC0011124BD
:10264000B8018A5E9E4C0E94E008DF91CF911F91F5
:102650000F910895EC01E881F9810190F081E02D5E
:1026600019951A821B826FEF7FEFCB010E940D112B
:10267000FACFFC016487658708954F925F926F924D
:102680007F928F929F92AF92BF92CF92DF92EF9202
:10269000FF920F931F93CF93DF93CDB7DEB72A97A7
:1026A000CDBFDEBF4C012901380181E390E2F40186
:1026B00080839183FB018081882369F0DE0111967C
:1026C000319690E002C0993039F09F5F8D938191EF
:1026D0008111F9CF01C090E0E1E0F0E0EC0FFD1FC7
:1026E000E90FF11D10827401F2E0EF0EF11CA12C34
:1026F000B12CC12CD12C042F9401A201BE016F5F1B
:102700007F4F88EE92E00E94260EF4016682778267
:102710004086518620914431309145312483358360
:102720008092443190924531148615864090A631AE
:102730005090A731FFEF4F1A5F0A4092A631509296
:10274000A731F4014286538616861786108A118AAD
:102750006114710409F444C0813079F56AE0C30161
:102760000E94A2187C016DE175E00E946B18BE0109
:102770006F5F7F4FC7010E946B186AE0C7010E941C
:10278000A2187C0164E175E00E946B186AE0C70141
:102790000E94A2187C0166E075E00E946B1863E05D
:1027A000C7010E94A218B2010E94E91862E00E94CB
:1027B000A21866E00E94A21813C06AE0C3010E943A
:1027C000A2184C0161EF74E00E946B18BE016F5FAC
:1027D0007F4FC4010E946B1866E0C4010E94A218DA
:1027E0002A96CDBFDEBFDF91CF911F910F91FF9051
:1027F000EF90DF90CF90BF90AF909F908F907F90A1
:102800006F905F904F900895CF92DF92EF92FF927A
:102810000F931F93CF93DF93EC017B018A819B8100
:102820000E947D0F6C016AE0C7010E94A2188C0112
:1028300060E375E00E946B186AE0C8010E94A2186C
:102840008C0169E275E00E946B18B601C8010E9414
:102850006B186AE0C8010E94A2188C0163E275E05F
:102860000E946B1866E0C8010E94A2188A859B85A9
:10287000E885F98501E121E0A701BC018E1B9F0BD2
:102880000E9406178C819D81009719F0B7010E9464
:102890000414DF91CF911F910F91FF90EF90DF9083
:1028A000CF9008950F931F93CF93DF93EC01809106
:1028B000443190914531009719F0BE010E940414F3
:1028C0006AE0CE010E94A2188C0166E475E00E94C5
:1028D0006B186AE0C8010E94A2188C016BE375E0D6
:1028E0000E946B186AE0C8010E94A2188C0165E37F
:1028F00075E00E946B1866E0C8010E94A2188091E2
:10290000A6319091A731BC016F5F7F4F01E121E0BB
:10291000AE01835691090E940617DF91CF911F9156
:102920000F9108958F929F92AF92BF92CF92DF92B4
:10293000EF92FF920F931F93CF93DF93EC018B01E4
:102940008A819B810E947D0FBC01C8010E946B1887
:10295000D801ED91FC910280F381E02D69E0C8017E
:1029600019958A819B810E947D0FFC0101900020B6
:10297000E9F73197E81BF90B389748F4D801ED9146
:10298000FC910280F381E02D69E0C8011995CE84A5
:10299000DF84E888F988A884B9848A819B810E94B1
:1029A0008312982E8C848A819B810E94280F682F25
:1029B000C8010E945F196AE00E94A218EC016BEB4B
:1029C00075E00E946B18682DCE010E945F196AE0C5
:1029D0000E94A218EC0169EB75E00E946B18692D4A
:1029E000CE010E945F196AE00E94A218EC0167EB19
:1029F00075E00E946B18B501CE010E94E9186AE0EB
:102A00000E94A218EC0165EB75E00E946B186AE069
:102A1000CE010E94A218EC0163EB75E00E946B18D6
:102A2000B701A601CE010E941D19DF91CF911F9120
:102A30000F91FF90EF90DF90CF90BF90AF909F905D
:102A40008F900895CF93DF93EC01CB01DB01ED91E3
:102A5000FC910280F381E02DBE011995CE01DF913A
:102A6000CF9108950F931F93CF93DF93EC018B01C8
:102A7000BC01C8010E94221566E00E94A2188C8148
:102A80009D81009719F0B8010E943215DF91CF9116
:102A90001F910F9108950F931F93CF93DF93EC0134
:102AA0006AE00E94A2188C0168EA75E00E946B1827
:102AB0006AE0C8010E94A2188C0161EA75E00E94D8
:102AC0006B1866E0C8010E94A2186AE0CE010E945D
:102AD000A2188C0160E975E00E946B186AE0C801D9
:102AE0000E94A2188C0164E875E00E946B186AE0ED
:102AF000C8010E94A2188C016EE775E00E946B1855
:102B000066E0C8010E94A2186AE0CE010E94A218E5
:102B10008C016DE675E00E946B186AE0C8010E94A6
:102B2000A2188C0161E675E00E946B186AE0C8018A
:102B30000E94A2188C016BE575E00E946B1866E09C
:102B4000C8010E94A21880914431909145310097AC
:102B500019F0BE010E9432150E94850F0E94831257
:102B6000182F6AE0CE010E94A218EC0160E575E022
:102B70000E946B18612FCE010E945F196AE00E94CB
:102B8000A218EC016EE475E00E946B1864E670E038
:102B9000CE010E94E9186AE00E94A218EC016BE4E1
:102BA00075E00E946B1866E0CE010E94A218DF91CA
:102BB000CF911F910F9108950F93CF93DF931F92A1
:102BC000CDB7DEB700E02FEF3FEFA901BE016F5F89
:102BD0007F4FFC01808591850E94D40C813019F4CF
:102BE000898190E002C08FEF9FEF0F90DF91CF912E
:102BF0000F910895FC01808591850E94C50D91E09B
:102C0000811101C090E0892F08950F93CF93DF9336
:102C10001F92CDB7DEB76983FC01228533854485D9
:102C2000558500E0BE016F5F7F4F808591850E94D2
:102C30000D0C91E0811101C090E0892F0F90DF9180
:102C4000CF910F9108958F929F92BF92CF92DF9272
:102C5000EF92FF920F931F93CF93DF93EC01B62E69
:102C60004A01680179010E945D1889E390E2888336
:102C700099838E869F8640E061E08B2D0E94DF0B5A
:102C800088879987CA86DB86EC86FD86DF91CF919F
:102C90001F910F91FF90EF90DF90CF90BF909F908A
:102CA0008F900895CF92DF92EF92FF92CF93DF93B0
:102CB000EC01688179818A819B810F2EF8EECF2EFD
:102CC000F3E0DF2EE12CF12CF02DA70196010E94FC
:102CD000C51F9B01AC0160E472E48FE090E00E94AC
:102CE000B51FA70196010E94C51F69017A01AC8139
:102CF000BD8120E432E44FE050E00E940F2020E04C
:102D000038E448EE51E00E94C51FC701B601620FCA
:102D1000731F841F951FDF91CF91FF90EF90DF907D
:102D2000CF900895CF92DF92EF92FF920F931F936F
:102D3000CF93DF93CDB7DEB72F97CDBFDEBF6C014A
:102D40008B01DB016D917D918D919C9128EE33E09B
:102D500040E050E00E94C51FBA01A901C6010E94CF
:102D60001D19D601ED91FC910280F381E02D6EE2F8
:102D7000C6011995C8010E9452168E01095F1F4FA6
:102D8000FE0131967F012AE030E040E050E00E94F1
:102D9000E71FE62F288739874A875B87688579850B
:102DA0008A859B8520E32E0FD8012E938D01AE15C9
:102DB000BF0549F71F82BE016F5F7F4FC6010E94AA
:102DC0006B18C6012F96CDBFDEBFDF91CF911F914B
:102DD0000F91FF90EF90DF90CF900895CF93DF9306
:102DE000EC010FB6F8940F92809120089091210881
:102DF0008C839D830E946F0F688379838A839B8372
:102E00000F900FBECE01DF91CF9108955F926F9228
:102E10007F928F929F92AF92BF92CF92DF92EF926A
:102E2000FF920F931F93CF93DF935C014B017A01C5
:102E3000122F702E63E0CA010E94A218A814B904D0
:102E400008F07DC0650184E1C80ED11C00E06A2C49
:102E50005B2CB501C7010E94E9186AE00E94A21824
:102E60006DEC75E00E946B18112309F46DC000230E
:102E700009F46AC06AE0C7010E94A21868EC75E014
:102E80000E946B1861C0112371F001110CC0888180
:102E9000871549F06AE0C7010E94A21863EC75E04B
:102EA0000E946B1801E06991C7010E945F19DC0163
:102EB000ED91FC910280F381E02D60E21995CC1632
:102EC000DD0609F7112389F06AE0C7010E94A21804
:102ED000EC016DEB75E00E946B18E881F9810280CE
:102EE000F381E02D60E2CE011995C62DD52D6991B3
:102EF00080EE860F8F3548F4D701ED91FC9102806A
:102F0000F381E02DC701199509C0D701ED91FC911E
:102F10000280F381E02D6EE2C7011995CC16DD0623
:102F200031F7B4E1AB0EB11C66E0C7010E94A218F4
:102F300084E1C80ED11CA814B90408F488CF62E05B
:102F4000C7010E94A21803C0C62DD52D9CCFDF91CA
:102F5000CF911F910F91FF90EF90DF90CF90BF9096
:102F6000AF909F908F907F906F905F9008950E9498
:102F7000F90708950E94F90708950895CF93DF9304
:102F8000FC01DA01403A68E0560749F480E496E033
:102F90008283938382E0848383E0858332C0403BD5
:102FA00078E0570749F480E496E08283938386E0D3
:102FB000848387E0858325C0403A89E0580749F437
:102FC00080E696E08283938382E0848383E0858336
:102FD00018C0403B69E0560749F480E696E08283DA
:102FE000938386E0848387E085830BC0403A5A4010
:102FF00041F480E896E08283938382E0848383E0D7
:103000008583A683B783CD01019680879187039638
:10301000828793872581C281D3814C8181E090E0B2
:10302000BC0102C0660F771F2A95E2F79B01242B93
:103030002C832581C281D3814881BC0102C0660FE7
:10304000771F2A95E2F79B01242B28833481C281C4
:10305000D381288102C0880F991F3A95E2F78095A5
:1030600090958223888380E113968C93139783E055
:1030700015968C93159780EF17968C93179781E28E
:1030800016968C93169788E114968C9380E8858722
:1030900080E4868780E284870680F781E02D808146
:1030A0008081DF91CF91089581E0089580E090E0E4
:1030B000089580E0089508950895FC0189E490E260
:1030C000808391838AE08283138283E085831482E4
:1030D0001682178208950F931F93CF93DF938C016D
:1030E000FB01DC0114968C91811104C06081611197
:1030F00017C023C0D80114961C92EB01219664914D
:103100006623D9F0D801ED91FC910280F381E02D86
:10311000C8011995FE01649121966111F3CF0DC08C
:10312000EF012196D801ED91FC910280F381E02D11
:10313000C801199569916111F5CFDF91CF911F9168
:103140000F910895CF93DF93EC01862F90E08B30A1
:103150009105D8F5FC018827E250FF4F8F4F0C9462
:10316000062082E08A8331C088E08A832EC08AE00C
:103170008A832BC080E18A8328C081E08B8325C0AD
:103180001B8223C0E881F9810280F381E02D6DE08C
:10319000CE011995E881F9810280F381E02D6AE082
:1031A000CE01199512C0E881F9810284F385E02DE2
:1031B000CE0119950AC0E881F9810084F185E02DDE
:1031C000CE01199502C081E08C83CE01DF91CF91B1
:1031D0000895FF920F931F93CF93DF93CDB7DEB780
:1031E0006197CDBFDEBF8C01F62E972FF80142818B
:1031F000403121F0483011F0423041F4692FC801CC
:103200000E945F196F2D0E945F190DC050E0BE0132
:103210006F5F7F4F8F2D0E947520BE016F5F7F4FC4
:10322000C8010E946B18C8016196CDBFDEBFDF9157
:10323000CF911F910F91FF900895DF92EF92FF922F
:103240000F931F93CF93DF93CDB7DEB7A197CDBF79
:10325000DEBF8C01D42EE52EF62E972FF8012281A9
:10326000203121F0283011F0223071F4692FC8018B
:103270000E945F196F2D0E945F196E2D0E945F19C9
:103280006D2D0E945F190FC030E0AE014F5F5F4FA0
:103290006D2D7E2D8F2D0E944820BE016F5F7F4FC8
:1032A000C8010E946B18C801A196CDBFDEBFDF9197
:1032B000CF911F910F91FF90EF90DF900895CF92E3
:1032C000DF92EF92FF920F931F93CF93DF93CDB7CF
:1032D000DEB72997CDBFDEBF8C01E62EDC01139649
:1032E0008C911397882341F0ED91FC910280F3813A
:1032F000E02DC801199556C0F8014281423019F5F8
:103300006894CC24C3F8D12C6894FF24F7F88E2D50
:103310008F2151F0D801ED91FC910280F381E02DD5
:1033200061E3C801199509C0D801ED91FC910280B3
:10333000F381E02D60E3C8011995F694B1E0CB1A52
:10334000D10829F72FC04031F9F462956F700190D0
:10335000F081E02D0280F381E02D6A3010F0695C8D
:1033600001C0605DC80119956E2D6F70D801ED9197
:10337000FC910280F381E02D6A3010F0695C01C09D
:10338000605DC80119950EC050E0BE016F5F7F4FB0
:103390008E2D90E00E947520BE016F5F7F4FC801A7
:1033A0000E946B18C8012996CDBFDEBFDF91CF9177
:1033B0001F910F91FF90EF90DF90CF900895DC0167
:1033C0005096ED91FC915197808154964C91549771
:1033D000842329F009C02150310919F412C021E2D7
:1033E0003EE490819423B9F3908156968C91569740
:1033F000892B80831E96ED91FC911F97608381E05D
:10340000089580E00895CF93DF93FC01C18DD28DA4
:1034100028813981A38DB48D4D915C912417350796
:10342000E9F3A789B08D0D90BC91A02DA20FB31F19
:103430008C912F5F3F4F288339832436310528F044
:10344000018CF28DE02D1082118290E0DF91CF91FE
:103450000895CF93DF93EC01A98DBA8DEB8DFC8D90
:1034600081E04D915C91208131814217530709F42D
:1034700080E0DF91CF910895DC01ED91FC91028015
:10348000F381E02D6CE019950895EF92FF920F9370
:103490001F93CF93DF93EC017B018A010E945D189B
:1034A000A801B701CE0108960E94BE1789E590E2F7
:1034B00088839983003A88E0180769F482E691E3EB
:1034C0008F8B988F88E591E3898F9A8F8EE491E3B3
:1034D0008B8F9C8F42C0003BE8E01E0769F480E6BA
:1034E00091E38F8B988F86E591E3898F9A8F8CE497
:1034F00091E38B8F9C8F31C0003AF9E01F0769F48C
:103500008EE591E38F8B988F84E591E3898F9A8F75
:103510008AE491E38B8F9C8F20C0003B89E01807E1
:1035200069F48CE591E38F8B988F82E591E3898F25
:103530009A8F88E491E38B8F9C8F0FC0003A1A40DA
:1035400061F48AE591E38F8B988F80E591E3898F11
:103550009A8F86E491E38B8F9C8F0F89188D84E678
:1035600090E00E94BA17F80180839183E98DFA8D6B
:1035700010821182EB8DFC8D10821182DF91CF9130
:103580001F910F91FF90EF9008951F920F920FB629
:103590000F92112408B60F9218BE0BB60F921BBEE5
:1035A0002F933F938F939F93EF93FF932091A008C6
:1035B000E0916231F091633180914E3190914F31C1
:1035C000E80FF91F208380914E3190914F31019681
:1035D0008436910560F480934E3190934F31209161
:1035E00058313091593182179307F1F40CC0109281
:1035F0004E3110924F3180915831909159311816B7
:10360000190691F40EC001968436910528F4809332
:1036100058319093593108C0109258311092593155
:1036200003C081E090E0F3CFFF91EF919F918F91E4
:103630003F912F910F900BBE0F9008BE0F900FBEC1
:103640000F901F9018951F920F920FB60F92112492
:1036500008B60F9218BE0BB60F921BBE2F933F9366
:103660008F939F93EF93FF932091B008E091603187
:10367000F091613180914C3190914D31E80FF91FFB
:10368000208380914C3190914D3101968436910583
:1036900060F480934C3190934D31209156313091AC
:1036A000573182179307F1F40CC010924C311092ED
:1036B0004D3180915631909157311816190691F479
:1036C0000EC001968436910528F48093563190936C
:1036D000573108C0109256311092573103C081E023
:1036E00090E0F3CFFF91EF919F918F913F912F91B8
:1036F0000F900BBE0F9008BE0F900FBE0F901F9043
:1037000018951F920F920FB60F92112408B60F92C0
:1037100018BE0BB60F921BBE2F933F938F939F93B0
:10372000EF93FF932091A009E0915E31F0915F311A
:1037300080914E3190914F31E80FF91F2083809195
:103740004A3190914B3101968436910560F4809313
:103750004A3190934B312091543130915531821739
:103760009307F1F40CC010924A3110924B318091C2
:103770005431909155311816190691F40EC00196E6
:103780008436910528F4809354319093553108C0C4
:10379000109254311092553103C081E090E0F3CF84
:1037A000FF91EF919F918F913F912F910F900BBEC1
:1037B0000F9008BE0F900FBE0F901F9018951F928C
:1037C0000F920FB60F92112408B60F9218BE0BB6C7
:1037D0000F921BBE2F933F938F939F93EF93FF9373
:1037E0002091B009E0915C31F0915D3180914831D8
:1037F00090914931E80FF91F2083809148319091D1
:10380000493101968436910560F480934831909354
:103810004931209152313091533182179307F1F49D
:103820000CC01092483110924931809152319091E0
:1038300053311816190691F40EC00196843691057D
:1038400028F4809352319093533108C01092523132
:103850001092533103C081E090E0F3CFFF91EF91DC
:103860009F918F913F912F910F900BBE0F9008BEAB
:103870000F900FBE0F901F9018951F920F920FB6CA
:103880000F92112408B60F9218BE0BB60F921BBEF2
:103890002F933F938F939F93EF93FF932091A00AD1
:1038A000E0915A31F0915B318091463190914731EE
:1038B000E80FF91F2083809146319091473101969E
:1038C0008436910560F4809346319093473120917E
:1038D00050313091513182179307F1F40CC010929E
:1038E00046311092473180915031909151311816E4
:1038F000190691F40EC001968436910528F4809340
:1039000050319093513108C0109250311092513182
:1039100003C081E090E0F3CFFF91EF919F918F91F1
:103920003F912F910F900BBE0F9008BE0F900FBECE
:103930000F901F901895FC01848195810E94CD0DF8
:1039400090E00895FC01848195810E94CD0D91E065
:10395000811101C090E0892F0895FC018481958137
:103960000E94CD0D91E0811190E0892F0895FC0116
:10397000848195810E94CD0D90E00895FC018481A1
:1039800095810E94CD0D91E0811101C090E0892FB9
:103990000895FC01848195810E94CD0D91E08111F3
:1039A00090E0892F0895FC01848195810E94C50DC6
:1039B00090E00895FC01848195810E94C50D91E0FD
:1039C000811101C090E0892F0895FC0184819581C7
:1039D0000E94C50D91E0811190E0892F0895FC01AE
:1039E000848195810E94C50D90E00895FC01848139
:1039F00095810E94C50D91E0811101C090E0892F51
:103A00000895FC01848195810E94C50D91E081118A
:103A100090E0892F08950F9301E02FEF3FEFA90168
:103A2000FC01848195810E94D40C0F9108950F931D
:103A3000CF93DF931F921F92CDB7DEB701E02FEF38
:103A40003FEFA901BE016F5F7F4FFC01848195812B
:103A50000E94D40C89819A810F900F90DF91CF91B1
:103A60000F9108950F9300E02FEF3FEFA901FC01A4
:103A7000848195810E94D40C0F9108950F93CF9368
:103A8000DF931F921F92CDB7DEB700E02FEF3FEF1D
:103A9000A901BE016F5F7F4FFC01848195810E9467
:103AA000D40C89819A810F900F90DF91CF910F9163
:103AB00008950F9301E02FEF3FEFA901FC018481EE
:103AC00095810E94D40C0F9108950F93CF93DF93AB
:103AD0001F921F92CDB7DEB701E02FEF3FEFA90194
:103AE000BE016F5F7F4FFC01848195810E94D40CE1
:103AF00089819A810F900F90DF91CF910F91089556
:103B00000F9300E02FEF3FEFA901FC018481958125
:103B10000E94D40C0F9108950F93CF93DF931F92BF
:103B20001F92CDB7DEB700E02FEF3FEFA901BE0136
:103B30006F5F7F4FFC01848195810E94D40C898145
:103B40009A810F900F90DF91CF910F910895CF93AD
:103B5000DF931F92CDB7DEB7AE014F5F5F4FFC0121
:103B6000848195810E94980D0F90DF91CF910895E7
:103B7000CF93DF9300D0CDB7DEB7AE014D5F5F4F7F
:103B8000BE016F5F7F4FFC01848195810E94980D7B
:103B900089819A812396CDBFDEBFDF91CF910895B1
:103BA000CF93DF931F92CDB7DEB7AE014F5F5F4F6C
:103BB000FC01848195810E94980D0F90DF91CF9137
:103BC0000895CF93DF9300D0CDB7DEB7AE014D5F40
:103BD0005F4FBE016F5F7F4FFC01848195810E9422
:103BE000980D89819A812396CDBFDEBFDF91CF9159
:103BF0000895CF93DF931F92CDB7DEB7198221E0EE
:103C0000AE014F5F5F4FFC01848195810E94A80C3B
:103C100091E0811101C090E0892F0F90DF91CF9149
:103C20000895CF93DF931F92CDB7DEB7198220E0BE
:103C3000AE014F5F5F4FFC01848195810E94A80C0B
:103C400091E0811101C090E0892F0F90DF91CF9119
:103C50000895CF93DF931F92CDB7DEB7198221E08D
:103C6000AE014F5F5F4FFC01848195810E94A80CDB
:103C700091E0811101C090E0892F0F90DF91CF91E9
:103C80000895CF93DF931F92CDB7DEB7198220E05E
:103C9000AE014F5F5F4FFC01848195810E94A80CAB
:103CA00091E0811101C090E0892F0F90DF91CF91B9
:103CB00008950F93FC01268137814085518501E0ED
:103CC000848195810E940D0C91E0811101C090E0EA
:103CD000892F0F9108950F93FC012681378140852C
:103CE000518500E0848195810E940D0C91E0811145
:103CF00001C090E0892F0F9108950F93FC01268158
:103D000037814085518501E0848195810E940D0CA9
:103D100091E0811101C090E0892F0F9108950F93D8
:103D2000FC01268137814085518500E084819581A1
:103D30000E940D0C91E0811101C090E0892F0F913C
:103D400008950F93CF93DF931F92CDB7DEB72FB7B0
:103D50002983F8941BBEFC0108ED04BF60838981B0
:103D60008FBF0F90DF91CF910F910895EF92FF9247
:103D70000F931F93CF93DF93CDB7DEB7ED97CDBFF2
:103D8000DEBFF894E0E5F0E080818260808381818D
:103D900081FFFDCF60914000687F616080E490E02A
:103DA0000E94A11EE0E5F0E080818E7F80839DEF80
:103DB00088ED08B618BE84BF9093800008BE40EA24
:103DC0005AE060E070E0CE0101960E94451A67E07B
:103DD000CE0101960E94A2188C0165E670E20E9455
:103DE0006B1866E0C8010E94A21866E00E94A21843
:103DF00020E332EF40E050E060EA74E0CE014E96FE
:103E00000E94B803BE01625E7F4FCE01C3960E943E
:103E1000EF0482E190E00E94B7178E010F5F1F4F01
:103E200020E830E040E064E870E20E94890588E123
:103E300090E00E94B7179E012D5C3F4F790120E86A
:103E400030E042E06CE870E20E946C0587E080930D
:103E5000A20078940E94360F80E090E0ED96CDBFEE
:103E6000DEBFDF91CF911F910F91FF90EF900895EA
:103E7000CF92DF92EF92FF920F931F93CF93DF9336
:103E80000AE010E020E030E040E050E060E270E066
:103E900086E991E30E942316CCE8D1E31A821B82C3
:103EA00086E990E28883998340E062E08FEF0E9488
:103EB000DF0B8C839D830F2EFAE0CF2ED12CE12CCB
:103EC000F12CF02DCE82DF82E886F986C2E8D1E3BC
:103ED0001A821B820AEB10E20883198340E062E039
:103EE0008FEF0E94DF0B8C839D83CE82DF82E8867A
:103EF000F986C8E7D1E31A821B820883198340E060
:103F000062E08FEF0E94DF0B8C839D83CE82DF8285
:103F1000E886F986CEE6D1E31A821B8208831983EC
:103F200040E062E08FEF0E94DF0B8C839D83CE82A6
:103F3000DF82E886F986C4E6D1E31A821B82088311
:103F4000198340E062E08FEF0E94DF0B8C839D833A
:103F5000CE82DF82E886F986DF91CF911F910F91A3
:103F6000FF90EF90DF90CF900895DB018F939F93A8
:103F70000E940F20BF91AF91A29F800D911DA39F22
:103F8000900DB29F900D11240895A1E21A2EAA1B44
:103F9000BB1BFD010DC0AA1FBB1FEE1FFF1FA217F9
:103FA000B307E407F50720F0A21BB30BE40BF50BF6
:103FB000661F771F881F991F1A9469F7609570957F
:103FC000809590959B01AC01BD01CF010895052E10
:103FD00097FB1EF400940E94FE1F57FD07D00E941D
:103FE000C51F07FC03D04EF40C94FE1F509540955E
:103FF000309521953F4F4F4F5F4F08959095809595
:10400000709561957F4F8F4F9F4F0895EE0FFF1F63
:10401000881F8BBF0790F691E02D1BBE19940E945C
:104020001A20A59F900DB49F900DA49F800D911D07
:1040300011240895A29FB001B39FC001A39F700DEA
:10404000811D1124911DB29F700D811D1124911DA0
:104050000895FB01DC0102C001900D9241505040D7
:10406000D8F70895DC0101C06D9341505040E0F74E
:104070000895FB01DC014150504048F001900D9241
:104080000020C9F701C01D9241505040E0F708954B
:104090002532310520F4223010F00C945320FA011F
:1040A0001082CA010895BB27FA01A62F6217710575
:1040B00081059105330B30FB66F0AA27660F771F49
:1040C000881F991FAA1FA21710F0A21B63953850D2
:1040D000A9F7A05DAA3308F0A95DA19336F7B11145
:1040E000B1931082CA010C949A204532510520F4F4
:1040F000423010F00C948020FB011082CB01089517
:10410000BB27FB015527AA27880F991FAA1FA417B1
:1041100010F0A41B83955051B9F7A05DAA3308F0A5
:10412000A95DA193009779F7B111B1931192CB01D9
:104130000C949A20DC01FC01672F71917723E1F741
:10414000329704C07C916D9370836291AE17BF0764
:08415000C8F30895F894FFCFB5
:10415800FF0FFFFFFFFF0000000023030000000027
:104168003203000000006303000000002E059214D3
:1041780000000000CC06921449444C4500000000A1
:1041880000BD1792140000000054180516FA15DC3B
:10419800155B185C18000000005418BD1759185614
:1041A800185B185C18000000005418DF19291A035E
:1041B8001A5B183C1A4672656552544F5320586D65
:1041C8006567612054657374696E672050726F6704
:1041D80072616D0055736572496E7400536F6E613C
:1041E8007200000000006B1E111E591EF91D3E1DB5
:1041F800321DB81DA71D171D0B1DE51CAD1CDA1CB3
:10420800A21CD31C9B1C000000008F1E411E7D1E9B
:10421800291E8C1D801DE11DD01D651D591D011D08
:0A422800C91CF61CBE1CEF1CB71CDD
:00000001FF
