S01600004652454552544F535F5348454C4C2E73726563CD
S11300000C94E5020C941B030C941B030C941B032B
S11300100C941B030C941B030C941B030C941B03E4
S11300200C941B030C941B030C941B030C941B03D4
S11300300C941B030C941B030C941B030C941B03C4
S11300400C941B030C941B030C941B030C941B03B4
S11300500C941B030C941B030C94430A0C941B0375
S11300600C941B030C94181A0C941B030C941B0380
S11300700C94761A0C941B030C941B030C941B0312
S11300800C941B030C941B030C941B030C941B0374
S11300900C941B030C941B030C941B030C941B0364
S11300A00C941B030C941B030C941B030C941B0354
S11300B00C941B030C941B030C941B030C941B0344
S11300C00C941B030C941B030C941B030C941B0334
S11300D00C941B030C941B030C941B030C941B0324
S11300E00C941B030C941B030C94901B0C941B0387
S11300F00C941B030C941B030C941B030C941B0304
S11301000C941B030C941B030C941B030C941B03F3
S11301100C941B030C941B030C941B030C941B03E3
S11301200C941B030C941B030C941B030C941B03D3
S11301300C941B030C941B030C941B030C941B03C3
S11301400C941B030C941B030C941B030C941B03B3
S11301500C941B030C941B030C941B030C941B03A3
S11301600C94D41A0C941B030C941B030C94321B94
S11301700C941B030C941B030C941B030C941B0383
S11301800C941B030C941B030C941B030C941B0373
S11301900C941B030C941B030C941B030C941B0363
S11301A00C941B030C941B030C941B030C941B0353
S11301B00C941B030C941B030C941B030C941B0343
S11301C00C941B030C941B030C941B030C941B0333
S11301D00C941B030C941B030C941B030C941B0323
S11301E00C941B030C941B030C941B030C941B0313
S11301F00C941B030C941B030C941B030418071886
S11302000A180D1810181318151826182E1838184F
S113021036180C94941D0C94FA1C0C942E180C94FF
S1130220A7170C94E5130C945E1C0C9458150C94AD
S1130230641D0C9404180C94D31C0C94001C0C9492
S113024007180C94DF1C0C94381C0C94911C0C940F
S11302500D180C948F190C941C1C0C94851C0C9474
S1130260A9170C9432190C9413180C94231D0C9494
S1130270F51B0C947C1D0C947C190C94230D0C948C
S113028038180C94111C0C940A1C0C94E2020C9463
S1130290E21D0C94D01D0C946A1C0C9481040C94E3
S11302A0B81C0C940A180C9456190C94AC170C94A2
S11302B02F150C9426180C94EE1B0C948B1E0C9486
S11302C04D150C94AC1C0C94341D0C9410170C9408
S11302D0AF170C9436180C94421C0C94261C0C94E6
S11302E0491C0C940B1D0C944C1D0C94AE170C94CF
S11302F010180C942D1C0C94AC1D0C941F060C941B
S113030015180C94BE1D0C94541C536F6E61723AF4
S113031020002C20544343304343413D002F002C04
S1130320204865617020667265653A200054696DE5
S1130330653A20004D617220313520323031380069
S11303404D45343035206261736520726164696F94
S11303502070726F6772616D2056302E3420002039
S1130360202020683A20202048414C5021002020A1
S11303702020653A2020204578697420636F6D6DD4
S1130380616E64206D6F64650020202020733A2024
S11303902020537461636B2064756D7020666F72E6
S11303A0207461736B730020202020763A20202073
S11303B056657273696F6E20616E6420736574751F
S11303C07020696E666F726D6174696F6E002020B3
S11303D020206E3A20202053686F772074686520AF
S11303E074696D65207269676874206E6F77002088
S11303F020496E20636F6D6D616E64206D6F64655E
S1130400206F6E6C793A00202043746C2D413A20A1
S1130410456E74657220636F6D6D616E64206D6FDF
S1130420646500202043746C2D433A205265736543
S1130430742074686520415652002068656C700011
S11304404D45343035206261736520726164696F93
S11304502070726F6772616D2056302E3420001B3D
S11304605B33306D001B5B34366D00496C6C656723
S1130470616C2073746174652120526573657474B2
S1130480696E6720415652003A5754463F004578FA
S1130490697420636F6D6D616E64206D6F646500B7
S11304A0526573657474696E6720415652005072C8
S11304B0657373204374726C2D4120666F722063E0
S11304C06F6D6D616E64206D6F6465005265736558
S11304D07474696E67004552524F5220696E2074DD
S11304E061736B20004552524F52206372656174F0
S11304F0696E67207461736B20002C2073746163D0
S11305006B206174203078002063726561746564C7
S1130510005461736B20001B5B32326D00546173B5
S11305206B3A20001B5B316D001B5B32326D005453
S113053061736B3A2049444C45001B5B316D0009E3
S113054009002F0049444C45090930092D090009C7
S11305502D2D2D2D00092D2D2D2D2D2D2D2D2D2D18
S1130560002D2D2D2D09092D2D2D2D092D2D2D2D50
S11305702D000952756E730009467265652F546F1C
S113058074616C004E616D6509095072692E0953DE
S1130590746174650009537461636B005461736B17
S11305A009092020092000090009002F0009000979
S11305B0001B5B32326D001B5B316D001B5B316DC8
S11305C0002020000E947D128B1E11241FBECFEF3D
S11305D0CDBFDFE3DEBF00E00CBF18BE19BE1ABEFC
S11305E01BBE10E2A0E0B0E2EEEFFFE300E00BBFC1
S11305F002C007900D92A83CB107D9F71BBE21E3B6
S1130600A8ECB0E201C01D92A639B207E1F712E0EE
S1130610C5EED2E000E006C021970109802FFE015B
S11306200E94591FC43ED10780E00807A9F70E9421
S1130630091E0C94FD1F0C940000CF93DF93EC0172
S11306409A01AB01220F331F441F551F60E078E469
S113065088EE91E00E94181F25502C83E881F981CF
S11306602583DF91CF910895CF93DF93FC01EB01B4
S1130670BA01A901C083D1834583568367837087F8
S1130680C03884E0D80729F480E496E08283938319
S113069008C0C03A84E0D80721F480E896E0828359
S11306A09383A281B38183E011968C93A281B38159
S11306B088E350968C93A281B38151968C9382E007
S11306C08A83CF010E941D038C818D6C8C8388E00A
S11306D08983DF91CF9108950F931F93CF93DF9375
S11306E01F921F92CDB7DEB7DC0109831A83ED9107
S11306F0FC911197660F668389819A81019789839A
S11307009A83892BD1F1ED91FC911197848186FF15
S1130710F3CF33C0222349F1BA012150822F90E054
S11307200196480F591F09831A832D913C91119703
S1130730FB018191BF01F901878329813A8121500D
S1130740310929833A83232BF1F0ED91FC91119720
S1130750948194FDF2CF17C0ED91FC91119784819F
S11307608064848346175707F1F6ED91FC9183E08A
S1130770838381E00DC080E00BC089819A81892B3D
S113078049F680E005C029813A81232B29F7F3CF6C
S11307900F900F90DF91CF911F910F9108950F93B8
S11307A01F93CF93DF9300D0CDB7DEB7DC0109836D
S11307B01A83ED91FC911197660F616066838981BC
S11307C09A81019789839A83892B09F447C0ED9113
S11307D0FC9111978481882394F740C01B828B81FC
S11307E08217D8F532E009831A8369817A816150CE
S11307F0710969837A83672BC1F1ED91FC9111979B
S11308009481992394F731C09B81ED91FC911197C8
S11308108781FA01E90FF11D80838B81821788F4A7
S1130820ED91FC9111973383ED91FC9111978481A3
S1130830806884838B818F5F8B838B81821798F28E
S11308400CC0ED91FC91119787E08383ED91FC91AD
S113085084818068848381E00DC00CC089819A8181
S1130860892B09F0BBCF80E005C069817A81672BB1
S113087059F680E02396CDBFDEBFDF91CF911F9163
S11308800F910895FC01608371831482158216828E
S11308901782108680E7828381E583838AEA8483D2
S11308A085EA858308950F931F93AC014D5F5F4FD5
S11308B008EE13E021E0FC016281808191810E94B5
S11308C06C031F910F9108950F931F93CF93DF93A0
S11308D0EC01AC01495F5F4F08EE13E022E06A814E
S11308E0888199810E94CF038F8190E0982F882777
S11308F02885822B89879A87DF91CF911F910F9149
S11309000895EC018C85882319F0813051F025C0BD
S11309108C899D890E94530461E0CE010E948C124F
S11309201CC08C899D890E9464047C018A8B9B8BEA
S11309306AE08E819F810E94F5178C016AE073E062
S11309400E94BE17B701C8010E943C1866E00E94CD
S1130950F51760E0CE010E948C128E859F85A889D0
S1130960B9890196A11DB11D8E879F87A88BB98B6C
S113097064EF71E080E090E00E946010C3CFCF92FA
S1130980DF92EF92FF920F931F93CF93DF93EC01CB
S11309906B010E9490128AE090E288839983EC8A2A
S11309A0FD8ACE8ADF8ADF91CF911F910F91FF904C
S11309B0EF90DF90CF9008950F931F93CF93DF9321
S11309C0EC010E94901282E190E288839983DF9186
S11309D0CF911F910F9108950F931F93CF93DF939E
S11309E0EC016AE08E819F810E94F5178C0165E617
S11309F074E00E94BE176AE0C8010E94F5178C01DA
S1130A006FE574E00E94BE1767E0C8010E94F51705
S1130A106AE08E819F810E94F5178C0160E474E086
S1130A200E94BE176AE0C8010E94F5178C016AE3B0
S1130A3074E00E94BE1766E0C8010E94F5176AE0E0
S1130A408E819F810E94F5178C0163E274E00E94FD
S1130A50BE1766E0C8010E94F5176AE08E819F8187
S1130A600E94F5178C0167E074E00E94BE1766E0EF
S1130A70C8010E94F5176AE08E819F810E94F517D4
S1130A808C016FEE73E00E94BE1766E0C8010E94FD
S1130A90F5176AE08E819F810E94F5178C016EEC38
S1130AA073E00E94BE1766E0C8010E94F5176AE071
S1130AB08E819F810E94F5178C0167EA73E00E9482
S1130AC0BE1766E0C8010E94F5176AE08E819F8117
S1130AD00E94F5178C0169E873E00E94BE1766E076
S1130AE0C8010E94F5176AE08E819F810E94F51764
S1130AF08C016EE673E00E94BE1766E0C8010E9496
S1130B00F5176AE08E819F810E94F517EC016FE56D
S1130B1073E00E94BE1766E0CE010E94F517DF91D4
S1130B20CF911F910F910895AF92BF92CF92DF9210
S1130B30EF92FF920F931F93CF93DF9300D000D0D7
S1130B40CDB7DEB78C0119821A821B821C821D82EA
S1130B501E820E9419086C01CE0101960E94411662
S1130B605C0166E0F801868197810E94F5176AE0CE
S1130B700E94F5177C0160E473E00E94BE176AE0EE
S1130B80C7010E94F5177C0164E373E00E94BE175D
S1130B9066E0C7010E94F5176AE00E94F5177C0120
S1130BA06DE273E00E94BE17B501C7010E94E5150E
S1130BB06AE00E94F5177C016FE173E00E94BE17A2
S1130BC0B601C7010E943C186AE00E94F5177C0137
S1130BD06DE173E00E94BE174FEF5FE060E070E0EC
S1130BE0C7010E947018C0902808D09029086AE0B4
S1130BF0F801868197810E94F5177C0162E173E018
S1130C000E94BE17B601C7010E943C1866E00E940C
S1130C10F51766E00E94F517F801868197810E9416
S1130C209E142696CDBFDEBFDF91CF911F910F9109
S1130C30FF90EF90DF90CF90BF90AF900895CF9347
S1130C40DF9300D000D0CDB7DEB78C0119821A82B1
S1130C501B821C821D821E826AE0DC0116968D9125
S1130C609C9117970E94F5177C016EEA74E00E942C
S1130C70BE1766E0C7010E94F517F8018485882332
S1130C8021F0813009F45DC0D8C086819781DC01F0
S1130C90ED91FC910480F581E02D19958823A9F14B
S1130CA0F80186819781DC01ED91FC910680F78142
S1130CB0E02D1995992781309105F9F0039709F0F2
S1130CC0D8C06AE0F801868197810E94F5178C01EB
S1130CD060EA74E00E94BE1766E0C8010E94F5173E
S1130CE093E088ED08B618BE84BF9093800080918D
S1130CF0820081FDFCCF08BEFFCFC8010E94EC0436
S1130D0061E0C8010E948C12B4C084E891E30E949F
S1130D104D15882309F4ADC0D8011696ED91FC91C8
S1130D2017970190F081E02DE280F38084E891E34D
S1130D300E942F15682FF80186819781F701199574
S1130D4098C086819781DC01ED91FC910480F58146
S1130D50E02D1995882309F48CC0F80186819781C8
S1130D60DC01ED91FC910680F781E02D19959C0141
S1130D7033272836310559F13CF42B31310559F12B
S1130D802536310541F13BC023373105C1F0263703
S1130D90310589F02E36310591F5CE0101960E9478
S1130DA04116BC01F801868197810E94E51566E031
S1130DB00E94F5175EC0C8010E9494055AC0D8016C
S1130DC016968D919C9117970E94A51352C0C80145
S1130DD00E94EC044EC06AE0F801868197810E946B
S1130DE0F5177C016EE874E00E94BE1766E0C70147
S1130DF00E94F51760E0C8010E948C123AC0F80105
S1130E00A681B781ED91FC9111970280F381E02DC9
S1130E10682FCD0119956AE0D80116968D919C91A1
S1130E2017970E94F5177C0168E874E00E94BE17CA
S1130E3066E0C7010E94F5171CC06AE0F8018681CC
S1130E4097810E94F5178C016BE674E00E94BE172F
S1130E5066E0C8010E94F51793E088ED08B618BE55
S1130E6084BF909380008091820081FDFCCF08BEF6
S1130E70FFCFF80186859785A089B1890196A11DC8
S1130E80B11D86879787A08BB18B61E070E080E00D
S1130E9090E00E946010F1CE0F931F93CF93DF93E5
S1130EA0EC010E94BC0E8091C82081111DC0ADECE4
S1130EB0B0E2E1EDF0E2ED93FC93119712961D92EE
S1130EC01C921397A9ECB0E28FEF9FE012968D93DA
S1130ED09C9313971D921C92119782839383A083F2
S1130EE0B18381E08093C820209709F45FC09E01FC
S1130EF02B5F3F4F2496CE3FDF4008F05AC0E0916D
S1130F00CD20F091CE20ADECB0E202C0DF01FC01B7
S1130F10828193818217930720F4808191810097C5
S1130F20A9F7C0E2E93CFC0709F446C0CD91DC9185
S1130F3011978E010B5F1F4F808191818D939C933C
S1130F4082819381821B930B8B30910510F1BF0139
S1130F50620F731FDB0112968D939C931397228368
S1130F60338312964D915C9113978DEC90E201C0FE
S1130F70CD01EC01A881B98112962D913C91139772
S1130F8024173507A8F3EB01A883B983DC016D931B
S1130F907C93809100209091012022813381821BD7
S1130FA0930B809300209093012008C000E010E090
S1130FB005C000E010E002C000E010E00E94DE0F77
S1130FC0C801DF91CF911F910F9108950F931F9343
S1130FD0CF93DF93009741F1EC018C010550110987
S1130FE00E94BC0EF80142815381ADECB0E201C015
S1130FF0DF01ED91FC91119722813381241735078C
S1131000B8F32597E883F9830D931C93209100206E
S1131010309101208A819B81820F931F809300204D
S1131020909301200E94DE0FDF91CF911F910F91C9
S1131030089580910020909101200895FC01039669
S1131040818392834FEF5FEFBA01438354836583B7
S11310507683878390878187928710820895FC0125
S1131060128613860895CF93DF93FC01DB0121815F
S11310703281E9018C819D8114968D939C931597FF
S11310808181928116968D939C9317978C819D8173
S1131090EC016E837F83E9016C837D8361837283BA
S11310A01A96ED93FC931B9780818F5F8083DF9169
S11310B0CF9108950F931F93CF93DF93EB01088192
S11310C019812A813B810F3F4FEF1407240734070E
S11310D031F4DC011996ED91FC911A971FC0FC01C3
S11310E03396DC0117964D915C911897DA014D9176
S11310F05D916D917C91041715072607370770F0F1
S11311000480F581E02DA481B5814D915D916D91AF
S11311107C91041715072607370790F7A481B5813A
S1131120AC83BD831696CD93DC931797EE83FF8330
S1131130C483D5838A879B87FC0120812F5F20830A
S1131140DF91CF911F910F910895FC01A481B58186
S11311508681978116968D939C931797A681B78164
S11311608481958114968D939C931597A285B3855C
S113117011968D919C911297E817F90731F48681A5
S1131180978111968D939C931297128613868C9156
S113119081508C930895809394319093953131E1EB
S11311A0FC013083319722E220833197A3E3A083AB
S11311B03197608331977083319710823197108211
S11311C0319760E8608331971082319710823197AC
S11311D01082319762E06083319763E060833197D6
S11311E064E06083319765E06083319766E06083F3
S11311F0319767E06083319768E06083319769E0F5
S11312006083319760E1608331973083319732E1B5
S11312103083319733E13083319734E13083319730
S113122035E13083319736E13083319737E13083CC
S1131230319738E13083319739E13083319730E2A7
S11312403083319731E2308331972083319723E221
S113125020833197408331975083319726E220834E
S1131260319727E22083319728E22083319729E2BE
S11312702083319720E32083319721E320838997CA
S113128008958CE7809369088FEF8093680881E064
S11312908093400891E19093410880934708A0917E
S11312A03031B0913131CD91CDBFDD91DEBFFF91B1
S11312B0EF91DF91CF91BF91AF919F918F917F91EA
S11312C06F915F914F913F912F911F910F91FF90DB
S11312D0EF90DF90CF90BF90AF909F908F907F90D2
S11312E06F905F904F903F902F901F900F900CBE87
S11312F00F900BBE0F900FBE0F90089508950F929C
S11313000FB6F8940F920BB60F920CB60F921F9271
S113131011242F923F924F925F926F927F928F92FD
S11313209F92AF92BF92CF92DF92EF92FF920F9370
S11313301F932F933F934F935F936F937F938F9359
S11313409F93AF93BF93CF93DF93EF93FF93A091BA
S11313503031B09131310DB60D920EB60D920E941E
S11313608E10A0913031B0913131CD91CDBFDD914E
S1131370DEBFFF91EF91DF91CF91BF91AF919F912C
S11313808F917F916F915F914F913F912F911F9119
S11313900F91FF90EF90DF90CF90BF90AF909F9010
S11313A08F907F906F905F904F903F902F901F9001
S11313B00F900CBE0F900BBE0F900FBE0F900895B0
S11313C00F920FB6F8940F920BB60F920CB60F92C1
S11313D01F9211242F923F924F925F926F927F92AD
S11313E08F929F92AF92BF92CF92DF92EF92FF9231
S11313F00F931F932F933F934F935F936F937F9319
S11314008F939F93AF93BF93CF93DF93EF93FF9308
S1131410A0913031B09131310DB60D920EB60D92CE
S11314200E94DD0E0E948E10A0913031B0913131B6
S1131430CD91CDBFDD91DEBFFF91EF91DF91CF91D3
S1131440BF91AF919F918F917F916F915F914F91D8
S11314503F912F911F910F91FF90EF90DF90CF90CC
S1131460BF90AF909F908F907F906F905F904F90C0
S11314703F902F901F900F900CBE0F900BBE0F90BB
S11314800FBE0F9008950E94E0091895CF93DF9343
S1131490EC0188A181110BC088819981892BE1F528
S11314A08A819B810E9449121A821B8235C0411194
S11314B017C0482F50E08C819D810E947C1F28A179
S11314C08C819D81820F911D8C839D832A813B8118
S11314D08217930708F1888199818C839D831CC0AE
S11314E0482F50E08E819F810E947C1F88A190E04C
S11314F09195819591092E813F81280F391F2E8363
S11315003F83488159812417350730F42A813B8170
S1131510820F931F8E839F838E8D8F5F8E8FDF91BB
S1131520CF910895FC01808191810097A1F040A1A1
S113153050E026813781240F351F26833783A2810B
S1131540B3812A173B0710F086839783CB0166810A
S113155077810E947C1F08950F931F93CF93DF938D
S1131560EC010FB6F8940F928AA11816B4F48B8983
S1131570811105C012C08B89811104C00EC08E0177
S11315800D5E1F4FC8010E94151181110E94D211D6
S11315908AA181508AA3181674F38FEF8AA30F903F
S11315A00FBE0FB6F8940F9289A11816B4F488856B
S11315B0811105C012C08885811104C00EC08E013E
S11315C0085F1F4FC8010E94151181110E94D2119A
S11315D089A1815089A3181674F38FEF89A30F9002
S11315E00FBEDF91CF911F910F9108951F93CF9359
S11315F0DF93613059F0FC012389308531112CC00F
S113160011E0211110E0211128C001C011E0EC010A
S11316104881598128A130E06F8D629FC001639F8A
S1131620900D1124BA01680F791F6A837B831E8E83
S11316304C835D83821B930B840F951F8E839F8342
S11316408FEF89A38AA3CE0108960E941E08CE01BB
S113165043960E941E0801C010E0812FDF91CF91B4
S11316601F9108950F931F93CF93DF93882301F164
S1131670062F182F83E290E00E944C07EC01892B7F
S1131680C9F0109FC001112401960E944C07888361
S11316909983892B39F01F8F08A361E0CE010E9442
S11316A0F60A08C0CE010E94E607C0E0D0E002C0FE
S11316B0C0E0D0E0CE01DF91CF911F910F9108954A
S11316C0AF92BF92CF92DF92EF92FF920F931F934C
S11316D0CF93DF93CDB7DEB72997CDBFDEBF7C01B3
S11316E05B012E833F834887598710E06C0188E0B3
S11316F0C80ED11C0FB6F8940F92F701968D878D02
S11317009817A8F4402FB501C7010E94460AF701B3
S11317108389882341F0C70143960E9415118130C3
S113172011F40E947F090F900FBE81E056C08E8194
S11317309F81A885B985892B8A2B8B2B21F40F9047
S11317400FBE80E04AC0111105C0CE0101960E946F
S1131750541111E00F900FBE0E94BC0E0FB6F89406
S11317600F92F70181A18F3F09F411A2F70182A121
S11317708F3F09F412A20F900FBEBE016A5F7F4F24
S1131780CE0101960E946511811121C00FB6F89413
S11317900F92F701968D0F900FBE878D981311C08D
S11317A04E815F8168857985C6010E94EB10C7016F
S11317B00E94AC0A0E94DE0F81119CCF0E947F0917
S11317C099CFC7010E94AC0A0E94DE0F93CFC701D4
S11317D00E94AC0A0E94DE0F80E02996CDBFDEBFD6
S11317E0DF91CF911F910F91FF90EF90DF90CF90F9
S11317F0BF90AF9008950F931F93CF93DF938A0107
S1131800FC01568D378D5317C0F4422FEC010E9412
S1131810460A8AA18F3F69F48B89882381F0CE011F
S113182043960E941511882361F081E0F8018083BA
S113183009C08F5F8AA381E005C080E003C081E016
S113184001C081E0DF91CF911F910F910895AF9274
S1131850BF92CF92DF92EF92FF920F931F93CF9399
S1131860DF93CDB7DEB72997CDBFDEBF7C015B0127
S11318702E833F834887598710E06C0183E1C80EAB
S1131880D11C0FB6F8940F92F701868D882399F135
S1131890C680D780B501C7010E94920A01111AC0FF
S11318A0F701868D8150868F80819181892B29F45F
S11318B00E94EF11F70182839383F70180858823C7
S11318C0B1F0C70108960E941511813081F40E947D
S11318D07F090DC0F701C682D7828389882339F036
S11318E0C70143960E94151181110E947F090F9030
S11318F00FBE81E062C08E819F81A885B985892B46
S11319008A2B8B2B21F40F900FBE80E056C011114F
S113191005C0CE0101960E94541111E00F900FBE34
S11319200E94BC0E0FB6F8940F92F70181A18F3F6D
S113193009F411A2F70182A18F3F09F412A20F90BA
S11319400FBEBE016A5F7F4FCE0101960E946511F2
S113195081112DC00FB6F8940F92F701868D0F9068
S11319600FBE81111EC080819181892B49F40FB66D
S1131970F8940F92828193810E94F4110F900FBE0C
S11319804E815F8168857985C6010E94EB10C7018D
S11319900E94AC0A0E94DE0F811173CF0E947F095E
S11319A070CFC7010E94AC0A0E94DE0F6ACFC70144
S11319B00E94AC0A0E94DE0F80E02996CDBFDEBFF4
S11319C0DF91CF911F910F91FF90EF90DF90CF9017
S11319D0BF90AF9008950F931F93CF93DF93FC01B3
S11319E0268D2223D9F08A01EC010E94920A8E8D61
S11319F081508E8F89A18F3F69F48885882381F077
S1131A00CE0108960E941511882361F081E0F80147
S1131A10808309C08F5F89A381E005C080E003C093
S1131A2081E001C081E0DF91CF911F910F91089572
S1131A300FB6F8940F92FC01868D0F900FBE089597
S1131A40FC01868D0895C4E0D1E388818230E8F3F7
S1131A500E947F09FACFCF92DF92EF92FF926B013F
S1131A607C01E0913031F09131316283738384835E
S1131A7095838091D8309091D930A091DA30B0918B
S1131A80DB30C816D906EA06FB0668F460913031EB
S1131A90709131318091EA309091EB306E5F7F4FDD
S1131AA00E945A0821C06091303170913131809187
S1131AB0EC309091ED306E5F7F4F0E945A08809118
S1131AC0022090910320A0910420B0910520C81613
S1131AD0D906EA06FB0640F4C0920220D092032005
S1131AE0E0920420F0920520FF90EF90DF90CF90D9
S1131AF008954F925F926F927F928F929F92AF92CE
S1131B00BF92CF92DF92EF92FF920F931F93CF93E6
S1131B10DF935C014B013A01290188E290E00E94C5
S1131B204C07EC01892B09F4D4C0C114D10409F089
S1131B30CCC0C3010E944C078B8F9C8F009721F46B
S1131B40CE010E94E607C5C0A30161E170E00E94D6
S1131B50851F9301215031098B8D9C8D3C01620EB0
S1131B60731E4AE050E0B401CE014D960E948C1FD2
S1131B701EA2102F043008F013E01A8F1FA36E0169
S1131B8022E0C20ED11CC6010E942F08CE010E967F
S1131B900E942F08CA87DB8784E090E0A0E0B0E0D1
S1131BA0811B9109A109B1098E879F87A88BB98BE5
S1131BB0CE8BDF8BA201B501C3010E94CB088883C1
S1131BC09983E114F10419F0F701C083D1830FB6AE
S1131BD0F8940F928091DC308F5F8093DC30809199
S1131BE0303190913131892B89F5C0933031D093C4
S1131BF031318091DC308130C1F584E091E30E9481
S1131C001E088FE091E30E941E088AE191E30E947E
S1131C101E0885E291E30E941E0889EF90E30E946A
S1131C201E088EEE90E30E941E088FED90E30E9442
S1131C301E0889EF90E38093EC309093ED308EEEA4
S1131C4090E38093EA309093EB300FC08091D530CD
S1131C5081110BC0E0913031F0913131828D081740
S1131C6020F0C0933031D09331318A8D9091D730A8
S1131C70981710F48093D7309091D0309F5F909351
S1131C80D0309091D630981710F48093D630FBE082
S1131C908F9FC0011124B6018C5F9E4C0E943308B3
S1131CA00F900FBE8091D530882359F0E0913031E8
S1131CB0F0913131828D801730F40E947F0981E0E8
S1131CC009C081E007C081E005C0CB8EDC8EC6016F
S1131CD03BCF8FEFDF91CF911F910F91FF90EF904A
S1131CE0DF90CF90BF90AF909F908F907F906F9038
S1131CF05F904F9008950FB6F8940F92009721F4D7
S1131D0080913031909131310F900FBEFC01828D62
S1131D100895AF92BF92CF92DF92EF92FF920F930A
S1131D20A12CB12CC12CD12C0F2EFDEDEF2EF0E304
S1131D30FF2EF02D00E020E030E044E650E066E1C4
S1131D4070E283E29DE00E94790D813069F4F89499
S1131D508093D5301092D8301092D9301092DA3066
S1131D601092DB300E9441090F91FF90EF90DF90B9
S1131D70CF90BF90AF9008958091D4308F5F8093BF
S1131D80D43008950FB6F8940F926091D8307091C2
S1131D90D9308091DA309091DB300F900FBE0895E6
S1131DA0009721F480913031909131314D9608950E
S1131DB08091DD309091DE300895FF920F931F9350
S1131DC0CF93DF938091D4308111EDC08091D830CE
S1131DD09091D930A091DA30B091DB300196A11DF9
S1131DE0B11D8093D8309093D930A093DA30B0935A
S1131DF0DB308091D8309091D930A091DA30B09115
S1131E00DB30892B8A2B8B2BF1F58091EC30909170
S1131E10ED302091EA303091EB302093EC30309368
S1131E20ED308093EA309093EB308091D1308F5F26
S1131E308093D130E091EC30F091ED3080818111CC
S1131E400CC08FEF9FEFDC0180930220909303205E
S1131E50A0930420B093052016C0E091EC30F091DB
S1131E60ED300780F085E02D0084F185E02D82813E
S1131E709381A481B5818093022090930320A09341
S1131E800420B09305204091D8305091D93060910E
S1131E90DA307091DB308091022090910320A09180
S1131EA00420B0910520481759076A077B0708F4F6
S1131EB07FC0E091EC30F091ED3080818823F9F01F
S1131EC0E091EC30F091ED300780F085E02DC08595
S1131ED0D1858A819B81AC81BD814091D83050915C
S1131EE0D9306091DA307091DB30481759076A07AE
S1131EF07B0758F10F2EFBE0FF2EF02D2FC08FEF44
S1131F009FEFDC018093022090930320A093042090
S1131F10B09305204DC0E091EC30F091ED30078096
S1131F20F085E02DC085D1858A819B81AC81BD81FE
S1131F304091D8305091D9306091DA307091DB30D3
S1131F40481759076A077B0748F480930220909347
S1131F500320A0930420B09305202AC08E010E5FB5
S1131F601F4FC8010E94A508888D998D892B21F0E7
S1131F70CE010E960E94A5088A8D9091D6309817AE
S1131F8010F48093D630F89EC0011124B8018C5F00
S1131F909E4C0E943308E091EC30F091ED3080814A
S1131FA08111B9CFACCF8091D3308F5F8093D33080
S1131FB0DF91CF911F910F91FF900895CF92DF92FF
S1131FC0EF92FF920F931F93CF93DF930FB6F89482
S1131FD00F928091D43081508093D4308091D4304A
S1131FE0811160C08091DC3081112CC05EC0D701AA
S1131FF01796ED91FC911897C085D185CE010E9668
S11320000E94A5088E010E5F1F4FC8010E94A508FB
S11320108A8D9091D630981710F48093D630D89E3C
S1132020C0011124B8018C5F9E4C0E943308E091DA
S11320303031F09131319A8D828D981770F0CC2423
S1132040C3940BC0C12C0F2EFFEDEF2EF0E3FF2E37
S1132050F02D0F2EFBE0DF2EF02DF7018081811192
S1132060C6CF8091D330882381F08091D3308823E8
S113207099F00E94DD0E8091D33081508093D3304B
S11320808091D3308111F5CF07C0F1E0CF1621F054
S11320908091D230813041F41092D2300E947F0975
S11320A081E003C080E001C080E00F900FBEDF91AB
S11320B0CF911F910F91FF90EF90DF90CF900895F3
S11320C0CF92DF92EF92FF926B017C01672B682B1A
S11320D0692BE9F00E94BC0E8091D8309091D930E0
S11320E0A091DA30B091DB30C80ED91EEA1EFB1E77
S11320F0809130319091313102960E94A508C70138
S1132100B6010E942B0D0E94DE0F811102C00E94B5
S11321107F09FF90EF90DF90CF9008958091D430A5
S113212081110CC0E091D6304BE0E49FF001112402
S1132130EC5FFE4C8081882329F014C081E08093F9
S1132140D23008959BE08091D63081508093D63070
S1132150E091D6309E9FF0011124EC5FFE4C80810B
S1132160882389F38091D630282F30E04BE0849F78
S1132170C0011124DC01AC5FBE4C1196ED91FC91C1
S113218012970480F581E02D1196ED93FC9312973C
S1132190895F9E4CE817F90761F4848195814BE0CF
S11321A0429FF001439FF00D1124EC5FFE4C8183AC
S11321B092838BE0829FF001839FF00D1124EC5FEA
S11321C0FE4C0180F281E02D808591858093303131
S11321D0909331310895CF92DF92EF92FF926A018A
S11321E07B016091303170913131625F7F4F0E9489
S11321F05A08809130319091313102960E94A5089D
S11322008091D8309091D930A091DA30B091DB3000
S1132210BC01CD016C0D7D1D8E1D9F1D0E942B0DDB
S1132220FF90EF90DF90CF9008950F931F93CF937B
S1132230DF93DC011796ED91FC911897C085D18549
S11322408E01025F1F4FC8010E94A5088091D430FF
S1132250811116C00C501109C8010E94A5088A8D6D
S11322609091D630981710F48093D630BBE08B9FB2
S1132270C0011124B8018C5F9E4C0E94330805C034
S1132280B8018FED90E30E943308E0913031F09172
S1132290313181E02A8D928D291708F480E0DF9195
S11322A0CF911F910F9108952091D130FC0120838B
S11322B04091D8305091D9306091DA307091DB3050
S11322C0418352836383748308958F929F92AF9264
S11322D0BF92CF92DF92EF92FF920F931F93CF930F
S11322E0DF93FC010FB6F8940F928091D130908166
S11322F0981789F08091D8309091D930A091DA3034
S1132300B091DB30018112812381348180179107E0
S1132310A207B307A8F58091D8309091D930A09145
S1132320DA30B091DB30C180D280E380F480EB01FD
S1132330088119812A813B818C199D09AE09BF0945
S113234080179107A207B307E8F4CF018090D83033
S11323509090D930A090DA30B090DB30B501A40170
S11323604C195D096E097F09041B150B260B370BED
S1132370088319832A833B830E94541180E003C09D
S113238081E001C081E00F900FBEDF91CF911F91DA
S11323900F91FF90EF90DF90CF90BF90AF909F9000
S11323A08F90089581E08093D2300895009721F4AE
S11323B08091303190913131DC015B96ED91FC914B
S11323C05C978081813141F4319680E090E0019600
S11323D021912131E1F3089580E090E00895809106
S11323E030319091313108950F931F93CF93DF9340
S11323F0FC01228DA0913031B09131315A968C91EB
S1132400281708F041C0A0913031B09131315A966B
S11324103C9184E090E0A0E0B0E0831B9109A10925
S1132420B10986879787A08BB18B8BE0289F900199
S113243011242C5F3E4C8485958582179307E9F41B
S11324408F01EF012296CE010E94A508E091303160
S1132450F0913131828DF801828F9091D6309817A6
S113246010F48093D630FBE08F9FC0011124BE018D
S11324708C5F9E4C0E94330807C0A0913031B0910C
S113248031315A968C91828FDF91CF911F910F91A8
S113249008950F931F93CF93DF93009749F1FC01A5
S11324A0328D27A1321721F1EC018C010E5F1F4FF1
S11324B0C8010E94A5088FA18A8F44E050E060E023
S11324C070E0481B5109610971094E875F87688B69
S11324D0798B9091D630981710F48093D630FBE026
S11324E08F9FC0011124B8018C5F9E4C0E94330859
S11324F0DF91CF911F910F910895EC01E881F9814B
S11325000190F081E02D19951A821B826FEF7FEF05
S1132510CB010E946010FACFFC016487658708959F
S11325204F925F926F927F928F929F92AF92BF92DF
S1132530CF92DF92EF92FF920F931F93CF93DF938B
S1132540CDB7DEB72A97CDBFDEBF4C0129013801D4
S11325508FE190E2F40180839183FB0180818823E1
S113256069F0DE011196319690E002C0993039F09D
S11325709F5F8D9381918111F9CF01C090E0E1E0DB
S1132580F0E0EC0FFD1FE90FF11D10827401F2E081
S1132590EF0EF11CA12CB12CC12CD12C042F9401D1
S11325A0A201BE016F5F7F4F82EE92E00E94790D1F
S11325B0F4016682778240865186209132313091CF
S11325C033312483358380923231909233311486AF
S11325D015864090943150909531FFEF4F1A5F0A61
S11325E04092943150929531F40142865386168676
S11325F01786108A118A6114710409F444C0813069
S113260079F56AE0C3010E94F5177C0161E175E088
S11326100E94BE17BE016F5F7F4FC7010E94BE17A5
S11326206AE0C7010E94F5177C0168E075E00E942A
S1132630BE176AE0C7010E94F5177C016AEF74E0D7
S11326400E94BE1763E0C7010E94F517B2010E9401
S11326503C1862E00E94F51766E00E94F51713C06B
S11326606AE0C3010E94F5174C0165EE74E00E9414
S1132670BE17BE016F5F7F4FC4010E94BE1766E0A4
S1132680C4010E94F5172A96CDBFDEBFDF91CF911A
S11326901F910F91FF90EF90DF90CF90BF90AF907C
S11326A09F908F907F906F905F904F900895CF92FE
S11326B0DF92EF92FF920F931F93CF93DF93EC017E
S11326C07B018A819B810E94D00E6C016AE0C70164
S11326D00E94F5178C0164E275E00E94BE176AE05F
S11326E0C8010E94F5178C016DE175E00E94BE17C8
S11326F0B601C8010E94BE176AE0C8010E94F5171E
S11327008C0167E175E00E94BE1766E0C8010E9473
S1132710F5178A859B85E885F98501E121E0A70104
S1132720BC018E1B9F0B0E9459168C819D810097C2
S113273019F0B7010E945713DF91CF911F910F91A8
S1132740FF90EF90DF90CF9008950F931F93CF9356
S1132750DF93EC018091323190913331009719F07D
S1132760BE010E9457136AE0CE010E94F5178C0146
S11327706AE375E00E94BE176AE0C8010E94F5177B
S11327808C016FE275E00E94BE176AE0C8010E94E6
S1132790F5178C0169E275E00E94BE1766E0C80176
S11327A00E94F5178091943190919531BC016F5F2F
S11327B07F4F01E121E0AE01835691090E94591631
S11327C0DF91CF911F910F9108958F929F92AF92B5
S11327D0BF92CF92DF92EF92FF920F931F93CF930A
S11327E0DF93EC018B018A819B810E94D00EBC0196
S11327F0C8010E94BE17D801ED91FC910280F381BB
S1132800E02D69E0C80119958A819B810E94D00E50
S1132810FC0101900020E9F73197E81BF90B389788
S113282048F4D801ED91FC910280F381E02D69E038
S1132830C8011995CE84DF84E888F988A884B9840E
S11328408A819B810E94D611982E8C848A819B81D7
S11328500E947B0E682FC8010E94B2186AE00E9491
S1132860F517EC016FEA75E00E94BE17682DCE01E2
S11328700E94B2186AE00E94F517EC016DEA75E057
S11328800E94BE17692DCE010E94B2186AE00E9410
S1132890F517EC016BEA75E00E94BE17B501CE0195
S11328A00E943C186AE00E94F517EC0169EA75E0A1
S11328B00E94BE176AE0CE010E94F517EC0167EA98
S11328C075E00E94BE17B701A601CE010E947018E0
S11328D0DF91CF911F910F91FF90EF90DF90CF90F8
S11328E0BF90AF909F908F900895CF93DF93EC01AA
S11328F0CB01DB01ED91FC910280F381E02DBE015F
S11329001995CE01DF91CF9108950F931F93CF9323
S1132910DF93EC018B01BC01C8010E94751466E0D1
S11329200E94F5178C819D81009719F0B8010E94CF
S11329308514DF91CF911F910F9108950F931F93E9
S1132940CF93DF93EC016AE00E94F5178C016CE9E8
S113295075E00E94BE176AE0C8010E94F5178C0159
S113296065E975E00E94BE1766E0C8010E94F5178C
S11329706AE0CE010E94F5178C0164E875E00E94BC
S1132980BE176AE0C8010E94F5178C0168E775E07C
S11329900E94BE176AE0C8010E94F5178C0162E725
S11329A075E00E94BE1766E0C8010E94F5176AE050
S11329B0CE010E94F5178C0161E675E00E94BE17F6
S11329C06AE0C8010E94F5178C0165E575E00E9474
S11329D0BE176AE0C8010E94F5178C016FE475E028
S11329E00E94BE1766E0C8010E94F517809132313B
S11329F090913331009719F0BE010E9485140E9412
S1132A00D80E0E94D611182F6AE0CE010E94F51745
S1132A10EC0164E475E00E94BE17612FCE010E94B0
S1132A20B2186AE00E94F517EC0162E475E00E94B6
S1132A30BE1764E670E0CE010E943C186AE00E9472
S1132A40F517EC016FE375E00E94BE1766E0CE0156
S1132A500E94F517DF91CF911F910F9108950F9365
S1132A60CF93DF931F92CDB7DEB700E02FEF3FEF98
S1132A70A901BE016F5F7F4FFC01808591850E9493
S1132A80270C813019F4898190E002C08FEF9FEF09
S1132A900F90DF91CF910F910895FC01808591856E
S1132AA00E94180D91E0811101C090E0892F0895D2
S1132AB00F93CF93DF931F92CDB7DEB76983FC01E9
S1132AC0228533854485558500E0BE016F5F7F4FC5
S1132AD0808591850E94600B91E0811101C090E096
S1132AE0892F0F90DF91CF910F9108958F929F922C
S1132AF0BF92CF92DF92EF92FF920F931F93CF93E7
S1132B00DF93EC01B62E4A01680179010E94B017E7
S1132B1087E290E2888399838E869F8640E061E015
S1132B208B2D0E94320B88879987CA86DB86EC86B8
S1132B30FD86DF91CF911F910F91FF90EF90DF9071
S1132B40CF90BF909F908F900895CF92DF92EF9295
S1132B50FF92CF93DF93EC01688179818A819B8115
S1132B600F2EF8EECF2EF3E0DF2EE12CF12CF02D1A
S1132B70A70196010E94181F9B01AC0160E472E456
S1132B808FE090E00E94081FA70196010E94181F81
S1132B9069017A01AC81BD8120E432E44FE050E068
S1132BA00E94621F20E038E448EE51E00E94181FA2
S1132BB0C701B601620F731F841F951FDF91CF9168
S1132BC0FF90EF90DF90CF900895CF92DF92EF9235
S1132BD0FF920F931F93CF93DF93CDB7DEB72F9759
S1132BE0CDBFDEBF6C018B01DB016D917D918D91B9
S1132BF09C9128EE33E040E050E00E94181FBA0197
S1132C00A901C6010E947018D601ED91FC910280C1
S1132C10F381E02D6EE2C6011995C8010E94A51545
S1132C208E01095F1F4FFE0131967F012AE030E0DB
S1132C3040E050E00E943A1FE62F288739874A87F0
S1132C405B87688579858A859B8520E32E0FD8016B
S1132C502E938D01AE15BF0549F71F82BE016F5F2C
S1132C607F4FC6010E94BE17C6012F96CDBFDEBF9F
S1132C70DF91CF911F910F91FF90EF90DF90CF9054
S1132C800895CF93DF93EC010FB6F8940F928091DF
S1132C902008909121088C839D830E94C20E688332
S1132CA079838A839B830F900FBECE01DF91CF91EE
S1132CB008955F926F927F928F929F92AF92BF928C
S1132CC0CF92DF92EF92FF920F931F93CF93DF93F4
S1132CD05C014B017A01122F702E63E0CA010E943D
S1132CE0F517A814B90408F07DC0650184E1C80E85
S1132CF0D11C00E06A2C5B2CB501C7010E943C1872
S1132D006AE00E94F51761EC75E00E94BE1711237A
S1132D1009F46DC0002309F46AC06AE0C7010E9487
S1132D20F5176CEB75E00E94BE1761C0112371F0BA
S1132D3001110CC08881871549F06AE0C7010E941F
S1132D40F51767EB75E00E94BE1701E06991C701B2
S1132D500E94B218DC01ED91FC910280F381E02D18
S1132D6060E21995CC16DD0609F7112389F06AE0B3
S1132D70C7010E94F517EC0161EB75E00E94BE17D4
S1132D80E881F9810280F381E02D60E2CE0119959A
S1132D90C62DD52D699180EE860F8F3548F4D70165
S1132DA0ED91FC910280F381E02DC701199509C0D2
S1132DB0D701ED91FC910280F381E02D6EE2C70111
S1132DC01995CC16DD0631F7B4E1AB0EB11C66E003
S1132DD0C7010E94F51784E1C80ED11CA814B904D8
S1132DE008F488CF62E0C7010E94F51703C0C62D1E
S1132DF0D52D9CCFDF91CF911F910F91FF90EF9034
S1132E00DF90CF90BF90AF909F908F907F906F9006
S1132E105F9008950E944C0708950E944C070895FE
S1132E200895CF93DF93FC01DA01403A68E0560736
S1132E3049F480E496E08283938382E0848383E090
S1132E40858332C0403B78E0570749F480E496E03C
S1132E508283938386E0848387E0858325C0403A18
S1132E6089E0580749F480E696E08283938382E000
S1132E70848383E0858318C0403B69E0560749F4A6
S1132E8080E696E08283938386E0848387E085836B
S1132E900BC0403A5A4041F480E896E08283938321
S1132EA082E0848383E08583A683B783CD01019682
S1132EB0808791870396828793872581C281D381F6
S1132EC04C8181E090E0BC0102C0660F771F2A9517
S1132ED0E2F79B01242B2C832581C281D381488175
S1132EE0BC0102C0660F771F2A95E2F79B01242BD1
S1132EF028833481C281D381288102C0880F991F1D
S1132F003A95E2F7809590958223888380E1139621
S1132F108C93139783E015968C93159780EF1796EF
S1132F208C93179781E216968C93169788E11496E2
S1132F308C9380E8858780E4868780E28487068096
S1132F40F781E02D80818081DF91CF91089581E028
S1132F50089580E090E0089580E00895089508952C
S1132F60FC0187E390E2808391838AE08283138269
S1132F7083E0858314821682178208950F931F932A
S1132F80CF93DF938C01FB01DC0114968C918111AA
S1132F9004C06081611117C023C0D80114961C922B
S1132FA0EB01219664916623D9F0D801ED91FC914F
S1132FB00280F381E02DC8011995FE0164912196E8
S1132FC06111F3CF0DC0EF012196D801ED91FC9171
S1132FD00280F381E02DC801199569916111F5CF43
S1132FE0DF91CF911F910F910895CF93DF93EC015F
S1132FF0862F90E08B309105D8F5FC018827E250AC
S1133000FF4F8F4F0C94591F82E08A8331C088E0B0
S11330108A832EC08AE08A832BC080E18A8328C0F9
S113302081E08B8325C01B8223C0E881F981028063
S1133030F381E02D6DE0CE011995E881F9810280DC
S1133040F381E02D6AE0CE01199512C0E881F9817F
S11330500284F385E02DCE0119950AC0E881F98137
S11330600084F185E02DCE01199502C081E08C83A6
S1133070CE01DF91CF910895FF920F931F93CF93C9
S1133080DF93CDB7DEB76197CDBFDEBF8C01F62EDF
S1133090972FF8014281403121F0483011F042303D
S11330A041F4692FC8010E94B2186F2D0E94B21812
S11330B00DC050E0BE016F5F7F4F8F2D0E94C81F6F
S11330C0BE016F5F7F4FC8010E94BE17C8016196A1
S11330D0CDBFDEBFDF91CF911F910F91FF90089577
S11330E0DF92EF92FF920F931F93CF93DF93CDB7AD
S11330F0DEB7A197CDBFDEBF8C01D42EE52EF62E10
S1133100972FF8012281203121F0283011F022304C
S113311071F4692FC8010E94B2186F2D0E94B21871
S11331206E2D0E94B2186D2D0E94B2180FC030E0AF
S1133130AE014F5F5F4F6D2D7E2D8F2D0E949B1F23
S1133140BE016F5F7F4FC8010E94BE17C801A196E0
S1133150CDBFDEBFDF91CF911F910F91FF90EF9014
S1133160DF900895CF92DF92EF92FF920F931F9317
S1133170CF93DF93CDB7DEB72997CDBFDEBF8C01E8
S1133180E62EDC0113968C911397882341F0ED9180
S1133190FC910280F381E02DC801199556C0F80115
S11331A04281423019F56894CC24C3F8D12C689438
S11331B0FF24F7F88E2D8F2151F0D801ED91FC9169
S11331C00280F381E02D61E3C801199509C0D8019B
S11331D0ED91FC910280F381E02D60E3C801199523
S11331E0F694B1E0CB1AD10829F72FC04031F9F495
S11331F062956F700190F081E02D0280F381E02DE3
S11332006A3010F0695C01C0605DC80119956E2DCB
S11332106F70D801ED91FC910280F381E02D6A304A
S113322010F0695C01C0605DC80119950EC050E0E2
S1133230BE016F5F7F4F8E2D90E00E94C81FBE01BC
S11332406F5F7F4FC8010E94BE17C8012996CDBF8A
S1133250DEBFDF91CF911F910F91FF90EF90DF9030
S1133260CF900895DC015096ED91FC9151978081A7
S113327054964C915497842329F009C02150310964
S113328019F412C021E23EE490819423B9F39081B1
S113329056968C915697892B80831E96ED91FC91BE
S11332A01F97608381E0089580E00895CF93DF93B2
S11332B0FC01C18DD28D28813981A38DB48D4D91AE
S11332C05C9124173507E9F3A789B08D0D90BC9163
S11332D0A02DA20FB31F8C912F5F3F4F28833983FA
S11332E02436310528F0018CF28DE02D10821182F4
S11332F090E0DF91CF910895CF93DF93EC01A98DF6
S1133300BA8DEB8DFC8D81E04D915C9120813181F2
S11333104217530709F480E0DF91CF910895DC014F
S1133320ED91FC910280F381E02D6CE019950895F4
S1133330EF92FF920F931F93CF93DF93EC017B01E6
S11333408A010E94B017A801B701CE0108960E9415
S1133350111787E490E288839983003A88E018077C
S113336069F480E591E38F8B988F86E491E3898FEC
S11333709A8F8CE391E38B8F9C8F42C0003BE8E0F3
S11333801E0769F48EE491E38F8B988F84E491E3B4
S1133390898F9A8F8AE391E38B8F9C8F31C0003A97
S11333A0F9E01F0769F48CE491E38F8B988F82E432
S11333B091E3898F9A8F88E391E38B8F9C8F20C050
S11333C0003B89E0180769F48AE491E38F8B988FB6
S11333D080E491E3898F9A8F86E391E38B8F9C8FAE
S11333E00FC0003A1A4061F488E491E38F8B988F00
S11333F08EE391E3898F9A8F84E391E38B8F9C8F83
S11334000F89188D84E690E00E940D17F8018083DF
S11334109183E98DFA8D10821182EB8DFC8D1082DF
S11334201182DF91CF911F910F91FF90EF9008953A
S11334301F920F920FB60F92112408B60F9218BE66
S11334400BB60F921BBE2F933F938F939F93EF93D3
S1133450FF932091A008E0915031F0915131809177
S11334603C3190913D31E80FF91F208380913C312C
S113347090913D3101968436910560F480933C31FE
S113348090933D3120914631309147318217930713
S1133490F1F40CC010923C3110923D3180914631D0
S11334A0909147311816190691F40EC0019684368E
S11334B0910528F4809346319093473108C01092C7
S11334C046311092473103C081E090E0F3CFFF9181
S11334D0EF919F918F913F912F910F900BBE0F9081
S11334E008BE0F900FBE0F901F9018951F920F9259
S11334F00FB60F92112408B60F9218BE0BB60F9296
S11335001BBE2F933F938F939F93EF93FF93209131
S1133510B008E0914E31F0914F3180913A31909161
S11335203B31E80FF91F208380913A3190913B3170
S113353001968436910560F480933A3190933B313F
S1133540209144313091453182179307F1F40CC036
S113355010923A3110923B3180914431909145312F
S11335601816190691F40EC001968436910528F4B4
S1133570809344319093453108C0109244311092A5
S1133580453103C081E090E0F3CFFF91EF919F912B
S11335908F913F912F910F900BBE0F9008BE0F900B
S11335A00FBE0F901F9018951F920F920FB60F9297
S11335B0112408B60F9218BE0BB60F921BBE2F93A0
S11335C03F938F939F93EF93FF932091A009E091F2
S11335D04C31F0914D3180913C3190913D31E80F67
S11335E0F91F2083809138319091393101968436C6
S11335F0910560F4809338319093393120914231B0
S11336003091433182179307F1F40CC01092383192
S11336101092393180914231909143311816190634
S113362091F40EC001968436910528F480934231BA
S11336309093433108C0109242311092433103C039
S113364081E090E0F3CFFF91EF919F918F913F91B3
S11336502F910F900BBE0F9008BE0F900FBE0F90CE
S11336601F9018951F920F920FB60F92112408B64F
S11336700F9218BE0BB60F921BBE2F933F938F93DE
S11336809F93EF93FF932091B009E0914A31F09119
S11336904B318091363190913731E80FF91F2083F7
S11336A0809136319091373101968436910560F4DA
S11336B080933631909337312091403130914131AC
S11336C082179307F1F40CC01092363110923731FF
S11336D080914031909141311816190691F40EC031
S11336E001968436910528F48093403190934131BA
S11336F008C0109240311092413103C081E090E043
S1133700F3CFFF91EF919F918F913F912F910F9064
S11337100BBE0F9008BE0F900FBE0F901F90189510
S11337201F920F920FB60F92112408B60F9218BE73
S11337300BB60F921BBE2F933F938F939F93EF93E0
S1133740FF932091A00AE0914831F0914931809192
S1133750343190913531E80FF91F20838091343151
S11337609091353101968436910560F4809334311B
S11337709093353120913E3130913F318217930738
S1133780F1F40CC0109234311092353180913E31F5
S113379090913F311816190691F40EC001968436A3
S11337A0910528F480933E3190933F3108C01092E4
S11337B03E3110923F3103C081E090E0F3CFFF919E
S11337C0EF919F918F913F912F910F900BBE0F908E
S11337D008BE0F900FBE0F901F901895FC018481B6
S11337E095810E94200D90E00895FC0184819581CB
S11337F00E94200D91E0811101C090E0892F08956D
S1133800FC01848195810E94200D91E0811190E05A
S1133810892F0895FC01848195810E94200D90E0F8
S11338200895FC01848195810E94200D91E081110D
S113383001C090E0892F0895FC01848195810E9444
S1133840200D91E0811190E0892F0895FC0184817D
S113385095810E94180D90E00895FC018481958162
S11338600E94180D91E0811101C090E0892F089504
S1133870FC01848195810E94180D91E0811190E0F2
S1133880892F0895FC01848195810E94180D90E090
S11338900895FC01848195810E94180D91E08111A5
S11338A001C090E0892F0895FC01848195810E94D4
S11338B0180D91E0811190E0892F08950F9301E094
S11338C02FEF3FEFA901FC01848195810E94270C11
S11338D00F9108950F93CF93DF931F921F92CDB74B
S11338E0DEB701E02FEF3FEFA901BE016F5F7F4F0D
S11338F0FC01848195810E94270C89819A810F9013
S11339000F90DF91CF910F9108950F9300E02FEF67
S11339103FEFA901FC01848195810E94270C0F913E
S113392008950F93CF93DF931F921F92CDB7DEB705
S113393000E02FEF3FEFA901BE016F5F7F4FFC0155
S1133940848195810E94270C89819A810F900F9020
S1133950DF91CF910F9108950F9301E02FEF3FEF87
S1133960A901FC01848195810E94270C0F9108957F
S11339700F93CF93DF931F921F92CDB7DEB701E071
S11339802FEF3FEFA901BE016F5F7F4FFC018481E0
S113399095810E94270C89819A810F900F90DF9165
S11339A0CF910F9108950F9300E02FEF3FEFA901FE
S11339B0FC01848195810E94270C0F9108950F9337
S11339C0CF93DF931F921F92CDB7DEB700E02FEFA6
S11339D03FEFA901BE016F5F7F4FFC018481958198
S11339E00E94270C89819A810F900F90DF91CF91CB
S11339F00F910895CF93DF931F92CDB7DEB7AE0139
S1133A004F5F5F4FFC01848195810E94EB0C0F9006
S1133A10DF91CF910895CF93DF9300D0CDB7DEB778
S1133A20AE014D5F5F4FBE016F5F7F4FFC0184812C
S1133A3095810E94EB0C89819A812396CDBFDEBFCC
S1133A40DF91CF910895CF93DF931F92CDB7DEB767
S1133A50AE014F5F5F4FFC01848195810E94EB0CA6
S1133A600F90DF91CF910895CF93DF9300D0CDB71E
S1133A70DEB7AE014D5F5F4FBE016F5F7F4FFC014C
S1133A80848195810E94EB0C89819A812396CDBF14
S1133A90DEBFDF91CF910895CF93DF931F92CDB70F
S1133AA0DEB7198221E0AE014F5F5F4FFC018481D4
S1133AB095810E94FB0B91E0811101C090E0892F58
S1133AC00F90DF91CF910895CF93DF931F92CDB7DD
S1133AD0DEB7198220E0AE014F5F5F4FFC018481A5
S1133AE095810E94FB0B91E0811101C090E0892F28
S1133AF00F90DF91CF910895CF93DF931F92CDB7AD
S1133B00DEB7198221E0AE014F5F5F4FFC01848173
S1133B1095810E94FB0B91E0811101C090E0892FF7
S1133B200F90DF91CF910895CF93DF931F92CDB77C
S1133B30DEB7198220E0AE014F5F5F4FFC01848144
S1133B4095810E94FB0B91E0811101C090E0892FC7
S1133B500F90DF91CF9108950F93FC012681378157
S1133B604085518501E0848195810E94600B91E03C
S1133B70811101C090E0892F0F9108950F93FC01EA
S1133B80268137814085518500E0848195810E949A
S1133B90600B91E0811101C090E0892F0F9108958D
S1133BA00F93FC01268137814085518501E0848192
S1133BB095810E94600B91E0811101C090E0892FF2
S1133BC00F9108950F93FC0126813781408551851B
S1133BD000E0848195810E94600B91E0811101C015
S1133BE090E0892F0F9108950F93CF93DF931F9245
S1133BF0CDB7DEB72FB72983F8941BBEFC0108EDBF
S1133C0004BF608389818FBF0F90DF91CF910F91A3
S1133C100895EF92FF920F931F93CF93DF93CDB745
S1133C20DEB7EB97CDBFDEBFF894E0E5F0E080812E
S1133C3082608083818181FFFDCF60914000687F35
S1133C40616080E490E00E94F41DE0E5F0E0808192
S1133C508E7F80839DEF88ED08B618BE84BF909355
S1133C60800008BE40EA5AE060E070E0CE010196B0
S1133C700E94981967E0CE0101960E94F5178C0105
S1133C8063E570E20E94BE1766E0C8010E94F51762
S1133C9066E00E94F51720E332EF40E050E060EA6E
S1133CA074E0CE014E960E943403BE01625E7F4FE3
S1133CB0CE01C1960E94420482E190E00E940A175C
S1133CC08E010F5F1F4F20E830E040E062E770E2B2
S1133CD00E94DC0488E190E00E940A179E012F5C98
S1133CE03F4F790120E830E042E06AE770E20E9449
S1133CF0BF0487E08093A20078940E94890E80E03C
S1133D0090E0EB96CDBFDEBFDF91CF911F910F9175
S1133D10FF90EF900895CF92DF92EF92FF920F936E
S1133D201F93CF93DF930AE010E020E030E040E0FF
S1133D3050E060E270E084E891E30E947615CAE7FF
S1133D40D1E31A821B8284E890E28883998340E05D
S1133D5062E08FEF0E94320B8C839D830F2EFAE07A
S1133D60CF2ED12CE12CF12CF02DCE82DF82E886EF
S1133D70F986C0E7D1E31A821B8208EA10E20883BD
S1133D80198340E062E08FEF0E94320B8C839D83A5
S1133D90CE82DF82E886F986C6E6D1E31A821B82E8
S1133DA00883198340E062E08FEF0E94320B8C831A
S1133DB09D83CE82DF82E886F986CCE5D1E31A8240
S1133DC01B820883198340E062E08FEF0E94320B6C
S1133DD08C839D83CE82DF82E886F986C2E5D1E3B7
S1133DE01A821B820883198340E062E08FEF0E94ED
S1133DF0320B8C839D83CE82DF82E886F986DF9145
S1133E00CF911F910F91FF90EF90DF90CF90089585
S1133E10DB018F939F930E94621FBF91AF91A29F7A
S1133E20800D911DA39F900DB29F900D11240895B4
S1133E30A1E21A2EAA1BBB1BFD010DC0AA1FBB1FAA
S1133E40EE1FFF1FA217B307E407F50720F0A21B1C
S1133E50B30BE40BF50B661F771F881F991F1A9489
S1133E6069F760957095809590959B01AC01BD01B3
S1133E70CF010895052E97FB1EF400940E94511F54
S1133E8057FD07D00E94181F07FC03D04EF40C9472
S1133E90511F50954095309521953F4F4F4F5F4F9F
S1133EA0089590958095709561957F4F8F4F9F4FA2
S1133EB00895EE0FFF1F881F8BBF0790F691E02D2A
S1133EC01BBE19940E946D1FA59F900DB49F900D69
S1133ED0A49F800D911D11240895A29FB001B39F4A
S1133EE0C001A39F700D811D1124911DB29F700DFF
S1133EF0811D1124911D0895FB01DC0102C0019074
S1133F000D9241505040D8F70895DC0101C06D93E3
S1133F1041505040E0F70895FB01DC01415050400E
S1133F2048F001900D920020C9F701C01D92415044
S1133F305040E0F708952532310520F4223010F086
S1133F400C94A61FFA011082CA010895BB27FA0136
S1133F50A62F6217710581059105330B30FB66F0BE
S1133F60AA27660F771F881F991FAA1FA21710F090
S1133F70A21B63953850A9F7A05DAA3308F0A95D88
S1133F80A19336F7B111B1931082CA010C94ED1FBD
S1133F904532510520F4423010F00C94D31FFB013C
S1133FA01082CB010895BB27FB015527AA27880F50
S1133FB0991FAA1FA41710F0A41B83955051B9F799
S1133FC0A05DAA3308F0A95DA193009779F7B11118
S1133FD0B1931192CB010C94ED1FDC01FC01672F0E
S1133FE071917723E1F7329704C07C916D937083CC
S1113FF06291AE17BF07C8F30895F894FFCF8F
S1133FFEFF0FFFFFFFFF000000008104E513000028
S113400E00001F06E51349444C4500000000001053
S113401E17E51300000000A71758154D152F15AE00
S113402E17AF1700000000A7171017AC17A917AE8B
S113403E17AF1700000000A71732197C195619AED6
S113404E178F194672656552544F5320586D656724
S113405E612054657374696E672050726F67726164
S113406E6D0055736572496E7400536F6E61720004
S113407E00000000BE1D641DAC1D4C1D911C851C52
S113408E0B1DFA1C6A1C5E1C381C001C2D1CF51B17
S113409E261CEE1B00000000E21D941DD01D7C1D8D
S11340AEDF1CD31C341D231DB81CAC1C541C1C1C3F
S10B40BE491C111C421C0A1CE0
S9030000FC
