S01600004652454552544F535F5348454C4C2E73726563CD
S11300000C9423030C9459030C9459030C94590332
S11300100C9459030C9459030C9459030C945903EC
S11300200C9459030C9459030C9459030C945903DC
S11300300C9459030C9459030C9459030C945903CC
S11300400C9459030C9459030C9459030C945903BC
S11300500C9459030C9459030C949E0E0C9459035C
S11300600C9459030C94731E0C9459030C94590367
S11300700C94D11E0C9459030C9459030C945903F9
S11300800C9459030C9459030C9459030C9459037C
S11300900C9459030C9459030C9459030C9459036C
S11300A00C9459030C9459030C9459030C9459035C
S11300B00C9459030C9459030C9459030C9459034C
S11300C00C9459030C9459030C9459030C9459033C
S11300D00C9459030C9459030C9459030C9459032C
S11300E00C9459030C9459030C94EB1F0C9459036E
S11300F00C9459030C9459030C9459030C9459030C
S11301000C9459030C9459030C9459030C945903FB
S11301100C9459030C9459030C9459030C945903EB
S11301200C9459030C9459030C9459030C945903DB
S11301300C9459030C9459030C9459030C945903CB
S11301400C9459030C9459030C9459030C945903BB
S11301500C9459030C9459030C9459030C945903AB
S11301600C942F1F0C9459030C9459030C948D1F59
S11301700C9459030C9459030C9459030C9459038B
S11301800C9459030C9459030C9459030C9459037B
S11301900C9459030C9459030C9459030C9459036B
S11301A00C9459030C9459030C9459030C9459035B
S11301B00C9459030C9459030C9459030C9459034B
S11301C00C9459030C9459030C9459030C9459033B
S11301D00C9459030C9459030C9459030C9459032B
S11301E00C9459030C9459030C9459030C9459031B
S11301F00C9459030C9459030C9459035F1C621C0E
S1130200651C681C6B1C6E1C701C811C891C931C57
S1130210911C0C947A0A0C943D220C9455210C9454
S1130220A8190C94EA1D0C946B1C0C94E1070C9413
S11302306E1C0C94A7210C94681C0C942C070C9431
S1130240E8220C9437070C94EC040C948A190C944F
S1130250931C0C9466210C94B11D0C9489070C9486
S1130260C9070C9449200C94AF200C94B3190C9436
S113027048040C94D71D0C94B9200C9488200C9439
S1130280C5200C94CF040C94B1070C94621C0C94FC
S11302902B220C949D200C94A4200C9407210C94E4
S11302A0BD030C9481200C947D030C94E4040C9401
S11302B079040C94E0200C941B070C945F1C0C94A0
S11302C0891C0C94811C0C94F8030C9440180C9415
S11302D0EF210C9420030C9450200C947E210C9458
S11302E04D070C947E110C94FC060C9493200C94F2
S11302F08F210C948D1D0C9492030C943A210C9430
S113030007220C942E210C94021C0C94091C0C94AE
S113031071070C94041C0C9465200C94071C0C9419
S11303200A1C0C94BF210C94911C0C9409070C9486
S1130330651C0C9410070C94D7210C9425070C947D
S113034041070C94DC080C949A070C9417040C9441
S1130350A9040C946C200C945B030C94F3070C9488
S1130360E8040C94EC200C9465070C946B1B0C941F
S113037013210C9419220C9477200C9466030C948A
S1130380701C0C945B20536F6E61723A20002C2019
S1130390544343304343413D002F002C20486561C2
S11303A07020667265653A200054696D653A2000D4
S11303B04D61722031352032303138004D453430B2
S11303C035206261736520726164696F2070726F99
S11303D06772616D2056302E342000202020206862
S11303E03A20202048414C50210020202020653A0A
S11303F02020204578697420636F6D6D616E6420E0
S11304006D6F64650020202020733A2020205374EF
S113041061636B2064756D7020666F722074617304
S11304206B730020202020763A20202056657273BA
S1130430696F6E20616E6420736574757020696ED7
S1130440666F726D6174696F6E00202020206E3AB1
S113045020202053686F77207468652074696D6567
S1130460207269676874206E6F77002020496E20BF
S1130470636F6D6D616E64206D6F6465206F6E6C6B
S1130480793A00202043746C2D413A20456E7465FE
S11304907220636F6D6D616E64206D6F6465002002
S11304A02043746C2D433A2052657365742074683C
S11304B06520415652002068656C70004D4534300B
S11304C035206261736520726164696F2070726F98
S11304D06772616D2056302E3420001B5B33306D03
S11304E0001B5B34366D00496C6C6567616C20736E
S11304F0746174652120526573657474696E672034
S1130500415652003A5754463F0045786974206377
S11305106F6D6D616E64206D6F6465005265736507
S11305207474696E6720415652005072657373206B
S11305304374726C2D4120666F7220636F6D6D6120
S11305406E64206D6F646500526573657474696EC2
S113055067004552524F5220696E207461736B20BC
S1130560004552524F52206372656174696E672070
S11305707461736B20002C20737461636B2061744D
S1130580203078002063726561746564005461737F
S11305906B20001B5B32326D005461736B3A200098
S11305A01B5B316D001B5B32326D005461736B3A1F
S11305B02049444C45001B5B316D000909002F00A4
S11305C049444C45090930092D0900092D2D2D2DCB
S11305D000092D2D2D2D2D2D2D2D2D2D002D2D2DC5
S11305E02D09092D2D2D2D092D2D2D2D2D000952CF
S11305F0756E730009467265652F546F74616C00E3
S11306004E616D6509095072692E095374617465F0
S11306100009537461636B005461736B09092020F2
S1130620092000090009002F00090009001B5B32A2
S1130630326D001B5B316D001B5B316D00202000AF
S11306400E94D816E82211241FBECFEFCDBFDFE3EE
S1130650DEBF00E00CBF18BE19BE1ABE1BBE11E2FD
S1130660A0E0B0E2E8EBF8E400E00BBF02C00790C2
S11306700D92A836B107D9F71BBE22E3A8E6B1E272
S113068001C01D92A633B207E1F713E0C3E2D3E041
S113069000E006C021970109802FFE010E94B623C5
S11306A0C232D10780E00807A9F70E9464220C94A3
S11306B05A240C940000BC016E5F7F4FDC01ED9165
S11306C0FC910084F185E02D19950895CF93DF9373
S11306D0EB01E881F981008CF18DE02DCE011995B3
S11306E0882341F0E881F9810084F185E02DCE0171
S11306F01995EFCFDF91CF910895CF93DF93EC015C
S1130700E881F9810480F581E02D1995BE01635FCC
S11307107F4FE88DF98D808191810E943A06DF91A7
S1130720CF910895EF92FF920F93CF93DF93EC0153
S11307307C0182E0E80EF11CE881F9810084F185F6
S1130740E02DB701CE011995288539854A855B8549
S1130750BE01645E7F4F00E08E819F810E94BB0FCB
S1130760E88DF98DB701828193810E946106DF9142
S1130770CF910F91FF90EF900895CF92DF92EF9277
S1130780FF920F93CF93DF93EC017B016C018DE01B
S1130790C80ED11CE881F9810084F185E02DB601F1
S11307A0CE0119952B893C894D895E89BE01655E10
S11307B07F4F00E089899A890E94BB0FD701ED9190
S11307C0FC910190F081E02DB601C7011995DF91EC
S11307D0CF910F91FF90EF90DF90CF900895FC019F
S11307E0628F862F880F838F682F6160648F0895CE
S11307F00F931F93CF93DF93EC01CB01DB01ED91BA
S1130800FC910284F385E02D00E010E0B801199515
S1130810EF81F8850480F581E02DD8018C918683E1
S11308208A819B81DF91CF911F910F910895CF937E
S1130830DF931F921F92CDB7DEB7DC0119968D911D
S11308409C911A9789839A8329813A81215031098D
S113085029833A83232B51F01796ED91FC91189735
S11308600480F581E02D9481907571F789819A81D6
S1130870892B29F414968D919C91159704C0129696
S11308808D919C9113970F900F90DF91CF910895C4
S1130890CF93DF931F921F92CDB7DEB7DC01199679
S11308A08D919C911A9789839A8329813A81215049
S11308B0310929833A83232B51F01796ED91FC914A
S11308C018970480F581E02D9481907971F78981DE
S11308D09A81892B29F414968D919C91159704C0C3
S11308E012968D919C9113970F900F90DF91CF9159
S11308F00895EF92FF920F931F93CF93DF938C0190
S1130900EB01E881F981008CF18DE02DCB01199583
S11309108823A9F0E881F9810284F385E02DE12C94
S1130920F12CB701CE011995D8011796ED91FC91E0
S113093018970480F581E02DD7018C918783F80105
S113094082819381DF91CF911F910F91FF90EF905E
S113095008950F931F93CF93DF931F92CDB7DEB704
S11309608C01CB01D8011796ED91FC911897048066
S1130970F581E02D27812983DB01ED91FC91019024
S1130980F081E02DBE016F5F7F4F1995F8018281E0
S113099093810F90DF91CF911F910F910895CF9381
S11309A0DF93EC01CB01DB01ED91FC910488F58927
S11309B0E02D1995882319F08A819B8102C08C81CE
S11309C09D81DF91CF910895FC01828193810895E7
S11309D0FC018281938108950F931F93CF93DF933A
S11309E08C01EB01E881F981048CF58DE02DCB01BC
S11309F019952A8530E08217930779F4D801179660
S1130A00ED91FC9118970480F581E02D83E08383B8
S1130A1012968D919C9113970EC0D8011796ED9163
S1130A20FC9118970480F581E02D82E0838314966D
S1130A308D919C911597DF91CF911F910F910895FE
S1130A400F931F93CF93DF93EC018B01688379831A
S1130A5089E090E00E94651BFC01168288E190E227
S1130A608083918307831087EC83FD838BE090E080
S1130A700E94651BFC018B899C8916822EE130E261
S1130A80208331830783108781879287EE83FF83D6
S1130A9089E090E00E94651BFC0116828AE290E2E4
S1130AA08083918307831087E887F98789E090E042
S1130AB00E94651BFC01168286E390E28083918389
S1130AC007831087EA87FB8789E090E00E94651B13
S1130AD0FC01168288E490E2808391830783108767
S1130AE0EC87FD8789E090E00E94651BFC0116827B
S1130AF082E490E28083918307831087EE87FF87E7
S1130B0080E197E28B8B9C8B8E819F81EC81FD81B0
S1130B1082839383848395838C859D8528853985F9
S1130B20EE81FF8122833383848395838A859B8529
S1130B30E885F98582839383848395838E819F815D
S1130B402E853F85EA85FB852283338384839583C1
S1130B50DF91CF911F910F9108950F931F93CF931E
S1130B60DF93EC018B016883798389E090E00E9434
S1130B70651BFC01168288E190E2808391830783E0
S1130B801087EC83FD838BE090E00E94651BFC01E1
S1130B908B899C89168224E230E220833183078387
S1130BA0108781879287EE83FF8389E090E00E941B
S1130BB0651BFC01168280E390E2808391830783A6
S1130BC01087E887F98789E090E00E94651BFC01A3
S1130BD016828CE390E28083918307831087EA87EF
S1130BE0FB8789E090E00E94651BFC01168288E483
S1130BF090E28083918307831087EC87FD8789E0E7
S1130C0090E00E94651BFC01168282E490E28083DE
S1130C10918307831087EE87FF8780E197E28B8BB0
S1130C209C8B8E819F81EC81FD818283938384835D
S1130C3095838C859D8528853985EE81FF81228366
S1130C403383848395838A859B85E885F9858283AC
S1130C509383848395838E819F812E853F85EA8546
S1130C60FB852283338384839583DF91CF911F9106
S1130C700F9108950F931F93CF93DF93EC018B0192
S1130C808C819D818A839B838A819B812E853F856C
S1130C908217930729F42C853D858217930759F011
S1130CA0DC01ED91FC910190F081E02DB8011995E2
S1130CB08A839B83E9CF81E0DF91CF911F910F91CC
S1130CC008950F931F93CF93DF93EC018B018C81D5
S1130CD09D818A839B838A819B812E853F85821790
S1130CE0930729F42C853D858217930759F0DC017D
S1130CF0ED91FC910190F081E02DB80119958A8362
S1130D009B83E9CFC801DF91CF911F910F91089583
S1130D10CF93DF93EC019A01AB01220F331F441FE1
S1130D20551F60E078E488EE91E00E947523255019
S1130D302887EC81FD812583DF91CF910895AF92BF
S1130D40BF92CF92DF92EF92FF920F931F93CF93B4
S1130D50DF93EC018B0169017A0185E190E00E9447
S1130D60651B5C01BE010E942005A882B98286E150
S1130D7090E00E94651B5C01BE010E94AD05AA8241
S1130D80BB820C831D83C986DA86EB86FC86003819
S1130D9084E0180729F480E496E08E839F8308C0DA
S1130DA0003AE4E01E0721F480E896E08E839F83F6
S1130DB0EE81FF8183E08183EE81FF8188E3808B74
S1130DC0EE81FF81818B82E0F8018283B701A60165
S1130DD0CE010E948806F80184818D6C848388E0AA
S1130DE08183DF91CF911F910F91FF90EF90DF905E
S1130DF0CF90BF90AF900895DB01BC016E5F7F4F31
S1130E00ED91FC9111970190F081E02DCD011995A0
S1130E100895FC01848195810E947B1190E00895DE
S1130E20FC01848195810E947B1191E0811101C0B4
S1130E3090E0892F0895FC01848195810E947B11A3
S1130E4091E0811190E0892F0895FC0184819581BE
S1130E500E94731190E00895FC01848195810E94A1
S1130E60731191E0811101C090E0892F0895FC0174
S1130E70848195810E94731191E0811190E0892F02
S1130E8008950F9301E02FEF3FEFA901FC01848146
S1130E9095810E9482100F9108950F93CF93DF9351
S1130EA01F92CDB7DEB701E02FEF3FEFA901BE01DE
S1130EB06F5F7F4FFC01848195810E94821089813C
S1130EC00F90DF91CF910F9108950F9300E02FEFD2
S1130ED03FEFA901FC01848195810E9482100F914A
S1130EE008950F93CF93DF931F92CDB7DEB700E041
S1130EF02FEF3FEFA901BE016F5F7F4FFC0184819B
S1130F0095810E94821089810F90DF91CF910F917A
S1130F100895CF93DF931F92CDB7DEB7AE014F5F35
S1130F205F4FFC01848195810E9446110F90DF91EF
S1130F30CF910895CF93DF931F921F92CDB7DEB761
S1130F40AE014E5F5F4FBE016F5F7F4FFC01848136
S1130F5095810E94461189810F900F90DF91CF9166
S1130F600895CF93DF931F92CDB7DEB7198221E0A6
S1130F70AE014F5F5F4FFC01848195810E94561042
S1130F8091E0811101C090E0892F0F90DF91CF9102
S1130F900895CF93DF931F92CDB7DEB7198220E077
S1130FA0AE014F5F5F4FFC01848195810E94561012
S1130FB091E0811101C090E0892F0F90DF91CF91D2
S1130FC008950F93FC01268137814085518501E006
S1130FD0848195810E94BB0F91E0811101C090E052
S1130FE0892F0F9108950F93FC0126813781408545
S1130FF0518500E0848195810E94BB0F91E08111AD
S113100001C090E0892F0F9108954F925F926F92E3
S11310107F928F929F92AF92BF92DF92EF92FF9254
S11310200F931F93CF93DF938C017B01DC016D93AE
S11310307C938DE190E00E94651BEC0186E990E2CF
S1131040888399831C821D820F2EFEE48F2EF0E28A
S11310509F2EF02D8A829B8240E061E082E00E9414
S11310608D0F8E839F830F2EFAE04F2E512C612C0F
S1131070712CF02D488659866A867B860F2EF2E7FE
S1131080AF2EF0E2BF2EF02DAA82BB826894DD243D
S1131090D1F8DC861F86188A8D869E8640E061E042
S11310A082E00E948D0F898B9A8B4B8A5C8A6D8AB1
S11310B07E8AAD86BE86DF8A8AE090E28883998341
S11310C0F801C283D38380E7848316821782108653
S11310D01186128683E090E00E94651B24EA30E2C8
S11310E0FC0120833183C1E5C283D8011D968D9311
S11310F09C931E971296ED91FC911397E08EF18EBE
S113110014966C91149712968D919C9113970E944A
S1131110EF03F801C5838AEA868385EA8783DF9132
S1131120CF911F910F91FF90EF90DF90BF90AF9000
S11311309F908F907F906F905F904F900895FC01E7
S1131140A281B38165857685ED91FC91119701901B
S1131150F081E02DCD0119950895FF920F931F930F
S1131160CF93DF93EC018A819B81DC01ED91FC91AB
S11311700280F381E02D19958C01DC01ED91FC9145
S11311800084F185E02D1995F82ED801ED91FC919C
S11311900084F185E02DC80119952F2D30E0322F00
S11311A02227A901482BCA018B879C87DF91CF9105
S11311B01F910F91FF900895EC018C85882319F0FD
S11311C0813051F025C08C899D890E949F0861E07F
S11311D0CE010E94E7161CC08C899D890E94AD082F
S11311E07C018A8B9B8B6AE08E819F810E94501CBC
S11311F08C0166E873E00E94191CB701C8010E94C3
S1131200971C66E00E94501C60E0CE010E94E71625
S11312108E859F85A889B9890196A11DB11D8E87E8
S11312209F87A88BB98B64EF71E080E090E00E9407
S1131230BB14C3CFCF92DF92EF92FF920F931F9311
S1131240CF93DF93EC016B010E94EB168AEA90E2E4
S113125088839983EC8AFD8ACE8ADF8ADF91CF91D5
S11312601F910F91FF90EF90DF90CF9008950F930F
S11312701F93CF93DF93EC010E94EB1682EB90E275
S113128088839983DF91CF911F910F9108950F93D4
S11312901F93CF93DF93EC016AE08E819F810E94BC
S11312A0501C8C0161EE74E00E94191C6AE0C801B4
S11312B00E94501C8C016BED74E00E94191C67E0C5
S11312C0C8010E94501C6AE08E819F810E94501CBC
S11312D08C016CEB74E00E94191C6AE0C8010E9446
S11312E0501C8C0166EB74E00E94191C66E0C80176
S11312F00E94501C6AE08E819F810E94501C8C01C8
S11313006FE974E00E94191C66E0C8010E94501C39
S11313106AE08E819F810E94501C8C0163E874E016
S11313200E94191C66E0C8010E94501C6AE08E816C
S11313309F810E94501C8C016BE674E00E94191C72
S113134066E0C8010E94501C6AE08E819F810E9461
S1131350501C8C016AE474E00E94191C66E0C80108
S11313600E94501C6AE08E819F810E94501C8C0157
S113137063E274E00E94191C66E0C8010E94501CDC
S11313806AE08E819F810E94501C8C0165E074E0AC
S11313900E94191C66E0C8010E94501C6AE08E81FC
S11313A09F810E94501C8C016AEE73E00E94191CFC
S11313B066E0C8010E94501C6AE08E819F810E94F1
S11313C0501CEC016BED73E00E94191C66E0CE0129
S11313D00E94501CDF91CF911F910F910895AF92FD
S11313E0BF92CF92DF92EF92FF920F931F93CF930E
S11313F0DF9300D000D0CDB7DEB78C0119821A82FA
S11314001B821C821D821E820E94740C6C01CE0100
S113141001960E949C1A5C0166E0F801868197811E
S11314200E94501C6AE00E94501C7C016CEB73E02B
S11314300E94191C6AE0C7010E94501C7C0160EBE9
S113144073E00E94191C66E0C7010E94501C6AE008
S11314500E94501C7C0169EA73E00E94191CB501CA
S1131460C7010E94401A6AE00E94501C7C016BE98B
S113147073E00E94191CB601C7010E94971C6AE020
S11314800E94501C7C0169E973E00E94191C4FEF13
S11314905FE060E070E0C7010E94CB1CC0902808A8
S11314A0D09029086AE0F801868197810E94501C37
S11314B07C016EE873E00E94191CB601C7010E940A
S11314C0971C66E00E94501C66E00E94501CF801C4
S11314D0868197810E94F9182696CDBFDEBFDF91E1
S11314E0CF911F910F91FF90EF90DF90CF90BF901D
S11314F0AF900895CF93DF9300D000D0CDB7DEB77F
S11315008C0119821A821B821C821D821E826AE04F
S1131510DC0116968D919C9117970E94501C7C01BA
S11315206AE275E00E94191C66E0C7010E94501C23
S1131530F8018485882321F0813009F45DC0D8C086
S113154086819781DC01ED91FC910480F581E02D89
S113155019958823A9F1F80186819781DC01ED9121
S1131560FC910680F781E02D19959927813091052A
S1131570F9F0039709F0D8C06AE0F80186819781F1
S11315800E94501C8C016CE175E00E94191C66E0FD
S1131590C8010E94501C93E088ED08B618BE84BFB1
S11315A0909380008091820081FDFCCF08BEFFCF24
S11315B0C8010E94470961E0C8010E94E716B4C04F
S11315C084E292E30E94A819882309F4ADC0D801EB
S11315D01696ED91FC9117970190F081E02DE28031
S11315E0F38084E292E30E948A19682FF8018681CD
S11315F09781F701199598C086819781DC01ED9157
S1131600FC910480F581E02D1995882309F48CC0A0
S1131610F80186819781DC01ED91FC910680F781C8
S1131620E02D19959C0133272836310559F13CF4F6
S11316302B31310559F12536310541F13BC02337B2
S11316403105C1F02637310589F02E36310591F583
S1131650CE0101960E949C1ABC01F80186819781F3
S11316600E94401A66E00E94501C5EC0C8010E949D
S1131670EF095AC0D80116968D919C9117970E9434
S1131680001852C0C8010E9447094EC06AE0F80120
S1131690868197810E94501C7C016AE075E00E945B
S11316A0191C66E0C7010E94501C60E0C8010E943A
S11316B0E7163AC0F801A681B781ED91FC91119724
S11316C00280F381E02D682FCD0119956AE0D801DD
S11316D016968D919C9117970E94501C7C0164E092
S11316E075E00E94191C66E0C7010E94501C1CC0D2
S11316F06AE0F801868197810E94501C8C0167EE94
S113170074E00E94191C66E0C8010E94501C93E01A
S113171088ED08B618BE84BF909380008091820043
S113172081FDFCCF08BEFFCFF80186859785A0898F
S1131730B1890196A11DB11D86879787A08BB18BB6
S113174061E070E080E090E00E94BB14F1CE0F9362
S11317501F93CF93DF93EC010E94171380916821AC
S113176081111DC0ADE6B1E2E1E7F1E2ED93FC9336
S1131770119712961D921C921397A9E6B1E28FEF6E
S11317809FE012968D939C9313971D921C92119730
S113179082839383A083B18381E08093682120971F
S11317A009F45FC09E012B5F3F4F2496CE3FDF407C
S11317B008F05AC0E0916D21F0916E21ADE6B1E2DE
S11317C002C0DF01FC01828193818217930720F418
S11317D0808191810097A9F7C1E2E936FC0709F4F9
S11317E046C0CD91DC9111978E010B5F1F4F808114
S11317F091818D939C9382819381821B930B8B3077
S1131800910510F1BF01620F731FDB0112968D93D6
S11318109C9313972283338312964D915C91139773
S11318208DE691E201C0CD01EC01A881B981129647
S11318302D913C91139724173507A8F3EB01A88346
S1131840B983DC016D937C938091002090910120F9
S113185022813381821B930B80930020909301207B
S113186008C000E010E005C000E010E002C000E0A5
S113187010E00E943914C801DF91CF911F910F919C
S113188008950F931F93CF93DF93009741F1EC01D9
S11318908C01055011090E941713F80142815381EC
S11318A0ADE6B1E201C0DF01ED91FC911197228117
S11318B0338124173507B8F32597E883F9830D930B
S11318C01C9320910020309101208A819B81820FFA
S11318D0931F80930020909301200E943914DF917C
S11318E0CF911F910F910895809100209091012034
S11318F00895FC010396818392834FEF5FEFBA0151
S11319004383548365837683878390878187928713
S113191010820895FC01128613860895CF93DF93F5
S1131920FC01DB0121813281E9018C819D811496C6
S11319308D939C9315978181928116968D939C9398
S113194017978C819D81EC016E837F83E9016C8301
S11319507D83618372831A96ED93FC931B97808138
S11319608F5F8083DF91CF9108950F931F93CF935F
S1131970DF93EB01088119812A813B810F3F4FEFEF
S113198014072407340731F4DC011996ED91FC9116
S11319901A971FC0FC013396DC0117964D915C9198
S11319A01897DA014D915D916D917C91041715079B
S11319B02607370770F00480F581E02DA481B581F6
S11319C04D915D916D917C9104171507260737079A
S11319D090F7A481B581AC83BD831696CD93DC9337
S11319E01797EE83FF83C483D5838A879B87FC0183
S11319F020812F5F2083DF91CF911F910F91089554
S1131A00FC01A481B5818681978116968D939C9360
S1131A101797A681B7818481958114968D939C93A1
S1131A201597A285B38511968D919C911297E8170D
S1131A30F90731F48681978111968D939C931297BF
S1131A40128613868C9181508C930895809334323E
S1131A509093353231E1FC013083319722E22083C7
S1131A603197A3E3A08331976083319770833197D3
S1131A70108231971082319760E860833197108229
S1131A803197108231971082319762E060833197E9
S1131A9063E06083319764E06083319765E060833D
S1131AA0319766E06083319767E06083319768E03F
S1131AB06083319769E06083319760E16083319797
S1131AC03083319732E13083319733E1308331977A
S1131AD034E13083319735E13083319736E1308317
S1131AE0319737E13083319738E13083319739E1E9
S1131AF03083319730E23083319731E2308331974C
S1131B002083319723E22083319740833197508398
S1131B10319726E22083319727E22083319728E208
S1131B202083319729E22083319720E32083319762
S1131B3021E32083899708958CE7809369088FEFC8
S1131B408093680881E08093400891E19093410874
S1131B5080934708A091D031B091D131CD91CDBFC0
S1131B60DD91DEBFFF91EF91DF91CF91BF91AF91F6
S1131B709F918F917F916F915F914F913F912F91A1
S1131B801F910F91FF90EF90DF90CF90BF90AF9097
S1131B909F908F907F906F905F904F903F902F9089
S1131BA01F900F900CBE0F900BBE0F900FBE0F90A6
S1131BB0089508950F920FB6F8940F920BB60F92F2
S1131BC00CB60F921F9211242F923F924F925F9264
S1131BD06F927F928F929F92AF92BF92CF92DF9239
S1131BE0EF92FF920F931F932F933F934F935F9323
S1131BF06F937F938F939F93AF93BF93CF93DF9311
S1131C00EF93FF93A091D031B091D1310DB60D92E5
S1131C100EB60D920E94E914A091D031B091D13149
S1131C20CD91CDBFDD91DEBFFF91EF91DF91CF91DB
S1131C30BF91AF919F918F917F916F915F914F91E0
S1131C403F912F911F910F91FF90EF90DF90CF90D4
S1131C50BF90AF909F908F907F906F905F904F90C8
S1131C603F902F901F900F900CBE0F900BBE0F90C3
S1131C700FBE0F9008950F920FB6F8940F920BB603
S1131C800F920CB60F921F9211242F923F924F92F3
S1131C905F926F927F928F929F92AF92BF92CF92F8
S1131CA0DF92EF92FF920F931F932F933F934F93E3
S1131CB05F936F937F938F939F93AF93BF93CF93D0
S1131CC0DF93EF93FF93A091D031B091D1310DB652
S1131CD00D920EB60D920E9438130E94E914A09141
S1131CE0D031B091D131CD91CDBFDD91DEBFFF9127
S1131CF0EF91DF91CF91BF91AF919F918F917F91A0
S1131D006F915F914F913F912F911F910F91FF9090
S1131D10EF90DF90CF90BF90AF909F908F907F9087
S1131D206F905F904F903F902F901F900F900CBE3C
S1131D300F900BBE0F900FBE0F9008950E943B0EA4
S1131D401895CF93DF93EC0188A181110BC0888192
S1131D509981892BE1F58A819B810E94A4161A82BC
S1131D601B8235C0411117C0482F50E08C819D81E2
S1131D700E94D92328A18C819D81820F911D8C837F
S1131D809D832A813B818217930708F18881998179
S1131D908C839D831CC0482F50E08E819F810E94BC
S1131DA0D92388A190E09195819591092E813F8155
S1131DB0280F391F2E833F83488159812417350703
S1131DC030F42A813B81820F931F8E839F838E8DF3
S1131DD08F5F8E8FDF91CF910895FC018081918177
S1131DE00097A1F040A150E026813781240F351FD0
S1131DF026833783A281B3812A173B0710F0868399
S1131E009783CB01668177810E94D92308950F932C
S1131E101F93CF93DF93EC010FB6F8940F928AA12E
S1131E201816B4F48B89811105C012C08B898111F5
S1131E3004C00EC08E010D5E1F4FC8010E947015B4
S1131E4081110E942D168AA181508AA3181674F359
S1131E508FEF8AA30F900FBE0FB6F8940F9289A14B
S1131E601816B4F48885811105C012C088858111C3
S1131E7004C00EC08E01085F1F4FC8010E94701578
S1131E8081110E942D1689A1815089A3181674F31B
S1131E908FEF89A30F900FBEDF91CF911F910F9108
S1131EA008951F93CF93DF93613059F0FC01238988
S1131EB0308531112CC011E0211110E0211128C00E
S1131EC001C011E0EC014881598128A130E06F8DF7
S1131ED0629FC001639F900D1124BA01680F791F9E
S1131EE06A837B831E8E4C835D83821B930B840FDA
S1131EF0951F8E839F838FEF89A38AA3CE010896B3
S1131F000E94790CCE0143960E94790C01C010E026
S1131F10812FDF91CF911F9108950F931F93CF933A
S1131F20DF93882301F1062F182F83E290E00E94AB
S1131F30A70BEC01892BC9F0109FC0011124019655
S1131F400E94A70B88839983892B39F01F8F08A3DC
S1131F5061E0CE010E94510F08C0CE010E94410CE5
S1131F60C0E0D0E002C0C0E0D0E0CE01DF91CF916C
S1131F701F910F910895AF92BF92CF92DF92EF928B
S1131F80FF920F931F93CF93DF93CDB7DEB72997BB
S1131F90CDBFDEBF7C015B012E833F834887598719
S1131FA010E06C0188E0C80ED11C0FB6F8940F92B3
S1131FB0F701968D878D9817A8F4402FB501C701B6
S1131FC00E94A10EF7018389882341F0C70143963B
S1131FD00E947015813011F40E94DA0D0F900FBE2B
S1131FE081E056C08E819F81A885B985892B8A2B73
S1131FF08B2B21F40F900FBE80E04AC0111105C055
S1132000CE0101960E94AF1511E00F900FBE0E9401
S113201017130FB6F8940F92F70181A18F3F09F4BB
S113202011A2F70182A18F3F09F412A20F900FBEF3
S1132030BE016A5F7F4FCE0101960E94C0158111D7
S113204021C00FB6F8940F92F701968D0F900FBE32
S1132050878D981311C04E815F8168857985C6018B
S11320600E944615C7010E94070F0E94391481116E
S11320709CCF0E94DA0D99CFC7010E94070F0E94DE
S1132080391493CFC7010E94070F0E94391480E0CE
S11320902996CDBFDEBFDF91CF911F910F91FF90A5
S11320A0EF90DF90CF90BF90AF9008950F931F9360
S11320B0CF93DF938A01FC01568D378D5317C0F4FB
S11320C0422FEC010E94A10E8AA18F3F69F48B89F3
S11320D0882381F0CE0143960E947015882361F015
S11320E081E0F801808309C08F5F8AA381E005C085
S11320F080E003C081E001C081E0DF91CF911F91B6
S11321000F910895AF92BF92CF92DF92EF92FF9218
S11321100F931F93CF93DF93CDB7DEB72997CDBF2E
S1132120DEBF7C015B012E833F834887598710E023
S11321306C0183E1C80ED11C0FB6F8940F92F7011D
S1132140868D882399F1C680D780B501C7010E9486
S1132150ED0E01111AC0F701868D8150868F8081A2
S11321609181892B29F40E944A16F7018283938373
S1132170F70180858823B1F0C70108960E94701585
S1132180813081F40E94DA0D0DC0F701C682D78236
S11321908389882339F0C70143960E947015811101
S11321A00E94DA0D0F900FBE81E062C08E819F8184
S11321B0A885B985892B8A2B8B2B21F40F900FBE10
S11321C080E056C0111105C0CE0101960E94AF15E2
S11321D011E00F900FBE0E9417130FB6F8940F92E0
S11321E0F70181A18F3F09F411A2F70182A18F3F6A
S11321F009F412A20F900FBEBE016A5F7F4FCE0199
S113220001960E94C01581112DC00FB6F8940F924B
S1132210F701868D0F900FBE81111EC080819181C0
S1132220892B49F40FB6F8940F92828193810E940E
S11322304F160F900FBE4E815F8168857985C60168
S11322400E944615C7010E94070F0E94391481118C
S113225073CF0E94DA0D70CFC7010E94070F0E944E
S113226039146ACFC7010E94070F0E94391480E015
S11322702996CDBFDEBFDF91CF911F910F91FF90C3
S1132280EF90DF90CF90BF90AF9008950F931F937E
S1132290CF93DF93FC01268D2223D9F08A01EC0130
S11322A00E94ED0E8E8D81508E8F89A18F3F69F42F
S11322B08885882381F0CE0108960E9470158823B2
S11322C061F081E0F801808309C08F5F89A381E018
S11322D005C080E003C081E001C081E0DF91CF91BF
S11322E01F910F9108950FB6F8940F92FC01868DFB
S11322F00F900FBE0895FC01868D0895C4EAD1E3C2
S113230088818230E8F30E94DA0DFACFCF92DF920F
S1132310EF92FF926B017C01E091D031F091D131C9
S1132320628373838483958380917831909179312A
S1132330A0917A31B0917B31C816D906EA06FB0622
S113234068F46091D0317091D13180918A3190914B
S11323508B316E5F7F4F0E94B50C21C06091D031EC
S11323607091D13180918C3190918D316E5F7F4F1E
S11323700E94B50C8091022090910320A09104202A
S1132380B0910520C816D906EA06FB0640F4C092AF
S11323900220D0920320E0920420F0920520FF90C6
S11323A0EF90DF90CF9008954F925F926F927F925B
S11323B08F929F92AF92BF92CF92DF92EF92FF9251
S11323C00F931F93CF93DF935C014B013A012901D3
S11323D088E290E00E94A70BEC01892B09F4D4C099
S11323E0C114D10409F0CCC0C3010E94A70B8B8F88
S11323F09C8F009721F4CE010E94410CC5C0A3011B
S113240061E170E00E94E2239301215031098B8D38
S11324109C8D3C01620E731E4AE050E0B401CE0173
S11324204D960E94E9231EA2102F043008F013E0F9
S11324301A8F1FA36E0122E0C20ED11CC6010E9496
S11324408A0CCE010E960E948A0CCA87DB8784E030
S113245090E0A0E0B0E0811B9109A109B1098E8749
S11324609F87A88BB98BCE8BDF8BA201B501C301EB
S11324700E94260D88839983E114F10419F0F70171
S1132480C083D1830FB6F8940F9280917C318F5F13
S113249080937C318091D0319091D131892B89F511
S11324A0C093D031D093D13180917C318130C1F54A
S11324B084EA91E30E94790C8FEA91E30E94790CFB
S11324C08AEB91E30E94790C85EC91E30E94790CEC
S11324D089E991E30E94790C8EE891E30E94790CDA
S11324E08FE791E30E94790C89E991E380938C3121
S11324F090938D318EE891E380938A3190938B3160
S11325000FC08091753181110BC0E091D031F091F1
S1132510D131828D081720F0C093D031D093D131BE
S11325208A8D90917731981710F480937731909138
S113253070319F5F9093703190917631981710F4B9
S113254080937631FBE08F9FC0011124B6018C5536
S11325509E4C0E948E0C0F900FBE80917531882383
S113256059F0E091D031F091D131828D801730F45F
S11325700E94DA0D81E009C081E007C081E005C056
S1132580CB8EDC8EC6013BCF8FEFDF91CF911F91B5
S11325900F91FF90EF90DF90CF90BF90AF909F90FE
S11325A08F907F906F905F904F9008950FB6F8943E
S11325B00F92009721F48091D0319091D1310F90F6
S11325C00FBEFC01828D0895AF92BF92CF92DF922D
S11325D0EF92FF920F93A12CB12CC12CD12C0F2E72
S11325E0FDE7EF2EF1E3FF2EF02D00E020E030E0D8
S11325F044E650E066EB70E28EE791E10E94D4116C
S1132600813069F4F8948093753110927831109286
S1132610793110927A3110927B310E949C0D0F9186
S1132620FF90EF90DF90CF90BF90AF90089580918E
S113263074318F5F8093743108950FB6F8940F92BC
S1132640609178317091793180917A3190917B31B8
S11326500F900FBE0895009721F48091D03190918E
S1132660D1314D96089580917D3190917E310895B8
S1132670FF920F931F93CF93DF9380917431811155
S1132680EDC08091783190917931A0917A31B091F7
S11326907B310196A11DB11D8093783190937931DE
S11326A0A0937A31B0937B318091783190917931D4
S11326B0A0917A31B0917B31892B8A2B8B2BF1F548
S11326C080918C3190918D3120918A3130918B3170
S11326D020938C3130938D3180938A3190938B3158
S11326E0809171318F5F80937131E0918C31F091E1
S11326F08D31808181110CC08FEF9FEFDC018093BD
S1132700022090930320A0930420B093052016C0C8
S1132710E0918C31F0918D310780F085E02D0084BB
S1132720F185E02D82819381A481B581809302207B
S113273090930320A0930420B09305204091783116
S11327405091793160917A3170917B31809102207E
S113275090910320A0910420B091052048175907B7
S11327606A077B0708F47FC0E0918C31F0918D31CA
S113277080818823F9F0E0918C31F0918D310780CC
S1132780F085E02DC085D1858A819B81AC81BD8196
S1132790409178315091793160917A3170917B31E7
S11327A0481759076A077B0758F10F2EFBE0FF2EE5
S11327B0F02D2FC08FEF9FEFDC01809302209093C8
S11327C00320A0930420B09305204DC0E0918C31E8
S11327D0F0918D310780F085E02DC085D1858A8107
S11327E09B81AC81BD814091783150917931609168
S11327F07A3170917B31481759076A077B0748F48F
S11328008093022090930320A0930420B09305208A
S11328102AC08E010E5F1F4FC8010E94000D888DD3
S1132820998D892B21F0CE010E960E94000D8A8D80
S113283090917631981710F480937631F89EC00108
S11328401124B8018C559E4C0E948E0CE0918C3161
S1132850F0918D3180818111B9CFACCF80917331EA
S11328608F5F80937331DF91CF911F910F91FF9010
S11328700895CF92DF92EF92FF920F931F93CF931D
S1132880DF930FB6F8940F92809174318150809346
S1132890743180917431811160C080917C318111D7
S11328A02CC05EC0D7011796ED91FC911897C08596
S11328B0D185CE010E960E94000D8E010E5F1F4F32
S11328C0C8010E94000D8A8D90917631981710F4FA
S11328D080937631D89EC0011124B8018C559E4C4A
S11328E00E948E0CE091D031F091D1319A8D828D7D
S11328F0981770F0CC24C3940BC0C12C0F2EFFE7A3
S1132900EF2EF1E3FF2EF02D0F2EFBE0DF2EF02D46
S1132910F70180818111C6CF80917331882381F0C2
S113292080917331882399F00E9438138091733118
S1132930815080937331809173318111F5CF07C039
S1132940F1E0CF1621F080917231813041F4109280
S113295072310E94DA0D81E003C080E001C080E0A2
S11329600F900FBEDF91CF911F910F91FF90EF90C9
S1132970DF90CF900895CF92DF92EF92FF926B0198
S11329807C01672B682B692BE9F00E941713809157
S1132990783190917931A0917A31B0917B31C80E20
S11329A0D91EEA1EFB1E8091D0319091D13102963E
S11329B00E94000DC701B6010E9486110E943914BD
S11329C0811102C00E94DA0DFF90EF90DF90CF904A
S11329D008958091743181110CC0E09176314BE0FF
S11329E0E49FF0011124EC55FE4C8081882329F0EA
S11329F014C081E08093723108959BE08091763118
S1132A00815080937631E09176319E9FF0011124BC
S1132A10EC55FE4C8081882389F380917631282FF0
S1132A2030E04BE0849FC0011124DC01AC55BE4C66
S1132A301196ED91FC9112970480F581E02D119689
S1132A40ED93FC93129789559E4CE817F90761F4AE
S1132A50848195814BE0429FF001439FF00D112446
S1132A60EC55FE4C818392838BE0829FF001839F1F
S1132A70F00D1124EC55FE4C0180F281E02D80858F
S1132A8091858093D0319093D1310895CF92DF9284
S1132A90EF92FF926A017B016091D0317091D13144
S1132AA0625F7F4F0E94B50C8091D0319091D131FB
S1132AB002960E94000D8091783190917931A09115
S1132AC07A31B0917B31BC01CD016C0D7D1D8E1D21
S1132AD09F1D0E948611FF90EF90DF90CF90089584
S1132AE00F931F93CF93DF93DC011796ED91FC9125
S1132AF01897C085D1858E01025F1F4FC8010E94BF
S1132B00000D80917431811116C00C501109C80157
S1132B100E94000D8A8D90917631981710F480935D
S1132B207631BBE08B9FC0011124B8018C559E4CBB
S1132B300E948E0C05C0B8018FE791E30E948E0CB1
S1132B40E091D031F091D13181E02A8D928D291715
S1132B5008F480E0DF91CF911F910F9108952091A7
S1132B607131FC0120834091783150917931609129
S1132B707A3170917B3141835283638374830895E6
S1132B808F929F92AF92BF92CF92DF92EF92FF9279
S1132B900F931F93CF93DF93FC010FB6F8940F921A
S1132BA0809171319081981789F08091783190915A
S1132BB07931A0917A31B0917B31018112812381E5
S1132BC0348180179107A207B307A8F58091783163
S1132BD090917931A0917A31B0917B31C180D280CA
S1132BE0E380F480EB01088119812A813B818C19EF
S1132BF09D09AE09BF0980179107A207B307E8F43E
S1132C00CF018090783190907931A0907A31B09052
S1132C107B31B501A4014C195D096E097F09041BC0
S1132C20150B260B370B088319832A833B830E94D9
S1132C30AF1580E003C081E001C081E00F900FBEBA
S1132C40DF91CF911F910F91FF90EF90DF90CF9084
S1132C50BF90AF909F908F90089581E080937231E0
S1132C600895009721F48091D0319091D131DC0105
S1132C705B96ED91FC915C978081813141F43196B2
S1132C8080E090E0019621912131E1F3089580E004
S1132C9090E008958091D0319091D13108950F93AF
S1132CA01F93CF93DF93FC01228DA091D031B0917B
S1132CB0D1315A968C91281708F041C0A091D03197
S1132CC0B091D1315A963C9184E090E0A0E0B0E01C
S1132CD0831B9109A109B10986879787A08BB18BC2
S1132CE08BE0289F900111242C553E4C84859585BA
S1132CF082179307E9F48F01EF012296CE010E9417
S1132D00000DE091D031F091D131828DF801828FA4
S1132D1090917631981710F480937631FBE08F9F71
S1132D20C0011124BE018C559E4C0E948E0C07C01C
S1132D30A091D031B091D1315A968C91828FDF918C
S1132D40CF911F910F9108950F931F93CF93DF930A
S1132D50009749F1FC01328D27A1321721F1EC01D2
S1132D608C010E5F1F4FC8010E94000D8FA18A8F36
S1132D7044E050E060E070E0481B510961097109CA
S1132D804E875F87688B798B90917631981710F412
S1132D9080937631FBE08F9FC0011124B8018C55DC
S1132DA09E4C0E948E0CDF91CF911F910F9108953C
S1132DB0EC01E881F9810190F081E02D19951A82E6
S1132DC01B826FEF7FEFCB010E94BB14FACFFC0193
S1132DD06487658708954F925F926F927F928F9276
S1132DE09F92AF92BF92CF92DF92EF92FF920F9396
S1132DF01F93CF93DF93CDB7DEB72A97CDBFDEBF46
S1132E004C01290138018FEB90E2F4018083918316
S1132E10FB018081882369F0DE011196319690E0F0
S1132E2002C0993039F09F5F8D9381918111F9CF60
S1132E3001C090E0E1E0F0E0EC0FFD1FE90FF11DAF
S1132E4010827401F2E0EF0EF11CA12CB12CC12C04
S1132E50D12C042F9401A201BE016F5F7F4F80E249
S1132E6093E00E94D411F4016682778240865186F1
S1132E702091D2313091D331248335838092D23161
S1132E809092D33114861586409034325090353266
S1132E90FFEF4F1A5F0A4092343250923532F401F8
S1132EA04286538616861786108A118A6114710425
S1132EB009F444C0813079F56AE0C3010E94501CD2
S1132EC07C016DE875E00E94191CBE016F5F7F4FA5
S1132ED0C7010E94191C6AE0C7010E94501C7C01B2
S1132EE064E875E00E94191C6AE0C7010E94501C46
S1132EF07C0166E775E00E94191C63E0C7010E942B
S1132F00501CB2010E94971C62E00E94501C66E0B3
S1132F100E94501C13C06AE0C3010E94501C4C0163
S1132F2061E675E00E94191CBE016F5F7F4FC4010A
S1132F300E94191C66E0C4010E94501C2A96CDBF51
S1132F40DEBFDF91CF911F910F91FF90EF90DF9043
S1132F50CF90BF90AF909F908F907F906F905F9035
S1132F604F900895CF92DF92EF92FF920F931F93A9
S1132F70CF93DF93EC017B018A819B810E942B1309
S1132F806C016AE0C7010E94501C8C0160EA75E084
S1132F900E94191C6AE0C8010E94501C8C0169E956
S1132FA075E00E94191CB601C8010E94191C6AE050
S1132FB0C8010E94501C8C0163E975E00E94191C31
S1132FC066E0C8010E94501C8A859B85E885F985C6
S1132FD001E121E0A701BC018E1B9F0B0E94B41AE2
S1132FE08C819D81009719F0B7010E94B217DF917F
S1132FF0CF911F910F91FF90EF90DF90CF900895A4
S11330000F931F93CF93DF93EC018091D231909172
S1133010D331009719F0BE010E94B2176AE0CE01C5
S11330200E94501C8C0166EB75E00E94191C6AE03A
S1133030C8010E94501C8C016BEA75E00E94191CA7
S11330406AE0C8010E94501C8C0165EA75E00E9488
S1133050191C66E0C8010E94501C80913432909182
S11330603532BC016F5F7F4F01E121E0AE01835631
S113307091090E94B41ADF91CF911F910F91089585
S11330808F929F92AF92BF92CF92DF92EF92FF9274
S11330900F931F93CF93DF93EC018B018A819B8164
S11330A00E942B13BC01C8010E94191CD801ED9188
S11330B0FC910280F381E02D69E0C80119958A81B1
S11330C09B810E942B13FC0101900020E9F73197AA
S11330D0E81BF90B389748F4D801ED91FC91028074
S11330E0F381E02D69E0C8011995CE84DF84E88876
S11330F0F988A884B9848A819B810E943116982E0C
S11331008C848A819B810E94D612682FC8010E94F8
S11331100D1D6AE00E94501CEC016BE276E00E94F7
S1133120191C682DCE010E940D1D6AE00E94501CDE
S1133130EC0169E276E00E94191C692DCE010E941F
S11331400D1D6AE00E94501CEC0167E276E00E94CB
S1133150191CB501CE010E94971C6AE00E94501C04
S1133160EC0165E276E00E94191C6AE0CE010E943F
S1133170501CEC0163E276E00E94191CB701A60121
S1133180CE010E94CB1CDF91CF911F910F91FF9034
S1133190EF90DF90CF90BF90AF909F908F90089565
S11331A0CF93DF93EC01CB01DB01ED91FC91028025
S11331B0F381E02DBE011995CE01DF91CF910895E1
S11331C00F931F93CF93DF93EC018B01BC01C801D4
S11331D00E94D01866E00E94501C8C819D8100974B
S11331E019F0B8010E94E018DF91CF911F910F915F
S11331F008950F931F93CF93DF93EC016AE00E942D
S1133200501C8C0168E176E00E94191C6AE0C80138
S11332100E94501C8C0161E176E00E94191C66E05A
S1133220C8010E94501C6AE0CE010E94501C8C010F
S113323060E076E00E94191C6AE0C8010E94501CFC
S11332408C0164EF75E00E94191C6AE0C8010E94B9
S1133250501C8C016EEE75E00E94191C66E0C801DA
S11332600E94501C6AE0CE010E94501C8C016DED3E
S113327075E00E94191C6AE0C8010E94501C8C0170
S113328061ED75E00E94191C6AE0C8010E94501C9F
S11332908C016BEC75E00E94191C66E0C8010E9469
S11332A0501C8091D2319091D331009719F0BE0116
S11332B00E94E0180E9433130E943116182F6AE00E
S11332C0CE010E94501CEC0160EC75E00E94191CB8
S11332D0612FCE010E940D1D6AE00E94501CEC017A
S11332E06EEB75E00E94191C64E670E0CE010E944A
S11332F0971C6AE00E94501CEC016BEB75E00E9485
S1133300191C66E0CE010E94501CDF91CF911F91E1
S11333100F9108950F93CF93DF931F92CDB7DEB72C
S113332000E02FEF3FEFA901BE016F5F7F4FFC016B
S1133330808591850E948210813019F4898190E002
S113334002C08FEF9FEF0F90DF91CF910F910895FF
S1133350FC01808591850E94731191E0811101C067
S113336090E0892F08950F93CF93DF931F92CDB7E9
S1133370DEB76983FC01228533854485558500E0E9
S1133380BE016F5F7F4F808591850E94BB0F91E0E6
S1133390811101C090E0892F0F90DF91CF910F919F
S11333A008958F929F92BF92CF92DF92EF92FF92F5
S11333B00F931F93CF93DF93EC01B62E4A0168015C
S11333C079010E940B1C87EC90E2888399838E8696
S11333D09F8640E061E08B2D0E948D0F888799873E
S11333E0CA86DB86EC86FD86DF91CF911F910F9113
S11333F0FF90EF90DF90CF90BF909F908F900895B3
S1133400CF92DF92EF92FF92CF93DF93EC0168812A
S113341079818A819B810F2EF8EECF2EF3E0DF2E87
S1133420E12CF12CF02DA70196010E9475239B013C
S1133430AC0160E472E48FE090E00E946523A70190
S113344096010E94752369017A01AC81BD8120E453
S113345032E44FE050E00E94BF2320E038E448EE1D
S113346051E00E947523C701B601620F731F841FC8
S1133470951FDF91CF91FF90EF90DF90CF9008954B
S1133480CF92DF92EF92FF920F931F93CF93DF932C
S1133490CDB7DEB72F97CDBFDEBF6C018B01DB014B
S11334A06D917D918D919C9128EE33E040E050E048
S11334B00E947523BA01A901C6010E94CB1CD60142
S11334C0ED91FC910280F381E02D6EE2C601199525
S11334D0C8010E94001A8E01095F1F4FFE01319638
S11334E07F012AE030E040E050E00E949723E62F7D
S11334F0288739874A875B87688579858A859B858C
S113350020E32E0FD8012E938D01AE15BF0549F788
S11335101F82BE016F5F7F4FC6010E94191CC60146
S11335202F96CDBFDEBFDF91CF911F910F91FF90FA
S1133530EF90DF90CF900895CF93DF93EC010FB617
S1133540F8940F9280912008909121088C839D8398
S11335500E941D13688379838A839B830F900FBE17
S1133560CE01DF91CF9108955F926F927F928F92F7
S11335709F92AF92BF92CF92DF92EF92FF920F93FE
S11335801F93CF93DF935C014B017A01122F702EAE
S113359063E0CA010E94501CA814B90408F07DC05D
S11335A0650184E1C80ED11C00E06A2C5B2CB501D6
S11335B0C7010E94971C6AE00E94501C6DE376E0EC
S11335C00E94191C112309F46DC0002309F46AC078
S11335D06AE0C7010E94501C68E376E00E94191C4F
S11335E061C0112371F001110CC08881871549F065
S11335F06AE0C7010E94501C63E376E00E94191C34
S113360001E06991C7010E940D1DDC01ED91FC915F
S11336100280F381E02D60E21995CC16DD0609F7EE
S1133620112389F06AE0C7010E94501CEC016DE28D
S113363076E00E94191CE881F9810280F381E02D73
S113364060E2CE011995C62DD52D699180EE860FC5
S11336508F3548F4D701ED91FC910280F381E02D80
S1133660C701199509C0D701ED91FC910280F3813E
S1133670E02D6EE2C7011995CC16DD0631F7B4E1F1
S1133680AB0EB11C66E0C7010E94501C84E1C80E59
S1133690D11CA814B90408F488CF62E0C7010E94C1
S11336A0501C03C0C62DD52D9CCFDF91CF911F9107
S11336B00F91FF90EF90DF90CF90BF90AF909F90CD
S11336C08F907F906F905F9008950E94A70B08954C
S11336D00E94A70B08950895CF93DF93FC01DA01AC
S11336E0403A68E0560749F480E496E08283938385
S11336F082E0848383E0858332C0403B78E05707CF
S113370049F480E496E08283938386E0848387E0AF
S1133710858325C0403A89E0580749F480E696E05D
S11337208283938382E0848383E0858318C0403B53
S113373069E0560749F480E696E08283938386E045
S1133740848387E085830BC0403A5A4041F480E883
S113375096E08283938382E0848383E08583A683D7
S1133760B783CD01019680879187039682879387DB
S11337702581C281D3814C8181E090E0BC0102C0EB
S1133780660F771F2A95E2F79B01242B2C83258152
S1133790C281D3814881BC0102C0660F771F2A957C
S11337A0E2F79B01242B28833481C281D3812881B1
S11337B002C0880F991F3A95E2F78095909582236D
S11337C0888380E113968C93139783E015968C93EA
S11337D0159780EF17968C93179781E216968C9322
S11337E0169788E114968C9380E8858780E4868711
S11337F080E284870680F781E02D80818081DF91DB
S1133800CF91089581E0089580E090E0089580E0EC
S1133810089508950895FC0187ED90E280839183D3
S11338208AE08283138283E085831482168217825E
S113383008950F931F93CF93DF938C01FB01DC0159
S113384014968C91811104C06081611117C023C04A
S1133850D80114961C92EB01219664916623D9F049
S1133860D801ED91FC910280F381E02DC8011995F6
S1133870FE01649121966111F3CF0DC0EF012196F1
S1133880D801ED91FC910280F381E02DC8011995D6
S113389069916111F5CFDF91CF911F910F91089537
S11338A0CF93DF93EC01862F90E08B309105D8F510
S11338B0FC018827E250FF4F8F4F0C94B62382E01F
S11338C08A8331C088E08A832EC08AE08A832BC031
S11338D080E18A8328C081E08B8325C01B8223C0BA
S11338E0E881F9810280F381E02D6DE0CE01199524
S11338F0E881F9810280F381E02D6AE0CE01199517
S113390012C0E881F9810284F385E02DCE01199576
S11339100AC0E881F9810084F185E02DCE01199572
S113392002C081E08C83CE01DF91CF910895FF9294
S11339300F931F93CF93DF93CDB7DEB76197CDBFBE
S1133940DEBF8C01F62E972FF8014281403121F021
S1133950483011F0423041F4692FC8010E940D1D16
S11339606F2D0E940D1D0DC050E0BE016F5F7F4F93
S11339708F2D0E942524BE016F5F7F4FC8010E94D6
S1133980191CC8016196CDBFDEBFDF91CF911F9195
S11339900F91FF900895DF92EF92FF920F931F9380
S11339A0CF93DF93CDB7DEB7A197CDBFDEBF8C0138
S11339B0D42EE52EF62E972FF8012281203121F006
S11339C0283011F0223071F4692FC8010E940D1DB6
S11339D06F2D0E940D1D6E2D0E940D1D6D2D0E94D8
S11339E00D1D0FC030E0AE014F5F5F4F6D2D7E2D7A
S11339F08F2D0E94F823BE016F5F7F4FC8010E9484
S1133A00191CC801A196CDBFDEBFDF91CF911F91D4
S1133A100F91FF90EF90DF900895CF92DF92EF9295
S1133A20FF920F931F93CF93DF93CDB7DEB7299700
S1133A30CDBFDEBF8C01E62EDC0113968C9113976B
S1133A40882341F0ED91FC910280F381E02DC801BF
S1133A50199556C0F8014281423019F56894CC2476
S1133A60C3F8D12C6894FF24F7F88E2D8F2151F0E0
S1133A70D801ED91FC910280F381E02D61E3C8014E
S1133A80199509C0D801ED91FC910280F381E02DD4
S1133A9060E3C8011995F694B1E0CB1AD10829F76F
S1133AA02FC04031F9F462956F700190F081E02DE0
S1133AB00280F381E02D6A3010F0695C01C0605D22
S1133AC0C80119956E2D6F70D801ED91FC9102809B
S1133AD0F381E02D6A3010F0695C01C0605DC801BB
S1133AE019950EC050E0BE016F5F7F4F8E2D90E0A0
S1133AF00E942524BE016F5F7F4FC8010E94191CDC
S1133B00C8012996CDBFDEBFDF91CF911F910F91E0
S1133B10FF90EF90DF90CF900895DC015096ED91E7
S1133B20FC915197808154964C915497842329F0A9
S1133B3009C02150310919F412C021E23EE49081F8
S1133B409423B9F3908156968C915697892B808350
S1133B501E96ED91FC911F97608381E0089580E0AB
S1133B600895CF93DF93FC01C18DD28D28813981D3
S1133B70A38DB48D4D915C9124173507E9F3A78982
S1133B80B08D0D90BC91A02DA20FB31F8C912F5F0F
S1133B903F4F288339832436310528F0018CF28D78
S1133BA0E02D1082118290E0DF91CF910895CF93A0
S1133BB0DF93EC01A98DBA8DEB8DFC8D81E04D91E5
S1133BC05C91208131814217530709F480E0DF9131
S1133BD0CF910895DC01ED91FC910280F381E02DF9
S1133BE06CE019950895EF92FF920F931F93CF9372
S1133BF0DF93EC017B018A010E940B1CA801B70131
S1133C00CE0108960E946C1B87EE90E2888399830C
S1133C10003A88E0180769F480EF91E38F8B988F5E
S1133C2086EE91E3898F9A8F8CED91E38B8F9C8F35
S1133C3042C0003BE8E01E0769F48EEE91E38F8BEF
S1133C40988F84EE91E3898F9A8F8AED91E38B8F1D
S1133C509C8F31C0003AF9E01F0769F48CEE91E3C0
S1133C608F8B988F82EE91E3898F9A8F88ED91E301
S1133C708B8F9C8F20C0003B89E0180769F48AEE83
S1133C8091E38F8B988F80EE91E3898F9A8F86EDE5
S1133C9091E38B8F9C8F0FC0003A1A4061F488EE39
S1133CA091E38F8B988F8EED91E3898F9A8F84EDBA
S1133CB091E38B8F9C8F0F89188D84E690E00E948E
S1133CC0681BF80180839183E98DFA8D108211823B
S1133CD0EB8DFC8D10821182DF91CF911F910F919A
S1133CE0FF90EF9008951F920F920FB60F92112438
S1133CF008B60F9218BE0BB60F921BBE2F933F93BC
S1133D008F939F93EF93FF932091A008E091F0315C
S1133D10F091F1318091DC319091DD31E80FF91FA0
S1133D2020838091DC319091DD31019684369105B8
S1133D3060F48093DC319093DD312091E631309151
S1133D40E73182179307F1F40CC01092DC31109222
S1133D50DD318091E6319091E7311816190691F41E
S1133D600EC001968436910528F48093E631909331
S1133D70E73108C01092E6311092E73103C081E0C8
S1133D8090E0F3CFFF91EF919F918F913F912F910D
S1133D900F900BBE0F9008BE0F900FBE0F901F9098
S1133DA018951F920F920FB60F92112408B60F9216
S1133DB018BE0BB60F921BBE2F933F938F939F9306
S1133DC0EF93FF932091B008E091EE31F091EF3141
S1133DD08091DA319091DB31E80FF91F20838091D3
S1133DE0DA319091DB3101968436910560F4809349
S1133DF0DA319093DB312091E4313091E53182174F
S1133E009307F1F40CC01092DA311092DB318091F7
S1133E10E4319091E5311816190691F40EC001961B
S1133E208436910528F48093E4319093E53108C0F9
S1133E301092E4311092E53103C081E090E0F3CFB9
S1133E40FF91EF919F918F913F912F910F900BBE16
S1133E500F9008BE0F900FBE0F901F9018951F92E1
S1133E600F920FB60F92112408B60F9218BE0BB61C
S1133E700F921BBE2F933F938F939F93EF93FF93C8
S1133E802091A009E091EC31F091ED318091DC3189
S1133E909091DD31E80FF91F20838091D831909102
S1133EA0D93101968436910560F48093D83190938A
S1133EB0D9312091E2313091E33182179307F1F443
S1133EC00CC01092D8311092D9318091E231909186
S1133ED0E3311816190691F40EC001968436910543
S1133EE028F48093E2319093E33108C01092E231D8
S1133EF01092E33103C081E090E0F3CFFF91EF91A2
S1133F009F918F913F912F910F900BBE0F9008BE00
S1133F100F900FBE0F901F9018951F920F920FB61F
S1133F200F92112408B60F9218BE0BB60F921BBE47
S1133F302F933F938F939F93EF93FF932091B00917
S1133F40E091EA31F091EB318091D6319091D73103
S1133F50E80FF91F20838091D6319091D7310196D3
S1133F608436910560F48093D6319093D7312091B3
S1133F70E0313091E13182179307F1F40CC01092D3
S1133F80D6311092D7318091E0319091E1311816F9
S1133F90190691F40EC001968436910528F4809395
S1133FA0E0319093E13108C01092E0311092E13198
S1133FB003C081E090E0F3CFFF91EF919F918F9147
S1133FC03F912F910F900BBE0F9008BE0F900FBE24
S1133FD00F901F9018951F920F920FB60F921124F5
S1133FE008B60F9218BE0BB60F921BBE2F933F93C9
S1133FF08F939F93EF93FF932091A00AE091E83170
S1134000F091E9318091D4319091D531E80FF91FC5
S113401020838091D4319091D531019684369105D5
S113402060F48093D4319093D5312091DE31309176
S1134030DF3182179307F1F40CC01092D43110923F
S1134040D5318091DE319091DF311816190691F443
S11340500EC001968436910528F48093DE31909346
S1134060DF3108C01092DE311092DF3103C081E0ED
S113407090E0F3CFFF91EF919F918F913F912F911A
S11340800F900BBE0F9008BE0F900FBE0F901F90A5
S11340901895FC01848195810E947B1190E008951C
S11340A0FC01848195810E947B1191E0811101C002
S11340B090E0892F0895FC01848195810E947B11F1
S11340C091E0811190E0892F0895FC01848195810C
S11340D00E947B1190E00895FC01848195810E94E7
S11340E07B1191E0811101C090E0892F0895FC01BA
S11340F0848195810E947B1191E0811190E0892F48
S11341000895FC01848195810E94731190E00895C3
S1134110FC01848195810E94731191E0811101C099
S113412090E0892F0895FC01848195810E94731188
S113413091E0811190E0892F0895FC01848195819B
S11341400E94731190E00895FC01848195810E947E
S1134150731191E0811101C090E0892F0895FC0151
S1134160848195810E94731191E0811190E0892FDF
S113417008950F9301E02FEF3FEFA901FC01848123
S113418095810E9482100F9108950F93CF93DF932E
S11341901F921F92CDB7DEB701E02FEF3FEFA901C9
S11341A0BE016F5F7F4FFC01848195810E94821064
S11341B089819A810F900F90DF91CF910F9108958B
S11341C00F9300E02FEF3FEFA901FC01848195815B
S11341D00E9482100F9108950F93CF93DF931F9243
S11341E01F92CDB7DEB700E02FEF3FEFA901BE016C
S11341F06F5F7F4FFC01848195810E9482108981C9
S11342009A810F900F90DF91CF910F9108950F93A2
S113421001E02FEF3FEFA901FC01848195810E9409
S113422082100F9108950F93CF93DF931F921F92E3
S1134230CDB7DEB701E02FEF3FEFA901BE016F5FFD
S11342407F4FFC01848195810E94821089819A812B
S11342500F900F90DF91CF910F9108950F9300E08D
S11342602FEF3FEFA901FC01848195810E94821008
S11342700F9108950F93CF93DF931F921F92CDB7A1
S1134280DEB700E02FEF3FEFA901BE016F5F7F4F64
S1134290FC01848195810E94821089819A810F900A
S11342A00F90DF91CF910F910895CF93DF931F92D9
S11342B0CDB7DEB7AE014F5F5F4FFC0184819581BE
S11342C00E9446110F90DF91CF910895CF93DF9311
S11342D000D0CDB7DEB7AE014D5F5F4FBE016F5F5B
S11342E07F4FFC01848195810E94461189819A81C6
S11342F02396CDBFDEBFDF91CF910895CF93DF9397
S11343001F92CDB7DEB7AE014F5F5F4FFC018481D2
S113431095810E9446110F90DF91CF910895CF931C
S1134320DF9300D0CDB7DEB7AE014D5F5F4FBE0166
S11343306F5F7F4FFC01848195810E9446118981C2
S11343409A812396CDBFDEBFDF91CF910895CF939D
S1134350DF931F92CDB7DEB7198221E0AE014F5F24
S11343605F4FFC01848195810E94561091E0811178
S113437001C090E0892F0F90DF91CF910895CF93E2
S1134380DF931F92CDB7DEB7198220E0AE014F5FF5
S11343905F4FFC01848195810E94561091E0811148
S11343A001C090E0892F0F90DF91CF910895CF93B2
S11343B0DF931F92CDB7DEB7198221E0AE014F5FC4
S11343C05F4FFC01848195810E94561091E0811118
S11343D001C090E0892F0F90DF91CF910895CF9382
S11343E0DF931F92CDB7DEB7198220E0AE014F5F95
S11343F05F4FFC01848195810E94561091E08111E8
S113440001C090E0892F0F90DF91CF9108950F9311
S1134410FC01268137814085518501E084819581A5
S11344200E94BB0F91E0811101C090E0892F0F9190
S113443008950F93FC01268137814085518500E062
S1134440848195810E94BB0F91E0811101C090E0AD
S1134450892F0F9108950F93FC01268137814085A0
S1134460518501E0848195810E94BB0F91E0811107
S113447001C090E0892F0F9108950F93FC012681CC
S113448037814085518500E0848195810E94BB0F6E
S113449091E0811101C090E0892F0F9108950F934D
S11344A0CF93DF931F92CDB7DEB72FB72983F8944C
S11344B01BBEFC0108ED04BF608389818FBF0F9090
S11344C0DF91CF910F910895EF92FF920F931F9375
S11344D0CF93DF93CDB7DEB7C354D109CDBFDEBFD1
S11344E0F894E0E5F0E0808182608083818181FF3F
S11344F0FDCF60914000687F616080E490E00E949D
S11345004F22E0E5F0E080818E7F80839DEF88ED8F
S113451008B618BE84BF9093800008BE40EA5AE0F3
S113452060E070E0CE0101960E94F31D67E0CE01C9
S113453001960E94501C8C0163EF70E20E94191CCA
S113454066E0C8010E94501C66E00E94501C20E3F3
S113455032EF40E050E060EA74E0CE014E960E94F3
S11345609F06BE01625E7F4FCE01C5960E9405087C
S113457082E190E00E94651B8E010F5F1F4F20E8CF
S113458030E040E062E171E20E94370988E190E0A6
S11345900E94651B9E012B5C3F4F790120E830E0AF
S11345A042E06AE171E20E941A0987E08093A20066
S11345B078940E94E41280E090E0CD5BDF4FCDBFA1
S11345C0DEBFDF91CF911F910F91FF90EF9008957F
S11345D0CF92DF92EF92FF920F931F93CF93DF93CB
S11345E00AE010E020E030E040E050E060E270E0FB
S11345F084E292E30E94D119CAE1D2E31A821B82B7
S113460084E291E28883998340E062E08FEF0E9424
S11346108D0F8C839D830F2EFAE0CF2ED12CE12CAD
S1134620F12CF02DCE82DF82E886F986C0E1D2E358
S11346301A821B8208E411E20883198340E062E0D5
S11346408FEF0E948D0F8C839D83CE82DF82E8865C
S1134650F986C6E0D2E31A821B820883198340E0FC
S113466062E08FEF0E948D0F8C839D83CE82DF8268
S1134670E886F986CCEFD1E31A821B82088319837A
S113468040E062E08FEF0E948D0F8C839D83CE8289
S1134690DF82E886F986C2EFD1E31A821B8208839F
S11346A0198340E062E08FEF0E948D0F8C839D831D
S11346B0CE82DF82E886F986DF91CF911F910F9138
S11346C0FF90EF90DF90CF900895DB018F939F933D
S11346D00E94BF23BF91AF91A29F800D911DA39F04
S11346E0900DB29F900D11240895A1E21A2EAA1BD9
S11346F0BB1BFD010DC0AA1FBB1FEE1FFF1FA2178E
S1134700B307E407F50720F0A21BB30BE40BF50B8A
S1134710661F771F881F991F1A9469F76095709513
S1134720809590959B01AC01BD01CF010895052EA4
S113473097FB1EF400940E94AE2357FD07D00E94FD
S1134740752307FC03D04EF40C94AE23509540958A
S1134750309521953F4F4F4F5F4F08959095809529
S1134760709561957F4F8F4F9F4F0895EE0FFF1FF8
S1134770881F8BBF0790F691E02D1BBE19940E94F1
S1134780CA23A59F900DB49F900DA49F800D911DE9
S113479011240895A29FB001B39FC001A39F700D7F
S11347A0811D1124911DB29F700D811D1124911D35
S11347B00895FB01DC0102C001900D92415050406C
S11347C0D8F70895DC0101C06D9341505040E0F7E3
S11347D00895FB01DC014150504048F001900D92D6
S11347E00020C9F701C01D9241505040E0F70895E0
S11347F02532310520F4223010F00C940324FA0100
S11348001082CA010895BB27FA01A62F6217710509
S113481081059105330B30FB66F0AA27660F771FDD
S1134820881F991FAA1FA21710F0A21B6395385066
S1134830A9F7A05DAA3308F0A95DA19336F7B111D9
S1134840B1931082CA010C944A244532510520F4D4
S1134850423010F00C943024FB011082CB010895F7
S1134860BB27FB015527AA27880F991FAA1FA41746
S113487010F0A41B83955051B9F7A05DAA3308F03A
S1134880A95DA193009779F7B111B1931192CB016E
S11348900C944A24DC01FC01672F71917723E1F722
S11348A0329704C07C916D9370836291AE17BF07F9
S10B48B0C8F30895F894FFCF4A
S11348B8FF0FFFFFFFFF000000007D039203BD030D
S11348C85B03660300000000F803000000001704FF
S11348D80000000048040000000079040000000003
S11348E8A90400000000CF0400000000EC0400004C
S11348F80000E40400000000E80400000000F307DE
S1134908C907E107B107710765079A0789074D07C2
S1134918410737071B072C0710072507090700005D
S11349280000F307C907E107B107710765079A078C
S113493889074D07410737071B072C071007250769
S11349480907000000006B1B6B1B6B1B6B1B6B1BAD
S113495800000000FC0600000000DC08401800000D
S113496800007A0A401849444C4500000000006BD6
S11349781B401800000000021CB319A8198A190961
S11349881C0A1C00000000021C6B1B071C041C09E9
S11349981C0A1C00000000021C8D1DD71DB11D0936
S11349A81CEA1D4672656552544F5320586D65675D
S11349B8612054657374696E672050726F67726101
S11349C86D0055736572496E7400536F6E617200A1
S11349D8000000001922BF210722A721EC20E020B3
S11349E866215521C520B92093205B2088205020BA
S11349F881204920000000003D22EF212B22D721ED
S1134A083A212E218F217E2113210721AF207720DF
S10B4A18A4206C209D20652000
S9030000FC
